{
  "contractName": "CanvasAuction",
  "abi": [
    {
      "inputs": [
        {
          "internalType": "address",
          "name": "_cbd",
          "type": "address"
        },
        {
          "internalType": "uint256",
          "name": "_canvasPrice",
          "type": "uint256"
        },
        {
          "internalType": "address",
          "name": "_periodMana",
          "type": "address"
        }
      ],
      "stateMutability": "nonpayable",
      "type": "constructor"
    },
    {
      "anonymous": false,
      "inputs": [
        {
          "indexed": true,
          "internalType": "address",
          "name": "previousGovernance",
          "type": "address"
        },
        {
          "indexed": true,
          "internalType": "address",
          "name": "newGovernance",
          "type": "address"
        }
      ],
      "name": "GovernanceTransferred",
      "type": "event"
    },
    {
      "anonymous": false,
      "inputs": [
        {
          "indexed": true,
          "internalType": "address",
          "name": "previousOwner",
          "type": "address"
        },
        {
          "indexed": true,
          "internalType": "address",
          "name": "newOwner",
          "type": "address"
        }
      ],
      "name": "OwnershipTransferred",
      "type": "event"
    },
    {
      "inputs": [],
      "name": "governance",
      "outputs": [
        {
          "internalType": "address",
          "name": "",
          "type": "address"
        }
      ],
      "stateMutability": "view",
      "type": "function",
      "constant": true
    },
    {
      "inputs": [],
      "name": "owner",
      "outputs": [
        {
          "internalType": "address",
          "name": "",
          "type": "address"
        }
      ],
      "stateMutability": "view",
      "type": "function",
      "constant": true
    },
    {
      "inputs": [],
      "name": "renounceGovernance",
      "outputs": [],
      "stateMutability": "nonpayable",
      "type": "function"
    },
    {
      "inputs": [],
      "name": "renounceOwnership",
      "outputs": [],
      "stateMutability": "nonpayable",
      "type": "function"
    },
    {
      "inputs": [
        {
          "internalType": "address",
          "name": "newGovernance",
          "type": "address"
        }
      ],
      "name": "transferGovernance",
      "outputs": [],
      "stateMutability": "nonpayable",
      "type": "function"
    },
    {
      "inputs": [
        {
          "internalType": "address",
          "name": "newOwner",
          "type": "address"
        }
      ],
      "name": "transferOwnership",
      "outputs": [],
      "stateMutability": "nonpayable",
      "type": "function"
    },
    {
      "inputs": [
        {
          "internalType": "uint16",
          "name": "_amount",
          "type": "uint16"
        }
      ],
      "name": "buy",
      "outputs": [],
      "stateMutability": "nonpayable",
      "type": "function"
    },
    {
      "inputs": [
        {
          "internalType": "address",
          "name": "_owner",
          "type": "address"
        }
      ],
      "name": "popOne",
      "outputs": [
        {
          "internalType": "bool",
          "name": "",
          "type": "bool"
        }
      ],
      "stateMutability": "nonpayable",
      "type": "function"
    },
    {
      "inputs": [
        {
          "internalType": "address",
          "name": "_owner",
          "type": "address"
        }
      ],
      "name": "getMyAmout",
      "outputs": [
        {
          "internalType": "uint256",
          "name": "",
          "type": "uint256"
        }
      ],
      "stateMutability": "view",
      "type": "function",
      "constant": true
    },
    {
      "inputs": [
        {
          "internalType": "uint256",
          "name": "_price",
          "type": "uint256"
        }
      ],
      "name": "setCanvasPrice",
      "outputs": [],
      "stateMutability": "nonpayable",
      "type": "function"
    },
    {
      "inputs": [
        {
          "internalType": "uint256",
          "name": "_validTime",
          "type": "uint256"
        }
      ],
      "name": "setValidTime",
      "outputs": [],
      "stateMutability": "nonpayable",
      "type": "function"
    },
    {
      "inputs": [
        {
          "internalType": "address",
          "name": "_cbd",
          "type": "address"
        }
      ],
      "name": "setCbd",
      "outputs": [],
      "stateMutability": "nonpayable",
      "type": "function"
    }
  ],
  "bytecode": "0x60806040523480156200001157600080fd5b50604051620022193803806200221983398181016040528101906200003791906200026a565b6000620000496200023460201b60201c565b9050806000806101000a81548173ffffffffffffffffffffffffffffffffffffffff021916908373ffffffffffffffffffffffffffffffffffffffff1602179055508073ffffffffffffffffffffffffffffffffffffffff16600073ffffffffffffffffffffffffffffffffffffffff167f8be0079c531659141344cd1fd0a4f28419497f9722a3daafe3b4186f6b6457e060405160405180910390a3506000620000f96200023460201b60201c565b905080600160006101000a81548173ffffffffffffffffffffffffffffffffffffffff021916908373ffffffffffffffffffffffffffffffffffffffff1602179055508073ffffffffffffffffffffffffffffffffffffffff16600073ffffffffffffffffffffffffffffffffffffffff167f5f56bee8cffbe9a78652a74a60705edede02af10b0bbb888ca44b79a0d42ce8060405160405180910390a35082600560006101000a81548173ffffffffffffffffffffffffffffffffffffffff021916908373ffffffffffffffffffffffffffffffffffffffff1602179055508160068190555080600760006101000a81548173ffffffffffffffffffffffffffffffffffffffff021916908373ffffffffffffffffffffffffffffffffffffffff16021790555062278d0060088190555050505062000332565b600033905090565b6000815190506200024d81620002fe565b92915050565b600081519050620002648162000318565b92915050565b6000806000606084860312156200028057600080fd5b600062000290868287016200023c565b9350506020620002a38682870162000253565b9250506040620002b6868287016200023c565b9150509250925092565b6000620002cd82620002d4565b9050919050565b600073ffffffffffffffffffffffffffffffffffffffff82169050919050565b6000819050919050565b6200030981620002c0565b81146200031557600080fd5b50565b6200032381620002f4565b81146200032f57600080fd5b50565b611ed780620003426000396000f3fe608060405234801561001057600080fd5b50600436106100b45760003560e01c80635aa6e675116100715780635aa6e67514610189578063715018a6146101a7578063758904b8146101b15780638da5cb5b146101bb578063d38bfff4146101d9578063f2fde38b146101f5576100b4565b80631eabc116146100b95780631fd7ed98146100d55780634a9d7923146101055780634c93c1e2146101215780634fb70ee71461013d5780635397118914610159575b600080fd5b6100d360048036038101906100ce9190611605565b610211565b005b6100ef60048036038101906100ea91906115b3565b610549565b6040516100fc9190611bca565b60405180910390f35b61011f600480360381019061011a91906115b3565b610720565b005b61013b60048036038101906101369190611657565b6107e0565b005b61015760048036038101906101529190611657565b610866565b005b610173600480360381019061016e91906115b3565b6108ec565b6040516101809190611a8d565b60405180910390f35b610191610c18565b60405161019e9190611a3b565b60405180910390f35b6101af610c42565b005b6101b9610d7c565b005b6101c3610eb9565b6040516101d09190611a3b565b60405180910390f35b6101f360048036038101906101ee91906115b3565b610ee2565b005b61020f600480360381019061020a91906115b3565b61108e565b005b6000600760009054906101000a900473ffffffffffffffffffffffffffffffffffffffff1673ffffffffffffffffffffffffffffffffffffffff1663a03c7fdb6040518163ffffffff1660e01b815260040160206040518083038186803b15801561027b57600080fd5b505afa15801561028f573d6000803e3d6000fd5b505050506040513d601f19601f820116820180604052508101906102b39190611680565b9050600760009054906101000a900473ffffffffffffffffffffffffffffffffffffffff1673ffffffffffffffffffffffffffffffffffffffff1663d50ff4976040518163ffffffff1660e01b815260040160206040518083038186803b15801561031d57600080fd5b505afa158015610331573d6000803e3d6000fd5b505050506040513d601f19601f82011682018060405250810190610355919061162e565b61ffff16826002600084815260200190815260200160002060009054906101000a900461ffff166103869190611c17565b61ffff16106103ca576040517f08c379a00000000000000000000000000000000000000000000000000000000081526004016103c190611b6a565b60405180910390fd5b61042a33308461ffff166006546103e19190611ca5565b600560009054906101000a900473ffffffffffffffffffffffffffffffffffffffff1673ffffffffffffffffffffffffffffffffffffffff16611237909392919063ffffffff16565b600360003373ffffffffffffffffffffffffffffffffffffffff1673ffffffffffffffffffffffffffffffffffffffff1681526020019081526020016000204290806001815401808255809150506001900390600052602060002001600090919091909150558161ffff16600460003373ffffffffffffffffffffffffffffffffffffffff1673ffffffffffffffffffffffffffffffffffffffff168152602001908152602001600020600042815260200190815260200160002060008282546104f49190611c4f565b92505081905550816002600083815260200190815260200160002060008282829054906101000a900461ffff1661052b9190611c17565b92506101000a81548161ffff021916908361ffff1602179055505050565b600080600360008473ffffffffffffffffffffffffffffffffffffffff1673ffffffffffffffffffffffffffffffffffffffff1681526020019081526020016000208054806020026020016040519081016040528092919081815260200182805480156105d557602002820191906000526020600020905b8154815260200190600101908083116105c1575b505050505090506000600854426105ec9190611cff565b90506000805b8351811015610714576000848281518110610636577f4e487b7100000000000000000000000000000000000000000000000000000000600052603260045260246000fd5b60200260200101519050838110610700576000600460003373ffffffffffffffffffffffffffffffffffffffff1673ffffffffffffffffffffffffffffffffffffffff16815260200190815260200160002060008381526020019081526020016000205411156106ff57600460003373ffffffffffffffffffffffffffffffffffffffff1673ffffffffffffffffffffffffffffffffffffffff168152602001908152602001600020600082815260200190815260200160002054836106fc9190611c4f565b92505b5b50808061070c90611dbc565b9150506105f2565b50809350505050919050565b6107286112c0565b73ffffffffffffffffffffffffffffffffffffffff16610746610eb9565b73ffffffffffffffffffffffffffffffffffffffff161461079c576040517f08c379a000000000000000000000000000000000000000000000000000000000815260040161079390611b4a565b60405180910390fd5b80600560006101000a81548173ffffffffffffffffffffffffffffffffffffffff021916908373ffffffffffffffffffffffffffffffffffffffff16021790555050565b6107e86112c0565b73ffffffffffffffffffffffffffffffffffffffff16610806610eb9565b73ffffffffffffffffffffffffffffffffffffffff161461085c576040517f08c379a000000000000000000000000000000000000000000000000000000000815260040161085390611b4a565b60405180910390fd5b8060088190555050565b61086e6112c0565b73ffffffffffffffffffffffffffffffffffffffff1661088c610eb9565b73ffffffffffffffffffffffffffffffffffffffff16146108e2576040517f08c379a00000000000000000000000000000000000000000000000000000000081526004016108d990611b4a565b60405180910390fd5b8060068190555050565b60006108f66112c0565b73ffffffffffffffffffffffffffffffffffffffff16610914610c18565b73ffffffffffffffffffffffffffffffffffffffff161461096a576040517f08c379a000000000000000000000000000000000000000000000000000000000815260040161096190611b0a565b60405180910390fd5b6000600360008473ffffffffffffffffffffffffffffffffffffffff1673ffffffffffffffffffffffffffffffffffffffff1681526020019081526020016000208054806020026020016040519081016040528092919081815260200182805480156109f557602002820191906000526020600020905b8154815260200190600101908083116109e1575b50505050509050600081511415610a10576000915050610c13565b600060085442610a209190611cff565b905060005b8251811015610c0b576000838281518110610a69577f4e487b7100000000000000000000000000000000000000000000000000000000600052603260045260246000fd5b60200260200101519050828110610bf7576000600460008873ffffffffffffffffffffffffffffffffffffffff1673ffffffffffffffffffffffffffffffffffffffff1681526020019081526020016000206000838152602001908152602001600020541115610bf6576001600460008873ffffffffffffffffffffffffffffffffffffffff1673ffffffffffffffffffffffffffffffffffffffff16815260200190815260200160002060008381526020019081526020016000206000828254610b349190611cff565b925050819055506000600460008873ffffffffffffffffffffffffffffffffffffffff1673ffffffffffffffffffffffffffffffffffffffff1681526020019081526020016000206000838152602001908152602001600020541415610be957600460008773ffffffffffffffffffffffffffffffffffffffff1673ffffffffffffffffffffffffffffffffffffffff1681526020019081526020016000206000828152602001908152602001600020600090555b6001945050505050610c13565b5b508080610c0390611dbc565b915050610a25565b506000925050505b919050565b6000600160009054906101000a900473ffffffffffffffffffffffffffffffffffffffff16905090565b610c4a6112c0565b73ffffffffffffffffffffffffffffffffffffffff16610c68610eb9565b73ffffffffffffffffffffffffffffffffffffffff1614610cbe576040517f08c379a0000000000000000000000000000000000000000000000000000000008152600401610cb590611b4a565b60405180910390fd5b600073ffffffffffffffffffffffffffffffffffffffff1660008054906101000a900473ffffffffffffffffffffffffffffffffffffffff1673ffffffffffffffffffffffffffffffffffffffff167f8be0079c531659141344cd1fd0a4f28419497f9722a3daafe3b4186f6b6457e060405160405180910390a360008060006101000a81548173ffffffffffffffffffffffffffffffffffffffff021916908373ffffffffffffffffffffffffffffffffffffffff160217905550565b610d846112c0565b73ffffffffffffffffffffffffffffffffffffffff16610da2610eb9565b73ffffffffffffffffffffffffffffffffffffffff1614610df8576040517f08c379a0000000000000000000000000000000000000000000000000000000008152600401610def90611b4a565b60405180910390fd5b600073ffffffffffffffffffffffffffffffffffffffff16600160009054906101000a900473ffffffffffffffffffffffffffffffffffffffff1673ffffffffffffffffffffffffffffffffffffffff167f5f56bee8cffbe9a78652a74a60705edede02af10b0bbb888ca44b79a0d42ce8060405160405180910390a36000600160006101000a81548173ffffffffffffffffffffffffffffffffffffffff021916908373ffffffffffffffffffffffffffffffffffffffff160217905550565b60008060009054906101000a900473ffffffffffffffffffffffffffffffffffffffff16905090565b610eea6112c0565b73ffffffffffffffffffffffffffffffffffffffff16610f08610eb9565b73ffffffffffffffffffffffffffffffffffffffff1614610f5e576040517f08c379a0000000000000000000000000000000000000000000000000000000008152600401610f5590611b4a565b60405180910390fd5b600073ffffffffffffffffffffffffffffffffffffffff168173ffffffffffffffffffffffffffffffffffffffff161415610fce576040517f08c379a0000000000000000000000000000000000000000000000000000000008152600401610fc590611b2a565b60405180910390fd5b8073ffffffffffffffffffffffffffffffffffffffff16600160009054906101000a900473ffffffffffffffffffffffffffffffffffffffff1673ffffffffffffffffffffffffffffffffffffffff167f8be0079c531659141344cd1fd0a4f28419497f9722a3daafe3b4186f6b6457e060405160405180910390a380600160006101000a81548173ffffffffffffffffffffffffffffffffffffffff021916908373ffffffffffffffffffffffffffffffffffffffff16021790555050565b6110966112c0565b73ffffffffffffffffffffffffffffffffffffffff166110b4610eb9565b73ffffffffffffffffffffffffffffffffffffffff161461110a576040517f08c379a000000000000000000000000000000000000000000000000000000000815260040161110190611b4a565b60405180910390fd5b600073ffffffffffffffffffffffffffffffffffffffff168173ffffffffffffffffffffffffffffffffffffffff16141561117a576040517f08c379a000000000000000000000000000000000000000000000000000000000815260040161117190611aca565b60405180910390fd5b8073ffffffffffffffffffffffffffffffffffffffff1660008054906101000a900473ffffffffffffffffffffffffffffffffffffffff1673ffffffffffffffffffffffffffffffffffffffff167f8be0079c531659141344cd1fd0a4f28419497f9722a3daafe3b4186f6b6457e060405160405180910390a3806000806101000a81548173ffffffffffffffffffffffffffffffffffffffff021916908373ffffffffffffffffffffffffffffffffffffffff16021790555050565b6112ba846323b872dd60e01b85858560405160240161125893929190611a56565b604051602081830303815290604052907bffffffffffffffffffffffffffffffffffffffffffffffffffffffff19166020820180517bffffffffffffffffffffffffffffffffffffffffffffffffffffffff83818316178352505050506112c8565b50505050565b600033905090565b600061132a826040518060400160405280602081526020017f5361666545524332303a206c6f772d6c6576656c2063616c6c206661696c65648152508573ffffffffffffffffffffffffffffffffffffffff1661138f9092919063ffffffff16565b905060008151111561138a578080602001905181019061134a91906115dc565b611389576040517f08c379a000000000000000000000000000000000000000000000000000000000815260040161138090611baa565b60405180910390fd5b5b505050565b606061139e84846000856113a7565b90509392505050565b6060824710156113ec576040517f08c379a00000000000000000000000000000000000000000000000000000000081526004016113e390611aea565b60405180910390fd5b6113f5856114bb565b611434576040517f08c379a000000000000000000000000000000000000000000000000000000000815260040161142b90611b8a565b60405180910390fd5b6000808673ffffffffffffffffffffffffffffffffffffffff16858760405161145d9190611a24565b60006040518083038185875af1925050503d806000811461149a576040519150601f19603f3d011682016040523d82523d6000602084013e61149f565b606091505b50915091506114af8282866114ce565b92505050949350505050565b600080823b905060008111915050919050565b606083156114de5782905061152e565b6000835111156114f15782518084602001fd5b816040517f08c379a00000000000000000000000000000000000000000000000000000000081526004016115259190611aa8565b60405180910390fd5b9392505050565b60008135905061154481611e45565b92915050565b60008151905061155981611e5c565b92915050565b60008135905061156e81611e73565b92915050565b60008151905061158381611e73565b92915050565b60008135905061159881611e8a565b92915050565b6000815190506115ad81611e8a565b92915050565b6000602082840312156115c557600080fd5b60006115d384828501611535565b91505092915050565b6000602082840312156115ee57600080fd5b60006115fc8482850161154a565b91505092915050565b60006020828403121561161757600080fd5b60006116258482850161155f565b91505092915050565b60006020828403121561164057600080fd5b600061164e84828501611574565b91505092915050565b60006020828403121561166957600080fd5b600061167784828501611589565b91505092915050565b60006020828403121561169257600080fd5b60006116a08482850161159e565b91505092915050565b6116b281611d33565b82525050565b6116c181611d45565b82525050565b60006116d282611be5565b6116dc8185611bfb565b93506116ec818560208601611d89565b80840191505092915050565b600061170382611bf0565b61170d8185611c06565b935061171d818560208601611d89565b61172681611e34565b840191505092915050565b600061173e602683611c06565b91507f4f776e61626c653a206e6577206f776e657220697320746865207a65726f206160008301527f64647265737300000000000000000000000000000000000000000000000000006020830152604082019050919050565b60006117a4602683611c06565b91507f416464726573733a20696e73756666696369656e742062616c616e636520666f60008301527f722063616c6c00000000000000000000000000000000000000000000000000006020830152604082019050919050565b600061180a602883611c06565b91507f476f7665726e616e63653a2063616c6c6572206973206e6f742074686520476f60008301527f7665726e616e63650000000000000000000000000000000000000000000000006020830152604082019050919050565b6000611870602e83611c06565b91507f476f7665726e616e63653a206e657720476f7665726e616e636520697320746860008301527f65207a65726f20616464726573730000000000000000000000000000000000006020830152604082019050919050565b60006118d6602083611c06565b91507f4f776e61626c653a2063616c6c6572206973206e6f7420746865206f776e65726000830152602082019050919050565b6000611916602f83611c06565b91507f43616e76617341756374696f6e3a205468657265206973206e6f7420656e6f7560008301527f67682063616e766173206c6566742e00000000000000000000000000000000006020830152604082019050919050565b600061197c601d83611c06565b91507f416464726573733a2063616c6c20746f206e6f6e2d636f6e74726163740000006000830152602082019050919050565b60006119bc602a83611c06565b91507f5361666545524332303a204552433230206f7065726174696f6e20646964206e60008301527f6f742073756363656564000000000000000000000000000000000000000000006020830152604082019050919050565b611a1e81611d7f565b82525050565b6000611a3082846116c7565b915081905092915050565b6000602082019050611a5060008301846116a9565b92915050565b6000606082019050611a6b60008301866116a9565b611a7860208301856116a9565b611a856040830184611a15565b949350505050565b6000602082019050611aa260008301846116b8565b92915050565b60006020820190508181036000830152611ac281846116f8565b905092915050565b60006020820190508181036000830152611ae381611731565b9050919050565b60006020820190508181036000830152611b0381611797565b9050919050565b60006020820190508181036000830152611b23816117fd565b9050919050565b60006020820190508181036000830152611b4381611863565b9050919050565b60006020820190508181036000830152611b63816118c9565b9050919050565b60006020820190508181036000830152611b8381611909565b9050919050565b60006020820190508181036000830152611ba38161196f565b9050919050565b60006020820190508181036000830152611bc3816119af565b9050919050565b6000602082019050611bdf6000830184611a15565b92915050565b600081519050919050565b600081519050919050565b600081905092915050565b600082825260208201905092915050565b6000611c2282611d51565b9150611c2d83611d51565b92508261ffff03821115611c4457611c43611e05565b5b828201905092915050565b6000611c5a82611d7f565b9150611c6583611d7f565b9250827fffffffffffffffffffffffffffffffffffffffffffffffffffffffffffffffff03821115611c9a57611c99611e05565b5b828201905092915050565b6000611cb082611d7f565b9150611cbb83611d7f565b9250817fffffffffffffffffffffffffffffffffffffffffffffffffffffffffffffffff0483118215151615611cf457611cf3611e05565b5b828202905092915050565b6000611d0a82611d7f565b9150611d1583611d7f565b925082821015611d2857611d27611e05565b5b828203905092915050565b6000611d3e82611d5f565b9050919050565b60008115159050919050565b600061ffff82169050919050565b600073ffffffffffffffffffffffffffffffffffffffff82169050919050565b6000819050919050565b60005b83811015611da7578082015181840152602081019050611d8c565b83811115611db6576000848401525b50505050565b6000611dc782611d7f565b91507fffffffffffffffffffffffffffffffffffffffffffffffffffffffffffffffff821415611dfa57611df9611e05565b5b600182019050919050565b7f4e487b7100000000000000000000000000000000000000000000000000000000600052601160045260246000fd5b6000601f19601f8301169050919050565b611e4e81611d33565b8114611e5957600080fd5b50565b611e6581611d45565b8114611e7057600080fd5b50565b611e7c81611d51565b8114611e8757600080fd5b50565b611e9381611d7f565b8114611e9e57600080fd5b5056fea2646970667358221220c096be2e24814af2b5d56e4f6562fc31728c35455e16dbd86e10617cdce99f2064736f6c63430008000033",
  "immutableReferences": {},
  "source": "// SPDX-License-Identifier: GPL-3.0\npragma solidity ^0.8.0;\n\nimport \"@openzeppelin/contracts/token/ERC20/IERC20.sol\";\nimport \"@openzeppelin/contracts/token/ERC20/utils/SafeERC20.sol\";\n\nimport \"./Governance.sol\";\nimport \"./interface/IPeriod.sol\";\nimport \"./interface/ICanvasAuction.sol\";\n\ncontract CanvasAuction is Governance, ICanvasAuction {\n\n    using SafeERC20 for IERC20;\n\n    mapping(uint => uint16) periodToAmount;\n\n    mapping(address => uint[]) private dateArrMap;\n    // owner => (date => amount)\n    mapping(address => mapping(uint => uint)) private amountMap;\n\n    IERC20 cbd;\n\n    uint canvasPrice;\n\n    IPeriod periodMana;\n\n    uint validTime;\n\n    constructor(address _cbd, uint _canvasPrice, address _periodMana) {\n        cbd = IERC20(_cbd);\n        canvasPrice = _canvasPrice;\n        periodMana = IPeriod(_periodMana);\n\n        validTime = 30 days;\n    }\n\n    function buy(uint16 _amount) override public {\n        uint currPeriod = periodMana.getCurPeriod();\n        require((periodToAmount[currPeriod] + _amount) < periodMana.getAmountPerPeriod(),\n            \"CanvasAuction: There is not enough canvas left.\");\n\n        cbd.safeTransferFrom(msg.sender, address(this), canvasPrice * _amount);\n        dateArrMap[msg.sender].push(block.timestamp);\n        amountMap[msg.sender][block.timestamp] += _amount;\n\n        periodToAmount[currPeriod] += _amount;\n    }\n\n    function popOne(address _owner) override public onlyGovernance returns(bool) {\n        uint[] memory dateArr = dateArrMap[_owner];\n        if(dateArr.length == 0) {\n            return false;\n        }\n        uint startTime = block.timestamp - validTime;\n        for(uint i = 0; i < dateArr.length; i++) {\n            uint item = dateArr[i];\n            if(item >= startTime) {\n                if(amountMap[_owner][item] > 0) {\n                    amountMap[_owner][item] -= 1;\n                    if(amountMap[_owner][item] == 0) {\n                        delete amountMap[_owner][item];\n                    }\n                    return true;\n                }\n            }\n        }\n        return false;\n    }\n\n    function getMyAmout(address _owner) override public view returns(uint) {\n        uint[] memory dateArr = dateArrMap[_owner];\n        uint startTime = block.timestamp - validTime;\n        uint amount = 0;\n        for(uint i = 0; i < dateArr.length; i++) {\n            uint item = dateArr[i];\n            if(item >= startTime) {\n                if(amountMap[msg.sender][item] > 0) {\n                    amount = amount + amountMap[msg.sender][item];\n                }\n            }\n        }\n        return amount;\n    }\n\n    function setCanvasPrice(uint _price) public onlyOwner {\n        canvasPrice = _price;\n    }\n\n    function setValidTime(uint _validTime) public onlyOwner {\n        validTime = _validTime;\n    }\n\n    function setCbd(address _cbd) public onlyOwner {\n        cbd = IERC20(_cbd);\n    }\n\n}",
  "sourcePath": "/Users/iwan/code/coinbid-cointract/contracts/6_CanvasAuction.sol",
  "compiler": {
    "name": "solc",
    "version": "0.8.0+commit.c7dfd78e.Emscripten.clang"
  },
  "schemaVersion": "3.4.1",
  "updatedAt": "2021-06-24T17:47:19.135Z",
  "networkType": "ethereum",
  "devdoc": {
    "kind": "dev",
    "methods": {
      "governance()": {
        "details": "Returns the address of the current governance."
      },
      "owner()": {
        "details": "Returns the address of the current owner."
      },
      "renounceOwnership()": {
        "details": "Leaves the contract without owner. It will not be possible to call `onlyOwner` functions anymore. Can only be called by the current owner. NOTE: Renouncing ownership will leave the contract without an owner, thereby removing any functionality that is only available to the owner."
      },
      "transferOwnership(address)": {
        "details": "Transfers ownership of the contract to a new account (`newOwner`). Can only be called by the current owner."
      }
    },
    "version": 1
  },
  "userdoc": {
    "kind": "user",
    "methods": {},
    "version": 1
  }
}