{
  "contractName": "CoinBidCreation",
  "abi": [
    {
      "inputs": [],
      "stateMutability": "nonpayable",
      "type": "constructor"
    },
    {
      "anonymous": false,
      "inputs": [
        {
          "indexed": true,
          "internalType": "address",
          "name": "owner",
          "type": "address"
        },
        {
          "indexed": true,
          "internalType": "address",
          "name": "approved",
          "type": "address"
        },
        {
          "indexed": true,
          "internalType": "uint256",
          "name": "tokenId",
          "type": "uint256"
        }
      ],
      "name": "Approval",
      "type": "event"
    },
    {
      "anonymous": false,
      "inputs": [
        {
          "indexed": true,
          "internalType": "address",
          "name": "owner",
          "type": "address"
        },
        {
          "indexed": true,
          "internalType": "address",
          "name": "operator",
          "type": "address"
        },
        {
          "indexed": false,
          "internalType": "bool",
          "name": "approved",
          "type": "bool"
        }
      ],
      "name": "ApprovalForAll",
      "type": "event"
    },
    {
      "anonymous": false,
      "inputs": [
        {
          "indexed": true,
          "internalType": "bytes32",
          "name": "role",
          "type": "bytes32"
        },
        {
          "indexed": true,
          "internalType": "bytes32",
          "name": "previousAdminRole",
          "type": "bytes32"
        },
        {
          "indexed": true,
          "internalType": "bytes32",
          "name": "newAdminRole",
          "type": "bytes32"
        }
      ],
      "name": "RoleAdminChanged",
      "type": "event"
    },
    {
      "anonymous": false,
      "inputs": [
        {
          "indexed": true,
          "internalType": "bytes32",
          "name": "role",
          "type": "bytes32"
        },
        {
          "indexed": true,
          "internalType": "address",
          "name": "account",
          "type": "address"
        },
        {
          "indexed": true,
          "internalType": "address",
          "name": "sender",
          "type": "address"
        }
      ],
      "name": "RoleGranted",
      "type": "event"
    },
    {
      "anonymous": false,
      "inputs": [
        {
          "indexed": true,
          "internalType": "bytes32",
          "name": "role",
          "type": "bytes32"
        },
        {
          "indexed": true,
          "internalType": "address",
          "name": "account",
          "type": "address"
        },
        {
          "indexed": true,
          "internalType": "address",
          "name": "sender",
          "type": "address"
        }
      ],
      "name": "RoleRevoked",
      "type": "event"
    },
    {
      "anonymous": false,
      "inputs": [
        {
          "indexed": true,
          "internalType": "address",
          "name": "from",
          "type": "address"
        },
        {
          "indexed": true,
          "internalType": "address",
          "name": "to",
          "type": "address"
        },
        {
          "indexed": true,
          "internalType": "uint256",
          "name": "tokenId",
          "type": "uint256"
        }
      ],
      "name": "Transfer",
      "type": "event"
    },
    {
      "inputs": [],
      "name": "DEFAULT_ADMIN_ROLE",
      "outputs": [
        {
          "internalType": "bytes32",
          "name": "",
          "type": "bytes32"
        }
      ],
      "stateMutability": "view",
      "type": "function",
      "constant": true
    },
    {
      "inputs": [],
      "name": "MINTER_ROLE",
      "outputs": [
        {
          "internalType": "bytes32",
          "name": "",
          "type": "bytes32"
        }
      ],
      "stateMutability": "view",
      "type": "function",
      "constant": true
    },
    {
      "inputs": [
        {
          "internalType": "address",
          "name": "to",
          "type": "address"
        },
        {
          "internalType": "uint256",
          "name": "tokenId",
          "type": "uint256"
        }
      ],
      "name": "approve",
      "outputs": [],
      "stateMutability": "nonpayable",
      "type": "function"
    },
    {
      "inputs": [
        {
          "internalType": "address",
          "name": "owner",
          "type": "address"
        }
      ],
      "name": "balanceOf",
      "outputs": [
        {
          "internalType": "uint256",
          "name": "",
          "type": "uint256"
        }
      ],
      "stateMutability": "view",
      "type": "function",
      "constant": true
    },
    {
      "inputs": [
        {
          "internalType": "uint256",
          "name": "tokenId",
          "type": "uint256"
        }
      ],
      "name": "getApproved",
      "outputs": [
        {
          "internalType": "address",
          "name": "",
          "type": "address"
        }
      ],
      "stateMutability": "view",
      "type": "function",
      "constant": true
    },
    {
      "inputs": [
        {
          "internalType": "bytes32",
          "name": "role",
          "type": "bytes32"
        }
      ],
      "name": "getRoleAdmin",
      "outputs": [
        {
          "internalType": "bytes32",
          "name": "",
          "type": "bytes32"
        }
      ],
      "stateMutability": "view",
      "type": "function",
      "constant": true
    },
    {
      "inputs": [
        {
          "internalType": "bytes32",
          "name": "role",
          "type": "bytes32"
        },
        {
          "internalType": "address",
          "name": "account",
          "type": "address"
        }
      ],
      "name": "grantRole",
      "outputs": [],
      "stateMutability": "nonpayable",
      "type": "function"
    },
    {
      "inputs": [
        {
          "internalType": "bytes32",
          "name": "role",
          "type": "bytes32"
        },
        {
          "internalType": "address",
          "name": "account",
          "type": "address"
        }
      ],
      "name": "hasRole",
      "outputs": [
        {
          "internalType": "bool",
          "name": "",
          "type": "bool"
        }
      ],
      "stateMutability": "view",
      "type": "function",
      "constant": true
    },
    {
      "inputs": [
        {
          "internalType": "address",
          "name": "owner",
          "type": "address"
        },
        {
          "internalType": "address",
          "name": "operator",
          "type": "address"
        }
      ],
      "name": "isApprovedForAll",
      "outputs": [
        {
          "internalType": "bool",
          "name": "",
          "type": "bool"
        }
      ],
      "stateMutability": "view",
      "type": "function",
      "constant": true
    },
    {
      "inputs": [],
      "name": "name",
      "outputs": [
        {
          "internalType": "string",
          "name": "",
          "type": "string"
        }
      ],
      "stateMutability": "view",
      "type": "function",
      "constant": true
    },
    {
      "inputs": [
        {
          "internalType": "uint256",
          "name": "tokenId",
          "type": "uint256"
        }
      ],
      "name": "ownerOf",
      "outputs": [
        {
          "internalType": "address",
          "name": "",
          "type": "address"
        }
      ],
      "stateMutability": "view",
      "type": "function",
      "constant": true
    },
    {
      "inputs": [
        {
          "internalType": "bytes32",
          "name": "role",
          "type": "bytes32"
        },
        {
          "internalType": "address",
          "name": "account",
          "type": "address"
        }
      ],
      "name": "renounceRole",
      "outputs": [],
      "stateMutability": "nonpayable",
      "type": "function"
    },
    {
      "inputs": [
        {
          "internalType": "bytes32",
          "name": "role",
          "type": "bytes32"
        },
        {
          "internalType": "address",
          "name": "account",
          "type": "address"
        }
      ],
      "name": "revokeRole",
      "outputs": [],
      "stateMutability": "nonpayable",
      "type": "function"
    },
    {
      "inputs": [
        {
          "internalType": "address",
          "name": "from",
          "type": "address"
        },
        {
          "internalType": "address",
          "name": "to",
          "type": "address"
        },
        {
          "internalType": "uint256",
          "name": "tokenId",
          "type": "uint256"
        }
      ],
      "name": "safeTransferFrom",
      "outputs": [],
      "stateMutability": "nonpayable",
      "type": "function"
    },
    {
      "inputs": [
        {
          "internalType": "address",
          "name": "from",
          "type": "address"
        },
        {
          "internalType": "address",
          "name": "to",
          "type": "address"
        },
        {
          "internalType": "uint256",
          "name": "tokenId",
          "type": "uint256"
        },
        {
          "internalType": "bytes",
          "name": "_data",
          "type": "bytes"
        }
      ],
      "name": "safeTransferFrom",
      "outputs": [],
      "stateMutability": "nonpayable",
      "type": "function"
    },
    {
      "inputs": [
        {
          "internalType": "address",
          "name": "operator",
          "type": "address"
        },
        {
          "internalType": "bool",
          "name": "approved",
          "type": "bool"
        }
      ],
      "name": "setApprovalForAll",
      "outputs": [],
      "stateMutability": "nonpayable",
      "type": "function"
    },
    {
      "inputs": [],
      "name": "symbol",
      "outputs": [
        {
          "internalType": "string",
          "name": "",
          "type": "string"
        }
      ],
      "stateMutability": "view",
      "type": "function",
      "constant": true
    },
    {
      "inputs": [
        {
          "internalType": "address",
          "name": "from",
          "type": "address"
        },
        {
          "internalType": "address",
          "name": "to",
          "type": "address"
        },
        {
          "internalType": "uint256",
          "name": "tokenId",
          "type": "uint256"
        }
      ],
      "name": "transferFrom",
      "outputs": [],
      "stateMutability": "nonpayable",
      "type": "function"
    },
    {
      "inputs": [
        {
          "internalType": "address",
          "name": "to",
          "type": "address"
        },
        {
          "internalType": "uint256",
          "name": "tokenId",
          "type": "uint256"
        },
        {
          "internalType": "string",
          "name": "_tokenURI",
          "type": "string"
        }
      ],
      "name": "safeMint",
      "outputs": [],
      "stateMutability": "nonpayable",
      "type": "function"
    },
    {
      "inputs": [
        {
          "internalType": "uint256",
          "name": "tokenId",
          "type": "uint256"
        }
      ],
      "name": "tokenURI",
      "outputs": [
        {
          "internalType": "string",
          "name": "",
          "type": "string"
        }
      ],
      "stateMutability": "view",
      "type": "function",
      "constant": true
    },
    {
      "inputs": [
        {
          "internalType": "bytes4",
          "name": "interfaceId",
          "type": "bytes4"
        }
      ],
      "name": "supportsInterface",
      "outputs": [
        {
          "internalType": "bool",
          "name": "",
          "type": "bool"
        }
      ],
      "stateMutability": "view",
      "type": "function",
      "constant": true
    }
  ],
  "bytecode": "0x60806040523480156200001157600080fd5b506040518060400160405280601181526020017f436f696e20426964204372656174696f6e0000000000000000000000000000008152506040518060400160405280600381526020017f43424300000000000000000000000000000000000000000000000000000000008152508160009080519060200190620000969291906200027a565b508060019080519060200190620000af9291906200027a565b505050620000c76000801b33620000ff60201b60201c565b620000f97f9f2df0fed2c77648de5860a4cc508cd0818c85b8b8a1ab4ceeef8d981c8956a633620000ff60201b60201c565b6200038f565b6200011182826200011560201b60201c565b5050565b6200012782826200020760201b60201c565b620002035760016007600084815260200190815260200160002060000160008373ffffffffffffffffffffffffffffffffffffffff1673ffffffffffffffffffffffffffffffffffffffff16815260200190815260200160002060006101000a81548160ff021916908315150217905550620001a86200027260201b60201c565b73ffffffffffffffffffffffffffffffffffffffff168173ffffffffffffffffffffffffffffffffffffffff16837f2f8788117e7eff1d82e926ec794901d17c78024a50270940304540a733656f0d60405160405180910390a45b5050565b60006007600084815260200190815260200160002060000160008373ffffffffffffffffffffffffffffffffffffffff1673ffffffffffffffffffffffffffffffffffffffff16815260200190815260200160002060009054906101000a900460ff16905092915050565b600033905090565b82805462000288906200032a565b90600052602060002090601f016020900481019282620002ac5760008555620002f8565b82601f10620002c757805160ff1916838001178555620002f8565b82800160010185558215620002f8579182015b82811115620002f7578251825591602001919060010190620002da565b5b5090506200030791906200030b565b5090565b5b80821115620003265760008160009055506001016200030c565b5090565b600060028204905060018216806200034357607f821691505b602082108114156200035a576200035962000360565b5b50919050565b7f4e487b7100000000000000000000000000000000000000000000000000000000600052602260045260246000fd5b6136bc806200039f6000396000f3fe608060405234801561001057600080fd5b50600436106101375760003560e01c806370a08231116100b8578063b88d4fde1161007c578063b88d4fde1461035e578063c87b56dd1461037a578063cd279c7c146103aa578063d5391393146103c6578063d547741f146103e4578063e985e9c51461040057610137565b806370a08231146102a657806391d14854146102d657806395d89b4114610306578063a217fddf14610324578063a22cb4651461034257610137565b8063248a9ca3116100ff578063248a9ca3146101f25780632f2ff15d1461022257806336568abe1461023e57806342842e0e1461025a5780636352211e1461027657610137565b806301ffc9a71461013c57806306fdde031461016c578063081812fc1461018a578063095ea7b3146101ba57806323b872dd146101d6575b600080fd5b610156600480360381019061015191906125e1565b610430565b6040516101639190612f14565b60405180910390f35b610174610442565b6040516101819190612f4a565b60405180910390f35b6101a4600480360381019061019f9190612633565b6104d4565b6040516101b19190612ead565b60405180910390f35b6101d460048036038101906101cf91906124d9565b610559565b005b6101f060048036038101906101eb91906123d3565b610671565b005b61020c6004803603810190610207919061257c565b6106d1565b6040516102199190612f2f565b60405180910390f35b61023c600480360381019061023791906125a5565b6106f1565b005b610258600480360381019061025391906125a5565b61071a565b005b610274600480360381019061026f91906123d3565b61079d565b005b610290600480360381019061028b9190612633565b6107bd565b60405161029d9190612ead565b60405180910390f35b6102c060048036038101906102bb919061236e565b61086f565b6040516102cd91906131ac565b60405180910390f35b6102f060048036038101906102eb91906125a5565b610927565b6040516102fd9190612f14565b60405180910390f35b61030e610992565b60405161031b9190612f4a565b60405180910390f35b61032c610a24565b6040516103399190612f2f565b60405180910390f35b61035c6004803603810190610357919061249d565b610a2b565b005b61037860048036038101906103739190612422565b610bac565b005b610394600480360381019061038f9190612633565b610c0e565b6040516103a19190612f4a565b60405180910390f35b6103c460048036038101906103bf9190612515565b610c20565b005b6103ce610c6c565b6040516103db9190612f2f565b60405180910390f35b6103fe60048036038101906103f991906125a5565b610c90565b005b61041a60048036038101906104159190612397565b610cb9565b6040516104279190612f14565b60405180910390f35b600061043b82610d4d565b9050919050565b6060600080546104519061349a565b80601f016020809104026020016040519081016040528092919081815260200182805461047d9061349a565b80156104ca5780601f1061049f576101008083540402835291602001916104ca565b820191906000526020600020905b8154815290600101906020018083116104ad57829003601f168201915b5050505050905090565b60006104df82610dc7565b61051e576040517f08c379a0000000000000000000000000000000000000000000000000000000008152600401610515906130ec565b60405180910390fd5b6004600083815260200190815260200160002060009054906101000a900473ffffffffffffffffffffffffffffffffffffffff169050919050565b6000610564826107bd565b90508073ffffffffffffffffffffffffffffffffffffffff168373ffffffffffffffffffffffffffffffffffffffff1614156105d5576040517f08c379a00000000000000000000000000000000000000000000000000000000081526004016105cc9061314c565b60405180910390fd5b8073ffffffffffffffffffffffffffffffffffffffff166105f4610e33565b73ffffffffffffffffffffffffffffffffffffffff16148061062357506106228161061d610e33565b610cb9565b5b610662576040517f08c379a00000000000000000000000000000000000000000000000000000000081526004016106599061302c565b60405180910390fd5b61066c8383610e3b565b505050565b61068261067c610e33565b82610ef4565b6106c1576040517f08c379a00000000000000000000000000000000000000000000000000000000081526004016106b89061316c565b60405180910390fd5b6106cc838383610fd2565b505050565b600060076000838152602001908152602001600020600101549050919050565b6106fa826106d1565b61070b81610706610e33565b61122e565b61071583836112cb565b505050565b610722610e33565b73ffffffffffffffffffffffffffffffffffffffff168173ffffffffffffffffffffffffffffffffffffffff161461078f576040517f08c379a00000000000000000000000000000000000000000000000000000000081526004016107869061318c565b60405180910390fd5b61079982826113ac565b5050565b6107b883838360405180602001604052806000815250610bac565b505050565b6000806002600084815260200190815260200160002060009054906101000a900473ffffffffffffffffffffffffffffffffffffffff169050600073ffffffffffffffffffffffffffffffffffffffff168173ffffffffffffffffffffffffffffffffffffffff161415610866576040517f08c379a000000000000000000000000000000000000000000000000000000000815260040161085d9061306c565b60405180910390fd5b80915050919050565b60008073ffffffffffffffffffffffffffffffffffffffff168273ffffffffffffffffffffffffffffffffffffffff1614156108e0576040517f08c379a00000000000000000000000000000000000000000000000000000000081526004016108d79061304c565b60405180910390fd5b600360008373ffffffffffffffffffffffffffffffffffffffff1673ffffffffffffffffffffffffffffffffffffffff168152602001908152602001600020549050919050565b60006007600084815260200190815260200160002060000160008373ffffffffffffffffffffffffffffffffffffffff1673ffffffffffffffffffffffffffffffffffffffff16815260200190815260200160002060009054906101000a900460ff16905092915050565b6060600180546109a19061349a565b80601f01602080910402602001604051908101604052809291908181526020018280546109cd9061349a565b8015610a1a5780601f106109ef57610100808354040283529160200191610a1a565b820191906000526020600020905b8154815290600101906020018083116109fd57829003601f168201915b5050505050905090565b6000801b81565b610a33610e33565b73ffffffffffffffffffffffffffffffffffffffff168273ffffffffffffffffffffffffffffffffffffffff161415610aa1576040517f08c379a0000000000000000000000000000000000000000000000000000000008152600401610a9890612fec565b60405180910390fd5b8060056000610aae610e33565b73ffffffffffffffffffffffffffffffffffffffff1673ffffffffffffffffffffffffffffffffffffffff16815260200190815260200160002060008473ffffffffffffffffffffffffffffffffffffffff1673ffffffffffffffffffffffffffffffffffffffff16815260200190815260200160002060006101000a81548160ff0219169083151502179055508173ffffffffffffffffffffffffffffffffffffffff16610b5b610e33565b73ffffffffffffffffffffffffffffffffffffffff167f17307eab39ab6107e8899845ad3d59bd9653f200f220920489ca2b5937696c3183604051610ba09190612f14565b60405180910390a35050565b610bbd610bb7610e33565b83610ef4565b610bfc576040517f08c379a0000000000000000000000000000000000000000000000000000000008152600401610bf39061316c565b60405180910390fd5b610c088484848461148e565b50505050565b6060610c19826114ea565b9050919050565b610c4a7f9f2df0fed2c77648de5860a4cc508cd0818c85b8b8a1ab4ceeef8d981c8956a633610927565b610c5357600080fd5b610c5d838361163c565b610c67828261165a565b505050565b7f9f2df0fed2c77648de5860a4cc508cd0818c85b8b8a1ab4ceeef8d981c8956a681565b610c99826106d1565b610caa81610ca5610e33565b61122e565b610cb483836113ac565b505050565b6000600560008473ffffffffffffffffffffffffffffffffffffffff1673ffffffffffffffffffffffffffffffffffffffff16815260200190815260200160002060008373ffffffffffffffffffffffffffffffffffffffff1673ffffffffffffffffffffffffffffffffffffffff16815260200190815260200160002060009054906101000a900460ff16905092915050565b60007f7965db0b000000000000000000000000000000000000000000000000000000007bffffffffffffffffffffffffffffffffffffffffffffffffffffffff1916827bffffffffffffffffffffffffffffffffffffffffffffffffffffffff19161480610dc05750610dbf826116ce565b5b9050919050565b60008073ffffffffffffffffffffffffffffffffffffffff166002600084815260200190815260200160002060009054906101000a900473ffffffffffffffffffffffffffffffffffffffff1673ffffffffffffffffffffffffffffffffffffffff1614159050919050565b600033905090565b816004600083815260200190815260200160002060006101000a81548173ffffffffffffffffffffffffffffffffffffffff021916908373ffffffffffffffffffffffffffffffffffffffff160217905550808273ffffffffffffffffffffffffffffffffffffffff16610eae836107bd565b73ffffffffffffffffffffffffffffffffffffffff167f8c5be1e5ebec7d5bd14f71427d1e84f3dd0314c0f7b2291e5b200ac8c7c3b92560405160405180910390a45050565b6000610eff82610dc7565b610f3e576040517f08c379a0000000000000000000000000000000000000000000000000000000008152600401610f359061300c565b60405180910390fd5b6000610f49836107bd565b90508073ffffffffffffffffffffffffffffffffffffffff168473ffffffffffffffffffffffffffffffffffffffff161480610fb857508373ffffffffffffffffffffffffffffffffffffffff16610fa0846104d4565b73ffffffffffffffffffffffffffffffffffffffff16145b80610fc95750610fc88185610cb9565b5b91505092915050565b8273ffffffffffffffffffffffffffffffffffffffff16610ff2826107bd565b73ffffffffffffffffffffffffffffffffffffffff1614611048576040517f08c379a000000000000000000000000000000000000000000000000000000000815260040161103f9061310c565b60405180910390fd5b600073ffffffffffffffffffffffffffffffffffffffff168273ffffffffffffffffffffffffffffffffffffffff1614156110b8576040517f08c379a00000000000000000000000000000000000000000000000000000000081526004016110af90612fcc565b60405180910390fd5b6110c38383836117b0565b6110ce600082610e3b565b6001600360008573ffffffffffffffffffffffffffffffffffffffff1673ffffffffffffffffffffffffffffffffffffffff168152602001908152602001600020600082825461111e919061337c565b925050819055506001600360008473ffffffffffffffffffffffffffffffffffffffff1673ffffffffffffffffffffffffffffffffffffffff1681526020019081526020016000206000828254611175919061329b565b92505081905550816002600083815260200190815260200160002060006101000a81548173ffffffffffffffffffffffffffffffffffffffff021916908373ffffffffffffffffffffffffffffffffffffffff160217905550808273ffffffffffffffffffffffffffffffffffffffff168473ffffffffffffffffffffffffffffffffffffffff167fddf252ad1be2c89b69c2b068fc378daa952ba7f163c4a11628f55a4df523b3ef60405160405180910390a4505050565b6112388282610927565b6112c75761125d8173ffffffffffffffffffffffffffffffffffffffff1660146117b5565b61126b8360001c60206117b5565b60405160200161127c929190612e73565b6040516020818303038152906040526040517f08c379a00000000000000000000000000000000000000000000000000000000081526004016112be9190612f4a565b60405180910390fd5b5050565b6112d58282610927565b6113a85760016007600084815260200190815260200160002060000160008373ffffffffffffffffffffffffffffffffffffffff1673ffffffffffffffffffffffffffffffffffffffff16815260200190815260200160002060006101000a81548160ff02191690831515021790555061134d610e33565b73ffffffffffffffffffffffffffffffffffffffff168173ffffffffffffffffffffffffffffffffffffffff16837f2f8788117e7eff1d82e926ec794901d17c78024a50270940304540a733656f0d60405160405180910390a45b5050565b6113b68282610927565b1561148a5760006007600084815260200190815260200160002060000160008373ffffffffffffffffffffffffffffffffffffffff1673ffffffffffffffffffffffffffffffffffffffff16815260200190815260200160002060006101000a81548160ff02191690831515021790555061142f610e33565b73ffffffffffffffffffffffffffffffffffffffff168173ffffffffffffffffffffffffffffffffffffffff16837ff6391f5c32d9c69d2a47ea670b442974b53935d1edc7fd64eb21e047a839171b60405160405180910390a45b5050565b611499848484610fd2565b6114a584848484611aaf565b6114e4576040517f08c379a00000000000000000000000000000000000000000000000000000000081526004016114db90612f8c565b60405180910390fd5b50505050565b60606114f582610dc7565b611534576040517f08c379a000000000000000000000000000000000000000000000000000000000815260040161152b906130cc565b60405180910390fd5b60006006600084815260200190815260200160002080546115549061349a565b80601f01602080910402602001604051908101604052809291908181526020018280546115809061349a565b80156115cd5780601f106115a2576101008083540402835291602001916115cd565b820191906000526020600020905b8154815290600101906020018083116115b057829003601f168201915b5050505050905060006115de611c46565b90506000815114156115f4578192505050611637565b600082511115611629578082604051602001611611929190612e4f565b60405160208183030381529060405292505050611637565b61163284611c83565b925050505b919050565b611656828260405180602001604052806000815250611d2a565b5050565b61166382610dc7565b6116a2576040517f08c379a00000000000000000000000000000000000000000000000000000000081526004016116999061308c565b60405180910390fd5b806006600084815260200190815260200160002090805190602001906116c992919061217d565b505050565b60007f80ac58cd000000000000000000000000000000000000000000000000000000007bffffffffffffffffffffffffffffffffffffffffffffffffffffffff1916827bffffffffffffffffffffffffffffffffffffffffffffffffffffffff1916148061179957507f5b5e139f000000000000000000000000000000000000000000000000000000007bffffffffffffffffffffffffffffffffffffffffffffffffffffffff1916827bffffffffffffffffffffffffffffffffffffffffffffffffffffffff1916145b806117a957506117a882611d85565b5b9050919050565b505050565b6060600060028360026117c89190613322565b6117d2919061329b565b67ffffffffffffffff811115611811577f4e487b7100000000000000000000000000000000000000000000000000000000600052604160045260246000fd5b6040519080825280601f01601f1916602001820160405280156118435781602001600182028036833780820191505090505b5090507f3000000000000000000000000000000000000000000000000000000000000000816000815181106118a1577f4e487b7100000000000000000000000000000000000000000000000000000000600052603260045260246000fd5b60200101907effffffffffffffffffffffffffffffffffffffffffffffffffffffffffffff1916908160001a9053507f78000000000000000000000000000000000000000000000000000000000000008160018151811061192b577f4e487b7100000000000000000000000000000000000000000000000000000000600052603260045260246000fd5b60200101907effffffffffffffffffffffffffffffffffffffffffffffffffffffffffffff1916908160001a9053506000600184600261196b9190613322565b611975919061329b565b90505b6001811115611a61577f3031323334353637383961626364656600000000000000000000000000000000600f8616601081106119dd577f4e487b7100000000000000000000000000000000000000000000000000000000600052603260045260246000fd5b1a60f81b828281518110611a1a577f4e487b7100000000000000000000000000000000000000000000000000000000600052603260045260246000fd5b60200101907effffffffffffffffffffffffffffffffffffffffffffffffffffffffffffff1916908160001a905350600485901c945080611a5a90613470565b9050611978565b5060008414611aa5576040517f08c379a0000000000000000000000000000000000000000000000000000000008152600401611a9c90612f6c565b60405180910390fd5b8091505092915050565b6000611ad08473ffffffffffffffffffffffffffffffffffffffff16611def565b15611c39578373ffffffffffffffffffffffffffffffffffffffff1663150b7a02611af9610e33565b8786866040518563ffffffff1660e01b8152600401611b1b9493929190612ec8565b602060405180830381600087803b158015611b3557600080fd5b505af1925050508015611b6657506040513d601f19601f82011682018060405250810190611b63919061260a565b60015b611be9573d8060008114611b96576040519150601f19603f3d011682016040523d82523d6000602084013e611b9b565b606091505b50600081511415611be1576040517f08c379a0000000000000000000000000000000000000000000000000000000008152600401611bd890612f8c565b60405180910390fd5b805181602001fd5b63150b7a0260e01b7bffffffffffffffffffffffffffffffffffffffffffffffffffffffff1916817bffffffffffffffffffffffffffffffffffffffffffffffffffffffff191614915050611c3e565b600190505b949350505050565b60606040518060400160405280601581526020017f68747470733a2f2f697066732e696f2f697066732f0000000000000000000000815250905090565b6060611c8e82610dc7565b611ccd576040517f08c379a0000000000000000000000000000000000000000000000000000000008152600401611cc49061312c565b60405180910390fd5b6000611cd7611c46565b90506000815111611cf75760405180602001604052806000815250611d22565b80611d0184611e02565b604051602001611d12929190612e4f565b6040516020818303038152906040525b915050919050565b611d348383611faf565b611d416000848484611aaf565b611d80576040517f08c379a0000000000000000000000000000000000000000000000000000000008152600401611d7790612f8c565b60405180910390fd5b505050565b60007f01ffc9a7000000000000000000000000000000000000000000000000000000007bffffffffffffffffffffffffffffffffffffffffffffffffffffffff1916827bffffffffffffffffffffffffffffffffffffffffffffffffffffffff1916149050919050565b600080823b905060008111915050919050565b60606000821415611e4a576040518060400160405280600181526020017f30000000000000000000000000000000000000000000000000000000000000008152509050611faa565b600082905060005b60008214611e7c578080611e65906134cc565b915050600a82611e7591906132f1565b9150611e52565b60008167ffffffffffffffff811115611ebe577f4e487b7100000000000000000000000000000000000000000000000000000000600052604160045260246000fd5b6040519080825280601f01601f191660200182016040528015611ef05781602001600182028036833780820191505090505b5090505b60008514611fa357600182611f09919061337c565b9150600a85611f189190613515565b6030611f24919061329b565b60f81b818381518110611f60577f4e487b7100000000000000000000000000000000000000000000000000000000600052603260045260246000fd5b60200101907effffffffffffffffffffffffffffffffffffffffffffffffffffffffffffff1916908160001a905350600a85611f9c91906132f1565b9450611ef4565b8093505050505b919050565b600073ffffffffffffffffffffffffffffffffffffffff168273ffffffffffffffffffffffffffffffffffffffff16141561201f576040517f08c379a0000000000000000000000000000000000000000000000000000000008152600401612016906130ac565b60405180910390fd5b61202881610dc7565b15612068576040517f08c379a000000000000000000000000000000000000000000000000000000000815260040161205f90612fac565b60405180910390fd5b612074600083836117b0565b6001600360008473ffffffffffffffffffffffffffffffffffffffff1673ffffffffffffffffffffffffffffffffffffffff16815260200190815260200160002060008282546120c4919061329b565b92505081905550816002600083815260200190815260200160002060006101000a81548173ffffffffffffffffffffffffffffffffffffffff021916908373ffffffffffffffffffffffffffffffffffffffff160217905550808273ffffffffffffffffffffffffffffffffffffffff16600073ffffffffffffffffffffffffffffffffffffffff167fddf252ad1be2c89b69c2b068fc378daa952ba7f163c4a11628f55a4df523b3ef60405160405180910390a45050565b8280546121899061349a565b90600052602060002090601f0160209004810192826121ab57600085556121f2565b82601f106121c457805160ff19168380011785556121f2565b828001600101855582156121f2579182015b828111156121f15782518255916020019190600101906121d6565b5b5090506121ff9190612203565b5090565b5b8082111561221c576000816000905550600101612204565b5090565b600061223361222e846131f8565b6131c7565b90508281526020810184848401111561224b57600080fd5b61225684828561342e565b509392505050565b600061227161226c84613228565b6131c7565b90508281526020810184848401111561228957600080fd5b61229484828561342e565b509392505050565b6000813590506122ab81613613565b92915050565b6000813590506122c08161362a565b92915050565b6000813590506122d581613641565b92915050565b6000813590506122ea81613658565b92915050565b6000815190506122ff81613658565b92915050565b600082601f83011261231657600080fd5b8135612326848260208601612220565b91505092915050565b600082601f83011261234057600080fd5b813561235084826020860161225e565b91505092915050565b6000813590506123688161366f565b92915050565b60006020828403121561238057600080fd5b600061238e8482850161229c565b91505092915050565b600080604083850312156123aa57600080fd5b60006123b88582860161229c565b92505060206123c98582860161229c565b9150509250929050565b6000806000606084860312156123e857600080fd5b60006123f68682870161229c565b93505060206124078682870161229c565b925050604061241886828701612359565b9150509250925092565b6000806000806080858703121561243857600080fd5b60006124468782880161229c565b94505060206124578782880161229c565b935050604061246887828801612359565b925050606085013567ffffffffffffffff81111561248557600080fd5b61249187828801612305565b91505092959194509250565b600080604083850312156124b057600080fd5b60006124be8582860161229c565b92505060206124cf858286016122b1565b9150509250929050565b600080604083850312156124ec57600080fd5b60006124fa8582860161229c565b925050602061250b85828601612359565b9150509250929050565b60008060006060848603121561252a57600080fd5b60006125388682870161229c565b935050602061254986828701612359565b925050604084013567ffffffffffffffff81111561256657600080fd5b6125728682870161232f565b9150509250925092565b60006020828403121561258e57600080fd5b600061259c848285016122c6565b91505092915050565b600080604083850312156125b857600080fd5b60006125c6858286016122c6565b92505060206125d78582860161229c565b9150509250929050565b6000602082840312156125f357600080fd5b6000612601848285016122db565b91505092915050565b60006020828403121561261c57600080fd5b600061262a848285016122f0565b91505092915050565b60006020828403121561264557600080fd5b600061265384828501612359565b91505092915050565b612665816133b0565b82525050565b612674816133c2565b82525050565b612683816133ce565b82525050565b600061269482613258565b61269e818561326e565b93506126ae81856020860161343d565b6126b781613602565b840191505092915050565b60006126cd82613263565b6126d7818561327f565b93506126e781856020860161343d565b6126f081613602565b840191505092915050565b600061270682613263565b6127108185613290565b935061272081856020860161343d565b80840191505092915050565b600061273960208361327f565b91507f537472696e67733a20686578206c656e67746820696e73756666696369656e746000830152602082019050919050565b600061277960328361327f565b91507f4552433732313a207472616e7366657220746f206e6f6e20455243373231526560008301527f63656976657220696d706c656d656e74657200000000000000000000000000006020830152604082019050919050565b60006127df601c8361327f565b91507f4552433732313a20746f6b656e20616c7265616479206d696e746564000000006000830152602082019050919050565b600061281f60248361327f565b91507f4552433732313a207472616e7366657220746f20746865207a65726f2061646460008301527f72657373000000000000000000000000000000000000000000000000000000006020830152604082019050919050565b600061288560198361327f565b91507f4552433732313a20617070726f766520746f2063616c6c6572000000000000006000830152602082019050919050565b60006128c5602c8361327f565b91507f4552433732313a206f70657261746f7220717565727920666f72206e6f6e657860008301527f697374656e7420746f6b656e00000000000000000000000000000000000000006020830152604082019050919050565b600061292b60388361327f565b91507f4552433732313a20617070726f76652063616c6c6572206973206e6f74206f7760008301527f6e6572206e6f7220617070726f76656420666f7220616c6c00000000000000006020830152604082019050919050565b6000612991602a8361327f565b91507f4552433732313a2062616c616e636520717565727920666f7220746865207a6560008301527f726f2061646472657373000000000000000000000000000000000000000000006020830152604082019050919050565b60006129f760298361327f565b91507f4552433732313a206f776e657220717565727920666f72206e6f6e657869737460008301527f656e7420746f6b656e00000000000000000000000000000000000000000000006020830152604082019050919050565b6000612a5d602e8361327f565b91507f45524337323155524953746f726167653a2055524920736574206f66206e6f6e60008301527f6578697374656e7420746f6b656e0000000000000000000000000000000000006020830152604082019050919050565b6000612ac360208361327f565b91507f4552433732313a206d696e7420746f20746865207a65726f20616464726573736000830152602082019050919050565b6000612b0360318361327f565b91507f45524337323155524953746f726167653a2055524920717565727920666f722060008301527f6e6f6e6578697374656e7420746f6b656e0000000000000000000000000000006020830152604082019050919050565b6000612b69602c8361327f565b91507f4552433732313a20617070726f76656420717565727920666f72206e6f6e657860008301527f697374656e7420746f6b656e00000000000000000000000000000000000000006020830152604082019050919050565b6000612bcf60298361327f565b91507f4552433732313a207472616e73666572206f6620746f6b656e2074686174206960008301527f73206e6f74206f776e00000000000000000000000000000000000000000000006020830152604082019050919050565b6000612c35602f8361327f565b91507f4552433732314d657461646174613a2055524920717565727920666f72206e6f60008301527f6e6578697374656e7420746f6b656e00000000000000000000000000000000006020830152604082019050919050565b6000612c9b60218361327f565b91507f4552433732313a20617070726f76616c20746f2063757272656e74206f776e6560008301527f72000000000000000000000000000000000000000000000000000000000000006020830152604082019050919050565b6000612d0160318361327f565b91507f4552433732313a207472616e736665722063616c6c6572206973206e6f74206f60008301527f776e6572206e6f7220617070726f7665640000000000000000000000000000006020830152604082019050919050565b6000612d67601783613290565b91507f416363657373436f6e74726f6c3a206163636f756e74200000000000000000006000830152601782019050919050565b6000612da7601183613290565b91507f206973206d697373696e6720726f6c65200000000000000000000000000000006000830152601182019050919050565b6000612de7602f8361327f565b91507f416363657373436f6e74726f6c3a2063616e206f6e6c792072656e6f756e636560008301527f20726f6c657320666f722073656c6600000000000000000000000000000000006020830152604082019050919050565b612e4981613424565b82525050565b6000612e5b82856126fb565b9150612e6782846126fb565b91508190509392505050565b6000612e7e82612d5a565b9150612e8a82856126fb565b9150612e9582612d9a565b9150612ea182846126fb565b91508190509392505050565b6000602082019050612ec2600083018461265c565b92915050565b6000608082019050612edd600083018761265c565b612eea602083018661265c565b612ef76040830185612e40565b8181036060830152612f098184612689565b905095945050505050565b6000602082019050612f29600083018461266b565b92915050565b6000602082019050612f44600083018461267a565b92915050565b60006020820190508181036000830152612f6481846126c2565b905092915050565b60006020820190508181036000830152612f858161272c565b9050919050565b60006020820190508181036000830152612fa58161276c565b9050919050565b60006020820190508181036000830152612fc5816127d2565b9050919050565b60006020820190508181036000830152612fe581612812565b9050919050565b6000602082019050818103600083015261300581612878565b9050919050565b60006020820190508181036000830152613025816128b8565b9050919050565b600060208201905081810360008301526130458161291e565b9050919050565b6000602082019050818103600083015261306581612984565b9050919050565b60006020820190508181036000830152613085816129ea565b9050919050565b600060208201905081810360008301526130a581612a50565b9050919050565b600060208201905081810360008301526130c581612ab6565b9050919050565b600060208201905081810360008301526130e581612af6565b9050919050565b6000602082019050818103600083015261310581612b5c565b9050919050565b6000602082019050818103600083015261312581612bc2565b9050919050565b6000602082019050818103600083015261314581612c28565b9050919050565b6000602082019050818103600083015261316581612c8e565b9050919050565b6000602082019050818103600083015261318581612cf4565b9050919050565b600060208201905081810360008301526131a581612dda565b9050919050565b60006020820190506131c16000830184612e40565b92915050565b6000604051905081810181811067ffffffffffffffff821117156131ee576131ed6135d3565b5b8060405250919050565b600067ffffffffffffffff821115613213576132126135d3565b5b601f19601f8301169050602081019050919050565b600067ffffffffffffffff821115613243576132426135d3565b5b601f19601f8301169050602081019050919050565b600081519050919050565b600081519050919050565b600082825260208201905092915050565b600082825260208201905092915050565b600081905092915050565b60006132a682613424565b91506132b183613424565b9250827fffffffffffffffffffffffffffffffffffffffffffffffffffffffffffffffff038211156132e6576132e5613546565b5b828201905092915050565b60006132fc82613424565b915061330783613424565b92508261331757613316613575565b5b828204905092915050565b600061332d82613424565b915061333883613424565b9250817fffffffffffffffffffffffffffffffffffffffffffffffffffffffffffffffff048311821515161561337157613370613546565b5b828202905092915050565b600061338782613424565b915061339283613424565b9250828210156133a5576133a4613546565b5b828203905092915050565b60006133bb82613404565b9050919050565b60008115159050919050565b6000819050919050565b60007fffffffff0000000000000000000000000000000000000000000000000000000082169050919050565b600073ffffffffffffffffffffffffffffffffffffffff82169050919050565b6000819050919050565b82818337600083830152505050565b60005b8381101561345b578082015181840152602081019050613440565b8381111561346a576000848401525b50505050565b600061347b82613424565b9150600082141561348f5761348e613546565b5b600182039050919050565b600060028204905060018216806134b257607f821691505b602082108114156134c6576134c56135a4565b5b50919050565b60006134d782613424565b91507fffffffffffffffffffffffffffffffffffffffffffffffffffffffffffffffff82141561350a57613509613546565b5b600182019050919050565b600061352082613424565b915061352b83613424565b92508261353b5761353a613575565b5b828206905092915050565b7f4e487b7100000000000000000000000000000000000000000000000000000000600052601160045260246000fd5b7f4e487b7100000000000000000000000000000000000000000000000000000000600052601260045260246000fd5b7f4e487b7100000000000000000000000000000000000000000000000000000000600052602260045260246000fd5b7f4e487b7100000000000000000000000000000000000000000000000000000000600052604160045260246000fd5b6000601f19601f8301169050919050565b61361c816133b0565b811461362757600080fd5b50565b613633816133c2565b811461363e57600080fd5b50565b61364a816133ce565b811461365557600080fd5b50565b613661816133d8565b811461366c57600080fd5b50565b61367881613424565b811461368357600080fd5b5056fea2646970667358221220db8317c90ec2751caeccbff5236f34e6bab617a34ab08e2eab4f4cb55a6d5ee164736f6c63430008000033",
  "immutableReferences": {},
  "source": "// SPDX-License-Identifier: MIT\npragma solidity ^0.8.0;\n\nimport \"@openzeppelin/contracts/token/ERC721/ERC721.sol\";\nimport \"@openzeppelin/contracts/token/ERC721/extensions/ERC721URIStorage.sol\";\nimport \"@openzeppelin/contracts/access/AccessControl.sol\";\n\ncontract CoinBidCreation is ERC721, ERC721URIStorage, AccessControl {\n    bytes32 public constant MINTER_ROLE = keccak256(\"MINTER_ROLE\");\n\n    constructor() ERC721(\"Coin Bid Creation\", \"CBC\") {\n        _setupRole(DEFAULT_ADMIN_ROLE, msg.sender);\n        _setupRole(MINTER_ROLE, msg.sender);\n    }\n\n    function safeMint(address to, uint256 tokenId, string memory _tokenURI) public {\n        require(hasRole(MINTER_ROLE, msg.sender));\n        _safeMint(to, tokenId);\n        _setTokenURI(tokenId, _tokenURI);\n    }\n\n    function _baseURI() internal pure override returns (string memory) {\n        return \"https://ipfs.io/ipfs/\";\n    }\n\n    function _burn(uint256 tokenId) internal override(ERC721, ERC721URIStorage) {\n        super._burn(tokenId);\n    }\n\n    function tokenURI(uint256 tokenId)\n        public\n        view\n        override(ERC721, ERC721URIStorage)\n        returns (string memory)\n    {\n        return super.tokenURI(tokenId);\n    }\n\n    function supportsInterface(bytes4 interfaceId)\n        public\n        view\n        override(ERC721, AccessControl)\n        returns (bool)\n    {\n        return super.supportsInterface(interfaceId);\n    }\n}\n",
  "sourcePath": "/Users/iwan/code/coinbid-cointract/contracts/3_CoinBidCreation.sol",
  "compiler": {
    "name": "solc",
    "version": "0.8.0+commit.c7dfd78e.Emscripten.clang"
  },
  "schemaVersion": "3.4.1",
  "updatedAt": "2021-06-24T17:47:19.106Z",
  "networkType": "ethereum",
  "devdoc": {
    "kind": "dev",
    "methods": {
      "approve(address,uint256)": {
        "details": "See {IERC721-approve}."
      },
      "balanceOf(address)": {
        "details": "See {IERC721-balanceOf}."
      },
      "getApproved(uint256)": {
        "details": "See {IERC721-getApproved}."
      },
      "getRoleAdmin(bytes32)": {
        "details": "Returns the admin role that controls `role`. See {grantRole} and {revokeRole}. To change a role's admin, use {_setRoleAdmin}."
      },
      "grantRole(bytes32,address)": {
        "details": "Grants `role` to `account`. If `account` had not been already granted `role`, emits a {RoleGranted} event. Requirements: - the caller must have ``role``'s admin role."
      },
      "hasRole(bytes32,address)": {
        "details": "Returns `true` if `account` has been granted `role`."
      },
      "isApprovedForAll(address,address)": {
        "details": "See {IERC721-isApprovedForAll}."
      },
      "name()": {
        "details": "See {IERC721Metadata-name}."
      },
      "ownerOf(uint256)": {
        "details": "See {IERC721-ownerOf}."
      },
      "renounceRole(bytes32,address)": {
        "details": "Revokes `role` from the calling account. Roles are often managed via {grantRole} and {revokeRole}: this function's purpose is to provide a mechanism for accounts to lose their privileges if they are compromised (such as when a trusted device is misplaced). If the calling account had been granted `role`, emits a {RoleRevoked} event. Requirements: - the caller must be `account`."
      },
      "revokeRole(bytes32,address)": {
        "details": "Revokes `role` from `account`. If `account` had been granted `role`, emits a {RoleRevoked} event. Requirements: - the caller must have ``role``'s admin role."
      },
      "safeTransferFrom(address,address,uint256)": {
        "details": "See {IERC721-safeTransferFrom}."
      },
      "safeTransferFrom(address,address,uint256,bytes)": {
        "details": "See {IERC721-safeTransferFrom}."
      },
      "setApprovalForAll(address,bool)": {
        "details": "See {IERC721-setApprovalForAll}."
      },
      "symbol()": {
        "details": "See {IERC721Metadata-symbol}."
      },
      "transferFrom(address,address,uint256)": {
        "details": "See {IERC721-transferFrom}."
      }
    },
    "version": 1
  },
  "userdoc": {
    "kind": "user",
    "methods": {},
    "version": 1
  }
}