{
  "contractName": "Mining",
  "abi": [
    {
      "inputs": [
        {
          "internalType": "address",
          "name": "_cbd",
          "type": "address"
        }
      ],
      "stateMutability": "nonpayable",
      "type": "constructor"
    },
    {
      "anonymous": false,
      "inputs": [
        {
          "indexed": false,
          "internalType": "uint256",
          "name": "canvasId",
          "type": "uint256"
        },
        {
          "indexed": false,
          "internalType": "address",
          "name": "from",
          "type": "address"
        },
        {
          "indexed": false,
          "internalType": "address",
          "name": "to",
          "type": "address"
        }
      ],
      "name": "CanvasTransferred",
      "type": "event"
    },
    {
      "anonymous": false,
      "inputs": [
        {
          "indexed": false,
          "internalType": "uint256",
          "name": "creationId",
          "type": "uint256"
        },
        {
          "indexed": false,
          "internalType": "address",
          "name": "from",
          "type": "address"
        },
        {
          "indexed": false,
          "internalType": "address",
          "name": "to",
          "type": "address"
        }
      ],
      "name": "CreationTransferred",
      "type": "event"
    },
    {
      "anonymous": false,
      "inputs": [
        {
          "indexed": true,
          "internalType": "address",
          "name": "previousGovernance",
          "type": "address"
        },
        {
          "indexed": true,
          "internalType": "address",
          "name": "newGovernance",
          "type": "address"
        }
      ],
      "name": "GovernanceTransferred",
      "type": "event"
    },
    {
      "anonymous": false,
      "inputs": [
        {
          "indexed": true,
          "internalType": "address",
          "name": "previousOwner",
          "type": "address"
        },
        {
          "indexed": true,
          "internalType": "address",
          "name": "newOwner",
          "type": "address"
        }
      ],
      "name": "OwnershipTransferred",
      "type": "event"
    },
    {
      "inputs": [],
      "name": "governance",
      "outputs": [
        {
          "internalType": "address",
          "name": "",
          "type": "address"
        }
      ],
      "stateMutability": "view",
      "type": "function",
      "constant": true
    },
    {
      "inputs": [],
      "name": "owner",
      "outputs": [
        {
          "internalType": "address",
          "name": "",
          "type": "address"
        }
      ],
      "stateMutability": "view",
      "type": "function",
      "constant": true
    },
    {
      "inputs": [],
      "name": "renounceGovernance",
      "outputs": [],
      "stateMutability": "nonpayable",
      "type": "function"
    },
    {
      "inputs": [],
      "name": "renounceOwnership",
      "outputs": [],
      "stateMutability": "nonpayable",
      "type": "function"
    },
    {
      "inputs": [
        {
          "internalType": "address",
          "name": "newGovernance",
          "type": "address"
        }
      ],
      "name": "transferGovernance",
      "outputs": [],
      "stateMutability": "nonpayable",
      "type": "function"
    },
    {
      "inputs": [
        {
          "internalType": "address",
          "name": "newOwner",
          "type": "address"
        }
      ],
      "name": "transferOwnership",
      "outputs": [],
      "stateMutability": "nonpayable",
      "type": "function"
    },
    {
      "inputs": [
        {
          "internalType": "uint256",
          "name": "_creationId",
          "type": "uint256"
        },
        {
          "internalType": "address",
          "name": "_to",
          "type": "address"
        }
      ],
      "name": "transferCreation",
      "outputs": [],
      "stateMutability": "nonpayable",
      "type": "function"
    },
    {
      "inputs": [
        {
          "internalType": "address",
          "name": "_owner",
          "type": "address"
        }
      ],
      "name": "earned",
      "outputs": [
        {
          "internalType": "uint256",
          "name": "",
          "type": "uint256"
        }
      ],
      "stateMutability": "view",
      "type": "function",
      "constant": true
    },
    {
      "inputs": [],
      "name": "claim",
      "outputs": [],
      "stateMutability": "nonpayable",
      "type": "function"
    },
    {
      "inputs": [
        {
          "internalType": "uint256",
          "name": "_from",
          "type": "uint256"
        },
        {
          "internalType": "uint256",
          "name": "_to",
          "type": "uint256"
        }
      ],
      "name": "claim",
      "outputs": [],
      "stateMutability": "nonpayable",
      "type": "function"
    },
    {
      "inputs": [
        {
          "internalType": "uint256",
          "name": "_nftId",
          "type": "uint256"
        }
      ],
      "name": "ownerOfNFT",
      "outputs": [
        {
          "internalType": "address",
          "name": "",
          "type": "address"
        }
      ],
      "stateMutability": "view",
      "type": "function",
      "constant": true
    },
    {
      "inputs": [
        {
          "internalType": "address",
          "name": "_cbd",
          "type": "address"
        }
      ],
      "name": "setCbd",
      "outputs": [],
      "stateMutability": "nonpayable",
      "type": "function"
    }
  ],
  "bytecode": "0x60806040526012600760146101000a81548160ff021916908360ff1602179055503480156200002d57600080fd5b506040516200289b3803806200289b833981810160405281019062000053919062000259565b6000620000656200023a60201b60201c565b9050806000806101000a81548173ffffffffffffffffffffffffffffffffffffffff021916908373ffffffffffffffffffffffffffffffffffffffff1602179055508073ffffffffffffffffffffffffffffffffffffffff16600073ffffffffffffffffffffffffffffffffffffffff167f8be0079c531659141344cd1fd0a4f28419497f9722a3daafe3b4186f6b6457e060405160405180910390a3506000620001156200023a60201b60201c565b905080600160006101000a81548173ffffffffffffffffffffffffffffffffffffffff021916908373ffffffffffffffffffffffffffffffffffffffff1602179055508073ffffffffffffffffffffffffffffffffffffffff16600073ffffffffffffffffffffffffffffffffffffffff167f5f56bee8cffbe9a78652a74a60705edede02af10b0bbb888ca44b79a0d42ce8060405160405180910390a35080600760006101000a81548173ffffffffffffffffffffffffffffffffffffffff021916908373ffffffffffffffffffffffffffffffffffffffff160217905550600760149054906101000a900460ff16600a620002139190620002e0565b6103e86200022291906200041d565b6005819055506305265c00600681905550506200051f565b600033905090565b600081519050620002538162000505565b92915050565b6000602082840312156200026c57600080fd5b60006200027c8482850162000242565b91505092915050565b6000808291508390505b6001851115620002d757808604811115620002af57620002ae620004c9565b5b6001851615620002bf5780820291505b8081029050620002cf85620004f8565b94506200028f565b94509492505050565b6000620002ed82620004b2565b9150620002fa83620004bc565b9250620003297fffffffffffffffffffffffffffffffffffffffffffffffffffffffffffffffff848462000331565b905092915050565b60008262000343576001905062000416565b8162000353576000905062000416565b81600181146200036c57600281146200037757620003ad565b600191505062000416565b60ff8411156200038c576200038b620004c9565b5b8360020a915084821115620003a657620003a5620004c9565b5b5062000416565b5060208310610133831016604e8410600b8410161715620003e75782820a905083811115620003e157620003e0620004c9565b5b62000416565b620003f6848484600162000285565b9250905081840481111562000410576200040f620004c9565b5b81810290505b9392505050565b60006200042a82620004b2565b91506200043783620004b2565b9250817fffffffffffffffffffffffffffffffffffffffffffffffffffffffffffffffff0483118215151615620004735762000472620004c9565b5b828202905092915050565b60006200048b8262000492565b9050919050565b600073ffffffffffffffffffffffffffffffffffffffff82169050919050565b6000819050919050565b600060ff82169050919050565b7f4e487b7100000000000000000000000000000000000000000000000000000000600052601160045260246000fd5b60008160011c9050919050565b62000510816200047e565b81146200051c57600080fd5b50565b61236c806200052f6000396000f3fe608060405234801561001057600080fd5b50600436106100b35760003560e01c8063758904b811610071578063758904b8146101665780638da5cb5b14610170578063c34902631461018e578063cec05642146101aa578063d38bfff4146101c6578063f2fde38b146101e2576100b3565b80628cc262146100b85780632d8a746e146100e85780634a9d7923146101185780634e71d92d146101345780635aa6e6751461013e578063715018a61461015c575b600080fd5b6100d260048036038101906100cd9190611949565b6101fe565b6040516100df9190612000565b60405180910390f35b61010260048036038101906100fd91906119d7565b6103ba565b60405161010f9190611e51565b60405180910390f35b610132600480360381019061012d9190611949565b6103fa565b005b61013c6104ba565b005b610146610699565b6040516101539190611e51565b60405180910390f35b6101646106c3565b005b61016e6107fd565b005b61017861093a565b6040516101859190611e51565b60405180910390f35b6101a860048036038101906101a39190611a3c565b610963565b005b6101c460048036038101906101bf9190611a00565b610ba1565b005b6101e060048036038101906101db9190611949565b6112a5565b005b6101fc60048036038101906101f79190611949565b611451565b005b600080600260008473ffffffffffffffffffffffffffffffffffffffff1673ffffffffffffffffffffffffffffffffffffffff16815260200190815260200160002080548060200260200160405190810160405280929190818152602001828054801561028a57602002820191906000526020600020905b815481526020019060010190808311610276575b505050505090506000805b82518110156103af5760008382815181106102d9577f4e487b7100000000000000000000000000000000000000000000000000000000600052603260045260246000fd5b6020026020010151905060006004600083815260200190815260200160002060405180606001604052908160008201548152602001600182015481526020016002820154815250509050600081600001514211156103995760008260000151426103439190612165565b9050808360400151846020015161035a91906120da565b610364919061210b565b9150428360000181815250508183602001516103809190612165565b83602001818152505081866103959190612084565b9550505b50505080806103a790612222565b915050610295565b508092505050919050565b60006003600083815260200190815260200160002060000160009054906101000a900473ffffffffffffffffffffffffffffffffffffffff169050919050565b6104026115fa565b73ffffffffffffffffffffffffffffffffffffffff1661042061093a565b73ffffffffffffffffffffffffffffffffffffffff1614610476576040517f08c379a000000000000000000000000000000000000000000000000000000000815260040161046d90611fa0565b60405180910390fd5b80600760006101000a81548173ffffffffffffffffffffffffffffffffffffffff021916908373ffffffffffffffffffffffffffffffffffffffff16021790555050565b6000600260003373ffffffffffffffffffffffffffffffffffffffff1673ffffffffffffffffffffffffffffffffffffffff16815260200190815260200160002080548060200260200160405190810160405280929190818152602001828054801561054557602002820191906000526020600020905b815481526020019060010190808311610531575b505050505090506000805b8251811015610647576000838281518110610594577f4e487b7100000000000000000000000000000000000000000000000000000000600052603260045260246000fd5b602002602001015190506000600460008381526020019081526020016000206040518060600160405290816000820154815260200160018201548152602001600282015481525050905080600001514211156106325760008160000151426105fc9190612165565b90506000818360400151846020015161061591906120da565b61061f919061210b565b9050808661062d9190612084565b955050505b5050808061063f90612222565b915050610550565b506106953382600760009054906101000a900473ffffffffffffffffffffffffffffffffffffffff1673ffffffffffffffffffffffffffffffffffffffff166116029092919063ffffffff16565b5050565b6000600160009054906101000a900473ffffffffffffffffffffffffffffffffffffffff16905090565b6106cb6115fa565b73ffffffffffffffffffffffffffffffffffffffff166106e961093a565b73ffffffffffffffffffffffffffffffffffffffff161461073f576040517f08c379a000000000000000000000000000000000000000000000000000000000815260040161073690611fa0565b60405180910390fd5b600073ffffffffffffffffffffffffffffffffffffffff1660008054906101000a900473ffffffffffffffffffffffffffffffffffffffff1673ffffffffffffffffffffffffffffffffffffffff167f8be0079c531659141344cd1fd0a4f28419497f9722a3daafe3b4186f6b6457e060405160405180910390a360008060006101000a81548173ffffffffffffffffffffffffffffffffffffffff021916908373ffffffffffffffffffffffffffffffffffffffff160217905550565b6108056115fa565b73ffffffffffffffffffffffffffffffffffffffff1661082361093a565b73ffffffffffffffffffffffffffffffffffffffff1614610879576040517f08c379a000000000000000000000000000000000000000000000000000000000815260040161087090611fa0565b60405180910390fd5b600073ffffffffffffffffffffffffffffffffffffffff16600160009054906101000a900473ffffffffffffffffffffffffffffffffffffffff1673ffffffffffffffffffffffffffffffffffffffff167f5f56bee8cffbe9a78652a74a60705edede02af10b0bbb888ca44b79a0d42ce8060405160405180910390a36000600160006101000a81548173ffffffffffffffffffffffffffffffffffffffff021916908373ffffffffffffffffffffffffffffffffffffffff160217905550565b60008060009054906101000a900473ffffffffffffffffffffffffffffffffffffffff16905090565b6000600260003373ffffffffffffffffffffffffffffffffffffffff1673ffffffffffffffffffffffffffffffffffffffff1681526020019081526020016000208054806020026020016040519081016040528092919081815260200182805480156109ee57602002820191906000526020600020905b8154815260200190600101908083116109da575b5050505050905060008151841015610a3b576040517f08c379a0000000000000000000000000000000000000000000000000000000008152600401610a3290611f60565b60405180910390fd5b600082518410610a4c578251610a4e565b835b905060008590505b81811015610b4c576000848281518110610a99577f4e487b7100000000000000000000000000000000000000000000000000000000600052603260045260246000fd5b60200260200101519050600060046000838152602001908152602001600020604051806060016040529081600082015481526020016001820154815260200160028201548152505090508060000151421115610b37576000816000015142610b019190612165565b905060008183604001518460200151610b1a91906120da565b610b24919061210b565b90508087610b329190612084565b965050505b50508080610b4490612222565b915050610a56565b50610b9a3383600760009054906101000a900473ffffffffffffffffffffffffffffffffffffffff1673ffffffffffffffffffffffffffffffffffffffff166116029092919063ffffffff16565b5050505050565b610ba96115fa565b73ffffffffffffffffffffffffffffffffffffffff16610bc7610699565b73ffffffffffffffffffffffffffffffffffffffff1614610c1d576040517f08c379a0000000000000000000000000000000000000000000000000000000008152600401610c1490611f40565b60405180910390fd5b600073ffffffffffffffffffffffffffffffffffffffff168173ffffffffffffffffffffffffffffffffffffffff161415610c8d576040517f08c379a0000000000000000000000000000000000000000000000000000000008152600401610c8490611f00565b60405180910390fd5b6000600360008481526020019081526020016000206040518060400160405290816000820160009054906101000a900473ffffffffffffffffffffffffffffffffffffffff1673ffffffffffffffffffffffffffffffffffffffff1673ffffffffffffffffffffffffffffffffffffffff1681526020016000820160149054906101000a900461ffff1661ffff1661ffff16815250509050600260008373ffffffffffffffffffffffffffffffffffffffff1673ffffffffffffffffffffffffffffffffffffffff168152602001908152602001600020839080600181540180825580915050600190039060005260206000200160009091909190915055600073ffffffffffffffffffffffffffffffffffffffff16816000015173ffffffffffffffffffffffffffffffffffffffff1614611104576000600360008581526020019081526020016000209050828160000160006101000a81548173ffffffffffffffffffffffffffffffffffffffff021916908373ffffffffffffffffffffffffffffffffffffffff1602179055506001600260008573ffffffffffffffffffffffffffffffffffffffff1673ffffffffffffffffffffffffffffffffffffffff16815260200190815260200160002080549050610e6c9190612165565b8160000160146101000a81548161ffff021916908361ffff16021790555060008060026000856000015173ffffffffffffffffffffffffffffffffffffffff1673ffffffffffffffffffffffffffffffffffffffff16815260200190815260200160002073__UintArray_____________________________63263f0474909186602001516040518363ffffffff1660e01b8152600401610f0e929190611e95565b604080518083038186803b158015610f2557600080fd5b505af4158015610f39573d6000803e3d6000fd5b505050506040513d601f19601f82011682018060405250810190610f5d919061199b565b8092508193505050811561102c57600060026000866000015173ffffffffffffffffffffffffffffffffffffffff1673ffffffffffffffffffffffffffffffffffffffff1681526020019081526020016000208261ffff1681548110610fec577f4e487b7100000000000000000000000000000000000000000000000000000000600052603260045260246000fd5b90600052602060002001549050816003600083815260200190815260200160002060000160146101000a81548161ffff021916908361ffff160217905550505b6000600460008881526020019081526020016000209050600081600001544211156110fa5760008260000154426110639190612165565b9050808360020154846001015461107a91906120da565b611084919061210b565b91506110d7876000015183600760009054906101000a900473ffffffffffffffffffffffffffffffffffffffff1673ffffffffffffffffffffffffffffffffffffffff166116029092919063ffffffff16565b4283600001819055508183600101546110f09190612165565b8360010181905550505b5050505050611261565b600060405180604001604052808473ffffffffffffffffffffffffffffffffffffffff1681526020016001600260008773ffffffffffffffffffffffffffffffffffffffff1673ffffffffffffffffffffffffffffffffffffffff1681526020019081526020016000208054905061117c9190612165565b61ffff168152509050806003600086815260200190815260200160002060008201518160000160006101000a81548173ffffffffffffffffffffffffffffffffffffffff021916908373ffffffffffffffffffffffffffffffffffffffff16021790555060208201518160000160146101000a81548161ffff021916908361ffff1602179055509050506000604051806060016040528042815260200160055481526020016006548152509050806004600087815260200190815260200160002060008201518160000155602082015181600101556040820151816002015590505050505b7fbd2f8caf926044202522d9b107bfd9e767b1724152796142229430282dd851da838260000151846040516112989392919061201b565b60405180910390a1505050565b6112ad6115fa565b73ffffffffffffffffffffffffffffffffffffffff166112cb61093a565b73ffffffffffffffffffffffffffffffffffffffff1614611321576040517f08c379a000000000000000000000000000000000000000000000000000000000815260040161131890611fa0565b60405180910390fd5b600073ffffffffffffffffffffffffffffffffffffffff168173ffffffffffffffffffffffffffffffffffffffff161415611391576040517f08c379a000000000000000000000000000000000000000000000000000000000815260040161138890611f80565b60405180910390fd5b8073ffffffffffffffffffffffffffffffffffffffff16600160009054906101000a900473ffffffffffffffffffffffffffffffffffffffff1673ffffffffffffffffffffffffffffffffffffffff167f8be0079c531659141344cd1fd0a4f28419497f9722a3daafe3b4186f6b6457e060405160405180910390a380600160006101000a81548173ffffffffffffffffffffffffffffffffffffffff021916908373ffffffffffffffffffffffffffffffffffffffff16021790555050565b6114596115fa565b73ffffffffffffffffffffffffffffffffffffffff1661147761093a565b73ffffffffffffffffffffffffffffffffffffffff16146114cd576040517f08c379a00000000000000000000000000000000000000000000000000000000081526004016114c490611fa0565b60405180910390fd5b600073ffffffffffffffffffffffffffffffffffffffff168173ffffffffffffffffffffffffffffffffffffffff16141561153d576040517f08c379a000000000000000000000000000000000000000000000000000000000815260040161153490611ee0565b60405180910390fd5b8073ffffffffffffffffffffffffffffffffffffffff1660008054906101000a900473ffffffffffffffffffffffffffffffffffffffff1673ffffffffffffffffffffffffffffffffffffffff167f8be0079c531659141344cd1fd0a4f28419497f9722a3daafe3b4186f6b6457e060405160405180910390a3806000806101000a81548173ffffffffffffffffffffffffffffffffffffffff021916908373ffffffffffffffffffffffffffffffffffffffff16021790555050565b600033905090565b6116838363a9059cbb60e01b8484604051602401611621929190611e6c565b604051602081830303815290604052907bffffffffffffffffffffffffffffffffffffffffffffffffffffffff19166020820180517bffffffffffffffffffffffffffffffffffffffffffffffffffffffff8381831617835250505050611688565b505050565b60006116ea826040518060400160405280602081526020017f5361666545524332303a206c6f772d6c6576656c2063616c6c206661696c65648152508573ffffffffffffffffffffffffffffffffffffffff1661174f9092919063ffffffff16565b905060008151111561174a578080602001905181019061170a9190611972565b611749576040517f08c379a000000000000000000000000000000000000000000000000000000000815260040161174090611fe0565b60405180910390fd5b5b505050565b606061175e8484600085611767565b90509392505050565b6060824710156117ac576040517f08c379a00000000000000000000000000000000000000000000000000000000081526004016117a390611f20565b60405180910390fd5b6117b58561187b565b6117f4576040517f08c379a00000000000000000000000000000000000000000000000000000000081526004016117eb90611fc0565b60405180910390fd5b6000808673ffffffffffffffffffffffffffffffffffffffff16858760405161181d9190611e3a565b60006040518083038185875af1925050503d806000811461185a576040519150601f19603f3d011682016040523d82523d6000602084013e61185f565b606091505b509150915061186f82828661188e565b92505050949350505050565b600080823b905060008111915050919050565b6060831561189e578290506118ee565b6000835111156118b15782518084602001fd5b816040517f08c379a00000000000000000000000000000000000000000000000000000000081526004016118e59190611ebe565b60405180910390fd5b9392505050565b600081359050611904816122da565b92915050565b600081519050611919816122f1565b92915050565b60008151905061192e81612308565b92915050565b6000813590506119438161231f565b92915050565b60006020828403121561195b57600080fd5b6000611969848285016118f5565b91505092915050565b60006020828403121561198457600080fd5b60006119928482850161190a565b91505092915050565b600080604083850312156119ae57600080fd5b60006119bc8582860161190a565b92505060206119cd8582860161191f565b9150509250929050565b6000602082840312156119e957600080fd5b60006119f784828501611934565b91505092915050565b60008060408385031215611a1357600080fd5b6000611a2185828601611934565b9250506020611a32858286016118f5565b9150509250929050565b60008060408385031215611a4f57600080fd5b6000611a5d85828601611934565b9250506020611a6e85828601611934565b9150509250929050565b611a8181612199565b82525050565b8082525050565b6000611a9982612052565b611aa38185612068565b9350611ab38185602086016121ef565b80840191505092915050565b6000611aca8261205d565b611ad48185612073565b9350611ae48185602086016121ef565b611aed816122c9565b840191505092915050565b6000611b05602683612073565b91507f4f776e61626c653a206e6577206f776e657220697320746865207a65726f206160008301527f64647265737300000000000000000000000000000000000000000000000000006020830152604082019050919050565b6000611b6b602883612073565b91507f4d696e696e673a2063616e206e6f74207472616e7366657220746f207a65726f60008301527f20616464726573730000000000000000000000000000000000000000000000006020830152604082019050919050565b6000611bd1602683612073565b91507f416464726573733a20696e73756666696369656e742062616c616e636520666f60008301527f722063616c6c00000000000000000000000000000000000000000000000000006020830152604082019050919050565b6000611c37602883612073565b91507f476f7665726e616e63653a2063616c6c6572206973206e6f742074686520476f60008301527f7665726e616e63650000000000000000000000000000000000000000000000006020830152604082019050919050565b6000611c9d601a83612073565b91507f4d696e696e673a20696e646578206f7574206f662072616e67650000000000006000830152602082019050919050565b6000611cdd602e83612073565b91507f476f7665726e616e63653a206e657720476f7665726e616e636520697320746860008301527f65207a65726f20616464726573730000000000000000000000000000000000006020830152604082019050919050565b6000611d43602083612073565b91507f4f776e61626c653a2063616c6c6572206973206e6f7420746865206f776e65726000830152602082019050919050565b6000611d83601d83612073565b91507f416464726573733a2063616c6c20746f206e6f6e2d636f6e74726163740000006000830152602082019050919050565b6000611dc3602a83612073565b91507f5361666545524332303a204552433230206f7065726174696f6e20646964206e60008301527f6f742073756363656564000000000000000000000000000000000000000000006020830152604082019050919050565b611e25816121b7565b82525050565b611e34816121e5565b82525050565b6000611e468284611a8e565b915081905092915050565b6000602082019050611e666000830184611a78565b92915050565b6000604082019050611e816000830185611a78565b611e8e6020830184611e2b565b9392505050565b6000604082019050611eaa6000830185611a87565b611eb76020830184611e1c565b9392505050565b60006020820190508181036000830152611ed88184611abf565b905092915050565b60006020820190508181036000830152611ef981611af8565b9050919050565b60006020820190508181036000830152611f1981611b5e565b9050919050565b60006020820190508181036000830152611f3981611bc4565b9050919050565b60006020820190508181036000830152611f5981611c2a565b9050919050565b60006020820190508181036000830152611f7981611c90565b9050919050565b60006020820190508181036000830152611f9981611cd0565b9050919050565b60006020820190508181036000830152611fb981611d36565b9050919050565b60006020820190508181036000830152611fd981611d76565b9050919050565b60006020820190508181036000830152611ff981611db6565b9050919050565b60006020820190506120156000830184611e2b565b92915050565b60006060820190506120306000830186611e2b565b61203d6020830185611a78565b61204a6040830184611a78565b949350505050565b600081519050919050565b600081519050919050565b600081905092915050565b600082825260208201905092915050565b600061208f826121e5565b915061209a836121e5565b9250827fffffffffffffffffffffffffffffffffffffffffffffffffffffffffffffffff038211156120cf576120ce61226b565b5b828201905092915050565b60006120e5826121e5565b91506120f0836121e5565b925082612100576120ff61229a565b5b828204905092915050565b6000612116826121e5565b9150612121836121e5565b9250817fffffffffffffffffffffffffffffffffffffffffffffffffffffffffffffffff048311821515161561215a5761215961226b565b5b828202905092915050565b6000612170826121e5565b915061217b836121e5565b92508282101561218e5761218d61226b565b5b828203905092915050565b60006121a4826121c5565b9050919050565b60008115159050919050565b600061ffff82169050919050565b600073ffffffffffffffffffffffffffffffffffffffff82169050919050565b6000819050919050565b60005b8381101561220d5780820151818401526020810190506121f2565b8381111561221c576000848401525b50505050565b600061222d826121e5565b91507fffffffffffffffffffffffffffffffffffffffffffffffffffffffffffffffff8214156122605761225f61226b565b5b600182019050919050565b7f4e487b7100000000000000000000000000000000000000000000000000000000600052601160045260246000fd5b7f4e487b7100000000000000000000000000000000000000000000000000000000600052601260045260246000fd5b6000601f19601f8301169050919050565b6122e381612199565b81146122ee57600080fd5b50565b6122fa816121ab565b811461230557600080fd5b50565b612311816121b7565b811461231c57600080fd5b50565b612328816121e5565b811461233357600080fd5b5056fea2646970667358221220c571d398eafef8199916d987ec3e786d1144a7c38f977b15490199b9683f1c8864736f6c63430008000033",
  "immutableReferences": {},
  "source": "// SPDX-License-Identifier: GPL-3.0\npragma solidity ^0.8.0;\n\nimport \"@openzeppelin/contracts/token/ERC20/IERC20.sol\";\nimport \"@openzeppelin/contracts/token/ERC20/utils/SafeERC20.sol\";\nimport \"./interface/IMining.sol\";\nimport \"./Governance.sol\";\nimport \"./library/UintArray.sol\";\n\ncontract Mining is IMining, Governance {\n\n    using SafeERC20 for IERC20;\n    using UintArray for uint[];\n\n    struct Ownership {\n        address owner;\n        uint16 arrIndex;\n    }\n\n    struct MiningInfo {\n        uint startTime;\n        uint remainingAmout;\n        uint remainingTime;\n    }\n\n    // mapping(address => uint[]) internal myOwnedCanvas;\n    // mapping(uint => Ownership) internal canvasOwnership;\n\n    mapping(address => uint[]) internal myOwnedCreations;\n    mapping(uint => Ownership) internal creationOwnership;\n\n    mapping(uint => MiningInfo) miningInfoMap;\n    uint defaultAmount;\n    uint defaultLong;// NFT\n\n    // TODO set value\n    IERC20 cbd;\n    uint8 cbdDecimals = 18;\n\n    event CanvasTransferred(uint canvasId, address from, address to);\n    event CreationTransferred(uint creationId, address from, address to);\n\n    constructor(address _cbd) {\n        cbd = IERC20(_cbd);\n        defaultAmount = 1000 * (10 ** cbdDecimals);\n        defaultLong = 1000 days;\n    }\n\n    // function transferCanvas(uint _canvasId, address _to) override public onlyGovernance {\n    //     require(_to != address(0), \"Mining: can not transfer to zero address\");\n        \n    //     Ownership memory oldOwnership = canvasOwnership[_canvasId];\n    //     myOwnedCanvas[_to].push(_canvasId);\n    //     if(oldOwnership.owner != address(0x0)) {\n    //         Ownership storage newOwnership = canvasOwnership[_canvasId];\n    //         newOwnership.owner = _to;\n    //         newOwnership.arrIndex = uint16(myOwnedCanvas[_to].length - 1);\n    //         bool isChanged;\n    //         uint16 index;\n    //         (isChanged, index) = myOwnedCanvas[oldOwnership.owner].unsafeDelete(oldOwnership.arrIndex);\n    //         if(isChanged) {\n    //             uint canvasId = myOwnedCanvas[oldOwnership.owner][index];\n    //             canvasOwnership[canvasId].arrIndex = index;\n    //         }\n    //     } else {\n    //         Ownership memory ownership = Ownership(_to, uint16(myOwnedCanvas[_to].length - 1));\n    //         canvasOwnership[_canvasId] = ownership;\n    //     }\n        \n    //     emit CanvasTransferred(_canvasId, oldOwnership.owner, _to);\n    // }\n\n    function transferCreation(uint _creationId, address _to) override public onlyGovernance {\n        require(_to != address(0), \"Mining: can not transfer to zero address\");\n\n        Ownership memory oldOwnership = creationOwnership[_creationId];\n        myOwnedCreations[_to].push(_creationId);\n        if(oldOwnership.owner != address(0x0)) {\n            Ownership storage newOwnership = creationOwnership[_creationId];\n            newOwnership.owner = _to;\n            newOwnership.arrIndex = uint16(myOwnedCreations[_to].length - 1);\n            bool isChanged;\n            uint16 index;\n            (isChanged, index) = myOwnedCreations[oldOwnership.owner].unsafeDelete(oldOwnership.arrIndex);\n            if(isChanged) {\n                uint creationId = myOwnedCreations[oldOwnership.owner][index];\n                creationOwnership[creationId].arrIndex = index;\n            }\n\n            MiningInfo storage info = miningInfoMap[_creationId];\n            uint mined = 0;\n            if(block.timestamp > info.startTime) {\n                uint dist = block.timestamp - info.startTime;\n                mined = info.remainingAmout / info.remainingTime * dist;\n                cbd.safeTransfer(oldOwnership.owner, mined);\n                info.startTime = block.timestamp;\n                info.remainingAmout = info.remainingAmout - mined;\n            }\n        } else {\n            Ownership memory ownership = Ownership(_to, uint16(myOwnedCreations[_to].length - 1));\n            creationOwnership[_creationId] = ownership;\n\n            MiningInfo memory info = MiningInfo(block.timestamp, defaultAmount, defaultLong);\n            miningInfoMap[_creationId] = info;\n        }\n\n        emit CreationTransferred(_creationId, oldOwnership.owner, _to);\n    }\n\n    function earned(address _owner) public view returns(uint) {\n        uint[] memory tokenIdArr = myOwnedCreations[_owner];\n        uint total = 0;\n        for(uint i = 0; i < tokenIdArr.length; i++) {\n            uint tokenID = tokenIdArr[i];\n            MiningInfo memory info = miningInfoMap[tokenID];\n            uint mined = 0;\n            if(block.timestamp > info.startTime) {\n                uint dist = block.timestamp - info.startTime;\n                mined = info.remainingAmout / info.remainingTime * dist;\n                info.startTime = block.timestamp;\n                info.remainingAmout = info.remainingAmout - mined;\n                total = total + mined;\n            }\n        }\n        return total;\n    }\n\n    function claim() public {\n        uint[] memory tokenIdArr = myOwnedCreations[msg.sender];\n        uint total = 0;\n        for(uint i = 0; i < tokenIdArr.length; i++) {\n            uint tokenID = tokenIdArr[i];\n            MiningInfo memory info = miningInfoMap[tokenID];\n            if(block.timestamp > info.startTime) {\n                uint dist = block.timestamp - info.startTime;\n                uint mined = info.remainingAmout / info.remainingTime * dist;\n                total = total + mined;\n            }\n        }\n        cbd.safeTransfer(msg.sender, total);\n    }\n\n    // NFT claim() Gas Limit\n    function claim(uint _from, uint _to) public {\n        uint[] memory tokenIdArr = myOwnedCreations[msg.sender];\n        uint total = 0;\n        require(_from >= tokenIdArr.length, \"Mining: index out of range\");\n        uint to = (_to < tokenIdArr.length) ? _to : tokenIdArr.length;\n\n        for(uint i = _from; i < to; i++) {\n            uint tokenID = tokenIdArr[i];\n            MiningInfo memory info = miningInfoMap[tokenID];\n            if(block.timestamp > info.startTime) {\n                uint dist = block.timestamp - info.startTime;\n                uint mined = info.remainingAmout / info.remainingTime * dist;\n                total = total + mined;\n            }\n        }\n        cbd.safeTransfer(msg.sender, total);\n    }\n\n    // function ownerOfCanvas(uint _canvaceId) override external view returns(address) {\n    //     return canvasOwnership[_canvaceId].owner;\n    // }\n\n    function ownerOfNFT(uint _nftId) override external view returns(address) {\n        return creationOwnership[_nftId].owner;\n    }\n\n    function setCbd(address _cbd) public onlyOwner {\n        cbd = IERC20(_cbd);\n    }\n}",
  "sourcePath": "/Users/iwan/code/coinbid-cointract/contracts/5_Mining.sol",
  "compiler": {
    "name": "solc",
    "version": "0.8.0+commit.c7dfd78e.Emscripten.clang"
  },
  "schemaVersion": "3.4.1",
  "updatedAt": "2021-06-24T17:47:19.119Z",
  "networkType": "ethereum",
  "devdoc": {
    "kind": "dev",
    "methods": {
      "governance()": {
        "details": "Returns the address of the current governance."
      },
      "owner()": {
        "details": "Returns the address of the current owner."
      },
      "renounceOwnership()": {
        "details": "Leaves the contract without owner. It will not be possible to call `onlyOwner` functions anymore. Can only be called by the current owner. NOTE: Renouncing ownership will leave the contract without an owner, thereby removing any functionality that is only available to the owner."
      },
      "transferOwnership(address)": {
        "details": "Transfers ownership of the contract to a new account (`newOwner`). Can only be called by the current owner."
      }
    },
    "version": 1
  },
  "userdoc": {
    "kind": "user",
    "methods": {},
    "version": 1
  }
}