{
  "contractName": "NFTAuction",
  "abi": [
    {
      "inputs": [
        {
          "internalType": "address",
          "name": "_nftFactory",
          "type": "address"
        },
        {
          "internalType": "address",
          "name": "_tokenToPay",
          "type": "address"
        },
        {
          "internalType": "address",
          "name": "_pool",
          "type": "address"
        },
        {
          "internalType": "address",
          "name": "_nft",
          "type": "address"
        },
        {
          "internalType": "address",
          "name": "_mining",
          "type": "address"
        },
        {
          "internalType": "address",
          "name": "_canvasAuction",
          "type": "address"
        }
      ],
      "stateMutability": "nonpayable",
      "type": "constructor"
    },
    {
      "anonymous": false,
      "inputs": [
        {
          "indexed": false,
          "internalType": "uint256",
          "name": "nftId",
          "type": "uint256"
        },
        {
          "indexed": false,
          "internalType": "uint256",
          "name": "bidPrice",
          "type": "uint256"
        },
        {
          "indexed": false,
          "internalType": "address",
          "name": "bidder",
          "type": "address"
        }
      ],
      "name": "NFTAuctionBid",
      "type": "event"
    },
    {
      "anonymous": false,
      "inputs": [
        {
          "indexed": false,
          "internalType": "uint256",
          "name": "nftId",
          "type": "uint256"
        },
        {
          "indexed": false,
          "internalType": "uint256",
          "name": "startingPrice",
          "type": "uint256"
        },
        {
          "indexed": false,
          "internalType": "uint256",
          "name": "duration",
          "type": "uint256"
        }
      ],
      "name": "NFTAuctionCreated",
      "type": "event"
    },
    {
      "anonymous": false,
      "inputs": [
        {
          "indexed": false,
          "internalType": "uint256",
          "name": "nftId",
          "type": "uint256"
        },
        {
          "indexed": false,
          "internalType": "uint256",
          "name": "price",
          "type": "uint256"
        },
        {
          "indexed": false,
          "internalType": "address",
          "name": "buyer",
          "type": "address"
        }
      ],
      "name": "NFTAuctionEnded",
      "type": "event"
    },
    {
      "anonymous": false,
      "inputs": [
        {
          "indexed": true,
          "internalType": "address",
          "name": "previousOwner",
          "type": "address"
        },
        {
          "indexed": true,
          "internalType": "address",
          "name": "newOwner",
          "type": "address"
        }
      ],
      "name": "OwnershipTransferred",
      "type": "event"
    },
    {
      "inputs": [],
      "name": "owner",
      "outputs": [
        {
          "internalType": "address",
          "name": "",
          "type": "address"
        }
      ],
      "stateMutability": "view",
      "type": "function",
      "constant": true
    },
    {
      "inputs": [],
      "name": "period",
      "outputs": [
        {
          "internalType": "uint256",
          "name": "",
          "type": "uint256"
        }
      ],
      "stateMutability": "view",
      "type": "function",
      "constant": true
    },
    {
      "inputs": [],
      "name": "renounceOwnership",
      "outputs": [],
      "stateMutability": "nonpayable",
      "type": "function"
    },
    {
      "inputs": [
        {
          "internalType": "address",
          "name": "newOwner",
          "type": "address"
        }
      ],
      "name": "transferOwnership",
      "outputs": [],
      "stateMutability": "nonpayable",
      "type": "function"
    },
    {
      "inputs": [
        {
          "internalType": "uint8",
          "name": "_amountPerPage",
          "type": "uint8"
        },
        {
          "internalType": "uint32",
          "name": "_page",
          "type": "uint32"
        }
      ],
      "name": "getNFTInAuction",
      "outputs": [
        {
          "components": [
            {
              "internalType": "uint256",
              "name": "tokenId",
              "type": "uint256"
            },
            {
              "internalType": "address",
              "name": "belongsTo",
              "type": "address"
            },
            {
              "internalType": "address",
              "name": "seller",
              "type": "address"
            },
            {
              "internalType": "uint128",
              "name": "lastPrice",
              "type": "uint128"
            },
            {
              "internalType": "uint256",
              "name": "endAt",
              "type": "uint256"
            },
            {
              "internalType": "uint256",
              "name": "startedAt",
              "type": "uint256"
            },
            {
              "internalType": "address",
              "name": "lastBidder",
              "type": "address"
            },
            {
              "internalType": "bool",
              "name": "used",
              "type": "bool"
            }
          ],
          "internalType": "struct NFTAuction.Auction[]",
          "name": "",
          "type": "tuple[]"
        },
        {
          "internalType": "uint256",
          "name": "",
          "type": "uint256"
        }
      ],
      "stateMutability": "view",
      "type": "function",
      "constant": true
    },
    {
      "inputs": [
        {
          "internalType": "string",
          "name": "_tokenURI",
          "type": "string"
        },
        {
          "internalType": "uint128",
          "name": "_price",
          "type": "uint128"
        }
      ],
      "name": "bidUninstanted",
      "outputs": [],
      "stateMutability": "nonpayable",
      "type": "function"
    },
    {
      "inputs": [
        {
          "internalType": "string",
          "name": "_tokenURI",
          "type": "string"
        }
      ],
      "name": "createNFTByCanvas",
      "outputs": [],
      "stateMutability": "nonpayable",
      "type": "function"
    },
    {
      "inputs": [
        {
          "internalType": "uint256",
          "name": "_tokenId",
          "type": "uint256"
        },
        {
          "internalType": "uint128",
          "name": "_price",
          "type": "uint128"
        }
      ],
      "name": "bid",
      "outputs": [],
      "stateMutability": "nonpayable",
      "type": "function"
    },
    {
      "inputs": [
        {
          "internalType": "uint256",
          "name": "_tokenId",
          "type": "uint256"
        }
      ],
      "name": "auctionEnd",
      "outputs": [],
      "stateMutability": "nonpayable",
      "type": "function"
    }
  ],
  "bytecode": "0x60806040526012600b60146101000a81548160ff021916908360ff1602179055503480156200002d57600080fd5b50604051620039b0380380620039b0833981810160405281019062000053919062000375565b6000620000656200033f60201b60201c565b9050806000806101000a81548173ffffffffffffffffffffffffffffffffffffffff021916908373ffffffffffffffffffffffffffffffffffffffff1602179055508073ffffffffffffffffffffffffffffffffffffffff16600073ffffffffffffffffffffffffffffffffffffffff167f8be0079c531659141344cd1fd0a4f28419497f9722a3daafe3b4186f6b6457e060405160405180910390a35085600560006101000a81548173ffffffffffffffffffffffffffffffffffffffff021916908373ffffffffffffffffffffffffffffffffffffffff160217905550600560009054906101000a900473ffffffffffffffffffffffffffffffffffffffff1673ffffffffffffffffffffffffffffffffffffffff16631ed241956040518163ffffffff1660e01b815260040160206040518083038186803b158015620001ad57600080fd5b505afa158015620001c2573d6000803e3d6000fd5b505050506040513d601f19601f82011682018060405250810190620001e891906200040b565b60068190555084600b60006101000a81548173ffffffffffffffffffffffffffffffffffffffff021916908373ffffffffffffffffffffffffffffffffffffffff16021790555083600860006101000a81548173ffffffffffffffffffffffffffffffffffffffff021916908373ffffffffffffffffffffffffffffffffffffffff16021790555082600960006101000a81548173ffffffffffffffffffffffffffffffffffffffff021916908373ffffffffffffffffffffffffffffffffffffffff16021790555081600c60006101000a81548173ffffffffffffffffffffffffffffffffffffffff021916908373ffffffffffffffffffffffffffffffffffffffff16021790555080600a60006101000a81548173ffffffffffffffffffffffffffffffffffffffff021916908373ffffffffffffffffffffffffffffffffffffffff160217905550505050505050620004a9565b600033905090565b600081519050620003588162000475565b92915050565b6000815190506200036f816200048f565b92915050565b60008060008060008060c087890312156200038f57600080fd5b60006200039f89828a0162000347565b9650506020620003b289828a0162000347565b9550506040620003c589828a0162000347565b9450506060620003d889828a0162000347565b9350506080620003eb89828a0162000347565b92505060a0620003fe89828a0162000347565b9150509295509295509295565b6000602082840312156200041e57600080fd5b60006200042e848285016200035e565b91505092915050565b600062000444826200044b565b9050919050565b600073ffffffffffffffffffffffffffffffffffffffff82169050919050565b6000819050919050565b620004808162000437565b81146200048c57600080fd5b50565b6200049a816200046b565b8114620004a657600080fd5b50565b6134f780620004b96000396000f3fe608060405234801561001057600080fd5b50600436106100935760003560e01c80638da5cb5b116100665780638da5cb5b146100f65780639f731bb214610114578063a4837a6c14610130578063ef78d4fd14610161578063f2fde38b1461017f57610093565b806332246e9f146100985780634cafdb15146100b45780634e8a959f146100d0578063715018a6146100ec575b600080fd5b6100b260048036038101906100ad91906125c2565b61019b565b005b6100ce60048036038101906100c99190612614565b610652565b005b6100ea60048036038101906100e5919061252d565b610acf565b005b6100f4610f5c565b005b6100fe611096565b60405161010b9190612d3f565b60405180910390f35b61012e6004803603810190610129919061256e565b6110bf565b005b61014a60048036038101906101459190612650565b611595565b604051610158929190612df8565b60405180910390f35b610169611a7d565b604051610176919061300a565b60405180910390f35b610199600480360381019061019491906124b2565b611a83565b005b60006002600083815260200190815260200160002060405180610100016040529081600082015481526020016001820160009054906101000a900473ffffffffffffffffffffffffffffffffffffffff1673ffffffffffffffffffffffffffffffffffffffff1673ffffffffffffffffffffffffffffffffffffffff1681526020016002820160009054906101000a900473ffffffffffffffffffffffffffffffffffffffff1673ffffffffffffffffffffffffffffffffffffffff1673ffffffffffffffffffffffffffffffffffffffff1681526020016003820160009054906101000a90046fffffffffffffffffffffffffffffffff166fffffffffffffffffffffffffffffffff166fffffffffffffffffffffffffffffffff16815260200160048201548152602001600582015481526020016006820160009054906101000a900473ffffffffffffffffffffffffffffffffffffffff1673ffffffffffffffffffffffffffffffffffffffff1673ffffffffffffffffffffffffffffffffffffffff1681526020016006820160149054906101000a900460ff16151515158152505090508060e00151610387576040517f08c379a000000000000000000000000000000000000000000000000000000000815260040161037e90612fea565b60405180910390fd5b806080015142116103cd576040517f08c379a00000000000000000000000000000000000000000000000000000000081526004016103c490612faa565b60405180910390fd5b8060c0015173ffffffffffffffffffffffffffffffffffffffff163373ffffffffffffffffffffffffffffffffffffffff161461043f576040517f08c379a000000000000000000000000000000000000000000000000000000000815260040161043690612f2a565b60405180910390fd5b600260008381526020019081526020016000206000808201600090556001820160006101000a81549073ffffffffffffffffffffffffffffffffffffffff02191690556002820160006101000a81549073ffffffffffffffffffffffffffffffffffffffff02191690556003820160006101000a8154906fffffffffffffffffffffffffffffffff0219169055600482016000905560058201600090556006820160006101000a81549073ffffffffffffffffffffffffffffffffffffffff02191690556006820160146101000a81549060ff02191690555050610580816040015182606001516fffffffffffffffffffffffffffffffff16600b60009054906101000a900473ffffffffffffffffffffffffffffffffffffffff1673ffffffffffffffffffffffffffffffffffffffff16611c2c9092919063ffffffff16565b600c60009054906101000a900473ffffffffffffffffffffffffffffffffffffffff1673ffffffffffffffffffffffffffffffffffffffff1663cec0564283336040518363ffffffff1660e01b81526004016105dd929190613025565b600060405180830381600087803b1580156105f757600080fd5b505af115801561060b573d6000803e3d6000fd5b505050507f12485b73b7f46b7965f71288f6cd4a65354bafd513ecc4f5a87249258d689eb1828260600151336040516106469392919061304e565b60405180910390a15050565b600c60009054906101000a900473ffffffffffffffffffffffffffffffffffffffff1673ffffffffffffffffffffffffffffffffffffffff16632d8a746e836040518263ffffffff1660e01b81526004016106ad919061300a565b602060405180830381600087803b1580156106c757600080fd5b505af11580156106db573d6000803e3d6000fd5b505050506040513d601f19601f820116820180604052508101906106ff91906124db565b73ffffffffffffffffffffffffffffffffffffffff163373ffffffffffffffffffffffffffffffffffffffff16141561076d576040517f08c379a000000000000000000000000000000000000000000000000000000000815260040161076490612eaa565b60405180910390fd5b6002600083815260200190815260200160002060060160149054906101000a900460ff166107d0576040517f08c379a00000000000000000000000000000000000000000000000000000000081526004016107c790612f6a565b60405180910390fd5b60006002600084815260200190815260200160002090508060030160009054906101000a90046fffffffffffffffffffffffffffffffff166fffffffffffffffffffffffffffffffff16826fffffffffffffffffffffffffffffffff161161086d576040517f08c379a000000000000000000000000000000000000000000000000000000000815260040161086490612fca565b60405180910390fd5b600073ffffffffffffffffffffffffffffffffffffffff168160060160009054906101000a900473ffffffffffffffffffffffffffffffffffffffff1673ffffffffffffffffffffffffffffffffffffffff16146109b057806004015442111561090c576040517f08c379a000000000000000000000000000000000000000000000000000000000815260040161090390612e4a565b60405180910390fd5b6109af8160060160009054906101000a900473ffffffffffffffffffffffffffffffffffffffff168260030160009054906101000a90046fffffffffffffffffffffffffffffffff166fffffffffffffffffffffffffffffffff16600b60009054906101000a900473ffffffffffffffffffffffffffffffffffffffff1673ffffffffffffffffffffffffffffffffffffffff16611c2c9092919063ffffffff16565b5b610a113330846fffffffffffffffffffffffffffffffff16600b60009054906101000a900473ffffffffffffffffffffffffffffffffffffffff1673ffffffffffffffffffffffffffffffffffffffff16611cb2909392919063ffffffff16565b818160030160006101000a8154816fffffffffffffffffffffffffffffffff02191690836fffffffffffffffffffffffffffffffff160217905550338160060160006101000a81548173ffffffffffffffffffffffffffffffffffffffff021916908373ffffffffffffffffffffffffffffffffffffffff1602179055507f6973eee1bd8795ad6517ca1beda7f43895414fa0f2c47f8ef5d2de343e5ca2ed838333604051610ac29392919061304e565b60405180910390a1505050565b600a60009054906101000a900473ffffffffffffffffffffffffffffffffffffffff1673ffffffffffffffffffffffffffffffffffffffff166353971189336040518263ffffffff1660e01b8152600401610b2a9190612d3f565b602060405180830381600087803b158015610b4457600080fd5b505af1158015610b58573d6000803e3d6000fd5b505050506040513d601f19601f82011682018060405250810190610b7c9190612504565b610bbb576040517f08c379a0000000000000000000000000000000000000000000000000000000008152600401610bb290612e6a565b60405180910390fd5b6000610bc682611d3b565b90506000600654600560009054906101000a900473ffffffffffffffffffffffffffffffffffffffff1673ffffffffffffffffffffffffffffffffffffffff1663a03c7fdb6040518163ffffffff1660e01b815260040160206040518083038186803b158015610c3557600080fd5b505afa158015610c49573d6000803e3d6000fd5b505050506040513d601f19601f82011682018060405250810190610c6d91906125eb565b610c7791906131de565b9050600060065482610c899190613188565b905060006040518061010001604052808581526020013373ffffffffffffffffffffffffffffffffffffffff1681526020013373ffffffffffffffffffffffffffffffffffffffff168152602001600760009054906101000a90046fffffffffffffffffffffffffffffffff166fffffffffffffffffffffffffffffffff168152602001838152602001848152602001600073ffffffffffffffffffffffffffffffffffffffff16815260200160011515815250905080600260008681526020019081526020016000206000820151816000015560208201518160010160006101000a81548173ffffffffffffffffffffffffffffffffffffffff021916908373ffffffffffffffffffffffffffffffffffffffff16021790555060408201518160020160006101000a81548173ffffffffffffffffffffffffffffffffffffffff021916908373ffffffffffffffffffffffffffffffffffffffff16021790555060608201518160030160006101000a8154816fffffffffffffffffffffffffffffffff02191690836fffffffffffffffffffffffffffffffff1602179055506080820151816004015560a0820151816005015560c08201518160060160006101000a81548173ffffffffffffffffffffffffffffffffffffffff021916908373ffffffffffffffffffffffffffffffffffffffff16021790555060e08201518160060160146101000a81548160ff021916908315150217905550905050600484908060018154018082558091505060019003906000526020600020016000909190919091505560038490806001815401808255809150506001900390600052602060002001600090919091909150557f7822289774799aa8678cd853654c297b44c198c9b1e1a83a932ec7bf3a85f7e884600760009054906101000a90046fffffffffffffffffffffffffffffffff16600654604051610f4d93929190613085565b60405180910390a15050505050565b610f64611dee565b73ffffffffffffffffffffffffffffffffffffffff16610f82611096565b73ffffffffffffffffffffffffffffffffffffffff1614610fd8576040517f08c379a0000000000000000000000000000000000000000000000000000000008152600401610fcf90612f0a565b60405180910390fd5b600073ffffffffffffffffffffffffffffffffffffffff1660008054906101000a900473ffffffffffffffffffffffffffffffffffffffff1673ffffffffffffffffffffffffffffffffffffffff167f8be0079c531659141344cd1fd0a4f28419497f9722a3daafe3b4186f6b6457e060405160405180910390a360008060006101000a81548173ffffffffffffffffffffffffffffffffffffffff021916908373ffffffffffffffffffffffffffffffffffffffff160217905550565b60008060009054906101000a900473ffffffffffffffffffffffffffffffffffffffff16905090565b60006110c9611df6565b90506000811161110e576040517f08c379a000000000000000000000000000000000000000000000000000000000815260040161110590612eea565b60405180910390fd5b600760009054906101000a90046fffffffffffffffffffffffffffffffff166fffffffffffffffffffffffffffffffff16826fffffffffffffffffffffffffffffffff1611611192576040517f08c379a000000000000000000000000000000000000000000000000000000000815260040161118990612fca565b60405180910390fd5b600061119d84611d3b565b90506000600654600560009054906101000a900473ffffffffffffffffffffffffffffffffffffffff1673ffffffffffffffffffffffffffffffffffffffff1663a03c7fdb6040518163ffffffff1660e01b815260040160206040518083038186803b15801561120c57600080fd5b505afa158015611220573d6000803e3d6000fd5b505050506040513d601f19601f8201168201806040525081019061124491906125eb565b61124e91906131de565b90506000600654826112609190613188565b90506000604051806101000160405280858152602001600860009054906101000a900473ffffffffffffffffffffffffffffffffffffffff1673ffffffffffffffffffffffffffffffffffffffff168152602001600860009054906101000a900473ffffffffffffffffffffffffffffffffffffffff1673ffffffffffffffffffffffffffffffffffffffff168152602001876fffffffffffffffffffffffffffffffff1681526020018381526020018481526020013373ffffffffffffffffffffffffffffffffffffffff16815260200160011515815250905080600260008681526020019081526020016000206000820151816000015560208201518160010160006101000a81548173ffffffffffffffffffffffffffffffffffffffff021916908373ffffffffffffffffffffffffffffffffffffffff16021790555060408201518160020160006101000a81548173ffffffffffffffffffffffffffffffffffffffff021916908373ffffffffffffffffffffffffffffffffffffffff16021790555060608201518160030160006101000a8154816fffffffffffffffffffffffffffffffff02191690836fffffffffffffffffffffffffffffffff1602179055506080820151816004015560a0820151816005015560c08201518160060160006101000a81548173ffffffffffffffffffffffffffffffffffffffff021916908373ffffffffffffffffffffffffffffffffffffffff16021790555060e08201518160060160146101000a81548160ff021916908315150217905550905050600484908060018154018082558091505060019003906000526020600020016000909190919091505560038490806001815401808255809150506001900390600052602060002001600090919091909150557f7822289774799aa8678cd853654c297b44c198c9b1e1a83a932ec7bf3a85f7e884600760009054906101000a90046fffffffffffffffffffffffffffffffff1660065460405161154993929190613085565b60405180910390a17f6973eee1bd8795ad6517ca1beda7f43895414fa0f2c47f8ef5d2de343e5ca2ed8487336040516115849392919061304e565b60405180910390a150505050505050565b60606000808460ff1667ffffffffffffffff8111156115dd577f4e487b7100000000000000000000000000000000000000000000000000000000600052604160045260246000fd5b60405190808252806020026020018201604052801561161657816020015b611603612307565b8152602001906001900390816115fb5790505b5090506000848660ff1661162a9190613238565b63ffffffff169050600061163c611df6565b90506000816004805490506116519190613188565b9050826001826116619190613276565b10611a6c5760005b8860ff16811015611a6a5780846116809190613188565b60018361168d9190613276565b101561169857611a6a565b6116a0612307565b81856116ac9190613188565b60016004805490506116be9190613276565b10611908576000600483876116d39190613188565b8154811061170a577f4e487b7100000000000000000000000000000000000000000000000000000000600052603260045260246000fd5b906000526020600020015490506002600082815260200190815260200160002060405180610100016040529081600082015481526020016001820160009054906101000a900473ffffffffffffffffffffffffffffffffffffffff1673ffffffffffffffffffffffffffffffffffffffff1673ffffffffffffffffffffffffffffffffffffffff1681526020016002820160009054906101000a900473ffffffffffffffffffffffffffffffffffffffff1673ffffffffffffffffffffffffffffffffffffffff1673ffffffffffffffffffffffffffffffffffffffff1681526020016003820160009054906101000a90046fffffffffffffffffffffffffffffffff166fffffffffffffffffffffffffffffffff166fffffffffffffffffffffffffffffffff16815260200160048201548152602001600582015481526020016006820160009054906101000a900473ffffffffffffffffffffffffffffffffffffffff1673ffffffffffffffffffffffffffffffffffffffff1673ffffffffffffffffffffffffffffffffffffffff1681526020016006820160149054906101000a900460ff1615151515815250509150600073ffffffffffffffffffffffffffffffffffffffff168260c0015173ffffffffffffffffffffffffffffffffffffffff161415611902576118ff82611ec9565b91505b50611a11565b60405180610100016040528060008152602001600860009054906101000a900473ffffffffffffffffffffffffffffffffffffffff1673ffffffffffffffffffffffffffffffffffffffff168152602001600860009054906101000a900473ffffffffffffffffffffffffffffffffffffffff1673ffffffffffffffffffffffffffffffffffffffff16815260200160006fffffffffffffffffffffffffffffffff1681526020016000815260200160008152602001600860009054906101000a900473ffffffffffffffffffffffffffffffffffffffff1673ffffffffffffffffffffffffffffffffffffffff168152602001600015158152509050611a0e81611ec9565b90505b80868381518110611a4b577f4e487b7100000000000000000000000000000000000000000000000000000000600052603260045260246000fd5b6020026020010181905250508080611a629061337f565b915050611669565b505b838195509550505050509250929050565b60065481565b611a8b611dee565b73ffffffffffffffffffffffffffffffffffffffff16611aa9611096565b73ffffffffffffffffffffffffffffffffffffffff1614611aff576040517f08c379a0000000000000000000000000000000000000000000000000000000008152600401611af690612f0a565b60405180910390fd5b600073ffffffffffffffffffffffffffffffffffffffff168173ffffffffffffffffffffffffffffffffffffffff161415611b6f576040517f08c379a0000000000000000000000000000000000000000000000000000000008152600401611b6690612e8a565b60405180910390fd5b8073ffffffffffffffffffffffffffffffffffffffff1660008054906101000a900473ffffffffffffffffffffffffffffffffffffffff1673ffffffffffffffffffffffffffffffffffffffff167f8be0079c531659141344cd1fd0a4f28419497f9722a3daafe3b4186f6b6457e060405160405180910390a3806000806101000a81548173ffffffffffffffffffffffffffffffffffffffff021916908373ffffffffffffffffffffffffffffffffffffffff16021790555050565b611cad8363a9059cbb60e01b8484604051602401611c4b929190612d91565b604051602081830303815290604052907bffffffffffffffffffffffffffffffffffffffffffffffffffffffff19166020820180517bffffffffffffffffffffffffffffffffffffffffffffffffffffffff8381831617835250505050612076565b505050565b611d35846323b872dd60e01b858585604051602401611cd393929190612d5a565b604051602081830303815290604052907bffffffffffffffffffffffffffffffffffffffffffffffffffffffff19166020820180517bffffffffffffffffffffffffffffffffffffffffffffffffffffffff8381831617835250505050612076565b50505050565b600080611d48600161213d565b9050600960009054906101000a900473ffffffffffffffffffffffffffffffffffffffff1673ffffffffffffffffffffffffffffffffffffffff1663cd279c7c3083866040518463ffffffff1660e01b8152600401611da993929190612dba565b600060405180830381600087803b158015611dc357600080fd5b505af1158015611dd7573d6000803e3d6000fd5b50505050611de5600161214b565b80915050919050565b600033905090565b600080600560009054906101000a900473ffffffffffffffffffffffffffffffffffffffff1673ffffffffffffffffffffffffffffffffffffffff166365ac43416040518163ffffffff1660e01b815260040160206040518083038186803b158015611e6157600080fd5b505afa158015611e75573d6000803e3d6000fd5b505050506040513d601f19601f82011682018060405250810190611e9991906125eb565b90506003805490508110611eb1576000915050611ec6565b60038054905081611ec29190613276565b9150505b90565b611ed1612307565b6000829050600654600560009054906101000a900473ffffffffffffffffffffffffffffffffffffffff1673ffffffffffffffffffffffffffffffffffffffff1663a03c7fdb6040518163ffffffff1660e01b815260040160206040518083038186803b158015611f4157600080fd5b505afa158015611f55573d6000803e3d6000fd5b505050506040513d601f19601f82011682018060405250810190611f7991906125eb565b611f8391906131de565b8160a00181815250506006548160a00151611f9e9190613188565b816080018181525050600760009054906101000a90046fffffffffffffffffffffffffffffffff1681606001906fffffffffffffffffffffffffffffffff1690816fffffffffffffffffffffffffffffffff16815250508060200151816040019073ffffffffffffffffffffffffffffffffffffffff16908173ffffffffffffffffffffffffffffffffffffffff168152505080602001518160c0019073ffffffffffffffffffffffffffffffffffffffff16908173ffffffffffffffffffffffffffffffffffffffff168152505080915050919050565b60006120d8826040518060400160405280602081526020017f5361666545524332303a206c6f772d6c6576656c2063616c6c206661696c65648152508573ffffffffffffffffffffffffffffffffffffffff166121619092919063ffffffff16565b905060008151111561213857808060200190518101906120f89190612504565b612137576040517f08c379a000000000000000000000000000000000000000000000000000000000815260040161212e90612f8a565b60405180910390fd5b5b505050565b600081600001549050919050565b6001816000016000828254019250508190555050565b60606121708484600085612179565b90509392505050565b6060824710156121be576040517f08c379a00000000000000000000000000000000000000000000000000000000081526004016121b590612eca565b60405180910390fd5b6121c78561228d565b612206576040517f08c379a00000000000000000000000000000000000000000000000000000000081526004016121fd90612f4a565b60405180910390fd5b6000808673ffffffffffffffffffffffffffffffffffffffff16858760405161222f9190612d28565b60006040518083038185875af1925050503d806000811461226c576040519150601f19603f3d011682016040523d82523d6000602084013e612271565b606091505b50915091506122818282866122a0565b92505050949350505050565b600080823b905060008111915050919050565b606083156122b057829050612300565b6000835111156122c35782518084602001fd5b816040517f08c379a00000000000000000000000000000000000000000000000000000000081526004016122f79190612e28565b60405180910390fd5b9392505050565b60405180610100016040528060008152602001600073ffffffffffffffffffffffffffffffffffffffff168152602001600073ffffffffffffffffffffffffffffffffffffffff16815260200160006fffffffffffffffffffffffffffffffff1681526020016000815260200160008152602001600073ffffffffffffffffffffffffffffffffffffffff1681526020016000151581525090565b60006123b56123b0846130ed565b6130bc565b9050828152602081018484840111156123cd57600080fd5b6123d884828561333d565b509392505050565b6000813590506123ef81613437565b92915050565b60008151905061240481613437565b92915050565b6000815190506124198161344e565b92915050565b600082601f83011261243057600080fd5b81356124408482602086016123a2565b91505092915050565b60008135905061245881613465565b92915050565b60008135905061246d8161347c565b92915050565b6000815190506124828161347c565b92915050565b60008135905061249781613493565b92915050565b6000813590506124ac816134aa565b92915050565b6000602082840312156124c457600080fd5b60006124d2848285016123e0565b91505092915050565b6000602082840312156124ed57600080fd5b60006124fb848285016123f5565b91505092915050565b60006020828403121561251657600080fd5b60006125248482850161240a565b91505092915050565b60006020828403121561253f57600080fd5b600082013567ffffffffffffffff81111561255957600080fd5b6125658482850161241f565b91505092915050565b6000806040838503121561258157600080fd5b600083013567ffffffffffffffff81111561259b57600080fd5b6125a78582860161241f565b92505060206125b885828601612449565b9150509250929050565b6000602082840312156125d457600080fd5b60006125e28482850161245e565b91505092915050565b6000602082840312156125fd57600080fd5b600061260b84828501612473565b91505092915050565b6000806040838503121561262757600080fd5b60006126358582860161245e565b925050602061264685828601612449565b9150509250929050565b6000806040838503121561266357600080fd5b60006126718582860161249d565b925050602061268285828601612488565b9150509250929050565b60006126988383612c4a565b6101008301905092915050565b6126ae816132aa565b82525050565b6126bd816132aa565b82525050565b60006126ce8261312d565b6126d8818561315b565b93506126e38361311d565b8060005b838110156127145781516126fb888261268c565b97506127068361314e565b9250506001810190506126e7565b5085935050505092915050565b61272a816132bc565b82525050565b600061273b82613138565b612745818561316c565b935061275581856020860161334c565b80840191505092915050565b600061276c82613143565b6127768185613177565b935061278681856020860161334c565b61278f81613426565b840191505092915050565b60006127a7601983613177565b91507f4e465441756374696f6e3a20616c726561647920656e646564000000000000006000830152602082019050919050565b60006127e7603183613177565b91507f4e465441756374696f6e3a2054686572652069736e277420616e792063616e7660008301527f617320696e20796f75722077616c6c65740000000000000000000000000000006020830152604082019050919050565b600061284d602683613177565b91507f4f776e61626c653a206e6577206f776e657220697320746865207a65726f206160008301527f64647265737300000000000000000000000000000000000000000000000000006020830152604082019050919050565b60006128b3602583613177565b91507f4e465441756374696f6e3a20596f757227726520616c7265616479207468652060008301527f6f776e65720000000000000000000000000000000000000000000000000000006020830152604082019050919050565b6000612919602683613177565b91507f416464726573733a20696e73756666696369656e742062616c616e636520666f60008301527f722063616c6c00000000000000000000000000000000000000000000000000006020830152604082019050919050565b600061297f601783613177565b91507f4e465441756374696f6e3a20496e76616c6964204e46540000000000000000006000830152602082019050919050565b60006129bf602083613177565b91507f4f776e61626c653a2063616c6c6572206973206e6f7420746865206f776e65726000830152602082019050919050565b60006129ff602983613177565b91507f4e465441756374696f6e3a20596f75277265206e6f742074686520686967686560008301527f73742062696464657200000000000000000000000000000000000000000000006020830152604082019050919050565b6000612a65601d83613177565b91507f416464726573733a2063616c6c20746f206e6f6e2d636f6e74726163740000006000830152602082019050919050565b6000612aa5602a83613177565b91507f4e465441756374696f6e3a20486176656e2774206c697374656420666f72206160008301527f756374696f6e20796574000000000000000000000000000000000000000000006020830152604082019050919050565b6000612b0b602a83613177565b91507f5361666545524332303a204552433230206f7065726174696f6e20646964206e60008301527f6f742073756363656564000000000000000000000000000000000000000000006020830152604082019050919050565b6000612b71602383613177565b91507f4e465441756374696f6e3a2041756374696f6e206973206e6f74206f7665722060008301527f79657400000000000000000000000000000000000000000000000000000000006020830152604082019050919050565b6000612bd7601983613177565b91507f4e465441756374696f6e3a20707269636520746f6f206c6f77000000000000006000830152602082019050919050565b6000612c17601d83613177565b91507f4e465441756374696f6e3a2041756374696f6e20756e637265617465640000006000830152602082019050919050565b61010082016000820151612c616000850182612d0a565b506020820151612c7460208501826126a5565b506040820151612c8760408501826126a5565b506060820151612c9a6060850182612cec565b506080820151612cad6080850182612d0a565b5060a0820151612cc060a0850182612d0a565b5060c0820151612cd360c08501826126a5565b5060e0820151612ce660e0850182612721565b50505050565b612cf5816132c8565b82525050565b612d048161332b565b82525050565b612d1381613304565b82525050565b612d2281613304565b82525050565b6000612d348284612730565b915081905092915050565b6000602082019050612d5460008301846126b4565b92915050565b6000606082019050612d6f60008301866126b4565b612d7c60208301856126b4565b612d896040830184612d19565b949350505050565b6000604082019050612da660008301856126b4565b612db36020830184612d19565b9392505050565b6000606082019050612dcf60008301866126b4565b612ddc6020830185612d19565b8181036040830152612dee8184612761565b9050949350505050565b60006040820190508181036000830152612e1281856126c3565b9050612e216020830184612d19565b9392505050565b60006020820190508181036000830152612e428184612761565b905092915050565b60006020820190508181036000830152612e638161279a565b9050919050565b60006020820190508181036000830152612e83816127da565b9050919050565b60006020820190508181036000830152612ea381612840565b9050919050565b60006020820190508181036000830152612ec3816128a6565b9050919050565b60006020820190508181036000830152612ee38161290c565b9050919050565b60006020820190508181036000830152612f0381612972565b9050919050565b60006020820190508181036000830152612f23816129b2565b9050919050565b60006020820190508181036000830152612f43816129f2565b9050919050565b60006020820190508181036000830152612f6381612a58565b9050919050565b60006020820190508181036000830152612f8381612a98565b9050919050565b60006020820190508181036000830152612fa381612afe565b9050919050565b60006020820190508181036000830152612fc381612b64565b9050919050565b60006020820190508181036000830152612fe381612bca565b9050919050565b6000602082019050818103600083015261300381612c0a565b9050919050565b600060208201905061301f6000830184612d19565b92915050565b600060408201905061303a6000830185612d19565b61304760208301846126b4565b9392505050565b60006060820190506130636000830186612d19565b6130706020830185612cfb565b61307d60408301846126b4565b949350505050565b600060608201905061309a6000830186612d19565b6130a76020830185612cfb565b6130b46040830184612d19565b949350505050565b6000604051905081810181811067ffffffffffffffff821117156130e3576130e26133f7565b5b8060405250919050565b600067ffffffffffffffff821115613108576131076133f7565b5b601f19601f8301169050602081019050919050565b6000819050602082019050919050565b600081519050919050565b600081519050919050565b600081519050919050565b6000602082019050919050565b600082825260208201905092915050565b600081905092915050565b600082825260208201905092915050565b600061319382613304565b915061319e83613304565b9250827fffffffffffffffffffffffffffffffffffffffffffffffffffffffffffffffff038211156131d3576131d26133c8565b5b828201905092915050565b60006131e982613304565b91506131f483613304565b9250817fffffffffffffffffffffffffffffffffffffffffffffffffffffffffffffffff048311821515161561322d5761322c6133c8565b5b828202905092915050565b60006132438261330e565b915061324e8361330e565b92508163ffffffff048311821515161561326b5761326a6133c8565b5b828202905092915050565b600061328182613304565b915061328c83613304565b92508282101561329f5761329e6133c8565b5b828203905092915050565b60006132b5826132e4565b9050919050565b60008115159050919050565b60006fffffffffffffffffffffffffffffffff82169050919050565b600073ffffffffffffffffffffffffffffffffffffffff82169050919050565b6000819050919050565b600063ffffffff82169050919050565b600060ff82169050919050565b6000613336826132c8565b9050919050565b82818337600083830152505050565b60005b8381101561336a57808201518184015260208101905061334f565b83811115613379576000848401525b50505050565b600061338a82613304565b91507fffffffffffffffffffffffffffffffffffffffffffffffffffffffffffffffff8214156133bd576133bc6133c8565b5b600182019050919050565b7f4e487b7100000000000000000000000000000000000000000000000000000000600052601160045260246000fd5b7f4e487b7100000000000000000000000000000000000000000000000000000000600052604160045260246000fd5b6000601f19601f8301169050919050565b613440816132aa565b811461344b57600080fd5b50565b613457816132bc565b811461346257600080fd5b50565b61346e816132c8565b811461347957600080fd5b50565b61348581613304565b811461349057600080fd5b50565b61349c8161330e565b81146134a757600080fd5b50565b6134b38161331e565b81146134be57600080fd5b5056fea2646970667358221220d644a67c23bbb59a63edc8383de92c679aabc1bf722d5ee40f8ccf26acd0921364736f6c63430008000033",
  "immutableReferences": {},
  "source": "// SPDX-License-Identifier: GPL-3.0\npragma solidity ^0.8.0;\n\nimport \"@openzeppelin/contracts/access/Ownable.sol\";\nimport \"@openzeppelin/contracts/utils/Counters.sol\";\nimport \"@openzeppelin/contracts/token/ERC20/IERC20.sol\";\nimport \"@openzeppelin/contracts/token/ERC20/utils/SafeERC20.sol\";\nimport \"./interface/IPeriod.sol\";\nimport \"./interface/ICoinBidCreation.sol\";\nimport \"./interface/ICanvasAuction.sol\";\nimport \"./interface/IMining.sol\";\n\ncontract NFTAuction is Ownable {\n\n    using SafeERC20 for IERC20;\n    using Counters for Counters.Counter;\n\n    // auto increament.\n    Counters.Counter private _tokenIdCounter;\n\n    // Represents an auction on an NFT\n    struct Auction {\n\n        uint tokenId;\n        // \n        address belongsTo;\n        // Current owner of NFT\n        address seller;\n        uint128 lastPrice;\n        // Time when auction ended\n        uint endAt;\n        // Time when auction started\n        uint startedAt;\n        address lastBidder;\n        bool used;\n    }\n\n    // Map from NFT ID to their corresponding auction.\n    mapping (uint256 => Auction) nftIdToAuction;\n\n    uint[] nftArr;\n    uint[] nftInAuctionArr;\n\n    IPeriod nftFactory;\n\n    // \n    uint public period;\n\n    // \n    uint128 internal defaultPrice;\n\n    // Trust fund pool\n    address pool;\n\n    ICoinBidCreation internal nft;\n    ICanvasAuction internal canvasAuction;\n\n    // TODO set value\n    IERC20 tokenToPay;\n    uint8 tokenToPayDecimals = 18;\n\n    IMining mining;\n\n    event NFTAuctionCreated(uint nftId, uint256 startingPrice, uint256 duration);\n    event NFTAuctionBid(uint nftId, uint256 bidPrice, address bidder);\n    event NFTAuctionEnded(uint nftId, uint price, address buyer);\n\n    constructor(address _nftFactory, address _tokenToPay, address _pool, \n                address _nft, address _mining, address _canvasAuction) {\n        nftFactory = IPeriod(_nftFactory);\n        period = nftFactory.getPeriod();\n        tokenToPay = IERC20(_tokenToPay);\n        pool = _pool;\n        nft = ICoinBidCreation(_nft);\n        mining = IMining(_mining);\n        canvasAuction = ICanvasAuction(_canvasAuction);\n    }\n\n    function getNFTInAuction(uint8 _amountPerPage, uint32 _page) public view returns(Auction[] memory, uint) {\n        Auction[] memory arr = new Auction[](_amountPerPage);\n        uint startPoint = _amountPerPage * _page;\n        // uninstanted amount.\n        uint rawAmount = getUninstantedAmount();\n        uint totalLength = nftInAuctionArr.length + rawAmount;\n        if((totalLength - 1) >= startPoint) {\n            for(uint i = 0; i < _amountPerPage; i++) {\n                if((totalLength - 1) < (startPoint + i)) {\n                    break;\n                }\n\n                Auction memory auction;\n                if((nftInAuctionArr.length - 1) >= (startPoint + i)) {\n                    uint index = nftInAuctionArr[startPoint + i];\n                    auction = nftIdToAuction[index];\n                    // no bid yet.\n                    if(auction.lastBidder == address(0)) {\n                        auction = getNoBidAuction(auction);\n                    }\n                } else {\n                    // \n                    auction = Auction(0, pool, pool, 0, 0, 0, pool, false);\n                    auction = getNoBidAuction(auction);\n                }\n                arr[i] = auction;\n            }\n        }\n        return (arr, totalLength);\n    }\n\n    function getNoBidAuction(Auction memory _auction) private view returns(Auction memory) {\n        Auction memory auction = _auction;\n        auction.startedAt = nftFactory.getCurPeriod() * period;\n        auction.endAt = auction.startedAt + period;\n        auction.lastPrice = defaultPrice;\n        auction.seller = auction.belongsTo;\n        auction.lastBidder = auction.belongsTo;\n        return auction;\n    }\n\n    function getUninstantedAmount() internal view returns(uint) {\n        uint total = nftFactory.getTotalAmount();\n        if(total >= nftArr.length) {\n            return 0;\n        }\n        return total - nftArr.length;\n    }\n\n    function bidUninstanted(string memory _tokenURI, uint128 _price) public {\n        uint amount = getUninstantedAmount();\n        require(amount > 0, \"NFTAuction: Invalid NFT\");\n        require(_price > defaultPrice, \"NFTAuction: price too low\");\n\n        uint tokenId = createNFT(_tokenURI);\n\n        uint startedAt = nftFactory.getCurPeriod() * period;\n        uint endAt = startedAt + period;\n        Auction memory auction = Auction(tokenId, pool, pool, _price, endAt, startedAt, msg.sender, true);\n        nftIdToAuction[tokenId] = auction;\n        nftInAuctionArr.push(tokenId);\n        nftArr.push(tokenId);\n\n        emit NFTAuctionCreated(tokenId, defaultPrice, period);\n        emit NFTAuctionBid(tokenId, _price, msg.sender);\n    }\n\n    // NFT\n    function createNFTByCanvas(string memory _tokenURI) public {\n        require(canvasAuction.popOne(msg.sender), \"NFTAuction: There isn't any canvas in your wallet\");\n        uint tokenId = createNFT(_tokenURI);\n\n        uint startedAt = nftFactory.getCurPeriod() * period;\n        uint endAt = startedAt + period;\n        Auction memory auction = Auction(tokenId, msg.sender, msg.sender, defaultPrice, endAt, startedAt, address(0), true);\n        nftIdToAuction[tokenId] = auction;\n        nftInAuctionArr.push(tokenId);\n        nftArr.push(tokenId);\n\n        emit NFTAuctionCreated(tokenId, defaultPrice, period);\n    }\n\n    // NFT\n    function createNFT(string memory _tokenURI) private returns(uint) {\n        uint id = _tokenIdCounter.current();\n        nft.safeMint(address(this), id, _tokenURI);\n        _tokenIdCounter.increment();\n        return id;\n    }\n\n    function bid(uint _tokenId, uint128 _price) external {\n        require(msg.sender != mining.ownerOfNFT(_tokenId), \"NFTAuction: Your're already the owner\");\n        require(nftIdToAuction[_tokenId].used, \"NFTAuction: Haven't listed for auction yet\");\n        Auction storage auction = nftIdToAuction[_tokenId];\n        require(_price > auction.lastPrice, \"NFTAuction: price too low\");\n        // Already bided\n        if(auction.lastBidder != address(0)) {\n            require(block.timestamp <= auction.endAt, \"NFTAuction: already ended\");\n            tokenToPay.safeTransfer(auction.lastBidder, auction.lastPrice);\n        }\n\n        tokenToPay.safeTransferFrom(msg.sender, address(this), _price);\n\n        auction.lastPrice = _price;\n        auction.lastBidder = msg.sender;\n        \n        emit NFTAuctionBid(_tokenId, _price, msg.sender);\n    }\n\n    function auctionEnd(uint _tokenId) public {\n        Auction memory auction = nftIdToAuction[_tokenId];\n\n        require(auction.used, \"NFTAuction: Auction uncreated\");\n        require(block.timestamp > auction.endAt, \"NFTAuction: Auction is not over yet\");\n        require(msg.sender == auction.lastBidder, \"NFTAuction: You're not the highest bidder\");\n\n        delete nftIdToAuction[_tokenId];\n\n        tokenToPay.safeTransfer(auction.seller, auction.lastPrice);\n        mining.transferCreation(_tokenId, msg.sender);\n        emit NFTAuctionEnded(_tokenId, auction.lastPrice, msg.sender);\n    }\n\n    // function setFactory(address _factory) public onlyOwner {\n    //     nftFactory = IPeriod(_factory);\n    // }\n}",
  "sourcePath": "/Users/iwan/code/coinbid-cointract/contracts/7_NFTAuction.sol",
  "compiler": {
    "name": "solc",
    "version": "0.8.0+commit.c7dfd78e.Emscripten.clang"
  },
  "schemaVersion": "3.4.1",
  "updatedAt": "2021-06-24T17:47:19.085Z",
  "networkType": "ethereum",
  "devdoc": {
    "kind": "dev",
    "methods": {
      "owner()": {
        "details": "Returns the address of the current owner."
      },
      "renounceOwnership()": {
        "details": "Leaves the contract without owner. It will not be possible to call `onlyOwner` functions anymore. Can only be called by the current owner. NOTE: Renouncing ownership will leave the contract without an owner, thereby removing any functionality that is only available to the owner."
      },
      "transferOwnership(address)": {
        "details": "Transfers ownership of the contract to a new account (`newOwner`). Can only be called by the current owner."
      }
    },
    "version": 1
  },
  "userdoc": {
    "kind": "user",
    "methods": {},
    "version": 1
  }
}