{
  "contractName": "NFTFactory",
  "abi": [
    {
      "inputs": [
        {
          "internalType": "uint256",
          "name": "_period",
          "type": "uint256"
        },
        {
          "internalType": "uint16",
          "name": "_amountPerPeriod",
          "type": "uint16"
        }
      ],
      "stateMutability": "nonpayable",
      "type": "constructor"
    },
    {
      "anonymous": false,
      "inputs": [
        {
          "indexed": true,
          "internalType": "address",
          "name": "previousOwner",
          "type": "address"
        },
        {
          "indexed": true,
          "internalType": "address",
          "name": "newOwner",
          "type": "address"
        }
      ],
      "name": "OwnershipTransferred",
      "type": "event"
    },
    {
      "inputs": [],
      "name": "owner",
      "outputs": [
        {
          "internalType": "address",
          "name": "",
          "type": "address"
        }
      ],
      "stateMutability": "view",
      "type": "function",
      "constant": true
    },
    {
      "inputs": [],
      "name": "renounceOwnership",
      "outputs": [],
      "stateMutability": "nonpayable",
      "type": "function"
    },
    {
      "inputs": [
        {
          "internalType": "address",
          "name": "newOwner",
          "type": "address"
        }
      ],
      "name": "transferOwnership",
      "outputs": [],
      "stateMutability": "nonpayable",
      "type": "function"
    },
    {
      "inputs": [],
      "name": "getTotalAmount",
      "outputs": [
        {
          "internalType": "uint256",
          "name": "",
          "type": "uint256"
        }
      ],
      "stateMutability": "view",
      "type": "function",
      "constant": true
    },
    {
      "inputs": [],
      "name": "getCurPeriod",
      "outputs": [
        {
          "internalType": "uint256",
          "name": "",
          "type": "uint256"
        }
      ],
      "stateMutability": "view",
      "type": "function",
      "constant": true
    },
    {
      "inputs": [],
      "name": "getPeriod",
      "outputs": [
        {
          "internalType": "uint256",
          "name": "",
          "type": "uint256"
        }
      ],
      "stateMutability": "view",
      "type": "function",
      "constant": true
    },
    {
      "inputs": [],
      "name": "getPeriodStart",
      "outputs": [
        {
          "internalType": "uint256",
          "name": "",
          "type": "uint256"
        }
      ],
      "stateMutability": "view",
      "type": "function",
      "constant": true
    },
    {
      "inputs": [],
      "name": "getAmountPerPeriod",
      "outputs": [
        {
          "internalType": "uint16",
          "name": "",
          "type": "uint16"
        }
      ],
      "stateMutability": "view",
      "type": "function",
      "constant": true
    },
    {
      "inputs": [
        {
          "internalType": "uint256",
          "name": "_periodId",
          "type": "uint256"
        }
      ],
      "name": "startTimeAt",
      "outputs": [
        {
          "internalType": "uint256",
          "name": "",
          "type": "uint256"
        }
      ],
      "stateMutability": "view",
      "type": "function",
      "constant": true
    }
  ],
  "bytecode": "0x608060405234801561001057600080fd5b50604051610b50380380610b5083398181016040528101906100329190610144565b600061004261011260201b60201c565b9050806000806101000a81548173ffffffffffffffffffffffffffffffffffffffff021916908373ffffffffffffffffffffffffffffffffffffffff1602179055508073ffffffffffffffffffffffffffffffffffffffff16600073ffffffffffffffffffffffffffffffffffffffff167f8be0079c531659141344cd1fd0a4f28419497f9722a3daafe3b4186f6b6457e060405160405180910390a350816001819055504260028190555080600360006101000a81548161ffff021916908361ffff16021790555050506101c6565b600033905090565b60008151905061012981610198565b92915050565b60008151905061013e816101af565b92915050565b6000806040838503121561015757600080fd5b60006101658582860161012f565b92505060206101768582860161011a565b9150509250929050565b600061ffff82169050919050565b6000819050919050565b6101a181610180565b81146101ac57600080fd5b50565b6101b88161018e565b81146101c357600080fd5b50565b61097b806101d56000396000f3fe608060405234801561001057600080fd5b50600436106100935760003560e01c8063715018a611610066578063715018a6146101225780638da5cb5b1461012c578063a03c7fdb1461014a578063d50ff49714610168578063f2fde38b1461018657610093565b806319015a75146100985780631ed24195146100c857806329c234df146100e657806365ac434114610104575b600080fd5b6100b260048036038101906100ad91906105bc565b6101a2565b6040516100bf919061072e565b60405180910390f35b6100d06101c6565b6040516100dd919061072e565b60405180910390f35b6100ee6101d0565b6040516100fb919061072e565b60405180910390f35b61010c6101da565b604051610119919061072e565b60405180910390f35b61012a61021b565b005b610134610355565b60405161014191906106b8565b60405180910390f35b61015261037e565b60405161015f919061072e565b60405180910390f35b6101706103a0565b60405161017d9190610713565b60405180910390f35b6101a0600480360381019061019b9190610593565b6103b8565b005b6000600254600154836101b591906107e1565b6101bf919061075a565b9050919050565b6000600154905090565b6000600254905090565b6000600360009054906101000a900461ffff1661ffff1660015460025442610202919061083b565b61020c91906107b0565b61021691906107e1565b905090565b610223610561565b73ffffffffffffffffffffffffffffffffffffffff16610241610355565b73ffffffffffffffffffffffffffffffffffffffff1614610297576040517f08c379a000000000000000000000000000000000000000000000000000000000815260040161028e906106f3565b60405180910390fd5b600073ffffffffffffffffffffffffffffffffffffffff1660008054906101000a900473ffffffffffffffffffffffffffffffffffffffff1673ffffffffffffffffffffffffffffffffffffffff167f8be0079c531659141344cd1fd0a4f28419497f9722a3daafe3b4186f6b6457e060405160405180910390a360008060006101000a81548173ffffffffffffffffffffffffffffffffffffffff021916908373ffffffffffffffffffffffffffffffffffffffff160217905550565b60008060009054906101000a900473ffffffffffffffffffffffffffffffffffffffff16905090565b600060015460025442610391919061083b565b61039b91906107b0565b905090565b6000600360009054906101000a900461ffff16905090565b6103c0610561565b73ffffffffffffffffffffffffffffffffffffffff166103de610355565b73ffffffffffffffffffffffffffffffffffffffff1614610434576040517f08c379a000000000000000000000000000000000000000000000000000000000815260040161042b906106f3565b60405180910390fd5b600073ffffffffffffffffffffffffffffffffffffffff168173ffffffffffffffffffffffffffffffffffffffff1614156104a4576040517f08c379a000000000000000000000000000000000000000000000000000000000815260040161049b906106d3565b60405180910390fd5b8073ffffffffffffffffffffffffffffffffffffffff1660008054906101000a900473ffffffffffffffffffffffffffffffffffffffff1673ffffffffffffffffffffffffffffffffffffffff167f8be0079c531659141344cd1fd0a4f28419497f9722a3daafe3b4186f6b6457e060405160405180910390a3806000806101000a81548173ffffffffffffffffffffffffffffffffffffffff021916908373ffffffffffffffffffffffffffffffffffffffff16021790555050565b600033905090565b60008135905061057881610917565b92915050565b60008135905061058d8161092e565b92915050565b6000602082840312156105a557600080fd5b60006105b384828501610569565b91505092915050565b6000602082840312156105ce57600080fd5b60006105dc8482850161057e565b91505092915050565b6105ee8161086f565b82525050565b6000610601602683610749565b91507f4f776e61626c653a206e6577206f776e657220697320746865207a65726f206160008301527f64647265737300000000000000000000000000000000000000000000000000006020830152604082019050919050565b6000610667602083610749565b91507f4f776e61626c653a2063616c6c6572206973206e6f7420746865206f776e65726000830152602082019050919050565b6106a381610881565b82525050565b6106b2816108af565b82525050565b60006020820190506106cd60008301846105e5565b92915050565b600060208201905081810360008301526106ec816105f4565b9050919050565b6000602082019050818103600083015261070c8161065a565b9050919050565b6000602082019050610728600083018461069a565b92915050565b600060208201905061074360008301846106a9565b92915050565b600082825260208201905092915050565b6000610765826108af565b9150610770836108af565b9250827fffffffffffffffffffffffffffffffffffffffffffffffffffffffffffffffff038211156107a5576107a46108b9565b5b828201905092915050565b60006107bb826108af565b91506107c6836108af565b9250826107d6576107d56108e8565b5b828204905092915050565b60006107ec826108af565b91506107f7836108af565b9250817fffffffffffffffffffffffffffffffffffffffffffffffffffffffffffffffff04831182151516156108305761082f6108b9565b5b828202905092915050565b6000610846826108af565b9150610851836108af565b925082821015610864576108636108b9565b5b828203905092915050565b600061087a8261088f565b9050919050565b600061ffff82169050919050565b600073ffffffffffffffffffffffffffffffffffffffff82169050919050565b6000819050919050565b7f4e487b7100000000000000000000000000000000000000000000000000000000600052601160045260246000fd5b7f4e487b7100000000000000000000000000000000000000000000000000000000600052601260045260246000fd5b6109208161086f565b811461092b57600080fd5b50565b610937816108af565b811461094257600080fd5b5056fea2646970667358221220944b419223e797cfb3d5c0c424450ec40d0b352260c88a224ced93bd7c965f4164736f6c63430008000033",
  "immutableReferences": {},
  "source": "// SPDX-License-Identifier: GPL-3.0\npragma solidity ^0.8.0;\n\nimport \"@openzeppelin/contracts/access/Ownable.sol\";\nimport \"./interface/IPeriod.sol\";\n\ncontract NFTFactory is Ownable, IPeriod {\n\n    uint private period;\n    uint private periodStart;\n    uint16 private amountPerPeriod;\n\n    constructor(uint _period/*, uint _periodStart*/, uint16 _amountPerPeriod) {\n        period = _period;\n        periodStart = block.timestamp;//_periodStart;\n        amountPerPeriod = _amountPerPeriod;\n    }\n\n    function getTotalAmount() override public view returns(uint) {\n        return (block.timestamp - periodStart) / period * amountPerPeriod;\n    }\n\n    // get the current period id\n    function getCurPeriod() override public view returns(uint) {\n        return (block.timestamp - periodStart) / period;\n    }\n\n    function getPeriod() override external view returns(uint) {\n        return period;\n    }\n\n    function getPeriodStart() override external view returns(uint) {\n        return periodStart;\n    }\n\n    function getAmountPerPeriod() override external view returns(uint16) {\n        return amountPerPeriod;\n    }\n\n    // get the start time of a period.\n    function startTimeAt(uint _periodId) public view returns(uint) {\n        return _periodId * period + periodStart;\n    }\n\n    // to check if the canvas id and period id are valid.\n    // function checkValid(uint _canvasId, uint _periodId) public view returns(bool) {\n    //     if(_canvasId <= 0 || _periodId == 0) {\n    //         return false;\n    //     }\n\n    //     uint currPeriod = getCurPeriod();\n    //     if(_periodId > currPeriod) {\n    //         return false;\n    //     }\n    //     // TODO....\n\n    //     return true;\n    // }\n\n}",
  "sourcePath": "/Users/iwan/code/coinbid-cointract/contracts/4_NFTFactory.sol",
  "compiler": {
    "name": "solc",
    "version": "0.8.0+commit.c7dfd78e.Emscripten.clang"
  },
  "schemaVersion": "3.4.1",
  "updatedAt": "2021-06-24T17:47:19.099Z",
  "networkType": "ethereum",
  "devdoc": {
    "kind": "dev",
    "methods": {
      "owner()": {
        "details": "Returns the address of the current owner."
      },
      "renounceOwnership()": {
        "details": "Leaves the contract without owner. It will not be possible to call `onlyOwner` functions anymore. Can only be called by the current owner. NOTE: Renouncing ownership will leave the contract without an owner, thereby removing any functionality that is only available to the owner."
      },
      "transferOwnership(address)": {
        "details": "Transfers ownership of the contract to a new account (`newOwner`). Can only be called by the current owner."
      }
    },
    "version": 1
  },
  "userdoc": {
    "kind": "user",
    "methods": {},
    "version": 1
  }
}