{
  "contractName": "CanvasAuction",
  "abi": [
    {
      "inputs": [
        {
          "internalType": "address",
          "name": "_cbd",
          "type": "address"
        },
        {
          "internalType": "uint256",
          "name": "_canvasPrice",
          "type": "uint256"
        },
        {
          "internalType": "address",
          "name": "_periodMana",
          "type": "address"
        }
      ],
      "stateMutability": "nonpayable",
      "type": "constructor"
    },
    {
      "anonymous": false,
      "inputs": [
        {
          "indexed": false,
          "internalType": "address",
          "name": "newGovernance",
          "type": "address"
        }
      ],
      "name": "AddGovernance",
      "type": "event"
    },
    {
      "anonymous": false,
      "inputs": [
        {
          "indexed": true,
          "internalType": "address",
          "name": "previousOwner",
          "type": "address"
        },
        {
          "indexed": true,
          "internalType": "address",
          "name": "newOwner",
          "type": "address"
        }
      ],
      "name": "OwnershipTransferred",
      "type": "event"
    },
    {
      "anonymous": false,
      "inputs": [
        {
          "indexed": false,
          "internalType": "address",
          "name": "oldGovernance",
          "type": "address"
        }
      ],
      "name": "RemoveGovernance",
      "type": "event"
    },
    {
      "inputs": [
        {
          "internalType": "address",
          "name": "_newGovernance",
          "type": "address"
        }
      ],
      "name": "addGovernance",
      "outputs": [],
      "stateMutability": "nonpayable",
      "type": "function"
    },
    {
      "inputs": [],
      "name": "canvasPrice",
      "outputs": [
        {
          "internalType": "uint256",
          "name": "",
          "type": "uint256"
        }
      ],
      "stateMutability": "view",
      "type": "function",
      "constant": true
    },
    {
      "inputs": [],
      "name": "cbd",
      "outputs": [
        {
          "internalType": "contract IERC20",
          "name": "",
          "type": "address"
        }
      ],
      "stateMutability": "view",
      "type": "function",
      "constant": true
    },
    {
      "inputs": [
        {
          "internalType": "address",
          "name": "_governance",
          "type": "address"
        }
      ],
      "name": "isGovernance",
      "outputs": [
        {
          "internalType": "bool",
          "name": "",
          "type": "bool"
        }
      ],
      "stateMutability": "view",
      "type": "function",
      "constant": true
    },
    {
      "inputs": [],
      "name": "owner",
      "outputs": [
        {
          "internalType": "address",
          "name": "",
          "type": "address"
        }
      ],
      "stateMutability": "view",
      "type": "function",
      "constant": true
    },
    {
      "inputs": [],
      "name": "periodMana",
      "outputs": [
        {
          "internalType": "contract IPeriod",
          "name": "",
          "type": "address"
        }
      ],
      "stateMutability": "view",
      "type": "function",
      "constant": true
    },
    {
      "inputs": [
        {
          "internalType": "address",
          "name": "_oldGovernance",
          "type": "address"
        }
      ],
      "name": "removeGovernance",
      "outputs": [],
      "stateMutability": "nonpayable",
      "type": "function"
    },
    {
      "inputs": [],
      "name": "renounceOwnership",
      "outputs": [],
      "stateMutability": "nonpayable",
      "type": "function"
    },
    {
      "inputs": [
        {
          "internalType": "address",
          "name": "newOwner",
          "type": "address"
        }
      ],
      "name": "transferOwnership",
      "outputs": [],
      "stateMutability": "nonpayable",
      "type": "function"
    },
    {
      "inputs": [],
      "name": "validTime",
      "outputs": [
        {
          "internalType": "uint256",
          "name": "",
          "type": "uint256"
        }
      ],
      "stateMutability": "view",
      "type": "function",
      "constant": true
    },
    {
      "inputs": [
        {
          "internalType": "uint16",
          "name": "_amount",
          "type": "uint16"
        }
      ],
      "name": "buy",
      "outputs": [],
      "stateMutability": "nonpayable",
      "type": "function"
    },
    {
      "inputs": [
        {
          "internalType": "address",
          "name": "_theOwner",
          "type": "address"
        }
      ],
      "name": "popOne",
      "outputs": [
        {
          "internalType": "bool",
          "name": "",
          "type": "bool"
        }
      ],
      "stateMutability": "nonpayable",
      "type": "function"
    },
    {
      "inputs": [
        {
          "internalType": "address",
          "name": "_theOwner",
          "type": "address"
        }
      ],
      "name": "getMyAmount",
      "outputs": [
        {
          "internalType": "uint256",
          "name": "",
          "type": "uint256"
        }
      ],
      "stateMutability": "view",
      "type": "function",
      "constant": true
    },
    {
      "inputs": [
        {
          "internalType": "uint256",
          "name": "_price",
          "type": "uint256"
        }
      ],
      "name": "setCanvasPrice",
      "outputs": [],
      "stateMutability": "nonpayable",
      "type": "function"
    },
    {
      "inputs": [
        {
          "internalType": "uint256",
          "name": "_validTime",
          "type": "uint256"
        }
      ],
      "name": "setValidTime",
      "outputs": [],
      "stateMutability": "nonpayable",
      "type": "function"
    },
    {
      "inputs": [
        {
          "internalType": "address",
          "name": "_cbd",
          "type": "address"
        }
      ],
      "name": "setCbd",
      "outputs": [],
      "stateMutability": "nonpayable",
      "type": "function"
    }
  ],
  "bytecode": "0x60806040523480156200001157600080fd5b50604051620023063803806200230683398181016040528101906200003791906200025e565b6000620000496200022860201b60201c565b9050806000806101000a81548173ffffffffffffffffffffffffffffffffffffffff021916908373ffffffffffffffffffffffffffffffffffffffff1602179055508073ffffffffffffffffffffffffffffffffffffffff16600073ffffffffffffffffffffffffffffffffffffffff167f8be0079c531659141344cd1fd0a4f28419497f9722a3daafe3b4186f6b6457e060405160405180910390a3506000620000f96200022860201b60201c565b905060018060008373ffffffffffffffffffffffffffffffffffffffff1673ffffffffffffffffffffffffffffffffffffffff16815260200190815260200160002060006101000a81548160ff0219169083151502179055507ff56d2fb652fc669bcf35bbbb8f85436120a45e17ae8d3eb32afa9f3cef3e748b81604051620001839190620002c5565b60405180910390a15082600560006101000a81548173ffffffffffffffffffffffffffffffffffffffff021916908373ffffffffffffffffffffffffffffffffffffffff1602179055508160068190555080600760006101000a81548173ffffffffffffffffffffffffffffffffffffffff021916908373ffffffffffffffffffffffffffffffffffffffff16021790555062278d0060088190555050505062000354565b600033905090565b600081519050620002418162000320565b92915050565b60008151905062000258816200033a565b92915050565b6000806000606084860312156200027457600080fd5b6000620002848682870162000230565b9350506020620002978682870162000247565b9250506040620002aa8682870162000230565b9150509250925092565b620002bf81620002e2565b82525050565b6000602082019050620002dc6000830184620002b4565b92915050565b6000620002ef82620002f6565b9050919050565b600073ffffffffffffffffffffffffffffffffffffffff82169050919050565b6000819050919050565b6200032b81620002e2565b81146200033757600080fd5b50565b620003458162000316565b81146200035157600080fd5b50565b611fa280620003646000396000f3fe608060405234801561001057600080fd5b50600436106101005760003560e01c80638da5cb5b11610097578063c4c7f2f411610066578063c4c7f2f414610273578063d21379311461028f578063dee1f0e4146102ad578063f2fde38b146102dd57610100565b80638da5cb5b146101fd578063906e24791461021b578063b326517814610237578063bbe449171461025557610100565b80634fe0d2e5116100d35780634fe0d2e5146101755780635397118914610193578063715018a6146101c35780638adb87f4146101cd57610100565b80631eabc116146101055780634a9d7923146101215780634c93c1e21461013d5780634fb70ee714610159575b600080fd5b61011f600480360381019061011a91906116ba565b6102f9565b005b61013b60048036038101906101369190611668565b610631565b005b6101576004803603810190610152919061170c565b6106f1565b005b610173600480360381019061016e919061170c565b610777565b005b61017d6107fd565b60405161018a9190611b30565b60405180910390f35b6101ad60048036038101906101a89190611668565b610823565b6040516101ba9190611afa565b60405180910390f35b6101cb610b66565b005b6101e760048036038101906101e29190611668565b610ca0565b6040516101f49190611c4d565b60405180910390f35b610205610e77565b6040516102129190611aa8565b60405180910390f35b61023560048036038101906102309190611668565b610ea0565b005b61023f610fae565b60405161024c9190611c4d565b60405180910390f35b61025d610fb4565b60405161026a9190611c4d565b60405180910390f35b61028d60048036038101906102889190611668565b610fba565b005b6102976110c7565b6040516102a49190611b15565b60405180910390f35b6102c760048036038101906102c29190611668565b6110ed565b6040516102d49190611afa565b60405180910390f35b6102f760048036038101906102f29190611668565b611143565b005b6000600760009054906101000a900473ffffffffffffffffffffffffffffffffffffffff1673ffffffffffffffffffffffffffffffffffffffff1663a03c7fdb6040518163ffffffff1660e01b815260040160206040518083038186803b15801561036357600080fd5b505afa158015610377573d6000803e3d6000fd5b505050506040513d601f19601f8201168201806040525081019061039b9190611735565b9050600760009054906101000a900473ffffffffffffffffffffffffffffffffffffffff1673ffffffffffffffffffffffffffffffffffffffff1663d50ff4976040518163ffffffff1660e01b815260040160206040518083038186803b15801561040557600080fd5b505afa158015610419573d6000803e3d6000fd5b505050506040513d601f19601f8201168201806040525081019061043d91906116e3565b61ffff16826002600084815260200190815260200160002060009054906101000a900461ffff1661046e9190611c9a565b61ffff16106104b2576040517f08c379a00000000000000000000000000000000000000000000000000000000081526004016104a990611bed565b60405180910390fd5b61051233308461ffff166006546104c99190611d28565b600560009054906101000a900473ffffffffffffffffffffffffffffffffffffffff1673ffffffffffffffffffffffffffffffffffffffff166112ec909392919063ffffffff16565b600360003373ffffffffffffffffffffffffffffffffffffffff1673ffffffffffffffffffffffffffffffffffffffff1681526020019081526020016000204290806001815401808255809150506001900390600052602060002001600090919091909150558161ffff16600460003373ffffffffffffffffffffffffffffffffffffffff1673ffffffffffffffffffffffffffffffffffffffff168152602001908152602001600020600042815260200190815260200160002060008282546105dc9190611cd2565b92505081905550816002600083815260200190815260200160002060008282829054906101000a900461ffff166106139190611c9a565b92506101000a81548161ffff021916908361ffff1602179055505050565b610639611375565b73ffffffffffffffffffffffffffffffffffffffff16610657610e77565b73ffffffffffffffffffffffffffffffffffffffff16146106ad576040517f08c379a00000000000000000000000000000000000000000000000000000000081526004016106a490611bcd565b60405180910390fd5b80600560006101000a81548173ffffffffffffffffffffffffffffffffffffffff021916908373ffffffffffffffffffffffffffffffffffffffff16021790555050565b6106f9611375565b73ffffffffffffffffffffffffffffffffffffffff16610717610e77565b73ffffffffffffffffffffffffffffffffffffffff161461076d576040517f08c379a000000000000000000000000000000000000000000000000000000000815260040161076490611bcd565b60405180910390fd5b8060088190555050565b61077f611375565b73ffffffffffffffffffffffffffffffffffffffff1661079d610e77565b73ffffffffffffffffffffffffffffffffffffffff16146107f3576040517f08c379a00000000000000000000000000000000000000000000000000000000081526004016107ea90611bcd565b60405180910390fd5b8060068190555050565b600760009054906101000a900473ffffffffffffffffffffffffffffffffffffffff1681565b600060016000610831611375565b73ffffffffffffffffffffffffffffffffffffffff1673ffffffffffffffffffffffffffffffffffffffff16815260200190815260200160002060009054906101000a900460ff166108b8576040517f08c379a00000000000000000000000000000000000000000000000000000000081526004016108af90611bad565b60405180910390fd5b6000600360008473ffffffffffffffffffffffffffffffffffffffff1673ffffffffffffffffffffffffffffffffffffffff16815260200190815260200160002080548060200260200160405190810160405280929190818152602001828054801561094357602002820191906000526020600020905b81548152602001906001019080831161092f575b5050505050905060008151141561095e576000915050610b61565b60006008544261096e9190611d82565b905060005b8251811015610b595760008382815181106109b7577f4e487b7100000000000000000000000000000000000000000000000000000000600052603260045260246000fd5b60200260200101519050828110610b45576000600460008873ffffffffffffffffffffffffffffffffffffffff1673ffffffffffffffffffffffffffffffffffffffff1681526020019081526020016000206000838152602001908152602001600020541115610b44576001600460008873ffffffffffffffffffffffffffffffffffffffff1673ffffffffffffffffffffffffffffffffffffffff16815260200190815260200160002060008381526020019081526020016000206000828254610a829190611d82565b925050819055506000600460008873ffffffffffffffffffffffffffffffffffffffff1673ffffffffffffffffffffffffffffffffffffffff1681526020019081526020016000206000838152602001908152602001600020541415610b3757600460008773ffffffffffffffffffffffffffffffffffffffff1673ffffffffffffffffffffffffffffffffffffffff1681526020019081526020016000206000828152602001908152602001600020600090555b6001945050505050610b61565b5b508080610b5190611e87565b915050610973565b506000925050505b919050565b610b6e611375565b73ffffffffffffffffffffffffffffffffffffffff16610b8c610e77565b73ffffffffffffffffffffffffffffffffffffffff1614610be2576040517f08c379a0000000000000000000000000000000000000000000000000000000008152600401610bd990611bcd565b60405180910390fd5b600073ffffffffffffffffffffffffffffffffffffffff1660008054906101000a900473ffffffffffffffffffffffffffffffffffffffff1673ffffffffffffffffffffffffffffffffffffffff167f8be0079c531659141344cd1fd0a4f28419497f9722a3daafe3b4186f6b6457e060405160405180910390a360008060006101000a81548173ffffffffffffffffffffffffffffffffffffffff021916908373ffffffffffffffffffffffffffffffffffffffff160217905550565b600080600360008473ffffffffffffffffffffffffffffffffffffffff1673ffffffffffffffffffffffffffffffffffffffff168152602001908152602001600020805480602002602001604051908101604052809291908181526020018280548015610d2c57602002820191906000526020600020905b815481526020019060010190808311610d18575b50505050509050600060085442610d439190611d82565b90506000805b8351811015610e6b576000848281518110610d8d577f4e487b7100000000000000000000000000000000000000000000000000000000600052603260045260246000fd5b60200260200101519050838110610e57576000600460008973ffffffffffffffffffffffffffffffffffffffff1673ffffffffffffffffffffffffffffffffffffffff1681526020019081526020016000206000838152602001908152602001600020541115610e5657600460008873ffffffffffffffffffffffffffffffffffffffff1673ffffffffffffffffffffffffffffffffffffffff16815260200190815260200160002060008281526020019081526020016000205483610e539190611cd2565b92505b5b508080610e6390611e87565b915050610d49565b50809350505050919050565b60008060009054906101000a900473ffffffffffffffffffffffffffffffffffffffff16905090565b610ea8611375565b73ffffffffffffffffffffffffffffffffffffffff16610ec6610e77565b73ffffffffffffffffffffffffffffffffffffffff1614610f1c576040517f08c379a0000000000000000000000000000000000000000000000000000000008152600401610f1390611bcd565b60405180910390fd5b6000600160008373ffffffffffffffffffffffffffffffffffffffff1673ffffffffffffffffffffffffffffffffffffffff16815260200190815260200160002060006101000a81548160ff0219169083151502179055507f2e71e570693bcf62baceee79a2556751cf118d01269069c0e8dba834ada2536881604051610fa39190611aa8565b60405180910390a150565b60065481565b60085481565b610fc2611375565b73ffffffffffffffffffffffffffffffffffffffff16610fe0610e77565b73ffffffffffffffffffffffffffffffffffffffff1614611036576040517f08c379a000000000000000000000000000000000000000000000000000000000815260040161102d90611bcd565b60405180910390fd5b60018060008373ffffffffffffffffffffffffffffffffffffffff1673ffffffffffffffffffffffffffffffffffffffff16815260200190815260200160002060006101000a81548160ff0219169083151502179055507ff56d2fb652fc669bcf35bbbb8f85436120a45e17ae8d3eb32afa9f3cef3e748b816040516110bc9190611aa8565b60405180910390a150565b600560009054906101000a900473ffffffffffffffffffffffffffffffffffffffff1681565b6000600160008373ffffffffffffffffffffffffffffffffffffffff1673ffffffffffffffffffffffffffffffffffffffff16815260200190815260200160002060009054906101000a900460ff169050919050565b61114b611375565b73ffffffffffffffffffffffffffffffffffffffff16611169610e77565b73ffffffffffffffffffffffffffffffffffffffff16146111bf576040517f08c379a00000000000000000000000000000000000000000000000000000000081526004016111b690611bcd565b60405180910390fd5b600073ffffffffffffffffffffffffffffffffffffffff168173ffffffffffffffffffffffffffffffffffffffff16141561122f576040517f08c379a000000000000000000000000000000000000000000000000000000000815260040161122690611b6d565b60405180910390fd5b8073ffffffffffffffffffffffffffffffffffffffff1660008054906101000a900473ffffffffffffffffffffffffffffffffffffffff1673ffffffffffffffffffffffffffffffffffffffff167f8be0079c531659141344cd1fd0a4f28419497f9722a3daafe3b4186f6b6457e060405160405180910390a3806000806101000a81548173ffffffffffffffffffffffffffffffffffffffff021916908373ffffffffffffffffffffffffffffffffffffffff16021790555050565b61136f846323b872dd60e01b85858560405160240161130d93929190611ac3565b604051602081830303815290604052907bffffffffffffffffffffffffffffffffffffffffffffffffffffffff19166020820180517bffffffffffffffffffffffffffffffffffffffffffffffffffffffff838183161783525050505061137d565b50505050565b600033905090565b60006113df826040518060400160405280602081526020017f5361666545524332303a206c6f772d6c6576656c2063616c6c206661696c65648152508573ffffffffffffffffffffffffffffffffffffffff166114449092919063ffffffff16565b905060008151111561143f57808060200190518101906113ff9190611691565b61143e576040517f08c379a000000000000000000000000000000000000000000000000000000000815260040161143590611c2d565b60405180910390fd5b5b505050565b6060611453848460008561145c565b90509392505050565b6060824710156114a1576040517f08c379a000000000000000000000000000000000000000000000000000000000815260040161149890611b8d565b60405180910390fd5b6114aa85611570565b6114e9576040517f08c379a00000000000000000000000000000000000000000000000000000000081526004016114e090611c0d565b60405180910390fd5b6000808673ffffffffffffffffffffffffffffffffffffffff1685876040516115129190611a91565b60006040518083038185875af1925050503d806000811461154f576040519150601f19603f3d011682016040523d82523d6000602084013e611554565b606091505b5091509150611564828286611583565b92505050949350505050565b600080823b905060008111915050919050565b60608315611593578290506115e3565b6000835111156115a65782518084602001fd5b816040517f08c379a00000000000000000000000000000000000000000000000000000000081526004016115da9190611b4b565b60405180910390fd5b9392505050565b6000813590506115f981611f10565b92915050565b60008151905061160e81611f27565b92915050565b60008135905061162381611f3e565b92915050565b60008151905061163881611f3e565b92915050565b60008135905061164d81611f55565b92915050565b60008151905061166281611f55565b92915050565b60006020828403121561167a57600080fd5b6000611688848285016115ea565b91505092915050565b6000602082840312156116a357600080fd5b60006116b1848285016115ff565b91505092915050565b6000602082840312156116cc57600080fd5b60006116da84828501611614565b91505092915050565b6000602082840312156116f557600080fd5b600061170384828501611629565b91505092915050565b60006020828403121561171e57600080fd5b600061172c8482850161163e565b91505092915050565b60006020828403121561174757600080fd5b600061175584828501611653565b91505092915050565b61176781611db6565b82525050565b61177681611dc8565b82525050565b600061178782611c68565b6117918185611c7e565b93506117a1818560208601611e54565b80840191505092915050565b6117b681611e0c565b82525050565b6117c581611e30565b82525050565b60006117d682611c73565b6117e08185611c89565b93506117f0818560208601611e54565b6117f981611eff565b840191505092915050565b6000611811602683611c89565b91507f4f776e61626c653a206e6577206f776e657220697320746865207a65726f206160008301527f64647265737300000000000000000000000000000000000000000000000000006020830152604082019050919050565b6000611877602683611c89565b91507f416464726573733a20696e73756666696369656e742062616c616e636520666f60008301527f722063616c6c00000000000000000000000000000000000000000000000000006020830152604082019050919050565b60006118dd602883611c89565b91507f476f7665726e616e63653a2063616c6c6572206973206e6f742074686520476f60008301527f7665726e616e63650000000000000000000000000000000000000000000000006020830152604082019050919050565b6000611943602083611c89565b91507f4f776e61626c653a2063616c6c6572206973206e6f7420746865206f776e65726000830152602082019050919050565b6000611983602f83611c89565b91507f43616e76617341756374696f6e3a205468657265206973206e6f7420656e6f7560008301527f67682063616e766173206c6566742e00000000000000000000000000000000006020830152604082019050919050565b60006119e9601d83611c89565b91507f416464726573733a2063616c6c20746f206e6f6e2d636f6e74726163740000006000830152602082019050919050565b6000611a29602a83611c89565b91507f5361666545524332303a204552433230206f7065726174696f6e20646964206e60008301527f6f742073756363656564000000000000000000000000000000000000000000006020830152604082019050919050565b611a8b81611e02565b82525050565b6000611a9d828461177c565b915081905092915050565b6000602082019050611abd600083018461175e565b92915050565b6000606082019050611ad8600083018661175e565b611ae5602083018561175e565b611af26040830184611a82565b949350505050565b6000602082019050611b0f600083018461176d565b92915050565b6000602082019050611b2a60008301846117ad565b92915050565b6000602082019050611b4560008301846117bc565b92915050565b60006020820190508181036000830152611b6581846117cb565b905092915050565b60006020820190508181036000830152611b8681611804565b9050919050565b60006020820190508181036000830152611ba68161186a565b9050919050565b60006020820190508181036000830152611bc6816118d0565b9050919050565b60006020820190508181036000830152611be681611936565b9050919050565b60006020820190508181036000830152611c0681611976565b9050919050565b60006020820190508181036000830152611c26816119dc565b9050919050565b60006020820190508181036000830152611c4681611a1c565b9050919050565b6000602082019050611c626000830184611a82565b92915050565b600081519050919050565b600081519050919050565b600081905092915050565b600082825260208201905092915050565b6000611ca582611dd4565b9150611cb083611dd4565b92508261ffff03821115611cc757611cc6611ed0565b5b828201905092915050565b6000611cdd82611e02565b9150611ce883611e02565b9250827fffffffffffffffffffffffffffffffffffffffffffffffffffffffffffffffff03821115611d1d57611d1c611ed0565b5b828201905092915050565b6000611d3382611e02565b9150611d3e83611e02565b9250817fffffffffffffffffffffffffffffffffffffffffffffffffffffffffffffffff0483118215151615611d7757611d76611ed0565b5b828202905092915050565b6000611d8d82611e02565b9150611d9883611e02565b925082821015611dab57611daa611ed0565b5b828203905092915050565b6000611dc182611de2565b9050919050565b60008115159050919050565b600061ffff82169050919050565b600073ffffffffffffffffffffffffffffffffffffffff82169050919050565b6000819050919050565b6000611e1782611e1e565b9050919050565b6000611e2982611de2565b9050919050565b6000611e3b82611e42565b9050919050565b6000611e4d82611de2565b9050919050565b60005b83811015611e72578082015181840152602081019050611e57565b83811115611e81576000848401525b50505050565b6000611e9282611e02565b91507fffffffffffffffffffffffffffffffffffffffffffffffffffffffffffffffff821415611ec557611ec4611ed0565b5b600182019050919050565b7f4e487b7100000000000000000000000000000000000000000000000000000000600052601160045260246000fd5b6000601f19601f8301169050919050565b611f1981611db6565b8114611f2457600080fd5b50565b611f3081611dc8565b8114611f3b57600080fd5b50565b611f4781611dd4565b8114611f5257600080fd5b50565b611f5e81611e02565b8114611f6957600080fd5b5056fea26469706673582212206b97116c63b5ba8c3eae2f2a1a215c4df3a50cc0ee2a1f7ee41377560c8281a664736f6c63430008000033",
  "immutableReferences": {},
  "source": "// SPDX-License-Identifier: GPL-3.0\npragma solidity ^0.8.0;\n\nimport \"@openzeppelin/contracts/token/ERC20/IERC20.sol\";\nimport \"@openzeppelin/contracts/token/ERC20/utils/SafeERC20.sol\";\n\nimport \"./Governance.sol\";\nimport \"./interface/IPeriod.sol\";\nimport \"./interface/ICanvasAuction.sol\";\n\ncontract CanvasAuction is Governance, ICanvasAuction {\n\n    using SafeERC20 for IERC20;\n\n    mapping(uint => uint16) periodToAmount;\n\n    mapping(address => uint[]) private dateArrMap;\n    // owner => (date => amount)\n    mapping(address => mapping(uint => uint)) private amountMap;\n\n    IERC20 public cbd;\n\n    uint public canvasPrice;\n\n    IPeriod public periodMana;\n\n    uint public validTime;\n\n    constructor(address _cbd, uint _canvasPrice, address _periodMana) {\n        cbd = IERC20(_cbd);\n        canvasPrice = _canvasPrice;\n        periodMana = IPeriod(_periodMana);\n\n        validTime = 30 days;\n    }\n\n    function buy(uint16 _amount) override public {\n        uint currPeriod = periodMana.getCurPeriod();\n        require((periodToAmount[currPeriod] + _amount) < periodMana.getAmountPerPeriod(),\n            \"CanvasAuction: There is not enough canvas left.\");\n\n        cbd.safeTransferFrom(msg.sender, address(this), canvasPrice * _amount);\n        dateArrMap[msg.sender].push(block.timestamp);\n        amountMap[msg.sender][block.timestamp] += _amount;\n\n        periodToAmount[currPeriod] += _amount;\n    }\n\n    function popOne(address _theOwner) override public onlyGovernance returns(bool) {\n        uint[] memory dateArr = dateArrMap[_theOwner];\n        if(dateArr.length == 0) {\n            return false;\n        }\n        uint startTime = block.timestamp - validTime;\n        for(uint i = 0; i < dateArr.length; i++) {\n            uint item = dateArr[i];\n            if(item >= startTime) {\n                if(amountMap[_theOwner][item] > 0) {\n                    amountMap[_theOwner][item] -= 1;\n                    if(amountMap[_theOwner][item] == 0) {\n                        delete amountMap[_theOwner][item];\n                    }\n                    return true;\n                }\n            }\n        }\n        return false;\n    }\n\n    function getMyAmount(address _theOwner) override public view returns(uint) {\n        uint[] memory dateArr = dateArrMap[_theOwner];\n        uint startTime = block.timestamp - validTime;\n        uint amount = 0;\n        for(uint i = 0; i < dateArr.length; i++) {\n            uint item = dateArr[i];\n            if(item >= startTime) {\n                if(amountMap[_theOwner][item] > 0) {\n                    amount = amount + amountMap[_theOwner][item];\n                }\n            }\n        }\n        return amount;\n    }\n\n    function setCanvasPrice(uint _price) public onlyOwner {\n        canvasPrice = _price;\n    }\n\n    function setValidTime(uint _validTime) public onlyOwner {\n        validTime = _validTime;\n    }\n\n    function setCbd(address _cbd) public onlyOwner {\n        cbd = IERC20(_cbd);\n    }\n\n}",
  "sourcePath": "/Users/iwan/code/coinbid-cointract/contracts/6_CanvasAuction.sol",
  "compiler": {
    "name": "solc",
    "version": "0.8.0+commit.c7dfd78e.Emscripten.clang"
  },
  "schemaVersion": "3.4.1",
  "updatedAt": "2021-07-07T19:08:24.845Z",
  "networkType": "ethereum",
  "devdoc": {
    "kind": "dev",
    "methods": {
      "owner()": {
        "details": "Returns the address of the current owner."
      },
      "renounceOwnership()": {
        "details": "Leaves the contract without owner. It will not be possible to call `onlyOwner` functions anymore. Can only be called by the current owner. NOTE: Renouncing ownership will leave the contract without an owner, thereby removing any functionality that is only available to the owner."
      },
      "transferOwnership(address)": {
        "details": "Transfers ownership of the contract to a new account (`newOwner`). Can only be called by the current owner."
      }
    },
    "version": 1
  },
  "userdoc": {
    "kind": "user",
    "methods": {},
    "version": 1
  }
}