{
  "contractName": "CanvasAuction",
  "abi": [
    {
      "inputs": [
        {
          "internalType": "address",
          "name": "_cbd",
          "type": "address"
        },
        {
          "internalType": "uint256",
          "name": "_canvasPrice",
          "type": "uint256"
        },
        {
          "internalType": "address",
          "name": "_periodMana",
          "type": "address"
        }
      ],
      "stateMutability": "nonpayable",
      "type": "constructor"
    },
    {
      "anonymous": false,
      "inputs": [
        {
          "indexed": false,
          "internalType": "address",
          "name": "newGovernance",
          "type": "address"
        }
      ],
      "name": "AddGovernance",
      "type": "event"
    },
    {
      "anonymous": false,
      "inputs": [
        {
          "indexed": true,
          "internalType": "address",
          "name": "previousOwner",
          "type": "address"
        },
        {
          "indexed": true,
          "internalType": "address",
          "name": "newOwner",
          "type": "address"
        }
      ],
      "name": "OwnershipTransferred",
      "type": "event"
    },
    {
      "anonymous": false,
      "inputs": [
        {
          "indexed": false,
          "internalType": "address",
          "name": "oldGovernance",
          "type": "address"
        }
      ],
      "name": "RemoveGovernance",
      "type": "event"
    },
    {
      "inputs": [
        {
          "internalType": "address",
          "name": "_newGovernance",
          "type": "address"
        }
      ],
      "name": "addGovernance",
      "outputs": [],
      "stateMutability": "nonpayable",
      "type": "function"
    },
    {
      "inputs": [],
      "name": "canvasPrice",
      "outputs": [
        {
          "internalType": "uint256",
          "name": "",
          "type": "uint256"
        }
      ],
      "stateMutability": "view",
      "type": "function"
    },
    {
      "inputs": [],
      "name": "cbd",
      "outputs": [
        {
          "internalType": "contract IERC20",
          "name": "",
          "type": "address"
        }
      ],
      "stateMutability": "view",
      "type": "function"
    },
    {
      "inputs": [
        {
          "internalType": "address",
          "name": "_governance",
          "type": "address"
        }
      ],
      "name": "isGovernance",
      "outputs": [
        {
          "internalType": "bool",
          "name": "",
          "type": "bool"
        }
      ],
      "stateMutability": "view",
      "type": "function"
    },
    {
      "inputs": [],
      "name": "owner",
      "outputs": [
        {
          "internalType": "address",
          "name": "",
          "type": "address"
        }
      ],
      "stateMutability": "view",
      "type": "function"
    },
    {
      "inputs": [],
      "name": "periodMana",
      "outputs": [
        {
          "internalType": "contract IPeriod",
          "name": "",
          "type": "address"
        }
      ],
      "stateMutability": "view",
      "type": "function"
    },
    {
      "inputs": [
        {
          "internalType": "address",
          "name": "_oldGovernance",
          "type": "address"
        }
      ],
      "name": "removeGovernance",
      "outputs": [],
      "stateMutability": "nonpayable",
      "type": "function"
    },
    {
      "inputs": [],
      "name": "renounceOwnership",
      "outputs": [],
      "stateMutability": "nonpayable",
      "type": "function"
    },
    {
      "inputs": [
        {
          "internalType": "address",
          "name": "newOwner",
          "type": "address"
        }
      ],
      "name": "transferOwnership",
      "outputs": [],
      "stateMutability": "nonpayable",
      "type": "function"
    },
    {
      "inputs": [],
      "name": "validTime",
      "outputs": [
        {
          "internalType": "uint256",
          "name": "",
          "type": "uint256"
        }
      ],
      "stateMutability": "view",
      "type": "function"
    },
    {
      "inputs": [
        {
          "internalType": "uint16",
          "name": "_amount",
          "type": "uint16"
        }
      ],
      "name": "buy",
      "outputs": [],
      "stateMutability": "nonpayable",
      "type": "function"
    },
    {
      "inputs": [
        {
          "internalType": "address",
          "name": "_theOwner",
          "type": "address"
        }
      ],
      "name": "popOne",
      "outputs": [
        {
          "internalType": "bool",
          "name": "",
          "type": "bool"
        }
      ],
      "stateMutability": "nonpayable",
      "type": "function"
    },
    {
      "inputs": [
        {
          "internalType": "address",
          "name": "_theOwner",
          "type": "address"
        }
      ],
      "name": "getMyAmount",
      "outputs": [
        {
          "internalType": "uint256",
          "name": "",
          "type": "uint256"
        }
      ],
      "stateMutability": "view",
      "type": "function"
    },
    {
      "inputs": [],
      "name": "getAmountLeft",
      "outputs": [
        {
          "internalType": "uint256",
          "name": "",
          "type": "uint256"
        }
      ],
      "stateMutability": "view",
      "type": "function"
    },
    {
      "inputs": [
        {
          "internalType": "uint256",
          "name": "_price",
          "type": "uint256"
        }
      ],
      "name": "setCanvasPrice",
      "outputs": [],
      "stateMutability": "nonpayable",
      "type": "function"
    },
    {
      "inputs": [
        {
          "internalType": "uint256",
          "name": "_validTime",
          "type": "uint256"
        }
      ],
      "name": "setValidTime",
      "outputs": [],
      "stateMutability": "nonpayable",
      "type": "function"
    },
    {
      "inputs": [
        {
          "internalType": "address",
          "name": "_cbd",
          "type": "address"
        }
      ],
      "name": "setCbd",
      "outputs": [],
      "stateMutability": "nonpayable",
      "type": "function"
    }
  ],
  "bytecode": "0x60806040523480156200001157600080fd5b50604051620024ba380380620024ba83398181016040528101906200003791906200025e565b6000620000496200022860201b60201c565b9050806000806101000a81548173ffffffffffffffffffffffffffffffffffffffff021916908373ffffffffffffffffffffffffffffffffffffffff1602179055508073ffffffffffffffffffffffffffffffffffffffff16600073ffffffffffffffffffffffffffffffffffffffff167f8be0079c531659141344cd1fd0a4f28419497f9722a3daafe3b4186f6b6457e060405160405180910390a3506000620000f96200022860201b60201c565b905060018060008373ffffffffffffffffffffffffffffffffffffffff1673ffffffffffffffffffffffffffffffffffffffff16815260200190815260200160002060006101000a81548160ff0219169083151502179055507ff56d2fb652fc669bcf35bbbb8f85436120a45e17ae8d3eb32afa9f3cef3e748b81604051620001839190620002c5565b60405180910390a15082600560006101000a81548173ffffffffffffffffffffffffffffffffffffffff021916908373ffffffffffffffffffffffffffffffffffffffff1602179055508160068190555080600760006101000a81548173ffffffffffffffffffffffffffffffffffffffff021916908373ffffffffffffffffffffffffffffffffffffffff16021790555062278d0060088190555050505062000354565b600033905090565b600081519050620002418162000320565b92915050565b60008151905062000258816200033a565b92915050565b6000806000606084860312156200027457600080fd5b6000620002848682870162000230565b9350506020620002978682870162000247565b9250506040620002aa8682870162000230565b9150509250925092565b620002bf81620002e2565b82525050565b6000602082019050620002dc6000830184620002b4565b92915050565b6000620002ef82620002f6565b9050919050565b600073ffffffffffffffffffffffffffffffffffffffff82169050919050565b6000819050919050565b6200032b81620002e2565b81146200033757600080fd5b50565b620003458162000316565b81146200035157600080fd5b50565b61215680620003646000396000f3fe608060405234801561001057600080fd5b506004361061010b5760003560e01c80638da5cb5b116100a2578063c4c7f2f411610071578063c4c7f2f41461027e578063d21379311461029a578063dee1f0e4146102b8578063f2fde38b146102e8578063fd1bd9b0146103045761010b565b80638da5cb5b14610208578063906e247914610226578063b326517814610242578063bbe44917146102605761010b565b80634fe0d2e5116100de5780634fe0d2e514610180578063539711891461019e578063715018a6146101ce5780638adb87f4146101d85761010b565b80631eabc116146101105780634a9d79231461012c5780634c93c1e2146101485780634fb70ee714610164575b600080fd5b61012a6004803603810190610125919061186e565b610322565b005b6101466004803603810190610141919061181c565b61065a565b005b610162600480360381019061015d91906118c0565b61071a565b005b61017e600480360381019061017991906118c0565b6107a0565b005b610188610826565b6040516101959190611ce4565b60405180910390f35b6101b860048036038101906101b3919061181c565b61084c565b6040516101c59190611cae565b60405180910390f35b6101d6610b8f565b005b6101f260048036038101906101ed919061181c565b610cc9565b6040516101ff9190611e01565b60405180910390f35b610210610ea0565b60405161021d9190611c5c565b60405180910390f35b610240600480360381019061023b919061181c565b610ec9565b005b61024a610fd7565b6040516102579190611e01565b60405180910390f35b610268610fdd565b6040516102759190611e01565b60405180910390f35b6102986004803603810190610293919061181c565b610fe3565b005b6102a26110f0565b6040516102af9190611cc9565b60405180910390f35b6102d260048036038101906102cd919061181c565b611116565b6040516102df9190611cae565b60405180910390f35b61030260048036038101906102fd919061181c565b61116c565b005b61030c611315565b6040516103199190611e01565b60405180910390f35b6000600760009054906101000a900473ffffffffffffffffffffffffffffffffffffffff1673ffffffffffffffffffffffffffffffffffffffff1663a03c7fdb6040518163ffffffff1660e01b815260040160206040518083038186803b15801561038c57600080fd5b505afa1580156103a0573d6000803e3d6000fd5b505050506040513d601f19601f820116820180604052508101906103c491906118e9565b9050600760009054906101000a900473ffffffffffffffffffffffffffffffffffffffff1673ffffffffffffffffffffffffffffffffffffffff1663d50ff4976040518163ffffffff1660e01b815260040160206040518083038186803b15801561042e57600080fd5b505afa158015610442573d6000803e3d6000fd5b505050506040513d601f19601f820116820180604052508101906104669190611897565b61ffff16826002600084815260200190815260200160002060009054906101000a900461ffff166104979190611e4e565b61ffff16106104db576040517f08c379a00000000000000000000000000000000000000000000000000000000081526004016104d290611da1565b60405180910390fd5b61053b33308461ffff166006546104f29190611edc565b600560009054906101000a900473ffffffffffffffffffffffffffffffffffffffff1673ffffffffffffffffffffffffffffffffffffffff166114a0909392919063ffffffff16565b600360003373ffffffffffffffffffffffffffffffffffffffff1673ffffffffffffffffffffffffffffffffffffffff1681526020019081526020016000204290806001815401808255809150506001900390600052602060002001600090919091909150558161ffff16600460003373ffffffffffffffffffffffffffffffffffffffff1673ffffffffffffffffffffffffffffffffffffffff168152602001908152602001600020600042815260200190815260200160002060008282546106059190611e86565b92505081905550816002600083815260200190815260200160002060008282829054906101000a900461ffff1661063c9190611e4e565b92506101000a81548161ffff021916908361ffff1602179055505050565b610662611529565b73ffffffffffffffffffffffffffffffffffffffff16610680610ea0565b73ffffffffffffffffffffffffffffffffffffffff16146106d6576040517f08c379a00000000000000000000000000000000000000000000000000000000081526004016106cd90611d81565b60405180910390fd5b80600560006101000a81548173ffffffffffffffffffffffffffffffffffffffff021916908373ffffffffffffffffffffffffffffffffffffffff16021790555050565b610722611529565b73ffffffffffffffffffffffffffffffffffffffff16610740610ea0565b73ffffffffffffffffffffffffffffffffffffffff1614610796576040517f08c379a000000000000000000000000000000000000000000000000000000000815260040161078d90611d81565b60405180910390fd5b8060088190555050565b6107a8611529565b73ffffffffffffffffffffffffffffffffffffffff166107c6610ea0565b73ffffffffffffffffffffffffffffffffffffffff161461081c576040517f08c379a000000000000000000000000000000000000000000000000000000000815260040161081390611d81565b60405180910390fd5b8060068190555050565b600760009054906101000a900473ffffffffffffffffffffffffffffffffffffffff1681565b60006001600061085a611529565b73ffffffffffffffffffffffffffffffffffffffff1673ffffffffffffffffffffffffffffffffffffffff16815260200190815260200160002060009054906101000a900460ff166108e1576040517f08c379a00000000000000000000000000000000000000000000000000000000081526004016108d890611d61565b60405180910390fd5b6000600360008473ffffffffffffffffffffffffffffffffffffffff1673ffffffffffffffffffffffffffffffffffffffff16815260200190815260200160002080548060200260200160405190810160405280929190818152602001828054801561096c57602002820191906000526020600020905b815481526020019060010190808311610958575b50505050509050600081511415610987576000915050610b8a565b6000600854426109979190611f36565b905060005b8251811015610b825760008382815181106109e0577f4e487b7100000000000000000000000000000000000000000000000000000000600052603260045260246000fd5b60200260200101519050828110610b6e576000600460008873ffffffffffffffffffffffffffffffffffffffff1673ffffffffffffffffffffffffffffffffffffffff1681526020019081526020016000206000838152602001908152602001600020541115610b6d576001600460008873ffffffffffffffffffffffffffffffffffffffff1673ffffffffffffffffffffffffffffffffffffffff16815260200190815260200160002060008381526020019081526020016000206000828254610aab9190611f36565b925050819055506000600460008873ffffffffffffffffffffffffffffffffffffffff1673ffffffffffffffffffffffffffffffffffffffff1681526020019081526020016000206000838152602001908152602001600020541415610b6057600460008773ffffffffffffffffffffffffffffffffffffffff1673ffffffffffffffffffffffffffffffffffffffff1681526020019081526020016000206000828152602001908152602001600020600090555b6001945050505050610b8a565b5b508080610b7a9061203b565b91505061099c565b506000925050505b919050565b610b97611529565b73ffffffffffffffffffffffffffffffffffffffff16610bb5610ea0565b73ffffffffffffffffffffffffffffffffffffffff1614610c0b576040517f08c379a0000000000000000000000000000000000000000000000000000000008152600401610c0290611d81565b60405180910390fd5b600073ffffffffffffffffffffffffffffffffffffffff1660008054906101000a900473ffffffffffffffffffffffffffffffffffffffff1673ffffffffffffffffffffffffffffffffffffffff167f8be0079c531659141344cd1fd0a4f28419497f9722a3daafe3b4186f6b6457e060405160405180910390a360008060006101000a81548173ffffffffffffffffffffffffffffffffffffffff021916908373ffffffffffffffffffffffffffffffffffffffff160217905550565b600080600360008473ffffffffffffffffffffffffffffffffffffffff1673ffffffffffffffffffffffffffffffffffffffff168152602001908152602001600020805480602002602001604051908101604052809291908181526020018280548015610d5557602002820191906000526020600020905b815481526020019060010190808311610d41575b50505050509050600060085442610d6c9190611f36565b90506000805b8351811015610e94576000848281518110610db6577f4e487b7100000000000000000000000000000000000000000000000000000000600052603260045260246000fd5b60200260200101519050838110610e80576000600460008973ffffffffffffffffffffffffffffffffffffffff1673ffffffffffffffffffffffffffffffffffffffff1681526020019081526020016000206000838152602001908152602001600020541115610e7f57600460008873ffffffffffffffffffffffffffffffffffffffff1673ffffffffffffffffffffffffffffffffffffffff16815260200190815260200160002060008281526020019081526020016000205483610e7c9190611e86565b92505b5b508080610e8c9061203b565b915050610d72565b50809350505050919050565b60008060009054906101000a900473ffffffffffffffffffffffffffffffffffffffff16905090565b610ed1611529565b73ffffffffffffffffffffffffffffffffffffffff16610eef610ea0565b73ffffffffffffffffffffffffffffffffffffffff1614610f45576040517f08c379a0000000000000000000000000000000000000000000000000000000008152600401610f3c90611d81565b60405180910390fd5b6000600160008373ffffffffffffffffffffffffffffffffffffffff1673ffffffffffffffffffffffffffffffffffffffff16815260200190815260200160002060006101000a81548160ff0219169083151502179055507f2e71e570693bcf62baceee79a2556751cf118d01269069c0e8dba834ada2536881604051610fcc9190611c5c565b60405180910390a150565b60065481565b60085481565b610feb611529565b73ffffffffffffffffffffffffffffffffffffffff16611009610ea0565b73ffffffffffffffffffffffffffffffffffffffff161461105f576040517f08c379a000000000000000000000000000000000000000000000000000000000815260040161105690611d81565b60405180910390fd5b60018060008373ffffffffffffffffffffffffffffffffffffffff1673ffffffffffffffffffffffffffffffffffffffff16815260200190815260200160002060006101000a81548160ff0219169083151502179055507ff56d2fb652fc669bcf35bbbb8f85436120a45e17ae8d3eb32afa9f3cef3e748b816040516110e59190611c5c565b60405180910390a150565b600560009054906101000a900473ffffffffffffffffffffffffffffffffffffffff1681565b6000600160008373ffffffffffffffffffffffffffffffffffffffff1673ffffffffffffffffffffffffffffffffffffffff16815260200190815260200160002060009054906101000a900460ff169050919050565b611174611529565b73ffffffffffffffffffffffffffffffffffffffff16611192610ea0565b73ffffffffffffffffffffffffffffffffffffffff16146111e8576040517f08c379a00000000000000000000000000000000000000000000000000000000081526004016111df90611d81565b60405180910390fd5b600073ffffffffffffffffffffffffffffffffffffffff168173ffffffffffffffffffffffffffffffffffffffff161415611258576040517f08c379a000000000000000000000000000000000000000000000000000000000815260040161124f90611d21565b60405180910390fd5b8073ffffffffffffffffffffffffffffffffffffffff1660008054906101000a900473ffffffffffffffffffffffffffffffffffffffff1673ffffffffffffffffffffffffffffffffffffffff167f8be0079c531659141344cd1fd0a4f28419497f9722a3daafe3b4186f6b6457e060405160405180910390a3806000806101000a81548173ffffffffffffffffffffffffffffffffffffffff021916908373ffffffffffffffffffffffffffffffffffffffff16021790555050565b600080600760009054906101000a900473ffffffffffffffffffffffffffffffffffffffff1673ffffffffffffffffffffffffffffffffffffffff1663a03c7fdb6040518163ffffffff1660e01b815260040160206040518083038186803b15801561138057600080fd5b505afa158015611394573d6000803e3d6000fd5b505050506040513d601f19601f820116820180604052508101906113b891906118e9565b90506000600760009054906101000a900473ffffffffffffffffffffffffffffffffffffffff1673ffffffffffffffffffffffffffffffffffffffff1663d50ff4976040518163ffffffff1660e01b815260040160206040518083038186803b15801561142457600080fd5b505afa158015611438573d6000803e3d6000fd5b505050506040513d601f19601f8201168201806040525081019061145c9190611897565b61ffff16905060006002600084815260200190815260200160002060009054906101000a900461ffff1661ffff16905080826114989190611f36565b935050505090565b611523846323b872dd60e01b8585856040516024016114c193929190611c77565b604051602081830303815290604052907bffffffffffffffffffffffffffffffffffffffffffffffffffffffff19166020820180517bffffffffffffffffffffffffffffffffffffffffffffffffffffffff8381831617835250505050611531565b50505050565b600033905090565b6000611593826040518060400160405280602081526020017f5361666545524332303a206c6f772d6c6576656c2063616c6c206661696c65648152508573ffffffffffffffffffffffffffffffffffffffff166115f89092919063ffffffff16565b90506000815111156115f357808060200190518101906115b39190611845565b6115f2576040517f08c379a00000000000000000000000000000000000000000000000000000000081526004016115e990611de1565b60405180910390fd5b5b505050565b60606116078484600085611610565b90509392505050565b606082471015611655576040517f08c379a000000000000000000000000000000000000000000000000000000000815260040161164c90611d41565b60405180910390fd5b61165e85611724565b61169d576040517f08c379a000000000000000000000000000000000000000000000000000000000815260040161169490611dc1565b60405180910390fd5b6000808673ffffffffffffffffffffffffffffffffffffffff1685876040516116c69190611c45565b60006040518083038185875af1925050503d8060008114611703576040519150601f19603f3d011682016040523d82523d6000602084013e611708565b606091505b5091509150611718828286611737565b92505050949350505050565b600080823b905060008111915050919050565b6060831561174757829050611797565b60008351111561175a5782518084602001fd5b816040517f08c379a000000000000000000000000000000000000000000000000000000000815260040161178e9190611cff565b60405180910390fd5b9392505050565b6000813590506117ad816120c4565b92915050565b6000815190506117c2816120db565b92915050565b6000813590506117d7816120f2565b92915050565b6000815190506117ec816120f2565b92915050565b60008135905061180181612109565b92915050565b60008151905061181681612109565b92915050565b60006020828403121561182e57600080fd5b600061183c8482850161179e565b91505092915050565b60006020828403121561185757600080fd5b6000611865848285016117b3565b91505092915050565b60006020828403121561188057600080fd5b600061188e848285016117c8565b91505092915050565b6000602082840312156118a957600080fd5b60006118b7848285016117dd565b91505092915050565b6000602082840312156118d257600080fd5b60006118e0848285016117f2565b91505092915050565b6000602082840312156118fb57600080fd5b600061190984828501611807565b91505092915050565b61191b81611f6a565b82525050565b61192a81611f7c565b82525050565b600061193b82611e1c565b6119458185611e32565b9350611955818560208601612008565b80840191505092915050565b61196a81611fc0565b82525050565b61197981611fe4565b82525050565b600061198a82611e27565b6119948185611e3d565b93506119a4818560208601612008565b6119ad816120b3565b840191505092915050565b60006119c5602683611e3d565b91507f4f776e61626c653a206e6577206f776e657220697320746865207a65726f206160008301527f64647265737300000000000000000000000000000000000000000000000000006020830152604082019050919050565b6000611a2b602683611e3d565b91507f416464726573733a20696e73756666696369656e742062616c616e636520666f60008301527f722063616c6c00000000000000000000000000000000000000000000000000006020830152604082019050919050565b6000611a91602883611e3d565b91507f476f7665726e616e63653a2063616c6c6572206973206e6f742074686520476f60008301527f7665726e616e63650000000000000000000000000000000000000000000000006020830152604082019050919050565b6000611af7602083611e3d565b91507f4f776e61626c653a2063616c6c6572206973206e6f7420746865206f776e65726000830152602082019050919050565b6000611b37602f83611e3d565b91507f43616e76617341756374696f6e3a205468657265206973206e6f7420656e6f7560008301527f67682063616e766173206c6566742e00000000000000000000000000000000006020830152604082019050919050565b6000611b9d601d83611e3d565b91507f416464726573733a2063616c6c20746f206e6f6e2d636f6e74726163740000006000830152602082019050919050565b6000611bdd602a83611e3d565b91507f5361666545524332303a204552433230206f7065726174696f6e20646964206e60008301527f6f742073756363656564000000000000000000000000000000000000000000006020830152604082019050919050565b611c3f81611fb6565b82525050565b6000611c518284611930565b915081905092915050565b6000602082019050611c716000830184611912565b92915050565b6000606082019050611c8c6000830186611912565b611c996020830185611912565b611ca66040830184611c36565b949350505050565b6000602082019050611cc36000830184611921565b92915050565b6000602082019050611cde6000830184611961565b92915050565b6000602082019050611cf96000830184611970565b92915050565b60006020820190508181036000830152611d19818461197f565b905092915050565b60006020820190508181036000830152611d3a816119b8565b9050919050565b60006020820190508181036000830152611d5a81611a1e565b9050919050565b60006020820190508181036000830152611d7a81611a84565b9050919050565b60006020820190508181036000830152611d9a81611aea565b9050919050565b60006020820190508181036000830152611dba81611b2a565b9050919050565b60006020820190508181036000830152611dda81611b90565b9050919050565b60006020820190508181036000830152611dfa81611bd0565b9050919050565b6000602082019050611e166000830184611c36565b92915050565b600081519050919050565b600081519050919050565b600081905092915050565b600082825260208201905092915050565b6000611e5982611f88565b9150611e6483611f88565b92508261ffff03821115611e7b57611e7a612084565b5b828201905092915050565b6000611e9182611fb6565b9150611e9c83611fb6565b9250827fffffffffffffffffffffffffffffffffffffffffffffffffffffffffffffffff03821115611ed157611ed0612084565b5b828201905092915050565b6000611ee782611fb6565b9150611ef283611fb6565b9250817fffffffffffffffffffffffffffffffffffffffffffffffffffffffffffffffff0483118215151615611f2b57611f2a612084565b5b828202905092915050565b6000611f4182611fb6565b9150611f4c83611fb6565b925082821015611f5f57611f5e612084565b5b828203905092915050565b6000611f7582611f96565b9050919050565b60008115159050919050565b600061ffff82169050919050565b600073ffffffffffffffffffffffffffffffffffffffff82169050919050565b6000819050919050565b6000611fcb82611fd2565b9050919050565b6000611fdd82611f96565b9050919050565b6000611fef82611ff6565b9050919050565b600061200182611f96565b9050919050565b60005b8381101561202657808201518184015260208101905061200b565b83811115612035576000848401525b50505050565b600061204682611fb6565b91507fffffffffffffffffffffffffffffffffffffffffffffffffffffffffffffffff82141561207957612078612084565b5b600182019050919050565b7f4e487b7100000000000000000000000000000000000000000000000000000000600052601160045260246000fd5b6000601f19601f8301169050919050565b6120cd81611f6a565b81146120d857600080fd5b50565b6120e481611f7c565b81146120ef57600080fd5b50565b6120fb81611f88565b811461210657600080fd5b50565b61211281611fb6565b811461211d57600080fd5b5056fea2646970667358221220ed3330766233031a2818fdf6c24be6191c53dff41dd8cabcd995d01f6e4e957864736f6c63430008000033",
  "immutableReferences": {},
  "source": "// SPDX-License-Identifier: GPL-3.0\npragma solidity ^0.8.0;\n\nimport \"@openzeppelin/contracts/token/ERC20/IERC20.sol\";\nimport \"@openzeppelin/contracts/token/ERC20/utils/SafeERC20.sol\";\n\nimport \"./Governance.sol\";\nimport \"./interface/IPeriod.sol\";\nimport \"./interface/ICanvasAuction.sol\";\n\ncontract CanvasAuction is Governance, ICanvasAuction {\n\n    using SafeERC20 for IERC20;\n\n    mapping(uint => uint16) periodToAmount;\n\n    mapping(address => uint[]) private dateArrMap;\n    // owner => (date => amount)\n    mapping(address => mapping(uint => uint)) private amountMap;\n\n    IERC20 public cbd;\n\n    uint public canvasPrice;\n\n    IPeriod public periodMana;\n\n    uint public validTime;\n\n    constructor(address _cbd, uint _canvasPrice, address _periodMana) {\n        cbd = IERC20(_cbd);\n        canvasPrice = _canvasPrice;\n        periodMana = IPeriod(_periodMana);\n\n        validTime = 30 days;\n    }\n\n    function buy(uint16 _amount) override public {\n        uint currPeriod = periodMana.getCurPeriod();\n        require((periodToAmount[currPeriod] + _amount) < periodMana.getAmountPerPeriod(),\n            \"CanvasAuction: There is not enough canvas left.\");\n\n        cbd.safeTransferFrom(msg.sender, address(this), canvasPrice * _amount);\n        dateArrMap[msg.sender].push(block.timestamp);\n        amountMap[msg.sender][block.timestamp] += _amount;\n\n        periodToAmount[currPeriod] += _amount;\n    }\n\n    function popOne(address _theOwner) override public onlyGovernance returns(bool) {\n        uint[] memory dateArr = dateArrMap[_theOwner];\n        if(dateArr.length == 0) {\n            return false;\n        }\n        uint startTime = block.timestamp - validTime;\n        for(uint i = 0; i < dateArr.length; i++) {\n            uint item = dateArr[i];\n            if(item >= startTime) {\n                if(amountMap[_theOwner][item] > 0) {\n                    amountMap[_theOwner][item] -= 1;\n                    if(amountMap[_theOwner][item] == 0) {\n                        delete amountMap[_theOwner][item];\n                    }\n                    return true;\n                }\n            }\n        }\n        return false;\n    }\n\n    function getMyAmount(address _theOwner) override public view returns(uint) {\n        uint[] memory dateArr = dateArrMap[_theOwner];\n        uint startTime = block.timestamp - validTime;\n        uint amount = 0;\n        for(uint i = 0; i < dateArr.length; i++) {\n            uint item = dateArr[i];\n            if(item >= startTime) {\n                if(amountMap[_theOwner][item] > 0) {\n                    amount = amount + amountMap[_theOwner][item];\n                }\n            }\n        }\n        return amount;\n    }\n\n    function getAmountLeft() override public view returns(uint) {\n        uint currPeriod = periodMana.getCurPeriod();\n        uint totalAmount = periodMana.getAmountPerPeriod();\n        uint usedAmount = periodToAmount[currPeriod];\n        return (totalAmount - usedAmount);\n    }\n\n    function setCanvasPrice(uint _price) public onlyOwner {\n        canvasPrice = _price;\n    }\n\n    function setValidTime(uint _validTime) public onlyOwner {\n        validTime = _validTime;\n    }\n\n    function setCbd(address _cbd) public onlyOwner {\n        cbd = IERC20(_cbd);\n    }\n\n}",
  "sourcePath": "/Users/iwan/code/coinbid-cointract/contracts/6_CanvasAuction.sol",
  "compiler": {
    "name": "solc",
    "version": "0.8.0+commit.c7dfd78e.Emscripten.clang"
  },
  "schemaVersion": "3.4.1",
  "updatedAt": "2021-07-11T07:10:04.763Z",
  "devdoc": {
    "kind": "dev",
    "methods": {
      "owner()": {
        "details": "Returns the address of the current owner."
      },
      "renounceOwnership()": {
        "details": "Leaves the contract without owner. It will not be possible to call `onlyOwner` functions anymore. Can only be called by the current owner. NOTE: Renouncing ownership will leave the contract without an owner, thereby removing any functionality that is only available to the owner."
      },
      "transferOwnership(address)": {
        "details": "Transfers ownership of the contract to a new account (`newOwner`). Can only be called by the current owner."
      }
    },
    "version": 1
  },
  "userdoc": {
    "kind": "user",
    "methods": {},
    "version": 1
  }
}