{
  "contractName": "CoinBidCreation",
  "abi": [
    {
      "inputs": [],
      "stateMutability": "nonpayable",
      "type": "constructor"
    },
    {
      "anonymous": false,
      "inputs": [
        {
          "indexed": true,
          "internalType": "address",
          "name": "owner",
          "type": "address"
        },
        {
          "indexed": true,
          "internalType": "address",
          "name": "approved",
          "type": "address"
        },
        {
          "indexed": true,
          "internalType": "uint256",
          "name": "tokenId",
          "type": "uint256"
        }
      ],
      "name": "Approval",
      "type": "event"
    },
    {
      "anonymous": false,
      "inputs": [
        {
          "indexed": true,
          "internalType": "address",
          "name": "owner",
          "type": "address"
        },
        {
          "indexed": true,
          "internalType": "address",
          "name": "operator",
          "type": "address"
        },
        {
          "indexed": false,
          "internalType": "bool",
          "name": "approved",
          "type": "bool"
        }
      ],
      "name": "ApprovalForAll",
      "type": "event"
    },
    {
      "anonymous": false,
      "inputs": [
        {
          "indexed": true,
          "internalType": "bytes32",
          "name": "role",
          "type": "bytes32"
        },
        {
          "indexed": true,
          "internalType": "bytes32",
          "name": "previousAdminRole",
          "type": "bytes32"
        },
        {
          "indexed": true,
          "internalType": "bytes32",
          "name": "newAdminRole",
          "type": "bytes32"
        }
      ],
      "name": "RoleAdminChanged",
      "type": "event"
    },
    {
      "anonymous": false,
      "inputs": [
        {
          "indexed": true,
          "internalType": "bytes32",
          "name": "role",
          "type": "bytes32"
        },
        {
          "indexed": true,
          "internalType": "address",
          "name": "account",
          "type": "address"
        },
        {
          "indexed": true,
          "internalType": "address",
          "name": "sender",
          "type": "address"
        }
      ],
      "name": "RoleGranted",
      "type": "event"
    },
    {
      "anonymous": false,
      "inputs": [
        {
          "indexed": true,
          "internalType": "bytes32",
          "name": "role",
          "type": "bytes32"
        },
        {
          "indexed": true,
          "internalType": "address",
          "name": "account",
          "type": "address"
        },
        {
          "indexed": true,
          "internalType": "address",
          "name": "sender",
          "type": "address"
        }
      ],
      "name": "RoleRevoked",
      "type": "event"
    },
    {
      "anonymous": false,
      "inputs": [
        {
          "indexed": true,
          "internalType": "address",
          "name": "from",
          "type": "address"
        },
        {
          "indexed": true,
          "internalType": "address",
          "name": "to",
          "type": "address"
        },
        {
          "indexed": true,
          "internalType": "uint256",
          "name": "tokenId",
          "type": "uint256"
        }
      ],
      "name": "Transfer",
      "type": "event"
    },
    {
      "inputs": [],
      "name": "DEFAULT_ADMIN_ROLE",
      "outputs": [
        {
          "internalType": "bytes32",
          "name": "",
          "type": "bytes32"
        }
      ],
      "stateMutability": "view",
      "type": "function",
      "constant": true
    },
    {
      "inputs": [],
      "name": "MINTER_ROLE",
      "outputs": [
        {
          "internalType": "bytes32",
          "name": "",
          "type": "bytes32"
        }
      ],
      "stateMutability": "view",
      "type": "function",
      "constant": true
    },
    {
      "inputs": [
        {
          "internalType": "address",
          "name": "to",
          "type": "address"
        },
        {
          "internalType": "uint256",
          "name": "tokenId",
          "type": "uint256"
        }
      ],
      "name": "approve",
      "outputs": [],
      "stateMutability": "nonpayable",
      "type": "function"
    },
    {
      "inputs": [
        {
          "internalType": "address",
          "name": "owner",
          "type": "address"
        }
      ],
      "name": "balanceOf",
      "outputs": [
        {
          "internalType": "uint256",
          "name": "",
          "type": "uint256"
        }
      ],
      "stateMutability": "view",
      "type": "function",
      "constant": true
    },
    {
      "inputs": [
        {
          "internalType": "uint256",
          "name": "tokenId",
          "type": "uint256"
        }
      ],
      "name": "getApproved",
      "outputs": [
        {
          "internalType": "address",
          "name": "",
          "type": "address"
        }
      ],
      "stateMutability": "view",
      "type": "function",
      "constant": true
    },
    {
      "inputs": [
        {
          "internalType": "bytes32",
          "name": "role",
          "type": "bytes32"
        }
      ],
      "name": "getRoleAdmin",
      "outputs": [
        {
          "internalType": "bytes32",
          "name": "",
          "type": "bytes32"
        }
      ],
      "stateMutability": "view",
      "type": "function",
      "constant": true
    },
    {
      "inputs": [
        {
          "internalType": "bytes32",
          "name": "role",
          "type": "bytes32"
        },
        {
          "internalType": "address",
          "name": "account",
          "type": "address"
        }
      ],
      "name": "grantRole",
      "outputs": [],
      "stateMutability": "nonpayable",
      "type": "function"
    },
    {
      "inputs": [
        {
          "internalType": "bytes32",
          "name": "role",
          "type": "bytes32"
        },
        {
          "internalType": "address",
          "name": "account",
          "type": "address"
        }
      ],
      "name": "hasRole",
      "outputs": [
        {
          "internalType": "bool",
          "name": "",
          "type": "bool"
        }
      ],
      "stateMutability": "view",
      "type": "function",
      "constant": true
    },
    {
      "inputs": [
        {
          "internalType": "address",
          "name": "owner",
          "type": "address"
        },
        {
          "internalType": "address",
          "name": "operator",
          "type": "address"
        }
      ],
      "name": "isApprovedForAll",
      "outputs": [
        {
          "internalType": "bool",
          "name": "",
          "type": "bool"
        }
      ],
      "stateMutability": "view",
      "type": "function",
      "constant": true
    },
    {
      "inputs": [],
      "name": "name",
      "outputs": [
        {
          "internalType": "string",
          "name": "",
          "type": "string"
        }
      ],
      "stateMutability": "view",
      "type": "function",
      "constant": true
    },
    {
      "inputs": [
        {
          "internalType": "uint256",
          "name": "tokenId",
          "type": "uint256"
        }
      ],
      "name": "ownerOf",
      "outputs": [
        {
          "internalType": "address",
          "name": "",
          "type": "address"
        }
      ],
      "stateMutability": "view",
      "type": "function",
      "constant": true
    },
    {
      "inputs": [
        {
          "internalType": "bytes32",
          "name": "role",
          "type": "bytes32"
        },
        {
          "internalType": "address",
          "name": "account",
          "type": "address"
        }
      ],
      "name": "renounceRole",
      "outputs": [],
      "stateMutability": "nonpayable",
      "type": "function"
    },
    {
      "inputs": [
        {
          "internalType": "bytes32",
          "name": "role",
          "type": "bytes32"
        },
        {
          "internalType": "address",
          "name": "account",
          "type": "address"
        }
      ],
      "name": "revokeRole",
      "outputs": [],
      "stateMutability": "nonpayable",
      "type": "function"
    },
    {
      "inputs": [
        {
          "internalType": "address",
          "name": "from",
          "type": "address"
        },
        {
          "internalType": "address",
          "name": "to",
          "type": "address"
        },
        {
          "internalType": "uint256",
          "name": "tokenId",
          "type": "uint256"
        }
      ],
      "name": "safeTransferFrom",
      "outputs": [],
      "stateMutability": "nonpayable",
      "type": "function"
    },
    {
      "inputs": [
        {
          "internalType": "address",
          "name": "from",
          "type": "address"
        },
        {
          "internalType": "address",
          "name": "to",
          "type": "address"
        },
        {
          "internalType": "uint256",
          "name": "tokenId",
          "type": "uint256"
        },
        {
          "internalType": "bytes",
          "name": "_data",
          "type": "bytes"
        }
      ],
      "name": "safeTransferFrom",
      "outputs": [],
      "stateMutability": "nonpayable",
      "type": "function"
    },
    {
      "inputs": [
        {
          "internalType": "address",
          "name": "operator",
          "type": "address"
        },
        {
          "internalType": "bool",
          "name": "approved",
          "type": "bool"
        }
      ],
      "name": "setApprovalForAll",
      "outputs": [],
      "stateMutability": "nonpayable",
      "type": "function"
    },
    {
      "inputs": [],
      "name": "symbol",
      "outputs": [
        {
          "internalType": "string",
          "name": "",
          "type": "string"
        }
      ],
      "stateMutability": "view",
      "type": "function",
      "constant": true
    },
    {
      "inputs": [
        {
          "internalType": "address",
          "name": "from",
          "type": "address"
        },
        {
          "internalType": "address",
          "name": "to",
          "type": "address"
        },
        {
          "internalType": "uint256",
          "name": "tokenId",
          "type": "uint256"
        }
      ],
      "name": "transferFrom",
      "outputs": [],
      "stateMutability": "nonpayable",
      "type": "function"
    },
    {
      "inputs": [
        {
          "internalType": "address",
          "name": "to",
          "type": "address"
        },
        {
          "internalType": "uint256",
          "name": "tokenId",
          "type": "uint256"
        },
        {
          "internalType": "string",
          "name": "_tokenURI",
          "type": "string"
        },
        {
          "internalType": "address",
          "name": "creator",
          "type": "address"
        }
      ],
      "name": "safeMint",
      "outputs": [],
      "stateMutability": "nonpayable",
      "type": "function"
    },
    {
      "inputs": [
        {
          "internalType": "uint256",
          "name": "tokenId",
          "type": "uint256"
        }
      ],
      "name": "creatorOf",
      "outputs": [
        {
          "internalType": "address",
          "name": "",
          "type": "address"
        }
      ],
      "stateMutability": "view",
      "type": "function",
      "constant": true
    },
    {
      "inputs": [
        {
          "internalType": "uint256",
          "name": "tokenId",
          "type": "uint256"
        }
      ],
      "name": "tokenURI",
      "outputs": [
        {
          "internalType": "string",
          "name": "",
          "type": "string"
        }
      ],
      "stateMutability": "view",
      "type": "function",
      "constant": true
    },
    {
      "inputs": [
        {
          "internalType": "bytes4",
          "name": "interfaceId",
          "type": "bytes4"
        }
      ],
      "name": "supportsInterface",
      "outputs": [
        {
          "internalType": "bool",
          "name": "",
          "type": "bool"
        }
      ],
      "stateMutability": "view",
      "type": "function",
      "constant": true
    }
  ],
  "bytecode": "0x60806040523480156200001157600080fd5b506040518060400160405280601181526020017f436f696e20426964204372656174696f6e0000000000000000000000000000008152506040518060400160405280600381526020017f43424300000000000000000000000000000000000000000000000000000000008152508160009080519060200190620000969291906200027a565b508060019080519060200190620000af9291906200027a565b505050620000c76000801b33620000ff60201b60201c565b620000f97f9f2df0fed2c77648de5860a4cc508cd0818c85b8b8a1ab4ceeef8d981c8956a633620000ff60201b60201c565b6200038f565b6200011182826200011560201b60201c565b5050565b6200012782826200020760201b60201c565b620002035760016007600084815260200190815260200160002060000160008373ffffffffffffffffffffffffffffffffffffffff1673ffffffffffffffffffffffffffffffffffffffff16815260200190815260200160002060006101000a81548160ff021916908315150217905550620001a86200027260201b60201c565b73ffffffffffffffffffffffffffffffffffffffff168173ffffffffffffffffffffffffffffffffffffffff16837f2f8788117e7eff1d82e926ec794901d17c78024a50270940304540a733656f0d60405160405180910390a45b5050565b60006007600084815260200190815260200160002060000160008373ffffffffffffffffffffffffffffffffffffffff1673ffffffffffffffffffffffffffffffffffffffff16815260200190815260200160002060009054906101000a900460ff16905092915050565b600033905090565b82805462000288906200032a565b90600052602060002090601f016020900481019282620002ac5760008555620002f8565b82601f10620002c757805160ff1916838001178555620002f8565b82800160010185558215620002f8579182015b82811115620002f7578251825591602001919060010190620002da565b5b5090506200030791906200030b565b5090565b5b80821115620003265760008160009055506001016200030c565b5090565b600060028204905060018216806200034357607f821691505b602082108114156200035a576200035962000360565b5b50919050565b7f4e487b7100000000000000000000000000000000000000000000000000000000600052602260045260246000fd5b61379b806200039f6000396000f3fe608060405234801561001057600080fd5b50600436106101425760003560e01c806370a08231116100b8578063ac7cc47a1161007c578063ac7cc47a14610399578063b88d4fde146103b5578063c87b56dd146103d1578063d539139314610401578063d547741f1461041f578063e985e9c51461043b57610142565b806370a08231146102e157806391d148541461031157806395d89b4114610341578063a217fddf1461035f578063a22cb4651461037d57610142565b8063248a9ca31161010a578063248a9ca3146101fd5780632f2ff15d1461022d57806336568abe1461024957806342842e0e14610265578063589a1743146102815780636352211e146102b157610142565b806301ffc9a71461014757806306fdde0314610177578063081812fc14610195578063095ea7b3146101c557806323b872dd146101e1575b600080fd5b610161600480360381019061015c91906126c0565b61046b565b60405161016e9190612ff3565b60405180910390f35b61017f61047d565b60405161018c9190613029565b60405180910390f35b6101af60048036038101906101aa9190612712565b61050f565b6040516101bc9190612f8c565b60405180910390f35b6101df60048036038101906101da91906125a4565b610594565b005b6101fb60048036038101906101f6919061249e565b6106ac565b005b6102176004803603810190610212919061265b565b61070c565b604051610224919061300e565b60405180910390f35b61024760048036038101906102429190612684565b61072c565b005b610263600480360381019061025e9190612684565b610755565b005b61027f600480360381019061027a919061249e565b6107d8565b005b61029b60048036038101906102969190612712565b6107f8565b6040516102a89190612f8c565b60405180910390f35b6102cb60048036038101906102c69190612712565b610835565b6040516102d89190612f8c565b60405180910390f35b6102fb60048036038101906102f69190612439565b6108e7565b604051610308919061328b565b60405180910390f35b61032b60048036038101906103269190612684565b61099f565b6040516103389190612ff3565b60405180910390f35b610349610a0a565b6040516103569190613029565b60405180910390f35b610367610a9c565b604051610374919061300e565b60405180910390f35b61039760048036038101906103929190612568565b610aa3565b005b6103b360048036038101906103ae91906125e0565b610c24565b005b6103cf60048036038101906103ca91906124ed565b610cc3565b005b6103eb60048036038101906103e69190612712565b610d25565b6040516103f89190613029565b60405180910390f35b610409610d37565b604051610416919061300e565b60405180910390f35b61043960048036038101906104349190612684565b610d5b565b005b61045560048036038101906104509190612462565b610d84565b6040516104629190612ff3565b60405180910390f35b600061047682610e18565b9050919050565b60606000805461048c90613579565b80601f01602080910402602001604051908101604052809291908181526020018280546104b890613579565b80156105055780601f106104da57610100808354040283529160200191610505565b820191906000526020600020905b8154815290600101906020018083116104e857829003601f168201915b5050505050905090565b600061051a82610e92565b610559576040517f08c379a0000000000000000000000000000000000000000000000000000000008152600401610550906131cb565b60405180910390fd5b6004600083815260200190815260200160002060009054906101000a900473ffffffffffffffffffffffffffffffffffffffff169050919050565b600061059f82610835565b90508073ffffffffffffffffffffffffffffffffffffffff168373ffffffffffffffffffffffffffffffffffffffff161415610610576040517f08c379a00000000000000000000000000000000000000000000000000000000081526004016106079061322b565b60405180910390fd5b8073ffffffffffffffffffffffffffffffffffffffff1661062f610efe565b73ffffffffffffffffffffffffffffffffffffffff16148061065e575061065d81610658610efe565b610d84565b5b61069d576040517f08c379a00000000000000000000000000000000000000000000000000000000081526004016106949061310b565b60405180910390fd5b6106a78383610f06565b505050565b6106bd6106b7610efe565b82610fbf565b6106fc576040517f08c379a00000000000000000000000000000000000000000000000000000000081526004016106f39061324b565b60405180910390fd5b61070783838361109d565b505050565b600060076000838152602001908152602001600020600101549050919050565b6107358261070c565b61074681610741610efe565b6112f9565b6107508383611396565b505050565b61075d610efe565b73ffffffffffffffffffffffffffffffffffffffff168173ffffffffffffffffffffffffffffffffffffffff16146107ca576040517f08c379a00000000000000000000000000000000000000000000000000000000081526004016107c19061326b565b60405180910390fd5b6107d48282611477565b5050565b6107f383838360405180602001604052806000815250610cc3565b505050565b60006008600083815260200190815260200160002060009054906101000a900473ffffffffffffffffffffffffffffffffffffffff169050919050565b6000806002600084815260200190815260200160002060009054906101000a900473ffffffffffffffffffffffffffffffffffffffff169050600073ffffffffffffffffffffffffffffffffffffffff168173ffffffffffffffffffffffffffffffffffffffff1614156108de576040517f08c379a00000000000000000000000000000000000000000000000000000000081526004016108d59061314b565b60405180910390fd5b80915050919050565b60008073ffffffffffffffffffffffffffffffffffffffff168273ffffffffffffffffffffffffffffffffffffffff161415610958576040517f08c379a000000000000000000000000000000000000000000000000000000000815260040161094f9061312b565b60405180910390fd5b600360008373ffffffffffffffffffffffffffffffffffffffff1673ffffffffffffffffffffffffffffffffffffffff168152602001908152602001600020549050919050565b60006007600084815260200190815260200160002060000160008373ffffffffffffffffffffffffffffffffffffffff1673ffffffffffffffffffffffffffffffffffffffff16815260200190815260200160002060009054906101000a900460ff16905092915050565b606060018054610a1990613579565b80601f0160208091040260200160405190810160405280929190818152602001828054610a4590613579565b8015610a925780601f10610a6757610100808354040283529160200191610a92565b820191906000526020600020905b815481529060010190602001808311610a7557829003601f168201915b5050505050905090565b6000801b81565b610aab610efe565b73ffffffffffffffffffffffffffffffffffffffff168273ffffffffffffffffffffffffffffffffffffffff161415610b19576040517f08c379a0000000000000000000000000000000000000000000000000000000008152600401610b10906130cb565b60405180910390fd5b8060056000610b26610efe565b73ffffffffffffffffffffffffffffffffffffffff1673ffffffffffffffffffffffffffffffffffffffff16815260200190815260200160002060008473ffffffffffffffffffffffffffffffffffffffff1673ffffffffffffffffffffffffffffffffffffffff16815260200190815260200160002060006101000a81548160ff0219169083151502179055508173ffffffffffffffffffffffffffffffffffffffff16610bd3610efe565b73ffffffffffffffffffffffffffffffffffffffff167f17307eab39ab6107e8899845ad3d59bd9653f200f220920489ca2b5937696c3183604051610c189190612ff3565b60405180910390a35050565b610c4e7f9f2df0fed2c77648de5860a4cc508cd0818c85b8b8a1ab4ceeef8d981c8956a63361099f565b610c5757600080fd5b610c618484611559565b610c6b8383611577565b806008600085815260200190815260200160002060006101000a81548173ffffffffffffffffffffffffffffffffffffffff021916908373ffffffffffffffffffffffffffffffffffffffff16021790555050505050565b610cd4610cce610efe565b83610fbf565b610d13576040517f08c379a0000000000000000000000000000000000000000000000000000000008152600401610d0a9061324b565b60405180910390fd5b610d1f848484846115eb565b50505050565b6060610d3082611647565b9050919050565b7f9f2df0fed2c77648de5860a4cc508cd0818c85b8b8a1ab4ceeef8d981c8956a681565b610d648261070c565b610d7581610d70610efe565b6112f9565b610d7f8383611477565b505050565b6000600560008473ffffffffffffffffffffffffffffffffffffffff1673ffffffffffffffffffffffffffffffffffffffff16815260200190815260200160002060008373ffffffffffffffffffffffffffffffffffffffff1673ffffffffffffffffffffffffffffffffffffffff16815260200190815260200160002060009054906101000a900460ff16905092915050565b60007f7965db0b000000000000000000000000000000000000000000000000000000007bffffffffffffffffffffffffffffffffffffffffffffffffffffffff1916827bffffffffffffffffffffffffffffffffffffffffffffffffffffffff19161480610e8b5750610e8a82611799565b5b9050919050565b60008073ffffffffffffffffffffffffffffffffffffffff166002600084815260200190815260200160002060009054906101000a900473ffffffffffffffffffffffffffffffffffffffff1673ffffffffffffffffffffffffffffffffffffffff1614159050919050565b600033905090565b816004600083815260200190815260200160002060006101000a81548173ffffffffffffffffffffffffffffffffffffffff021916908373ffffffffffffffffffffffffffffffffffffffff160217905550808273ffffffffffffffffffffffffffffffffffffffff16610f7983610835565b73ffffffffffffffffffffffffffffffffffffffff167f8c5be1e5ebec7d5bd14f71427d1e84f3dd0314c0f7b2291e5b200ac8c7c3b92560405160405180910390a45050565b6000610fca82610e92565b611009576040517f08c379a0000000000000000000000000000000000000000000000000000000008152600401611000906130eb565b60405180910390fd5b600061101483610835565b90508073ffffffffffffffffffffffffffffffffffffffff168473ffffffffffffffffffffffffffffffffffffffff16148061108357508373ffffffffffffffffffffffffffffffffffffffff1661106b8461050f565b73ffffffffffffffffffffffffffffffffffffffff16145b8061109457506110938185610d84565b5b91505092915050565b8273ffffffffffffffffffffffffffffffffffffffff166110bd82610835565b73ffffffffffffffffffffffffffffffffffffffff1614611113576040517f08c379a000000000000000000000000000000000000000000000000000000000815260040161110a906131eb565b60405180910390fd5b600073ffffffffffffffffffffffffffffffffffffffff168273ffffffffffffffffffffffffffffffffffffffff161415611183576040517f08c379a000000000000000000000000000000000000000000000000000000000815260040161117a906130ab565b60405180910390fd5b61118e83838361187b565b611199600082610f06565b6001600360008573ffffffffffffffffffffffffffffffffffffffff1673ffffffffffffffffffffffffffffffffffffffff16815260200190815260200160002060008282546111e9919061345b565b925050819055506001600360008473ffffffffffffffffffffffffffffffffffffffff1673ffffffffffffffffffffffffffffffffffffffff1681526020019081526020016000206000828254611240919061337a565b92505081905550816002600083815260200190815260200160002060006101000a81548173ffffffffffffffffffffffffffffffffffffffff021916908373ffffffffffffffffffffffffffffffffffffffff160217905550808273ffffffffffffffffffffffffffffffffffffffff168473ffffffffffffffffffffffffffffffffffffffff167fddf252ad1be2c89b69c2b068fc378daa952ba7f163c4a11628f55a4df523b3ef60405160405180910390a4505050565b611303828261099f565b611392576113288173ffffffffffffffffffffffffffffffffffffffff166014611880565b6113368360001c6020611880565b604051602001611347929190612f52565b6040516020818303038152906040526040517f08c379a00000000000000000000000000000000000000000000000000000000081526004016113899190613029565b60405180910390fd5b5050565b6113a0828261099f565b6114735760016007600084815260200190815260200160002060000160008373ffffffffffffffffffffffffffffffffffffffff1673ffffffffffffffffffffffffffffffffffffffff16815260200190815260200160002060006101000a81548160ff021916908315150217905550611418610efe565b73ffffffffffffffffffffffffffffffffffffffff168173ffffffffffffffffffffffffffffffffffffffff16837f2f8788117e7eff1d82e926ec794901d17c78024a50270940304540a733656f0d60405160405180910390a45b5050565b611481828261099f565b156115555760006007600084815260200190815260200160002060000160008373ffffffffffffffffffffffffffffffffffffffff1673ffffffffffffffffffffffffffffffffffffffff16815260200190815260200160002060006101000a81548160ff0219169083151502179055506114fa610efe565b73ffffffffffffffffffffffffffffffffffffffff168173ffffffffffffffffffffffffffffffffffffffff16837ff6391f5c32d9c69d2a47ea670b442974b53935d1edc7fd64eb21e047a839171b60405160405180910390a45b5050565b611573828260405180602001604052806000815250611b7a565b5050565b61158082610e92565b6115bf576040517f08c379a00000000000000000000000000000000000000000000000000000000081526004016115b69061316b565b60405180910390fd5b806006600084815260200190815260200160002090805190602001906115e6929190612248565b505050565b6115f684848461109d565b61160284848484611bd5565b611641576040517f08c379a00000000000000000000000000000000000000000000000000000000081526004016116389061306b565b60405180910390fd5b50505050565b606061165282610e92565b611691576040517f08c379a0000000000000000000000000000000000000000000000000000000008152600401611688906131ab565b60405180910390fd5b60006006600084815260200190815260200160002080546116b190613579565b80601f01602080910402602001604051908101604052809291908181526020018280546116dd90613579565b801561172a5780601f106116ff5761010080835404028352916020019161172a565b820191906000526020600020905b81548152906001019060200180831161170d57829003601f168201915b50505050509050600061173b611d6c565b9050600081511415611751578192505050611794565b60008251111561178657808260405160200161176e929190612f2e565b60405160208183030381529060405292505050611794565b61178f84611da9565b925050505b919050565b60007f80ac58cd000000000000000000000000000000000000000000000000000000007bffffffffffffffffffffffffffffffffffffffffffffffffffffffff1916827bffffffffffffffffffffffffffffffffffffffffffffffffffffffff1916148061186457507f5b5e139f000000000000000000000000000000000000000000000000000000007bffffffffffffffffffffffffffffffffffffffffffffffffffffffff1916827bffffffffffffffffffffffffffffffffffffffffffffffffffffffff1916145b80611874575061187382611e50565b5b9050919050565b505050565b6060600060028360026118939190613401565b61189d919061337a565b67ffffffffffffffff8111156118dc577f4e487b7100000000000000000000000000000000000000000000000000000000600052604160045260246000fd5b6040519080825280601f01601f19166020018201604052801561190e5781602001600182028036833780820191505090505b5090507f30000000000000000000000000000000000000000000000000000000000000008160008151811061196c577f4e487b7100000000000000000000000000000000000000000000000000000000600052603260045260246000fd5b60200101907effffffffffffffffffffffffffffffffffffffffffffffffffffffffffffff1916908160001a9053507f7800000000000000000000000000000000000000000000000000000000000000816001815181106119f6577f4e487b7100000000000000000000000000000000000000000000000000000000600052603260045260246000fd5b60200101907effffffffffffffffffffffffffffffffffffffffffffffffffffffffffffff1916908160001a90535060006001846002611a369190613401565b611a40919061337a565b90505b6001811115611b2c577f3031323334353637383961626364656600000000000000000000000000000000600f861660108110611aa8577f4e487b7100000000000000000000000000000000000000000000000000000000600052603260045260246000fd5b1a60f81b828281518110611ae5577f4e487b7100000000000000000000000000000000000000000000000000000000600052603260045260246000fd5b60200101907effffffffffffffffffffffffffffffffffffffffffffffffffffffffffffff1916908160001a905350600485901c945080611b259061354f565b9050611a43565b5060008414611b70576040517f08c379a0000000000000000000000000000000000000000000000000000000008152600401611b679061304b565b60405180910390fd5b8091505092915050565b611b848383611eba565b611b916000848484611bd5565b611bd0576040517f08c379a0000000000000000000000000000000000000000000000000000000008152600401611bc79061306b565b60405180910390fd5b505050565b6000611bf68473ffffffffffffffffffffffffffffffffffffffff16612088565b15611d5f578373ffffffffffffffffffffffffffffffffffffffff1663150b7a02611c1f610efe565b8786866040518563ffffffff1660e01b8152600401611c419493929190612fa7565b602060405180830381600087803b158015611c5b57600080fd5b505af1925050508015611c8c57506040513d601f19601f82011682018060405250810190611c8991906126e9565b60015b611d0f573d8060008114611cbc576040519150601f19603f3d011682016040523d82523d6000602084013e611cc1565b606091505b50600081511415611d07576040517f08c379a0000000000000000000000000000000000000000000000000000000008152600401611cfe9061306b565b60405180910390fd5b805181602001fd5b63150b7a0260e01b7bffffffffffffffffffffffffffffffffffffffffffffffffffffffff1916817bffffffffffffffffffffffffffffffffffffffffffffffffffffffff191614915050611d64565b600190505b949350505050565b60606040518060400160405280601581526020017f68747470733a2f2f697066732e696f2f697066732f0000000000000000000000815250905090565b6060611db482610e92565b611df3576040517f08c379a0000000000000000000000000000000000000000000000000000000008152600401611dea9061320b565b60405180910390fd5b6000611dfd611d6c565b90506000815111611e1d5760405180602001604052806000815250611e48565b80611e278461209b565b604051602001611e38929190612f2e565b6040516020818303038152906040525b915050919050565b60007f01ffc9a7000000000000000000000000000000000000000000000000000000007bffffffffffffffffffffffffffffffffffffffffffffffffffffffff1916827bffffffffffffffffffffffffffffffffffffffffffffffffffffffff1916149050919050565b600073ffffffffffffffffffffffffffffffffffffffff168273ffffffffffffffffffffffffffffffffffffffff161415611f2a576040517f08c379a0000000000000000000000000000000000000000000000000000000008152600401611f219061318b565b60405180910390fd5b611f3381610e92565b15611f73576040517f08c379a0000000000000000000000000000000000000000000000000000000008152600401611f6a9061308b565b60405180910390fd5b611f7f6000838361187b565b6001600360008473ffffffffffffffffffffffffffffffffffffffff1673ffffffffffffffffffffffffffffffffffffffff1681526020019081526020016000206000828254611fcf919061337a565b92505081905550816002600083815260200190815260200160002060006101000a81548173ffffffffffffffffffffffffffffffffffffffff021916908373ffffffffffffffffffffffffffffffffffffffff160217905550808273ffffffffffffffffffffffffffffffffffffffff16600073ffffffffffffffffffffffffffffffffffffffff167fddf252ad1be2c89b69c2b068fc378daa952ba7f163c4a11628f55a4df523b3ef60405160405180910390a45050565b600080823b905060008111915050919050565b606060008214156120e3576040518060400160405280600181526020017f30000000000000000000000000000000000000000000000000000000000000008152509050612243565b600082905060005b600082146121155780806120fe906135ab565b915050600a8261210e91906133d0565b91506120eb565b60008167ffffffffffffffff811115612157577f4e487b7100000000000000000000000000000000000000000000000000000000600052604160045260246000fd5b6040519080825280601f01601f1916602001820160405280156121895781602001600182028036833780820191505090505b5090505b6000851461223c576001826121a2919061345b565b9150600a856121b191906135f4565b60306121bd919061337a565b60f81b8183815181106121f9577f4e487b7100000000000000000000000000000000000000000000000000000000600052603260045260246000fd5b60200101907effffffffffffffffffffffffffffffffffffffffffffffffffffffffffffff1916908160001a905350600a8561223591906133d0565b945061218d565b8093505050505b919050565b82805461225490613579565b90600052602060002090601f01602090048101928261227657600085556122bd565b82601f1061228f57805160ff19168380011785556122bd565b828001600101855582156122bd579182015b828111156122bc5782518255916020019190600101906122a1565b5b5090506122ca91906122ce565b5090565b5b808211156122e75760008160009055506001016122cf565b5090565b60006122fe6122f9846132d7565b6132a6565b90508281526020810184848401111561231657600080fd5b61232184828561350d565b509392505050565b600061233c61233784613307565b6132a6565b90508281526020810184848401111561235457600080fd5b61235f84828561350d565b509392505050565b600081359050612376816136f2565b92915050565b60008135905061238b81613709565b92915050565b6000813590506123a081613720565b92915050565b6000813590506123b581613737565b92915050565b6000815190506123ca81613737565b92915050565b600082601f8301126123e157600080fd5b81356123f18482602086016122eb565b91505092915050565b600082601f83011261240b57600080fd5b813561241b848260208601612329565b91505092915050565b6000813590506124338161374e565b92915050565b60006020828403121561244b57600080fd5b600061245984828501612367565b91505092915050565b6000806040838503121561247557600080fd5b600061248385828601612367565b925050602061249485828601612367565b9150509250929050565b6000806000606084860312156124b357600080fd5b60006124c186828701612367565b93505060206124d286828701612367565b92505060406124e386828701612424565b9150509250925092565b6000806000806080858703121561250357600080fd5b600061251187828801612367565b945050602061252287828801612367565b935050604061253387828801612424565b925050606085013567ffffffffffffffff81111561255057600080fd5b61255c878288016123d0565b91505092959194509250565b6000806040838503121561257b57600080fd5b600061258985828601612367565b925050602061259a8582860161237c565b9150509250929050565b600080604083850312156125b757600080fd5b60006125c585828601612367565b92505060206125d685828601612424565b9150509250929050565b600080600080608085870312156125f657600080fd5b600061260487828801612367565b945050602061261587828801612424565b935050604085013567ffffffffffffffff81111561263257600080fd5b61263e878288016123fa565b925050606061264f87828801612367565b91505092959194509250565b60006020828403121561266d57600080fd5b600061267b84828501612391565b91505092915050565b6000806040838503121561269757600080fd5b60006126a585828601612391565b92505060206126b685828601612367565b9150509250929050565b6000602082840312156126d257600080fd5b60006126e0848285016123a6565b91505092915050565b6000602082840312156126fb57600080fd5b6000612709848285016123bb565b91505092915050565b60006020828403121561272457600080fd5b600061273284828501612424565b91505092915050565b6127448161348f565b82525050565b612753816134a1565b82525050565b612762816134ad565b82525050565b600061277382613337565b61277d818561334d565b935061278d81856020860161351c565b612796816136e1565b840191505092915050565b60006127ac82613342565b6127b6818561335e565b93506127c681856020860161351c565b6127cf816136e1565b840191505092915050565b60006127e582613342565b6127ef818561336f565b93506127ff81856020860161351c565b80840191505092915050565b600061281860208361335e565b91507f537472696e67733a20686578206c656e67746820696e73756666696369656e746000830152602082019050919050565b600061285860328361335e565b91507f4552433732313a207472616e7366657220746f206e6f6e20455243373231526560008301527f63656976657220696d706c656d656e74657200000000000000000000000000006020830152604082019050919050565b60006128be601c8361335e565b91507f4552433732313a20746f6b656e20616c7265616479206d696e746564000000006000830152602082019050919050565b60006128fe60248361335e565b91507f4552433732313a207472616e7366657220746f20746865207a65726f2061646460008301527f72657373000000000000000000000000000000000000000000000000000000006020830152604082019050919050565b600061296460198361335e565b91507f4552433732313a20617070726f766520746f2063616c6c6572000000000000006000830152602082019050919050565b60006129a4602c8361335e565b91507f4552433732313a206f70657261746f7220717565727920666f72206e6f6e657860008301527f697374656e7420746f6b656e00000000000000000000000000000000000000006020830152604082019050919050565b6000612a0a60388361335e565b91507f4552433732313a20617070726f76652063616c6c6572206973206e6f74206f7760008301527f6e6572206e6f7220617070726f76656420666f7220616c6c00000000000000006020830152604082019050919050565b6000612a70602a8361335e565b91507f4552433732313a2062616c616e636520717565727920666f7220746865207a6560008301527f726f2061646472657373000000000000000000000000000000000000000000006020830152604082019050919050565b6000612ad660298361335e565b91507f4552433732313a206f776e657220717565727920666f72206e6f6e657869737460008301527f656e7420746f6b656e00000000000000000000000000000000000000000000006020830152604082019050919050565b6000612b3c602e8361335e565b91507f45524337323155524953746f726167653a2055524920736574206f66206e6f6e60008301527f6578697374656e7420746f6b656e0000000000000000000000000000000000006020830152604082019050919050565b6000612ba260208361335e565b91507f4552433732313a206d696e7420746f20746865207a65726f20616464726573736000830152602082019050919050565b6000612be260318361335e565b91507f45524337323155524953746f726167653a2055524920717565727920666f722060008301527f6e6f6e6578697374656e7420746f6b656e0000000000000000000000000000006020830152604082019050919050565b6000612c48602c8361335e565b91507f4552433732313a20617070726f76656420717565727920666f72206e6f6e657860008301527f697374656e7420746f6b656e00000000000000000000000000000000000000006020830152604082019050919050565b6000612cae60298361335e565b91507f4552433732313a207472616e73666572206f6620746f6b656e2074686174206960008301527f73206e6f74206f776e00000000000000000000000000000000000000000000006020830152604082019050919050565b6000612d14602f8361335e565b91507f4552433732314d657461646174613a2055524920717565727920666f72206e6f60008301527f6e6578697374656e7420746f6b656e00000000000000000000000000000000006020830152604082019050919050565b6000612d7a60218361335e565b91507f4552433732313a20617070726f76616c20746f2063757272656e74206f776e6560008301527f72000000000000000000000000000000000000000000000000000000000000006020830152604082019050919050565b6000612de060318361335e565b91507f4552433732313a207472616e736665722063616c6c6572206973206e6f74206f60008301527f776e6572206e6f7220617070726f7665640000000000000000000000000000006020830152604082019050919050565b6000612e4660178361336f565b91507f416363657373436f6e74726f6c3a206163636f756e74200000000000000000006000830152601782019050919050565b6000612e8660118361336f565b91507f206973206d697373696e6720726f6c65200000000000000000000000000000006000830152601182019050919050565b6000612ec6602f8361335e565b91507f416363657373436f6e74726f6c3a2063616e206f6e6c792072656e6f756e636560008301527f20726f6c657320666f722073656c6600000000000000000000000000000000006020830152604082019050919050565b612f2881613503565b82525050565b6000612f3a82856127da565b9150612f4682846127da565b91508190509392505050565b6000612f5d82612e39565b9150612f6982856127da565b9150612f7482612e79565b9150612f8082846127da565b91508190509392505050565b6000602082019050612fa1600083018461273b565b92915050565b6000608082019050612fbc600083018761273b565b612fc9602083018661273b565b612fd66040830185612f1f565b8181036060830152612fe88184612768565b905095945050505050565b6000602082019050613008600083018461274a565b92915050565b60006020820190506130236000830184612759565b92915050565b6000602082019050818103600083015261304381846127a1565b905092915050565b600060208201905081810360008301526130648161280b565b9050919050565b600060208201905081810360008301526130848161284b565b9050919050565b600060208201905081810360008301526130a4816128b1565b9050919050565b600060208201905081810360008301526130c4816128f1565b9050919050565b600060208201905081810360008301526130e481612957565b9050919050565b6000602082019050818103600083015261310481612997565b9050919050565b60006020820190508181036000830152613124816129fd565b9050919050565b6000602082019050818103600083015261314481612a63565b9050919050565b6000602082019050818103600083015261316481612ac9565b9050919050565b6000602082019050818103600083015261318481612b2f565b9050919050565b600060208201905081810360008301526131a481612b95565b9050919050565b600060208201905081810360008301526131c481612bd5565b9050919050565b600060208201905081810360008301526131e481612c3b565b9050919050565b6000602082019050818103600083015261320481612ca1565b9050919050565b6000602082019050818103600083015261322481612d07565b9050919050565b6000602082019050818103600083015261324481612d6d565b9050919050565b6000602082019050818103600083015261326481612dd3565b9050919050565b6000602082019050818103600083015261328481612eb9565b9050919050565b60006020820190506132a06000830184612f1f565b92915050565b6000604051905081810181811067ffffffffffffffff821117156132cd576132cc6136b2565b5b8060405250919050565b600067ffffffffffffffff8211156132f2576132f16136b2565b5b601f19601f8301169050602081019050919050565b600067ffffffffffffffff821115613322576133216136b2565b5b601f19601f8301169050602081019050919050565b600081519050919050565b600081519050919050565b600082825260208201905092915050565b600082825260208201905092915050565b600081905092915050565b600061338582613503565b915061339083613503565b9250827fffffffffffffffffffffffffffffffffffffffffffffffffffffffffffffffff038211156133c5576133c4613625565b5b828201905092915050565b60006133db82613503565b91506133e683613503565b9250826133f6576133f5613654565b5b828204905092915050565b600061340c82613503565b915061341783613503565b9250817fffffffffffffffffffffffffffffffffffffffffffffffffffffffffffffffff04831182151516156134505761344f613625565b5b828202905092915050565b600061346682613503565b915061347183613503565b92508282101561348457613483613625565b5b828203905092915050565b600061349a826134e3565b9050919050565b60008115159050919050565b6000819050919050565b60007fffffffff0000000000000000000000000000000000000000000000000000000082169050919050565b600073ffffffffffffffffffffffffffffffffffffffff82169050919050565b6000819050919050565b82818337600083830152505050565b60005b8381101561353a57808201518184015260208101905061351f565b83811115613549576000848401525b50505050565b600061355a82613503565b9150600082141561356e5761356d613625565b5b600182039050919050565b6000600282049050600182168061359157607f821691505b602082108114156135a5576135a4613683565b5b50919050565b60006135b682613503565b91507fffffffffffffffffffffffffffffffffffffffffffffffffffffffffffffffff8214156135e9576135e8613625565b5b600182019050919050565b60006135ff82613503565b915061360a83613503565b92508261361a57613619613654565b5b828206905092915050565b7f4e487b7100000000000000000000000000000000000000000000000000000000600052601160045260246000fd5b7f4e487b7100000000000000000000000000000000000000000000000000000000600052601260045260246000fd5b7f4e487b7100000000000000000000000000000000000000000000000000000000600052602260045260246000fd5b7f4e487b7100000000000000000000000000000000000000000000000000000000600052604160045260246000fd5b6000601f19601f8301169050919050565b6136fb8161348f565b811461370657600080fd5b50565b613712816134a1565b811461371d57600080fd5b50565b613729816134ad565b811461373457600080fd5b50565b613740816134b7565b811461374b57600080fd5b50565b61375781613503565b811461376257600080fd5b5056fea2646970667358221220a5f4c82a054d9c2278c277690adabc0e97119e7e99f3392598e6365eab49f98264736f6c63430008000033",
  "immutableReferences": {},
  "source": "// SPDX-License-Identifier: MIT\npragma solidity ^0.8.0;\n\nimport \"@openzeppelin/contracts/token/ERC721/ERC721.sol\";\nimport \"@openzeppelin/contracts/token/ERC721/extensions/ERC721URIStorage.sol\";\nimport \"@openzeppelin/contracts/access/AccessControl.sol\";\n\ncontract CoinBidCreation is ERC721, ERC721URIStorage, AccessControl {\n    bytes32 public constant MINTER_ROLE = keccak256(\"MINTER_ROLE\");\n\n    // Mapping from token ID to owner address\n    mapping (uint256 => address) private _creatorOf;\n\n    constructor() ERC721(\"Coin Bid Creation\", \"CBC\") {\n        _setupRole(DEFAULT_ADMIN_ROLE, msg.sender);\n        _setupRole(MINTER_ROLE, msg.sender);\n    }\n\n    function safeMint(address to, uint256 tokenId, string memory _tokenURI, address creator) public {\n        require(hasRole(MINTER_ROLE, msg.sender));\n        _safeMint(to, tokenId);\n        _setTokenURI(tokenId, _tokenURI);\n        _creatorOf[tokenId] = creator;\n    }\n\n    function _baseURI() internal pure override returns (string memory) {\n        return \"https://ipfs.io/ipfs/\";\n    }\n\n    function _burn(uint256 tokenId) internal override(ERC721, ERC721URIStorage) {\n        super._burn(tokenId);\n    }\n\n    function creatorOf(uint256 tokenId) public view returns(address) {\n        return _creatorOf[tokenId];\n    }\n\n    function tokenURI(uint256 tokenId)\n        public\n        view\n        override(ERC721, ERC721URIStorage)\n        returns (string memory)\n    {\n        return super.tokenURI(tokenId);\n    }\n\n    function supportsInterface(bytes4 interfaceId)\n        public\n        view\n        override(ERC721, AccessControl)\n        returns (bool)\n    {\n        return super.supportsInterface(interfaceId);\n    }\n}\n",
  "sourcePath": "/Users/iwan/code/coinbid-cointract/contracts/3_CoinBidCreation.sol",
  "compiler": {
    "name": "solc",
    "version": "0.8.0+commit.c7dfd78e.Emscripten.clang"
  },
  "schemaVersion": "3.4.1",
  "updatedAt": "2021-07-07T19:10:02.383Z",
  "networkType": "ethereum",
  "devdoc": {
    "kind": "dev",
    "methods": {
      "approve(address,uint256)": {
        "details": "See {IERC721-approve}."
      },
      "balanceOf(address)": {
        "details": "See {IERC721-balanceOf}."
      },
      "getApproved(uint256)": {
        "details": "See {IERC721-getApproved}."
      },
      "getRoleAdmin(bytes32)": {
        "details": "Returns the admin role that controls `role`. See {grantRole} and {revokeRole}. To change a role's admin, use {_setRoleAdmin}."
      },
      "grantRole(bytes32,address)": {
        "details": "Grants `role` to `account`. If `account` had not been already granted `role`, emits a {RoleGranted} event. Requirements: - the caller must have ``role``'s admin role."
      },
      "hasRole(bytes32,address)": {
        "details": "Returns `true` if `account` has been granted `role`."
      },
      "isApprovedForAll(address,address)": {
        "details": "See {IERC721-isApprovedForAll}."
      },
      "name()": {
        "details": "See {IERC721Metadata-name}."
      },
      "ownerOf(uint256)": {
        "details": "See {IERC721-ownerOf}."
      },
      "renounceRole(bytes32,address)": {
        "details": "Revokes `role` from the calling account. Roles are often managed via {grantRole} and {revokeRole}: this function's purpose is to provide a mechanism for accounts to lose their privileges if they are compromised (such as when a trusted device is misplaced). If the calling account had been granted `role`, emits a {RoleRevoked} event. Requirements: - the caller must be `account`."
      },
      "revokeRole(bytes32,address)": {
        "details": "Revokes `role` from `account`. If `account` had been granted `role`, emits a {RoleRevoked} event. Requirements: - the caller must have ``role``'s admin role."
      },
      "safeTransferFrom(address,address,uint256)": {
        "details": "See {IERC721-safeTransferFrom}."
      },
      "safeTransferFrom(address,address,uint256,bytes)": {
        "details": "See {IERC721-safeTransferFrom}."
      },
      "setApprovalForAll(address,bool)": {
        "details": "See {IERC721-setApprovalForAll}."
      },
      "symbol()": {
        "details": "See {IERC721Metadata-symbol}."
      },
      "transferFrom(address,address,uint256)": {
        "details": "See {IERC721-transferFrom}."
      }
    },
    "version": 1
  },
  "userdoc": {
    "kind": "user",
    "methods": {},
    "version": 1
  }
}