{
  "contractName": "Mining",
  "abi": [
    {
      "inputs": [
        {
          "internalType": "address",
          "name": "_cbd",
          "type": "address"
        },
        {
          "internalType": "address",
          "name": "_periodMana",
          "type": "address"
        },
        {
          "internalType": "address",
          "name": "_nft",
          "type": "address"
        }
      ],
      "stateMutability": "nonpayable",
      "type": "constructor"
    },
    {
      "anonymous": false,
      "inputs": [
        {
          "indexed": false,
          "internalType": "address",
          "name": "newGovernance",
          "type": "address"
        }
      ],
      "name": "AddGovernance",
      "type": "event"
    },
    {
      "anonymous": false,
      "inputs": [
        {
          "indexed": false,
          "internalType": "uint256",
          "name": "canvasId",
          "type": "uint256"
        },
        {
          "indexed": false,
          "internalType": "address",
          "name": "from",
          "type": "address"
        },
        {
          "indexed": false,
          "internalType": "address",
          "name": "to",
          "type": "address"
        }
      ],
      "name": "CanvasTransferred",
      "type": "event"
    },
    {
      "anonymous": false,
      "inputs": [
        {
          "indexed": false,
          "internalType": "uint256",
          "name": "creationId",
          "type": "uint256"
        },
        {
          "indexed": false,
          "internalType": "address",
          "name": "from",
          "type": "address"
        },
        {
          "indexed": false,
          "internalType": "address",
          "name": "to",
          "type": "address"
        }
      ],
      "name": "CreationTransferred",
      "type": "event"
    },
    {
      "anonymous": false,
      "inputs": [
        {
          "indexed": true,
          "internalType": "address",
          "name": "previousOwner",
          "type": "address"
        },
        {
          "indexed": true,
          "internalType": "address",
          "name": "newOwner",
          "type": "address"
        }
      ],
      "name": "OwnershipTransferred",
      "type": "event"
    },
    {
      "anonymous": false,
      "inputs": [
        {
          "indexed": false,
          "internalType": "address",
          "name": "oldGovernance",
          "type": "address"
        }
      ],
      "name": "RemoveGovernance",
      "type": "event"
    },
    {
      "inputs": [
        {
          "internalType": "address",
          "name": "_newGovernance",
          "type": "address"
        }
      ],
      "name": "addGovernance",
      "outputs": [],
      "stateMutability": "nonpayable",
      "type": "function"
    },
    {
      "inputs": [
        {
          "internalType": "address",
          "name": "_governance",
          "type": "address"
        }
      ],
      "name": "isGovernance",
      "outputs": [
        {
          "internalType": "bool",
          "name": "",
          "type": "bool"
        }
      ],
      "stateMutability": "view",
      "type": "function",
      "constant": true
    },
    {
      "inputs": [],
      "name": "owner",
      "outputs": [
        {
          "internalType": "address",
          "name": "",
          "type": "address"
        }
      ],
      "stateMutability": "view",
      "type": "function",
      "constant": true
    },
    {
      "inputs": [
        {
          "internalType": "address",
          "name": "_oldGovernance",
          "type": "address"
        }
      ],
      "name": "removeGovernance",
      "outputs": [],
      "stateMutability": "nonpayable",
      "type": "function"
    },
    {
      "inputs": [],
      "name": "renounceOwnership",
      "outputs": [],
      "stateMutability": "nonpayable",
      "type": "function"
    },
    {
      "inputs": [
        {
          "internalType": "address",
          "name": "newOwner",
          "type": "address"
        }
      ],
      "name": "transferOwnership",
      "outputs": [],
      "stateMutability": "nonpayable",
      "type": "function"
    },
    {
      "inputs": [
        {
          "internalType": "uint256",
          "name": "_creationId",
          "type": "uint256"
        },
        {
          "internalType": "address",
          "name": "_to",
          "type": "address"
        }
      ],
      "name": "transferCreation",
      "outputs": [],
      "stateMutability": "nonpayable",
      "type": "function"
    },
    {
      "inputs": [
        {
          "internalType": "address",
          "name": "_theOwner",
          "type": "address"
        }
      ],
      "name": "earned",
      "outputs": [
        {
          "internalType": "uint256",
          "name": "",
          "type": "uint256"
        }
      ],
      "stateMutability": "view",
      "type": "function",
      "constant": true
    },
    {
      "inputs": [
        {
          "internalType": "address",
          "name": "_theOwner",
          "type": "address"
        }
      ],
      "name": "dailyEarning",
      "outputs": [
        {
          "internalType": "uint256",
          "name": "",
          "type": "uint256"
        }
      ],
      "stateMutability": "view",
      "type": "function",
      "constant": true
    },
    {
      "inputs": [],
      "name": "claim",
      "outputs": [],
      "stateMutability": "nonpayable",
      "type": "function"
    },
    {
      "inputs": [
        {
          "internalType": "uint256",
          "name": "_from",
          "type": "uint256"
        },
        {
          "internalType": "uint256",
          "name": "_to",
          "type": "uint256"
        }
      ],
      "name": "claim",
      "outputs": [],
      "stateMutability": "nonpayable",
      "type": "function"
    },
    {
      "inputs": [
        {
          "internalType": "address",
          "name": "_theOwner",
          "type": "address"
        }
      ],
      "name": "getMyOwnedCreations",
      "outputs": [
        {
          "components": [
            {
              "components": [
                {
                  "internalType": "uint256",
                  "name": "startTime",
                  "type": "uint256"
                },
                {
                  "internalType": "uint256",
                  "name": "remainingAmout",
                  "type": "uint256"
                },
                {
                  "internalType": "uint256",
                  "name": "remainingTime",
                  "type": "uint256"
                }
              ],
              "internalType": "struct Mining.MiningInfo",
              "name": "miningInfo",
              "type": "tuple"
            },
            {
              "internalType": "uint256",
              "name": "tokenId",
              "type": "uint256"
            },
            {
              "internalType": "string",
              "name": "tokenURI",
              "type": "string"
            },
            {
              "internalType": "bool",
              "name": "isInOrder",
              "type": "bool"
            }
          ],
          "internalType": "struct Mining.NFTInfo[]",
          "name": "",
          "type": "tuple[]"
        }
      ],
      "stateMutability": "view",
      "type": "function",
      "constant": true
    },
    {
      "inputs": [
        {
          "internalType": "uint256",
          "name": "_tokenId",
          "type": "uint256"
        }
      ],
      "name": "getInfoById",
      "outputs": [
        {
          "components": [
            {
              "components": [
                {
                  "internalType": "uint256",
                  "name": "startTime",
                  "type": "uint256"
                },
                {
                  "internalType": "uint256",
                  "name": "remainingAmout",
                  "type": "uint256"
                },
                {
                  "internalType": "uint256",
                  "name": "remainingTime",
                  "type": "uint256"
                }
              ],
              "internalType": "struct Mining.MiningInfo",
              "name": "miningInfo",
              "type": "tuple"
            },
            {
              "internalType": "uint256",
              "name": "tokenId",
              "type": "uint256"
            },
            {
              "internalType": "string",
              "name": "tokenURI",
              "type": "string"
            },
            {
              "internalType": "bool",
              "name": "isInOrder",
              "type": "bool"
            }
          ],
          "internalType": "struct Mining.NFTInfo",
          "name": "",
          "type": "tuple"
        }
      ],
      "stateMutability": "view",
      "type": "function",
      "constant": true
    },
    {
      "inputs": [
        {
          "internalType": "uint256",
          "name": "_nftId",
          "type": "uint256"
        }
      ],
      "name": "ownerOfNFT",
      "outputs": [
        {
          "internalType": "address",
          "name": "",
          "type": "address"
        }
      ],
      "stateMutability": "view",
      "type": "function",
      "constant": true
    },
    {
      "inputs": [
        {
          "internalType": "address",
          "name": "_cbd",
          "type": "address"
        }
      ],
      "name": "setCbd",
      "outputs": [],
      "stateMutability": "nonpayable",
      "type": "function"
    },
    {
      "inputs": [
        {
          "internalType": "address",
          "name": "_nft",
          "type": "address"
        }
      ],
      "name": "setNft",
      "outputs": [],
      "stateMutability": "nonpayable",
      "type": "function"
    },
    {
      "inputs": [
        {
          "internalType": "address",
          "name": "_swap",
          "type": "address"
        }
      ],
      "name": "setSwap",
      "outputs": [],
      "stateMutability": "nonpayable",
      "type": "function"
    }
  ],
  "bytecode": "0x60806040526012600760146101000a81548160ff021916908360ff1602179055503480156200002d57600080fd5b50604051620037d9380380620037d9833981810160405281019062000053919062000396565b6000620000656200036060201b60201c565b9050806000806101000a81548173ffffffffffffffffffffffffffffffffffffffff021916908373ffffffffffffffffffffffffffffffffffffffff1602179055508073ffffffffffffffffffffffffffffffffffffffff16600073ffffffffffffffffffffffffffffffffffffffff167f8be0079c531659141344cd1fd0a4f28419497f9722a3daafe3b4186f6b6457e060405160405180910390a3506000620001156200036060201b60201c565b905060018060008373ffffffffffffffffffffffffffffffffffffffff1673ffffffffffffffffffffffffffffffffffffffff16815260200190815260200160002060006101000a81548160ff0219169083151502179055507ff56d2fb652fc669bcf35bbbb8f85436120a45e17ae8d3eb32afa9f3cef3e748b816040516200019f919062000429565b60405180910390a15082600760006101000a81548173ffffffffffffffffffffffffffffffffffffffff021916908373ffffffffffffffffffffffffffffffffffffffff16021790555081600860006101000a81548173ffffffffffffffffffffffffffffffffffffffff021916908373ffffffffffffffffffffffffffffffffffffffff16021790555080600960006101000a81548173ffffffffffffffffffffffffffffffffffffffff021916908373ffffffffffffffffffffffffffffffffffffffff160217905550600760149054906101000a900460ff16600a620002899190620004a1565b6103e8620002989190620005de565b600581905550600860009054906101000a900473ffffffffffffffffffffffffffffffffffffffff1673ffffffffffffffffffffffffffffffffffffffff16631ed241956040518163ffffffff1660e01b815260040160206040518083038186803b1580156200030757600080fd5b505afa1580156200031c573d6000803e3d6000fd5b505050506040513d601f19601f82011682018060405250810190620003429190620003ec565b6103e8620003519190620005de565b600681905550505050620006fa565b600033905090565b6000815190506200037981620006c6565b92915050565b6000815190506200039081620006e0565b92915050565b600080600060608486031215620003ac57600080fd5b6000620003bc8682870162000368565b9350506020620003cf8682870162000368565b9250506040620003e28682870162000368565b9150509250925092565b600060208284031215620003ff57600080fd5b60006200040f848285016200037f565b91505092915050565b62000423816200063f565b82525050565b600060208201905062000440600083018462000418565b92915050565b6000808291508390505b6001851115620004985780860481111562000470576200046f6200068a565b5b6001851615620004805780820291505b80810290506200049085620006b9565b945062000450565b94509492505050565b6000620004ae8262000673565b9150620004bb836200067d565b9250620004ea7fffffffffffffffffffffffffffffffffffffffffffffffffffffffffffffffff8484620004f2565b905092915050565b600082620005045760019050620005d7565b81620005145760009050620005d7565b81600181146200052d576002811462000538576200056e565b6001915050620005d7565b60ff8411156200054d576200054c6200068a565b5b8360020a9150848211156200056757620005666200068a565b5b50620005d7565b5060208310610133831016604e8410600b8410161715620005a85782820a905083811115620005a257620005a16200068a565b5b620005d7565b620005b7848484600162000446565b92509050818404811115620005d157620005d06200068a565b5b81810290505b9392505050565b6000620005eb8262000673565b9150620005f88362000673565b9250817fffffffffffffffffffffffffffffffffffffffffffffffffffffffffffffffff04831182151516156200063457620006336200068a565b5b828202905092915050565b60006200064c8262000653565b9050919050565b600073ffffffffffffffffffffffffffffffffffffffff82169050919050565b6000819050919050565b600060ff82169050919050565b7f4e487b7100000000000000000000000000000000000000000000000000000000600052601160045260246000fd5b60008160011c9050919050565b620006d1816200063f565b8114620006dd57600080fd5b50565b620006eb8162000673565b8114620006f757600080fd5b50565b6130cf806200070a6000396000f3fe608060405234801561001057600080fd5b506004361061010a5760003560e01c8063a3481987116100a2578063c4c7f2f411610071578063c4c7f2f4146102a1578063cec05642146102bd578063dee1f0e4146102d9578063f2fde38b14610309578063f3c13387146103255761010a565b8063a348198714610209578063acb3c07314610239578063b606232114610255578063c3490263146102855761010a565b8063715018a6116100de578063715018a6146101955780637afba8d71461019f5780638da5cb5b146101cf578063906e2479146101ed5761010a565b80628cc2621461010f5780632d8a746e1461013f5780634a9d79231461016f5780634e71d92d1461018b575b600080fd5b610129600480360381019061012491906123c1565b610341565b6040516101369190612c89565b60405180910390f35b61015960048036038101906101549190612490565b6104fc565b6040516101669190612a9b565b60405180910390f35b610189600480360381019061018491906123c1565b61053c565b005b6101936105fc565b005b61019d61089b565b005b6101b960048036038101906101b491906123c1565b6109d5565b6040516101c69190612c89565b60405180910390f35b6101d7610b54565b6040516101e49190612a9b565b60405180910390f35b610207600480360381019061020291906123c1565b610b7d565b005b610223600480360381019061021e9190612490565b610c8b565b6040516102309190612c67565b60405180910390f35b610253600480360381019061024e91906123c1565b610ce5565b005b61026f600480360381019061026a91906123c1565b610da5565b60405161027c9190612adf565b60405180910390f35b61029f600480360381019061029a91906124f5565b610fbd565b005b6102bb60048036038101906102b691906123c1565b6112bb565b005b6102d760048036038101906102d291906124b9565b6113c8565b005b6102f360048036038101906102ee91906123c1565b611b1d565b6040516103009190612b2a565b60405180910390f35b610323600480360381019061031e91906123c1565b611b73565b005b61033f600480360381019061033a91906123c1565b611d1c565b005b600080600260008473ffffffffffffffffffffffffffffffffffffffff1673ffffffffffffffffffffffffffffffffffffffff1681526020019081526020016000208054806020026020016040519081016040528092919081815260200182805480156103cd57602002820191906000526020600020905b8154815260200190600101908083116103b9575b505050505090506000805b82518110156104f157600083828151811061041c577f4e487b7100000000000000000000000000000000000000000000000000000000600052603260045260246000fd5b6020026020010151905060006004600083815260200190815260200160002060405180606001604052908160008201548152602001600182015481526020016002820154815250509050600081600001514211156104db576000610493428460400151856000015161048e9190612db8565b611ddc565b905060008360000151826104a79190612e99565b905080846040015185602001516104be9190612e0e565b6104c89190612e3f565b925082876104d69190612db8565b965050505b50505080806104e990612f56565b9150506103d8565b508092505050919050565b60006003600083815260200190815260200160002060000160009054906101000a900473ffffffffffffffffffffffffffffffffffffffff169050919050565b610544611df5565b73ffffffffffffffffffffffffffffffffffffffff16610562610b54565b73ffffffffffffffffffffffffffffffffffffffff16146105b8576040517f08c379a00000000000000000000000000000000000000000000000000000000081526004016105af90612c07565b60405180910390fd5b80600760006101000a81548173ffffffffffffffffffffffffffffffffffffffff021916908373ffffffffffffffffffffffffffffffffffffffff16021790555050565b6000600260003373ffffffffffffffffffffffffffffffffffffffff1673ffffffffffffffffffffffffffffffffffffffff16815260200190815260200160002080548060200260200160405190810160405280929190818152602001828054801561068757602002820191906000526020600020905b815481526020019060010190808311610673575b505050505090506000805b82518110156108495760008382815181106106d6577f4e487b7100000000000000000000000000000000000000000000000000000000600052603260045260246000fd5b6020026020010151905060006004600083815260200190815260200160002060405180606001604052908160008201548152602001600182015481526020016002820154815250509050806000015142111561083457600061074b42836040015184600001516107469190612db8565b611ddc565b9050600082600001518261075f9190612e99565b9050600081846040015185602001516107789190612e0e565b6107829190612e3f565b905080876107909190612db8565b965060405180606001604052808481526020018286602001516107b39190612e99565b81526020018386604001516107c89190612e99565b81525093506004600086815260200190815260200160002060008082016000905560018201600090556002820160009055505083600460008781526020019081526020016000206000820151816000015560208201518160010155604082015181600201559050505050505b5050808061084190612f56565b915050610692565b506108973382600760009054906101000a900473ffffffffffffffffffffffffffffffffffffffff1673ffffffffffffffffffffffffffffffffffffffff16611dfd9092919063ffffffff16565b5050565b6108a3611df5565b73ffffffffffffffffffffffffffffffffffffffff166108c1610b54565b73ffffffffffffffffffffffffffffffffffffffff1614610917576040517f08c379a000000000000000000000000000000000000000000000000000000000815260040161090e90612c07565b60405180910390fd5b600073ffffffffffffffffffffffffffffffffffffffff1660008054906101000a900473ffffffffffffffffffffffffffffffffffffffff1673ffffffffffffffffffffffffffffffffffffffff167f8be0079c531659141344cd1fd0a4f28419497f9722a3daafe3b4186f6b6457e060405160405180910390a360008060006101000a81548173ffffffffffffffffffffffffffffffffffffffff021916908373ffffffffffffffffffffffffffffffffffffffff160217905550565b600080600260008473ffffffffffffffffffffffffffffffffffffffff1673ffffffffffffffffffffffffffffffffffffffff168152602001908152602001600020805480602002602001604051908101604052809291908181526020018280548015610a6157602002820191906000526020600020905b815481526020019060010190808311610a4d575b505050505090506000805b8251811015610b49576000838281518110610ab0577f4e487b7100000000000000000000000000000000000000000000000000000000600052603260045260246000fd5b6020026020010151905060006004600083815260200190815260200160002060405180606001604052908160008201548152602001600182015481526020016002820154815250509050806000015142118015610b1f575080604001518160000151610b1c9190612db8565b42105b15610b3457600184610b319190612db8565b93505b50508080610b4190612f56565b915050610a6c565b508092505050919050565b60008060009054906101000a900473ffffffffffffffffffffffffffffffffffffffff16905090565b610b85611df5565b73ffffffffffffffffffffffffffffffffffffffff16610ba3610b54565b73ffffffffffffffffffffffffffffffffffffffff1614610bf9576040517f08c379a0000000000000000000000000000000000000000000000000000000008152600401610bf090612c07565b60405180910390fd5b6000600160008373ffffffffffffffffffffffffffffffffffffffff1673ffffffffffffffffffffffffffffffffffffffff16815260200190815260200160002060006101000a81548160ff0219169083151502179055507f2e71e570693bcf62baceee79a2556751cf118d01269069c0e8dba834ada2536881604051610c809190612a9b565b60405180910390a150565b610c936122b4565b60006004600084815260200190815260200160002060405180606001604052908160008201548152602001600182015481526020016002820154815250509050610cdd8184611e83565b915050919050565b610ced611df5565b73ffffffffffffffffffffffffffffffffffffffff16610d0b610b54565b73ffffffffffffffffffffffffffffffffffffffff1614610d61576040517f08c379a0000000000000000000000000000000000000000000000000000000008152600401610d5890612c07565b60405180910390fd5b80600a60006101000a81548173ffffffffffffffffffffffffffffffffffffffff021916908373ffffffffffffffffffffffffffffffffffffffff16021790555050565b60606000600260008473ffffffffffffffffffffffffffffffffffffffff1673ffffffffffffffffffffffffffffffffffffffff168152602001908152602001600020805480602002602001604051908101604052809291908181526020018280548015610e3257602002820191906000526020600020905b815481526020019060010190808311610e1e575b505050505090506000815167ffffffffffffffff811115610e7c577f4e487b7100000000000000000000000000000000000000000000000000000000600052604160045260246000fd5b604051908082528060200260200182016040528015610eb557816020015b610ea26122b4565b815260200190600190039081610e9a5790505b50905060005b8251811015610fb2576000838281518110610eff577f4e487b7100000000000000000000000000000000000000000000000000000000600052603260045260246000fd5b60200260200101519050600060046000838152602001908152602001600020604051806060016040529081600082015481526020016001820154815260200160028201548152505090506000610f558284611e83565b905080858581518110610f91577f4e487b7100000000000000000000000000000000000000000000000000000000600052603260045260246000fd5b60200260200101819052505050508080610faa90612f56565b915050610ebb565b508092505050919050565b6000600260003373ffffffffffffffffffffffffffffffffffffffff1673ffffffffffffffffffffffffffffffffffffffff16815260200190815260200160002080548060200260200160405190810160405280929190818152602001828054801561104857602002820191906000526020600020905b815481526020019060010190808311611034575b5050505050905060008151841015611095576040517f08c379a000000000000000000000000000000000000000000000000000000000815260040161108c90612be7565b60405180910390fd5b6000825184106110a65782516110a8565b835b905060008590505b818110156112665760008482815181106110f3577f4e487b7100000000000000000000000000000000000000000000000000000000600052603260045260246000fd5b6020026020010151905060006004600083815260200190815260200160002060405180606001604052908160008201548152602001600182015481526020016002820154815250509050806000015142111561125157600061116842836040015184600001516111639190612db8565b611ddc565b9050600082600001518261117c9190612e99565b9050600081846040015185602001516111959190612e0e565b61119f9190612e3f565b905080886111ad9190612db8565b975060405180606001604052808481526020018286602001516111d09190612e99565b81526020018386604001516111e59190612e99565b81525093506004600086815260200190815260200160002060008082016000905560018201600090556002820160009055505083600460008781526020019081526020016000206000820151816000015560208201518160010155604082015181600201559050505050505b5050808061125e90612f56565b9150506110b0565b506112b43383600760009054906101000a900473ffffffffffffffffffffffffffffffffffffffff1673ffffffffffffffffffffffffffffffffffffffff16611dfd9092919063ffffffff16565b5050505050565b6112c3611df5565b73ffffffffffffffffffffffffffffffffffffffff166112e1610b54565b73ffffffffffffffffffffffffffffffffffffffff1614611337576040517f08c379a000000000000000000000000000000000000000000000000000000000815260040161132e90612c07565b60405180910390fd5b60018060008373ffffffffffffffffffffffffffffffffffffffff1673ffffffffffffffffffffffffffffffffffffffff16815260200190815260200160002060006101000a81548160ff0219169083151502179055507ff56d2fb652fc669bcf35bbbb8f85436120a45e17ae8d3eb32afa9f3cef3e748b816040516113bd9190612a9b565b60405180910390a150565b600160006113d4611df5565b73ffffffffffffffffffffffffffffffffffffffff1673ffffffffffffffffffffffffffffffffffffffff16815260200190815260200160002060009054906101000a900460ff1661145b576040517f08c379a000000000000000000000000000000000000000000000000000000000815260040161145290612bc7565b60405180910390fd5b600073ffffffffffffffffffffffffffffffffffffffff168173ffffffffffffffffffffffffffffffffffffffff1614156114cb576040517f08c379a00000000000000000000000000000000000000000000000000000000081526004016114c290612b87565b60405180910390fd5b6000600360008481526020019081526020016000206040518060400160405290816000820160009054906101000a900473ffffffffffffffffffffffffffffffffffffffff1673ffffffffffffffffffffffffffffffffffffffff1673ffffffffffffffffffffffffffffffffffffffff1681526020016000820160149054906101000a900461ffff1661ffff1661ffff16815250509050600260008373ffffffffffffffffffffffffffffffffffffffff1673ffffffffffffffffffffffffffffffffffffffff168152602001908152602001600020839080600181540180825580915050600190039060005260206000200160009091909190915055600073ffffffffffffffffffffffffffffffffffffffff16816000015173ffffffffffffffffffffffffffffffffffffffff161461197c576000600360008581526020019081526020016000209050828160000160006101000a81548173ffffffffffffffffffffffffffffffffffffffff021916908373ffffffffffffffffffffffffffffffffffffffff1602179055506001600260008573ffffffffffffffffffffffffffffffffffffffff1673ffffffffffffffffffffffffffffffffffffffff168152602001908152602001600020805490506116aa9190612e99565b8160000160146101000a81548161ffff021916908361ffff16021790555060008060026000856000015173ffffffffffffffffffffffffffffffffffffffff1673ffffffffffffffffffffffffffffffffffffffff16815260200190815260200160002073__UintArray_____________________________63263f0474909186602001516040518363ffffffff1660e01b815260040161174c929190612b01565b604080518083038186803b15801561176357600080fd5b505af4158015611777573d6000803e3d6000fd5b505050506040513d601f19601f8201168201806040525081019061179b9190612413565b8092508193505050811561186a57600060026000866000015173ffffffffffffffffffffffffffffffffffffffff1673ffffffffffffffffffffffffffffffffffffffff1681526020019081526020016000208261ffff168154811061182a577f4e487b7100000000000000000000000000000000000000000000000000000000600052603260045260246000fd5b90600052602060002001549050816003600083815260200190815260200160002060000160146101000a81548161ffff021916908361ffff160217905550505b6000600460008881526020019081526020016000209050600081600001544211156119725760006118ae42846002015485600001546118a99190612db8565b611ddc565b905060008360000154826118c29190612e99565b905080846002015485600101546118d99190612e0e565b6118e39190612e3f565b9250611936886000015184600760009054906101000a900473ffffffffffffffffffffffffffffffffffffffff1673ffffffffffffffffffffffffffffffffffffffff16611dfd9092919063ffffffff16565b81846000018190555082846001015461194f9190612e99565b84600101819055508084600201546119679190612e99565b846002018190555050505b5050505050611ad9565b600060405180604001604052808473ffffffffffffffffffffffffffffffffffffffff1681526020016001600260008773ffffffffffffffffffffffffffffffffffffffff1673ffffffffffffffffffffffffffffffffffffffff168152602001908152602001600020805490506119f49190612e99565b61ffff168152509050806003600086815260200190815260200160002060008201518160000160006101000a81548173ffffffffffffffffffffffffffffffffffffffff021916908373ffffffffffffffffffffffffffffffffffffffff16021790555060208201518160000160146101000a81548161ffff021916908361ffff1602179055509050506000604051806060016040528042815260200160055481526020016006548152509050806004600087815260200190815260200160002060008201518160000155602082015181600101556040820151816002015590505050505b7fbd2f8caf926044202522d9b107bfd9e767b1724152796142229430282dd851da83826000015184604051611b1093929190612ca4565b60405180910390a1505050565b6000600160008373ffffffffffffffffffffffffffffffffffffffff1673ffffffffffffffffffffffffffffffffffffffff16815260200190815260200160002060009054906101000a900460ff169050919050565b611b7b611df5565b73ffffffffffffffffffffffffffffffffffffffff16611b99610b54565b73ffffffffffffffffffffffffffffffffffffffff1614611bef576040517f08c379a0000000000000000000000000000000000000000000000000000000008152600401611be690612c07565b60405180910390fd5b600073ffffffffffffffffffffffffffffffffffffffff168173ffffffffffffffffffffffffffffffffffffffff161415611c5f576040517f08c379a0000000000000000000000000000000000000000000000000000000008152600401611c5690612b67565b60405180910390fd5b8073ffffffffffffffffffffffffffffffffffffffff1660008054906101000a900473ffffffffffffffffffffffffffffffffffffffff1673ffffffffffffffffffffffffffffffffffffffff167f8be0079c531659141344cd1fd0a4f28419497f9722a3daafe3b4186f6b6457e060405160405180910390a3806000806101000a81548173ffffffffffffffffffffffffffffffffffffffff021916908373ffffffffffffffffffffffffffffffffffffffff16021790555050565b611d24611df5565b73ffffffffffffffffffffffffffffffffffffffff16611d42610b54565b73ffffffffffffffffffffffffffffffffffffffff1614611d98576040517f08c379a0000000000000000000000000000000000000000000000000000000008152600401611d8f90612c07565b60405180910390fd5b80600960006101000a81548173ffffffffffffffffffffffffffffffffffffffff021916908373ffffffffffffffffffffffffffffffffffffffff16021790555050565b6000818310611deb5781611ded565b825b905092915050565b600033905090565b611e7e8363a9059cbb60e01b8484604051602401611e1c929190612ab6565b604051602081830303815290604052907bffffffffffffffffffffffffffffffffffffffffffffffffffffffff19166020820180517bffffffffffffffffffffffffffffffffffffffffffffffffffffffff8381831617835250505050612047565b505050565b611e8b6122b4565b600060405180608001604052808581526020018481526020016040518060200160405280600081525081526020016000151581525090506000831461203d57600960009054906101000a900473ffffffffffffffffffffffffffffffffffffffff1673ffffffffffffffffffffffffffffffffffffffff1663c87b56dd846040518263ffffffff1660e01b8152600401611f259190612c89565b60006040518083038186803b158015611f3d57600080fd5b505afa158015611f51573d6000803e3d6000fd5b505050506040513d6000823e3d601f19601f82011682018060405250810190611f7a919061244f565b8160400181905250600a60009054906101000a900473ffffffffffffffffffffffffffffffffffffffff1673ffffffffffffffffffffffffffffffffffffffff16631cf7424f846040518263ffffffff1660e01b8152600401611fdd9190612c89565b60206040518083038186803b158015611ff557600080fd5b505afa158015612009573d6000803e3d6000fd5b505050506040513d601f19601f8201168201806040525081019061202d91906123ea565b8160600190151590811515815250505b8091505092915050565b60006120a9826040518060400160405280602081526020017f5361666545524332303a206c6f772d6c6576656c2063616c6c206661696c65648152508573ffffffffffffffffffffffffffffffffffffffff1661210e9092919063ffffffff16565b905060008151111561210957808060200190518101906120c991906123ea565b612108576040517f08c379a00000000000000000000000000000000000000000000000000000000081526004016120ff90612c47565b60405180910390fd5b5b505050565b606061211d8484600085612126565b90509392505050565b60608247101561216b576040517f08c379a000000000000000000000000000000000000000000000000000000000815260040161216290612ba7565b60405180910390fd5b6121748561223a565b6121b3576040517f08c379a00000000000000000000000000000000000000000000000000000000081526004016121aa90612c27565b60405180910390fd5b6000808673ffffffffffffffffffffffffffffffffffffffff1685876040516121dc9190612a84565b60006040518083038185875af1925050503d8060008114612219576040519150601f19603f3d011682016040523d82523d6000602084013e61221e565b606091505b509150915061222e82828661224d565b92505050949350505050565b600080823b905060008111915050919050565b6060831561225d578290506122ad565b6000835111156122705782518084602001fd5b816040517f08c379a00000000000000000000000000000000000000000000000000000000081526004016122a49190612b45565b60405180910390fd5b9392505050565b60405180608001604052806122c76122e4565b815260200160008152602001606081526020016000151581525090565b60405180606001604052806000815260200160008152602001600081525090565b600061231861231384612d0c565b612cdb565b90508281526020810184848401111561233057600080fd5b61233b848285612f23565b509392505050565b6000813590506123528161303d565b92915050565b60008151905061236781613054565b92915050565b600082601f83011261237e57600080fd5b815161238e848260208601612305565b91505092915050565b6000815190506123a68161306b565b92915050565b6000813590506123bb81613082565b92915050565b6000602082840312156123d357600080fd5b60006123e184828501612343565b91505092915050565b6000602082840312156123fc57600080fd5b600061240a84828501612358565b91505092915050565b6000806040838503121561242657600080fd5b600061243485828601612358565b925050602061244585828601612397565b9150509250929050565b60006020828403121561246157600080fd5b600082015167ffffffffffffffff81111561247b57600080fd5b6124878482850161236d565b91505092915050565b6000602082840312156124a257600080fd5b60006124b0848285016123ac565b91505092915050565b600080604083850312156124cc57600080fd5b60006124da858286016123ac565b92505060206124eb85828601612343565b9150509250929050565b6000806040838503121561250857600080fd5b6000612516858286016123ac565b9250506020612527858286016123ac565b9150509250929050565b600061253d8383612991565b905092915050565b61254e81612ecd565b82525050565b600061255f82612d4c565b6125698185612d7a565b93508360208202850161257b85612d3c565b8060005b858110156125b757848403895281516125988582612531565b94506125a383612d6d565b925060208a0199505060018101905061257f565b50829750879550505050505092915050565b8082525050565b6125d981612edf565b82525050565b6125e881612edf565b82525050565b60006125f982612d57565b6126038185612d8b565b9350612613818560208601612f23565b80840191505092915050565b600061262a82612d62565b6126348185612d96565b9350612644818560208601612f23565b61264d8161302c565b840191505092915050565b600061266382612d62565b61266d8185612da7565b935061267d818560208601612f23565b6126868161302c565b840191505092915050565b600061269e602683612da7565b91507f4f776e61626c653a206e6577206f776e657220697320746865207a65726f206160008301527f64647265737300000000000000000000000000000000000000000000000000006020830152604082019050919050565b6000612704602883612da7565b91507f4d696e696e673a2063616e206e6f74207472616e7366657220746f207a65726f60008301527f20616464726573730000000000000000000000000000000000000000000000006020830152604082019050919050565b600061276a602683612da7565b91507f416464726573733a20696e73756666696369656e742062616c616e636520666f60008301527f722063616c6c00000000000000000000000000000000000000000000000000006020830152604082019050919050565b60006127d0602883612da7565b91507f476f7665726e616e63653a2063616c6c6572206973206e6f742074686520476f60008301527f7665726e616e63650000000000000000000000000000000000000000000000006020830152604082019050919050565b6000612836601a83612da7565b91507f4d696e696e673a20696e646578206f7574206f662072616e67650000000000006000830152602082019050919050565b6000612876602083612da7565b91507f4f776e61626c653a2063616c6c6572206973206e6f7420746865206f776e65726000830152602082019050919050565b60006128b6601d83612da7565b91507f416464726573733a2063616c6c20746f206e6f6e2d636f6e74726163740000006000830152602082019050919050565b60006128f6602a83612da7565b91507f5361666545524332303a204552433230206f7065726174696f6e20646964206e60008301527f6f742073756363656564000000000000000000000000000000000000000000006020830152604082019050919050565b6060820160008201516129656000850182612a66565b5060208201516129786020850182612a66565b50604082015161298b6040850182612a66565b50505050565b600060c0830160008301516129a9600086018261294f565b5060208301516129bc6060860182612a66565b50604083015184820360808601526129d4828261261f565b91505060608301516129e960a08601826125d0565b508091505092915050565b600060c083016000830151612a0c600086018261294f565b506020830151612a1f6060860182612a66565b5060408301518482036080860152612a37828261261f565b9150506060830151612a4c60a08601826125d0565b508091505092915050565b612a6081612eeb565b82525050565b612a6f81612f19565b82525050565b612a7e81612f19565b82525050565b6000612a9082846125ee565b915081905092915050565b6000602082019050612ab06000830184612545565b92915050565b6000604082019050612acb6000830185612545565b612ad86020830184612a75565b9392505050565b60006020820190508181036000830152612af98184612554565b905092915050565b6000604082019050612b1660008301856125c9565b612b236020830184612a57565b9392505050565b6000602082019050612b3f60008301846125df565b92915050565b60006020820190508181036000830152612b5f8184612658565b905092915050565b60006020820190508181036000830152612b8081612691565b9050919050565b60006020820190508181036000830152612ba0816126f7565b9050919050565b60006020820190508181036000830152612bc08161275d565b9050919050565b60006020820190508181036000830152612be0816127c3565b9050919050565b60006020820190508181036000830152612c0081612829565b9050919050565b60006020820190508181036000830152612c2081612869565b9050919050565b60006020820190508181036000830152612c40816128a9565b9050919050565b60006020820190508181036000830152612c60816128e9565b9050919050565b60006020820190508181036000830152612c8181846129f4565b905092915050565b6000602082019050612c9e6000830184612a75565b92915050565b6000606082019050612cb96000830186612a75565b612cc66020830185612545565b612cd36040830184612545565b949350505050565b6000604051905081810181811067ffffffffffffffff82111715612d0257612d01612ffd565b5b8060405250919050565b600067ffffffffffffffff821115612d2757612d26612ffd565b5b601f19601f8301169050602081019050919050565b6000819050602082019050919050565b600081519050919050565b600081519050919050565b600081519050919050565b6000602082019050919050565b600082825260208201905092915050565b600081905092915050565b600082825260208201905092915050565b600082825260208201905092915050565b6000612dc382612f19565b9150612dce83612f19565b9250827fffffffffffffffffffffffffffffffffffffffffffffffffffffffffffffffff03821115612e0357612e02612f9f565b5b828201905092915050565b6000612e1982612f19565b9150612e2483612f19565b925082612e3457612e33612fce565b5b828204905092915050565b6000612e4a82612f19565b9150612e5583612f19565b9250817fffffffffffffffffffffffffffffffffffffffffffffffffffffffffffffffff0483118215151615612e8e57612e8d612f9f565b5b828202905092915050565b6000612ea482612f19565b9150612eaf83612f19565b925082821015612ec257612ec1612f9f565b5b828203905092915050565b6000612ed882612ef9565b9050919050565b60008115159050919050565b600061ffff82169050919050565b600073ffffffffffffffffffffffffffffffffffffffff82169050919050565b6000819050919050565b60005b83811015612f41578082015181840152602081019050612f26565b83811115612f50576000848401525b50505050565b6000612f6182612f19565b91507fffffffffffffffffffffffffffffffffffffffffffffffffffffffffffffffff821415612f9457612f93612f9f565b5b600182019050919050565b7f4e487b7100000000000000000000000000000000000000000000000000000000600052601160045260246000fd5b7f4e487b7100000000000000000000000000000000000000000000000000000000600052601260045260246000fd5b7f4e487b7100000000000000000000000000000000000000000000000000000000600052604160045260246000fd5b6000601f19601f8301169050919050565b61304681612ecd565b811461305157600080fd5b50565b61305d81612edf565b811461306857600080fd5b50565b61307481612eeb565b811461307f57600080fd5b50565b61308b81612f19565b811461309657600080fd5b5056fea2646970667358221220bb54912a133efe670178b978bc5b0bbc3d26a30496b8f41bc89eef8b8266f2c664736f6c63430008000033",
  "immutableReferences": {},
  "source": "// SPDX-License-Identifier: GPL-3.0\npragma solidity ^0.8.0;\n\nimport \"@openzeppelin/contracts/token/ERC20/IERC20.sol\";\nimport \"@openzeppelin/contracts/token/ERC20/utils/SafeERC20.sol\";\nimport \"@openzeppelin/contracts/utils/math/Math.sol\";\nimport \"./interface/IMining.sol\";\nimport \"./Governance.sol\";\nimport \"./library/UintArray.sol\";\nimport \"./interface/IPeriod.sol\";\nimport \"./interface/ICoinBidCreation.sol\";\nimport \"./interface/INFTSwap.sol\";\n\ncontract Mining is IMining, Governance {\n\n    using SafeERC20 for IERC20;\n    using UintArray for uint[];\n    using Math for uint;\n\n    struct Ownership {\n        address owner;\n        uint16 arrIndex;\n    }\n\n    struct MiningInfo {\n        uint startTime;\n        uint remainingAmout;\n        uint remainingTime;\n    }\n\n    struct NFTInfo {\n        MiningInfo miningInfo;\n        uint tokenId;\n        string tokenURI;\n        bool isInOrder;\n    }\n\n    // mapping(address => uint[]) internal myOwnedCanvas;\n    // mapping(uint => Ownership) internal canvasOwnership;\n\n    mapping(address => uint[]) internal myOwnedCreations;\n    mapping(uint => Ownership) internal creationOwnership;\n\n    mapping(uint => MiningInfo) miningInfoMap;\n    uint defaultAmount;\n    uint defaultLong;// NFT\n\n    // TODO set value\n    IERC20 cbd;\n    uint8 cbdDecimals = 18;\n\n    IPeriod periodMana;\n\n    ICoinBidCreation internal nft;\n\n    INFTSwap internal swap;\n\n    event CanvasTransferred(uint canvasId, address from, address to);\n    event CreationTransferred(uint creationId, address from, address to);\n\n    constructor(address _cbd, address _periodMana, address _nft) {\n        cbd = IERC20(_cbd);\n        periodMana = IPeriod(_periodMana);\n        nft = ICoinBidCreation(_nft);\n        defaultAmount = 1000 * (10 ** cbdDecimals);\n        defaultLong = 1000 * periodMana.getPeriod();\n    }\n\n    // function transferCanvas(uint _canvasId, address _to) override public onlyGovernance {\n    //     require(_to != address(0), \"Mining: can not transfer to zero address\");\n        \n    //     Ownership memory oldOwnership = canvasOwnership[_canvasId];\n    //     myOwnedCanvas[_to].push(_canvasId);\n    //     if(oldOwnership.owner != address(0x0)) {\n    //         Ownership storage newOwnership = canvasOwnership[_canvasId];\n    //         newOwnership.owner = _to;\n    //         newOwnership.arrIndex = uint16(myOwnedCanvas[_to].length - 1);\n    //         bool isChanged;\n    //         uint16 index;\n    //         (isChanged, index) = myOwnedCanvas[oldOwnership.owner].unsafeDelete(oldOwnership.arrIndex);\n    //         if(isChanged) {\n    //             uint canvasId = myOwnedCanvas[oldOwnership.owner][index];\n    //             canvasOwnership[canvasId].arrIndex = index;\n    //         }\n    //     } else {\n    //         Ownership memory ownership = Ownership(_to, uint16(myOwnedCanvas[_to].length - 1));\n    //         canvasOwnership[_canvasId] = ownership;\n    //     }\n        \n    //     emit CanvasTransferred(_canvasId, oldOwnership.owner, _to);\n    // }\n\n    function transferCreation(uint _creationId, address _to) override public onlyGovernance {\n        require(_to != address(0), \"Mining: can not transfer to zero address\");\n\n        Ownership memory oldOwnership = creationOwnership[_creationId];\n        myOwnedCreations[_to].push(_creationId);\n        if(oldOwnership.owner != address(0x0)) {\n            Ownership storage newOwnership = creationOwnership[_creationId];\n            newOwnership.owner = _to;\n            newOwnership.arrIndex = uint16(myOwnedCreations[_to].length - 1);\n            bool isChanged;\n            uint16 index;\n            (isChanged, index) = myOwnedCreations[oldOwnership.owner].unsafeDelete(oldOwnership.arrIndex);\n            if(isChanged) {\n                uint creationId = myOwnedCreations[oldOwnership.owner][index];\n                creationOwnership[creationId].arrIndex = index;\n            }\n\n            MiningInfo storage info = miningInfoMap[_creationId];\n            uint mined = 0;\n            if(block.timestamp > info.startTime) {\n                uint lastTime = Math.min(block.timestamp, info.startTime + info.remainingTime);\n                uint dist = lastTime - info.startTime;\n                mined = info.remainingAmout / info.remainingTime * dist;\n                cbd.safeTransfer(oldOwnership.owner, mined);\n                info.startTime = lastTime;\n                info.remainingAmout = info.remainingAmout - mined;\n                info.remainingTime = info.remainingTime - dist;\n            }\n        } else {\n            Ownership memory ownership = Ownership(_to, uint16(myOwnedCreations[_to].length - 1));\n            creationOwnership[_creationId] = ownership;\n\n            MiningInfo memory info = MiningInfo(block.timestamp, defaultAmount, defaultLong);\n            miningInfoMap[_creationId] = info;\n        }\n\n        emit CreationTransferred(_creationId, oldOwnership.owner, _to);\n    }\n\n    function earned(address _theOwner) public view returns(uint) {\n        uint[] memory tokenIdArr = myOwnedCreations[_theOwner];\n        uint total = 0;\n        for(uint i = 0; i < tokenIdArr.length; i++) {\n            uint tokenID = tokenIdArr[i];\n            MiningInfo memory info = miningInfoMap[tokenID];\n            uint mined = 0;\n            if(block.timestamp > info.startTime) {\n                uint lastTime = Math.min(block.timestamp, info.startTime + info.remainingTime);\n                uint dist = lastTime - info.startTime;\n                mined = info.remainingAmout / info.remainingTime * dist;\n                total = total + mined;\n            }\n        }\n        return total;\n    }\n\n    function dailyEarning(address _theOwner) public view returns(uint) {\n        uint[] memory tokenIdArr = myOwnedCreations[_theOwner];\n        uint total = 0;\n        for(uint i = 0; i < tokenIdArr.length; i++) {\n            uint tokenID = tokenIdArr[i];\n            MiningInfo memory info = miningInfoMap[tokenID];\n            if(block.timestamp > info.startTime && (block.timestamp < (info.startTime + info.remainingTime))) {\n                total += 1;\n            }\n        }\n        return total;\n    }\n\n    function claim() public {\n        uint[] memory tokenIdArr = myOwnedCreations[msg.sender];\n        uint total = 0;\n        for(uint i = 0; i < tokenIdArr.length; i++) {\n            uint tokenID = tokenIdArr[i];\n            MiningInfo memory info = miningInfoMap[tokenID];\n            if(block.timestamp > info.startTime) {\n                uint lastTime = Math.min(block.timestamp, info.startTime + info.remainingTime);\n                uint dist = lastTime - info.startTime;\n                uint mined = info.remainingAmout / info.remainingTime * dist;\n                total = total + mined;\n\n                info = MiningInfo(lastTime, info.remainingAmout - mined, info.remainingTime - dist);\n                delete miningInfoMap[tokenID];\n                miningInfoMap[tokenID] = info;\n            }\n        }\n        cbd.safeTransfer(msg.sender, total);\n    }\n\n    // NFT claim() Gas Limit\n    function claim(uint _from, uint _to) public {\n        uint[] memory tokenIdArr = myOwnedCreations[msg.sender];\n        uint total = 0;\n        require(_from >= tokenIdArr.length, \"Mining: index out of range\");\n        uint to = (_to < tokenIdArr.length) ? _to : tokenIdArr.length;\n\n        for(uint i = _from; i < to; i++) {\n            uint tokenID = tokenIdArr[i];\n            MiningInfo memory info = miningInfoMap[tokenID];\n            if(block.timestamp > info.startTime) {\n                uint lastTime = Math.min(block.timestamp, info.startTime + info.remainingTime);\n                uint dist = lastTime - info.startTime;\n                uint mined = info.remainingAmout / info.remainingTime * dist;\n                total = total + mined;\n                \n                info = MiningInfo(lastTime, info.remainingAmout - mined, info.remainingTime - dist);\n                delete miningInfoMap[tokenID];\n                miningInfoMap[tokenID] = info;\n            }\n        }\n        cbd.safeTransfer(msg.sender, total);\n    }\n\n    function getMyOwnedCreations(address _theOwner) public view returns(NFTInfo[] memory) {\n        uint[] memory myOwnedArr = myOwnedCreations[_theOwner];\n        NFTInfo[] memory infoArr = new NFTInfo[](myOwnedArr.length);\n        for(uint i = 0; i < myOwnedArr.length; i++) {\n            uint tokenId = myOwnedArr[i];\n            MiningInfo memory miningInfo = miningInfoMap[tokenId];\n            NFTInfo memory info = getNfTInfo(miningInfo, tokenId);\n            infoArr[i] = info;\n        }\n        return infoArr;\n    }\n\n    function getNfTInfo(MiningInfo memory _miningInfo, uint _tokenId) private view returns(NFTInfo memory) {\n        NFTInfo memory info = NFTInfo(_miningInfo, _tokenId, \"\", false);\n        if(_tokenId != 0) {\n            info.tokenURI = nft.tokenURI(_tokenId);\n            info.isInOrder = swap.isInOrder(_tokenId);\n        }\n        return info;\n    }\n\n    function getInfoById(uint _tokenId) public view returns(NFTInfo memory) {\n        MiningInfo memory miningInfo = miningInfoMap[_tokenId];\n        return getNfTInfo(miningInfo, _tokenId);\n    }\n\n    // function ownerOfCanvas(uint _canvaceId) override external view returns(address) {\n    //     return canvasOwnership[_canvaceId].owner;\n    // }\n\n    function ownerOfNFT(uint _nftId) override external view returns(address) {\n        return creationOwnership[_nftId].owner;\n    }\n\n    function setCbd(address _cbd) public onlyOwner {\n        cbd = IERC20(_cbd);\n    }\n\n    function setNft(address _nft) public onlyOwner {\n        nft = ICoinBidCreation(_nft);\n    }\n\n    function setSwap(address _swap) public onlyOwner {\n        swap = INFTSwap(_swap);\n    }\n}",
  "sourcePath": "/Users/iwan/code/coinbid-cointract/contracts/5_Mining.sol",
  "compiler": {
    "name": "solc",
    "version": "0.8.0+commit.c7dfd78e.Emscripten.clang"
  },
  "schemaVersion": "3.4.1",
  "updatedAt": "2021-07-04T15:59:23.141Z",
  "networkType": "ethereum",
  "devdoc": {
    "kind": "dev",
    "methods": {
      "owner()": {
        "details": "Returns the address of the current owner."
      },
      "renounceOwnership()": {
        "details": "Leaves the contract without owner. It will not be possible to call `onlyOwner` functions anymore. Can only be called by the current owner. NOTE: Renouncing ownership will leave the contract without an owner, thereby removing any functionality that is only available to the owner."
      },
      "transferOwnership(address)": {
        "details": "Transfers ownership of the contract to a new account (`newOwner`). Can only be called by the current owner."
      }
    },
    "version": 1
  },
  "userdoc": {
    "kind": "user",
    "methods": {},
    "version": 1
  }
}