{
  "contractName": "NFTAuction",
  "abi": [
    {
      "inputs": [
        {
          "internalType": "address",
          "name": "_nftFactory",
          "type": "address"
        },
        {
          "internalType": "address",
          "name": "_tokenToPay",
          "type": "address"
        },
        {
          "internalType": "address",
          "name": "_platformCreator",
          "type": "address"
        },
        {
          "internalType": "address",
          "name": "_cbdBuybackPool",
          "type": "address"
        },
        {
          "internalType": "address",
          "name": "_reserveFundPool",
          "type": "address"
        },
        {
          "internalType": "address",
          "name": "_platformPool",
          "type": "address"
        },
        {
          "internalType": "address",
          "name": "_nft",
          "type": "address"
        },
        {
          "internalType": "address",
          "name": "_mining",
          "type": "address"
        },
        {
          "internalType": "address",
          "name": "_canvasAuction",
          "type": "address"
        },
        {
          "internalType": "uint128",
          "name": "_defaultPrice",
          "type": "uint128"
        }
      ],
      "stateMutability": "nonpayable",
      "type": "constructor"
    },
    {
      "anonymous": false,
      "inputs": [
        {
          "indexed": false,
          "internalType": "uint256",
          "name": "nftId",
          "type": "uint256"
        },
        {
          "indexed": false,
          "internalType": "uint256",
          "name": "bidPrice",
          "type": "uint256"
        },
        {
          "indexed": false,
          "internalType": "address",
          "name": "bidder",
          "type": "address"
        }
      ],
      "name": "NFTAuctionBid",
      "type": "event"
    },
    {
      "anonymous": false,
      "inputs": [
        {
          "indexed": false,
          "internalType": "uint256",
          "name": "nftId",
          "type": "uint256"
        },
        {
          "indexed": false,
          "internalType": "uint256",
          "name": "startingPrice",
          "type": "uint256"
        },
        {
          "indexed": false,
          "internalType": "uint256",
          "name": "duration",
          "type": "uint256"
        }
      ],
      "name": "NFTAuctionCreated",
      "type": "event"
    },
    {
      "anonymous": false,
      "inputs": [
        {
          "indexed": false,
          "internalType": "uint256",
          "name": "nftId",
          "type": "uint256"
        },
        {
          "indexed": false,
          "internalType": "uint256",
          "name": "price",
          "type": "uint256"
        },
        {
          "indexed": false,
          "internalType": "address",
          "name": "buyer",
          "type": "address"
        }
      ],
      "name": "NFTAuctionEnded",
      "type": "event"
    },
    {
      "anonymous": false,
      "inputs": [
        {
          "indexed": true,
          "internalType": "address",
          "name": "previousOwner",
          "type": "address"
        },
        {
          "indexed": true,
          "internalType": "address",
          "name": "newOwner",
          "type": "address"
        }
      ],
      "name": "OwnershipTransferred",
      "type": "event"
    },
    {
      "inputs": [],
      "name": "owner",
      "outputs": [
        {
          "internalType": "address",
          "name": "",
          "type": "address"
        }
      ],
      "stateMutability": "view",
      "type": "function",
      "constant": true
    },
    {
      "inputs": [],
      "name": "period",
      "outputs": [
        {
          "internalType": "uint256",
          "name": "",
          "type": "uint256"
        }
      ],
      "stateMutability": "view",
      "type": "function",
      "constant": true
    },
    {
      "inputs": [],
      "name": "renounceOwnership",
      "outputs": [],
      "stateMutability": "nonpayable",
      "type": "function"
    },
    {
      "inputs": [
        {
          "internalType": "address",
          "name": "newOwner",
          "type": "address"
        }
      ],
      "name": "transferOwnership",
      "outputs": [],
      "stateMutability": "nonpayable",
      "type": "function"
    },
    {
      "inputs": [
        {
          "internalType": "uint8",
          "name": "_amountPerPage",
          "type": "uint8"
        },
        {
          "internalType": "uint32",
          "name": "_page",
          "type": "uint32"
        }
      ],
      "name": "getNFTInAuction",
      "outputs": [
        {
          "components": [
            {
              "components": [
                {
                  "internalType": "uint256",
                  "name": "tokenId",
                  "type": "uint256"
                },
                {
                  "internalType": "address",
                  "name": "creator",
                  "type": "address"
                },
                {
                  "internalType": "address",
                  "name": "seller",
                  "type": "address"
                },
                {
                  "internalType": "uint128",
                  "name": "lastPrice",
                  "type": "uint128"
                },
                {
                  "internalType": "uint256",
                  "name": "endAt",
                  "type": "uint256"
                },
                {
                  "internalType": "uint256",
                  "name": "startedAt",
                  "type": "uint256"
                },
                {
                  "internalType": "address",
                  "name": "lastBidder",
                  "type": "address"
                },
                {
                  "internalType": "bool",
                  "name": "used",
                  "type": "bool"
                },
                {
                  "internalType": "uint256",
                  "name": "arrIndex",
                  "type": "uint256"
                }
              ],
              "internalType": "struct NFTAuction.Auction",
              "name": "auction",
              "type": "tuple"
            },
            {
              "internalType": "string",
              "name": "tokenURI",
              "type": "string"
            }
          ],
          "internalType": "struct NFTAuction.NFTInfo[]",
          "name": "",
          "type": "tuple[]"
        },
        {
          "internalType": "uint256",
          "name": "",
          "type": "uint256"
        }
      ],
      "stateMutability": "view",
      "type": "function",
      "constant": true
    },
    {
      "inputs": [
        {
          "internalType": "uint256",
          "name": "_tokenId",
          "type": "uint256"
        }
      ],
      "name": "getAuctionById",
      "outputs": [
        {
          "components": [
            {
              "components": [
                {
                  "internalType": "uint256",
                  "name": "tokenId",
                  "type": "uint256"
                },
                {
                  "internalType": "address",
                  "name": "creator",
                  "type": "address"
                },
                {
                  "internalType": "address",
                  "name": "seller",
                  "type": "address"
                },
                {
                  "internalType": "uint128",
                  "name": "lastPrice",
                  "type": "uint128"
                },
                {
                  "internalType": "uint256",
                  "name": "endAt",
                  "type": "uint256"
                },
                {
                  "internalType": "uint256",
                  "name": "startedAt",
                  "type": "uint256"
                },
                {
                  "internalType": "address",
                  "name": "lastBidder",
                  "type": "address"
                },
                {
                  "internalType": "bool",
                  "name": "used",
                  "type": "bool"
                },
                {
                  "internalType": "uint256",
                  "name": "arrIndex",
                  "type": "uint256"
                }
              ],
              "internalType": "struct NFTAuction.Auction",
              "name": "auction",
              "type": "tuple"
            },
            {
              "internalType": "string",
              "name": "tokenURI",
              "type": "string"
            }
          ],
          "internalType": "struct NFTAuction.NFTInfo",
          "name": "",
          "type": "tuple"
        }
      ],
      "stateMutability": "view",
      "type": "function",
      "constant": true
    },
    {
      "inputs": [
        {
          "internalType": "string",
          "name": "_tokenURI",
          "type": "string"
        },
        {
          "internalType": "uint128",
          "name": "_price",
          "type": "uint128"
        }
      ],
      "name": "bidUninstanted",
      "outputs": [],
      "stateMutability": "nonpayable",
      "type": "function"
    },
    {
      "inputs": [
        {
          "internalType": "string",
          "name": "_tokenURI",
          "type": "string"
        }
      ],
      "name": "createNFTByCanvas",
      "outputs": [],
      "stateMutability": "nonpayable",
      "type": "function"
    },
    {
      "inputs": [
        {
          "internalType": "uint256",
          "name": "_tokenId",
          "type": "uint256"
        },
        {
          "internalType": "uint128",
          "name": "_price",
          "type": "uint128"
        }
      ],
      "name": "bid",
      "outputs": [],
      "stateMutability": "nonpayable",
      "type": "function"
    },
    {
      "inputs": [
        {
          "internalType": "uint256",
          "name": "_tokenId",
          "type": "uint256"
        }
      ],
      "name": "auctionEnd",
      "outputs": [],
      "stateMutability": "nonpayable",
      "type": "function"
    },
    {
      "inputs": [
        {
          "internalType": "uint128",
          "name": "_price",
          "type": "uint128"
        }
      ],
      "name": "setDefaultPrice",
      "outputs": [],
      "stateMutability": "nonpayable",
      "type": "function"
    },
    {
      "inputs": [],
      "name": "getInstantedLength",
      "outputs": [
        {
          "internalType": "uint256",
          "name": "",
          "type": "uint256"
        }
      ],
      "stateMutability": "view",
      "type": "function",
      "constant": true
    },
    {
      "inputs": [
        {
          "internalType": "address",
          "name": "_platformCreator",
          "type": "address"
        }
      ],
      "name": "setPlatformCreator",
      "outputs": [],
      "stateMutability": "nonpayable",
      "type": "function"
    },
    {
      "inputs": [
        {
          "internalType": "address",
          "name": "_cbdBuybackPool",
          "type": "address"
        }
      ],
      "name": "setCbdBuybackPool",
      "outputs": [],
      "stateMutability": "nonpayable",
      "type": "function"
    },
    {
      "inputs": [
        {
          "internalType": "address",
          "name": "_reserveFundPool",
          "type": "address"
        }
      ],
      "name": "setReserveFundPool",
      "outputs": [],
      "stateMutability": "nonpayable",
      "type": "function"
    },
    {
      "inputs": [
        {
          "internalType": "address",
          "name": "_platformPool",
          "type": "address"
        }
      ],
      "name": "setPlatformPool",
      "outputs": [],
      "stateMutability": "nonpayable",
      "type": "function"
    },
    {
      "inputs": [
        {
          "internalType": "address",
          "name": "operator",
          "type": "address"
        },
        {
          "internalType": "address",
          "name": "from",
          "type": "address"
        },
        {
          "internalType": "uint256",
          "name": "tokenId",
          "type": "uint256"
        },
        {
          "internalType": "bytes",
          "name": "data",
          "type": "bytes"
        }
      ],
      "name": "onERC721Received",
      "outputs": [
        {
          "internalType": "bytes4",
          "name": "",
          "type": "bytes4"
        }
      ],
      "stateMutability": "pure",
      "type": "function",
      "constant": true
    }
  ],
  "bytecode": "0x60806040523480156200001157600080fd5b5060405162004b4e38038062004b4e833981810160405281019062000037919062000470565b6000620000496200042360201b60201c565b9050806000806101000a81548173ffffffffffffffffffffffffffffffffffffffff021916908373ffffffffffffffffffffffffffffffffffffffff1602179055508073ffffffffffffffffffffffffffffffffffffffff16600073ffffffffffffffffffffffffffffffffffffffff167f8be0079c531659141344cd1fd0a4f28419497f9722a3daafe3b4186f6b6457e060405160405180910390a35089600560006101000a81548173ffffffffffffffffffffffffffffffffffffffff021916908373ffffffffffffffffffffffffffffffffffffffff160217905550600560009054906101000a900473ffffffffffffffffffffffffffffffffffffffff1673ffffffffffffffffffffffffffffffffffffffff16631ed241956040518163ffffffff1660e01b815260040160206040518083038186803b1580156200019157600080fd5b505afa158015620001a6573d6000803e3d6000fd5b505050506040513d601f19601f82011682018060405250810190620001cc919062000560565b60068190555088600e60006101000a81548173ffffffffffffffffffffffffffffffffffffffff021916908373ffffffffffffffffffffffffffffffffffffffff16021790555087600860006101000a81548173ffffffffffffffffffffffffffffffffffffffff021916908373ffffffffffffffffffffffffffffffffffffffff16021790555086600960006101000a81548173ffffffffffffffffffffffffffffffffffffffff021916908373ffffffffffffffffffffffffffffffffffffffff16021790555085600a60006101000a81548173ffffffffffffffffffffffffffffffffffffffff021916908373ffffffffffffffffffffffffffffffffffffffff16021790555084600b60006101000a81548173ffffffffffffffffffffffffffffffffffffffff021916908373ffffffffffffffffffffffffffffffffffffffff16021790555083600c60006101000a81548173ffffffffffffffffffffffffffffffffffffffff021916908373ffffffffffffffffffffffffffffffffffffffff16021790555082600f60006101000a81548173ffffffffffffffffffffffffffffffffffffffff021916908373ffffffffffffffffffffffffffffffffffffffff16021790555081600d60006101000a81548173ffffffffffffffffffffffffffffffffffffffff021916908373ffffffffffffffffffffffffffffffffffffffff16021790555080600760006101000a8154816fffffffffffffffffffffffffffffffff02191690836fffffffffffffffffffffffffffffffff1602179055505050505050505050505062000634565b600033905090565b6000815190506200043c81620005e6565b92915050565b600081519050620004538162000600565b92915050565b6000815190506200046a816200061a565b92915050565b6000806000806000806000806000806101408b8d0312156200049157600080fd5b6000620004a18d828e016200042b565b9a50506020620004b48d828e016200042b565b9950506040620004c78d828e016200042b565b9850506060620004da8d828e016200042b565b9750506080620004ed8d828e016200042b565b96505060a0620005008d828e016200042b565b95505060c0620005138d828e016200042b565b94505060e0620005268d828e016200042b565b9350506101006200053a8d828e016200042b565b9250506101206200054e8d828e0162000442565b9150509295989b9194979a5092959850565b6000602082840312156200057357600080fd5b6000620005838482850162000459565b91505092915050565b60006200059982620005bc565b9050919050565b60006fffffffffffffffffffffffffffffffff82169050919050565b600073ffffffffffffffffffffffffffffffffffffffff82169050919050565b6000819050919050565b620005f1816200058c565b8114620005fd57600080fd5b50565b6200060b81620005a0565b81146200061757600080fd5b50565b6200062581620005dc565b81146200063157600080fd5b50565b61450a80620006446000396000f3fe608060405234801561001057600080fd5b506004361061010b5760003560e01c80635e3dd2c5116100a2578063a442580411610071578063a442580414610278578063a4837a6c14610296578063bab1c64b146102c7578063ef78d4fd146102e3578063f2fde38b146103015761010b565b80635e3dd2c514610218578063715018a6146102345780638da5cb5b1461023e5780639f731bb21461025c5761010b565b806348d9b6c3116100de57806348d9b6c3146101a85780634cafdb15146101c45780634e8a959f146101e05780634ef5fb38146101fc5761010b565b8063150b7a021461011057806317a8b7c01461014057806318111ada1461015c57806332246e9f1461018c575b600080fd5b61012a600480360381019061012591906131c8565b61031d565b6040516101379190613d4c565b60405180910390f35b61015a60048036038101906101559190613176565b610332565b005b610176600480360381019061017191906133ac565b6103f2565b6040516101839190613f49565b60405180910390f35b6101a660048036038101906101a191906133ac565b610602565b005b6101c260048036038101906101bd9190613383565b610de7565b005b6101de60048036038101906101d991906133fe565b610e23565b005b6101fa60048036038101906101f591906132ad565b6112a0565b005b61021660048036038101906102119190613176565b611728565b005b610232600480360381019061022d9190613176565b6117e8565b005b61023c6118a8565b005b6102466119e2565b6040516102539190613c2c565b60405180910390f35b6102766004803603810190610271919061332f565b611a0b565b005b610280611f5f565b60405161028d9190613f6b565b60405180910390f35b6102b060048036038101906102ab919061343a565b611f6c565b6040516102be929190613cf3565b60405180910390f35b6102e160048036038101906102dc9190613176565b6124a0565b005b6102eb612560565b6040516102f89190613f6b565b60405180910390f35b61031b60048036038101906103169190613176565b612566565b005b600063150b7a0260e01b905095945050505050565b61033a61270f565b73ffffffffffffffffffffffffffffffffffffffff166103586119e2565b73ffffffffffffffffffffffffffffffffffffffff16146103ae576040517f08c379a00000000000000000000000000000000000000000000000000000000081526004016103a590613e49565b60405180910390fd5b80600860006101000a81548173ffffffffffffffffffffffffffffffffffffffff021916908373ffffffffffffffffffffffffffffffffffffffff16021790555050565b6103fa612edd565b60006002600084815260200190815260200160002060405180610120016040529081600082015481526020016001820160009054906101000a900473ffffffffffffffffffffffffffffffffffffffff1673ffffffffffffffffffffffffffffffffffffffff1673ffffffffffffffffffffffffffffffffffffffff1681526020016002820160009054906101000a900473ffffffffffffffffffffffffffffffffffffffff1673ffffffffffffffffffffffffffffffffffffffff1673ffffffffffffffffffffffffffffffffffffffff1681526020016003820160009054906101000a90046fffffffffffffffffffffffffffffffff166fffffffffffffffffffffffffffffffff166fffffffffffffffffffffffffffffffff16815260200160048201548152602001600582015481526020016006820160009054906101000a900473ffffffffffffffffffffffffffffffffffffffff1673ffffffffffffffffffffffffffffffffffffffff1673ffffffffffffffffffffffffffffffffffffffff1681526020016006820160149054906101000a900460ff161515151581526020016007820154815250509050600073ffffffffffffffffffffffffffffffffffffffff168160c0015173ffffffffffffffffffffffffffffffffffffffff1614156105f1576105ee81612717565b90505b6105fa816128b7565b915050919050565b60006002600083815260200190815260200160002060405180610120016040529081600082015481526020016001820160009054906101000a900473ffffffffffffffffffffffffffffffffffffffff1673ffffffffffffffffffffffffffffffffffffffff1673ffffffffffffffffffffffffffffffffffffffff1681526020016002820160009054906101000a900473ffffffffffffffffffffffffffffffffffffffff1673ffffffffffffffffffffffffffffffffffffffff1673ffffffffffffffffffffffffffffffffffffffff1681526020016003820160009054906101000a90046fffffffffffffffffffffffffffffffff166fffffffffffffffffffffffffffffffff166fffffffffffffffffffffffffffffffff16815260200160048201548152602001600582015481526020016006820160009054906101000a900473ffffffffffffffffffffffffffffffffffffffff1673ffffffffffffffffffffffffffffffffffffffff1673ffffffffffffffffffffffffffffffffffffffff1681526020016006820160149054906101000a900460ff1615151515815260200160078201548152505090508060e001516107f8576040517f08c379a00000000000000000000000000000000000000000000000000000000081526004016107ef90613f29565b60405180910390fd5b8060800151421161083e576040517f08c379a000000000000000000000000000000000000000000000000000000000815260040161083590613ee9565b60405180910390fd5b8060c0015173ffffffffffffffffffffffffffffffffffffffff163373ffffffffffffffffffffffffffffffffffffffff16146108b0576040517f08c379a00000000000000000000000000000000000000000000000000000000081526004016108a790613e69565b60405180910390fd5b600260008381526020019081526020016000206000808201600090556001820160006101000a81549073ffffffffffffffffffffffffffffffffffffffff02191690556002820160006101000a81549073ffffffffffffffffffffffffffffffffffffffff02191690556003820160006101000a8154906fffffffffffffffffffffffffffffffff0219169055600482016000905560058201600090556006820160006101000a81549073ffffffffffffffffffffffffffffffffffffffff02191690556006820160146101000a81549060ff021916905560078201600090555050600080600473__UintArray_____________________________63263f04749091836040518363ffffffff1660e01b81526004016109d1929190613d23565b604080518083038186803b1580156109e857600080fd5b505af41580156109fc573d6000803e3d6000fd5b505050506040513d601f19601f82011682018060405250810190610a209190613271565b80925081935050508115610a9c57600060048261ffff1681548110610a6e577f4e487b7100000000000000000000000000000000000000000000000000000000600052603260045260246000fd5b906000526020600020015490508161ffff166002600083815260200190815260200160002060070181905550505b6000606460028560600151610ab19190614181565b610abb9190614150565b6fffffffffffffffffffffffffffffffff1690506000606460508660600151610ae49190614181565b610aee9190614150565b6fffffffffffffffffffffffffffffffff16905060006064600f8760600151610b179190614181565b610b219190614150565b6fffffffffffffffffffffffffffffffff169050600081838589606001516fffffffffffffffffffffffffffffffff16610b5b9190614209565b610b659190614209565b610b6f9190614209565b9050610bc2876040015185600e60009054906101000a900473ffffffffffffffffffffffffffffffffffffffff1673ffffffffffffffffffffffffffffffffffffffff166129b99092919063ffffffff16565b610c31600960009054906101000a900473ffffffffffffffffffffffffffffffffffffffff1684600e60009054906101000a900473ffffffffffffffffffffffffffffffffffffffff1673ffffffffffffffffffffffffffffffffffffffff166129b99092919063ffffffff16565b610ca0600a60009054906101000a900473ffffffffffffffffffffffffffffffffffffffff1683600e60009054906101000a900473ffffffffffffffffffffffffffffffffffffffff1673ffffffffffffffffffffffffffffffffffffffff166129b99092919063ffffffff16565b610d0f600b60009054906101000a900473ffffffffffffffffffffffffffffffffffffffff1682600e60009054906101000a900473ffffffffffffffffffffffffffffffffffffffff1673ffffffffffffffffffffffffffffffffffffffff166129b99092919063ffffffff16565b600f60009054906101000a900473ffffffffffffffffffffffffffffffffffffffff1673ffffffffffffffffffffffffffffffffffffffff1663cec0564289336040518363ffffffff1660e01b8152600401610d6c929190613f86565b600060405180830381600087803b158015610d8657600080fd5b505af1158015610d9a573d6000803e3d6000fd5b505050507f12485b73b7f46b7965f71288f6cd4a65354bafd513ecc4f5a87249258d689eb188886060015133604051610dd593929190613faf565b60405180910390a15050505050505050565b80600760006101000a8154816fffffffffffffffffffffffffffffffff02191690836fffffffffffffffffffffffffffffffff16021790555050565b600f60009054906101000a900473ffffffffffffffffffffffffffffffffffffffff1673ffffffffffffffffffffffffffffffffffffffff16632d8a746e836040518263ffffffff1660e01b8152600401610e7e9190613f6b565b602060405180830381600087803b158015610e9857600080fd5b505af1158015610eac573d6000803e3d6000fd5b505050506040513d601f19601f82011682018060405250810190610ed0919061319f565b73ffffffffffffffffffffffffffffffffffffffff163373ffffffffffffffffffffffffffffffffffffffff161415610f3e576040517f08c379a0000000000000000000000000000000000000000000000000000000008152600401610f3590613de9565b60405180910390fd5b6002600083815260200190815260200160002060060160149054906101000a900460ff16610fa1576040517f08c379a0000000000000000000000000000000000000000000000000000000008152600401610f9890613ea9565b60405180910390fd5b60006002600084815260200190815260200160002090508060030160009054906101000a90046fffffffffffffffffffffffffffffffff166fffffffffffffffffffffffffffffffff16826fffffffffffffffffffffffffffffffff161161103e576040517f08c379a000000000000000000000000000000000000000000000000000000000815260040161103590613f09565b60405180910390fd5b600073ffffffffffffffffffffffffffffffffffffffff168160060160009054906101000a900473ffffffffffffffffffffffffffffffffffffffff1673ffffffffffffffffffffffffffffffffffffffff16146111815780600401544211156110dd576040517f08c379a00000000000000000000000000000000000000000000000000000000081526004016110d490613d89565b60405180910390fd5b6111808160060160009054906101000a900473ffffffffffffffffffffffffffffffffffffffff168260030160009054906101000a90046fffffffffffffffffffffffffffffffff166fffffffffffffffffffffffffffffffff16600e60009054906101000a900473ffffffffffffffffffffffffffffffffffffffff1673ffffffffffffffffffffffffffffffffffffffff166129b99092919063ffffffff16565b5b6111e23330846fffffffffffffffffffffffffffffffff16600e60009054906101000a900473ffffffffffffffffffffffffffffffffffffffff1673ffffffffffffffffffffffffffffffffffffffff16612a3f909392919063ffffffff16565b818160030160006101000a8154816fffffffffffffffffffffffffffffffff02191690836fffffffffffffffffffffffffffffffff160217905550338160060160006101000a81548173ffffffffffffffffffffffffffffffffffffffff021916908373ffffffffffffffffffffffffffffffffffffffff1602179055507f6973eee1bd8795ad6517ca1beda7f43895414fa0f2c47f8ef5d2de343e5ca2ed83833360405161129393929190613faf565b60405180910390a1505050565b600d60009054906101000a900473ffffffffffffffffffffffffffffffffffffffff1673ffffffffffffffffffffffffffffffffffffffff166353971189336040518263ffffffff1660e01b81526004016112fb9190613c2c565b602060405180830381600087803b15801561131557600080fd5b505af1158015611329573d6000803e3d6000fd5b505050506040513d601f19601f8201168201806040525081019061134d9190613248565b61138c576040517f08c379a000000000000000000000000000000000000000000000000000000000815260040161138390613da9565b60405180910390fd5b60006113988233612ac8565b90506000600560009054906101000a900473ffffffffffffffffffffffffffffffffffffffff1673ffffffffffffffffffffffffffffffffffffffff1663622962236040518163ffffffff1660e01b815260040160206040518083038186803b15801561140457600080fd5b505afa158015611418573d6000803e3d6000fd5b505050506040513d601f19601f8201168201806040525081019061143c91906133d5565b905060006006548261144e91906140fa565b905060006040518061012001604052808581526020013373ffffffffffffffffffffffffffffffffffffffff1681526020013373ffffffffffffffffffffffffffffffffffffffff168152602001600760009054906101000a90046fffffffffffffffffffffffffffffffff166fffffffffffffffffffffffffffffffff168152602001838152602001848152602001600073ffffffffffffffffffffffffffffffffffffffff168152602001600115158152602001600480549050815250905080600260008681526020019081526020016000206000820151816000015560208201518160010160006101000a81548173ffffffffffffffffffffffffffffffffffffffff021916908373ffffffffffffffffffffffffffffffffffffffff16021790555060408201518160020160006101000a81548173ffffffffffffffffffffffffffffffffffffffff021916908373ffffffffffffffffffffffffffffffffffffffff16021790555060608201518160030160006101000a8154816fffffffffffffffffffffffffffffffff02191690836fffffffffffffffffffffffffffffffff1602179055506080820151816004015560a0820151816005015560c08201518160060160006101000a81548173ffffffffffffffffffffffffffffffffffffffff021916908373ffffffffffffffffffffffffffffffffffffffff16021790555060e08201518160060160146101000a81548160ff021916908315150217905550610100820151816007015590505060048490806001815401808255809150506001900390600052602060002001600090919091909150556001600360008282546116bf91906140fa565b925050819055507f7822289774799aa8678cd853654c297b44c198c9b1e1a83a932ec7bf3a85f7e884600760009054906101000a90046fffffffffffffffffffffffffffffffff1660065460405161171993929190613fe6565b60405180910390a15050505050565b61173061270f565b73ffffffffffffffffffffffffffffffffffffffff1661174e6119e2565b73ffffffffffffffffffffffffffffffffffffffff16146117a4576040517f08c379a000000000000000000000000000000000000000000000000000000000815260040161179b90613e49565b60405180910390fd5b80600960006101000a81548173ffffffffffffffffffffffffffffffffffffffff021916908373ffffffffffffffffffffffffffffffffffffffff16021790555050565b6117f061270f565b73ffffffffffffffffffffffffffffffffffffffff1661180e6119e2565b73ffffffffffffffffffffffffffffffffffffffff1614611864576040517f08c379a000000000000000000000000000000000000000000000000000000000815260040161185b90613e49565b60405180910390fd5b80600b60006101000a81548173ffffffffffffffffffffffffffffffffffffffff021916908373ffffffffffffffffffffffffffffffffffffffff16021790555050565b6118b061270f565b73ffffffffffffffffffffffffffffffffffffffff166118ce6119e2565b73ffffffffffffffffffffffffffffffffffffffff1614611924576040517f08c379a000000000000000000000000000000000000000000000000000000000815260040161191b90613e49565b60405180910390fd5b600073ffffffffffffffffffffffffffffffffffffffff1660008054906101000a900473ffffffffffffffffffffffffffffffffffffffff1673ffffffffffffffffffffffffffffffffffffffff167f8be0079c531659141344cd1fd0a4f28419497f9722a3daafe3b4186f6b6457e060405160405180910390a360008060006101000a81548173ffffffffffffffffffffffffffffffffffffffff021916908373ffffffffffffffffffffffffffffffffffffffff160217905550565b60008060009054906101000a900473ffffffffffffffffffffffffffffffffffffffff16905090565b6000611a15612b7f565b905060008111611a5a576040517f08c379a0000000000000000000000000000000000000000000000000000000008152600401611a5190613e29565b60405180910390fd5b600760009054906101000a90046fffffffffffffffffffffffffffffffff166fffffffffffffffffffffffffffffffff16826fffffffffffffffffffffffffffffffff1611611ade576040517f08c379a0000000000000000000000000000000000000000000000000000000008152600401611ad590613f09565b60405180910390fd5b611b3f3330846fffffffffffffffffffffffffffffffff16600e60009054906101000a900473ffffffffffffffffffffffffffffffffffffffff1673ffffffffffffffffffffffffffffffffffffffff16612a3f909392919063ffffffff16565b6000611b6d84600860009054906101000a900473ffffffffffffffffffffffffffffffffffffffff16612ac8565b90506000600560009054906101000a900473ffffffffffffffffffffffffffffffffffffffff1673ffffffffffffffffffffffffffffffffffffffff1663622962236040518163ffffffff1660e01b815260040160206040518083038186803b158015611bd957600080fd5b505afa158015611bed573d6000803e3d6000fd5b505050506040513d601f19601f82011682018060405250810190611c1191906133d5565b9050600060065482611c2391906140fa565b90506000604051806101200160405280858152602001600860009054906101000a900473ffffffffffffffffffffffffffffffffffffffff1673ffffffffffffffffffffffffffffffffffffffff168152602001600860009054906101000a900473ffffffffffffffffffffffffffffffffffffffff1673ffffffffffffffffffffffffffffffffffffffff168152602001876fffffffffffffffffffffffffffffffff1681526020018381526020018481526020013373ffffffffffffffffffffffffffffffffffffffff168152602001600115158152602001600480549050815250905080600260008681526020019081526020016000206000820151816000015560208201518160010160006101000a81548173ffffffffffffffffffffffffffffffffffffffff021916908373ffffffffffffffffffffffffffffffffffffffff16021790555060408201518160020160006101000a81548173ffffffffffffffffffffffffffffffffffffffff021916908373ffffffffffffffffffffffffffffffffffffffff16021790555060608201518160030160006101000a8154816fffffffffffffffffffffffffffffffff02191690836fffffffffffffffffffffffffffffffff1602179055506080820151816004015560a0820151816005015560c08201518160060160006101000a81548173ffffffffffffffffffffffffffffffffffffffff021916908373ffffffffffffffffffffffffffffffffffffffff16021790555060e08201518160060160146101000a81548160ff02191690831515021790555061010082015181600701559050506004849080600181540180825580915050600190039060005260206000200160009091909190915055600160036000828254611eb991906140fa565b925050819055507f7822289774799aa8678cd853654c297b44c198c9b1e1a83a932ec7bf3a85f7e884600760009054906101000a90046fffffffffffffffffffffffffffffffff16600654604051611f1393929190613fe6565b60405180910390a17f6973eee1bd8795ad6517ca1beda7f43895414fa0f2c47f8ef5d2de343e5ca2ed848733604051611f4e93929190613faf565b60405180910390a150505050505050565b6000600480549050905090565b60606000808460ff1667ffffffffffffffff811115611fb4577f4e487b7100000000000000000000000000000000000000000000000000000000600052604160045260246000fd5b604051908082528060200260200182016040528015611fed57816020015b611fda612edd565b815260200190600190039081611fd25790505b5090506000848660ff1661200191906141cb565b63ffffffff1690506000612013612b7f565b905060008160048054905061202891906140fa565b90506000811180156120465750826001826120439190614209565b10155b1561248f5760005b8860ff1681101561248d57808461206591906140fa565b6001836120729190614209565b101561207d5761248d565b612085612efd565b600080600480549050119050600081156120bc5783876120a591906140fa565b60016004805490506120b79190614209565b101590505b8180156120c65750805b1561231a576000600485896120db91906140fa565b81548110612112577f4e487b7100000000000000000000000000000000000000000000000000000000600052603260045260246000fd5b906000526020600020015490506002600082815260200190815260200160002060405180610120016040529081600082015481526020016001820160009054906101000a900473ffffffffffffffffffffffffffffffffffffffff1673ffffffffffffffffffffffffffffffffffffffff1673ffffffffffffffffffffffffffffffffffffffff1681526020016002820160009054906101000a900473ffffffffffffffffffffffffffffffffffffffff1673ffffffffffffffffffffffffffffffffffffffff1673ffffffffffffffffffffffffffffffffffffffff1681526020016003820160009054906101000a90046fffffffffffffffffffffffffffffffff166fffffffffffffffffffffffffffffffff166fffffffffffffffffffffffffffffffff16815260200160048201548152602001600582015481526020016006820160009054906101000a900473ffffffffffffffffffffffffffffffffffffffff1673ffffffffffffffffffffffffffffffffffffffff1673ffffffffffffffffffffffffffffffffffffffff1681526020016006820160149054906101000a900460ff161515151581526020016007820154815250509350600073ffffffffffffffffffffffffffffffffffffffff168460c0015173ffffffffffffffffffffffffffffffffffffffff1614156123145761231184612717565b93505b5061242a565b60405180610120016040528060008152602001600860009054906101000a900473ffffffffffffffffffffffffffffffffffffffff1673ffffffffffffffffffffffffffffffffffffffff168152602001600860009054906101000a900473ffffffffffffffffffffffffffffffffffffffff1673ffffffffffffffffffffffffffffffffffffffff16815260200160006fffffffffffffffffffffffffffffffff1681526020016000815260200160008152602001600860009054906101000a900473ffffffffffffffffffffffffffffffffffffffff1673ffffffffffffffffffffffffffffffffffffffff1681526020016000151581526020016000815250925061242783612717565b92505b612433836128b7565b88858151811061246c577f4e487b7100000000000000000000000000000000000000000000000000000000600052603260045260246000fd5b602002602001018190525050505080806124859061434c565b91505061204e565b505b838195509550505050509250929050565b6124a861270f565b73ffffffffffffffffffffffffffffffffffffffff166124c66119e2565b73ffffffffffffffffffffffffffffffffffffffff161461251c576040517f08c379a000000000000000000000000000000000000000000000000000000000815260040161251390613e49565b60405180910390fd5b80600a60006101000a81548173ffffffffffffffffffffffffffffffffffffffff021916908373ffffffffffffffffffffffffffffffffffffffff16021790555050565b60065481565b61256e61270f565b73ffffffffffffffffffffffffffffffffffffffff1661258c6119e2565b73ffffffffffffffffffffffffffffffffffffffff16146125e2576040517f08c379a00000000000000000000000000000000000000000000000000000000081526004016125d990613e49565b60405180910390fd5b600073ffffffffffffffffffffffffffffffffffffffff168173ffffffffffffffffffffffffffffffffffffffff161415612652576040517f08c379a000000000000000000000000000000000000000000000000000000000815260040161264990613dc9565b60405180910390fd5b8073ffffffffffffffffffffffffffffffffffffffff1660008054906101000a900473ffffffffffffffffffffffffffffffffffffffff1673ffffffffffffffffffffffffffffffffffffffff167f8be0079c531659141344cd1fd0a4f28419497f9722a3daafe3b4186f6b6457e060405160405180910390a3806000806101000a81548173ffffffffffffffffffffffffffffffffffffffff021916908373ffffffffffffffffffffffffffffffffffffffff16021790555050565b600033905090565b61271f612efd565b6000829050600560009054906101000a900473ffffffffffffffffffffffffffffffffffffffff1673ffffffffffffffffffffffffffffffffffffffff1663622962236040518163ffffffff1660e01b815260040160206040518083038186803b15801561278c57600080fd5b505afa1580156127a0573d6000803e3d6000fd5b505050506040513d601f19601f820116820180604052508101906127c491906133d5565b8160a00181815250506006548160a001516127df91906140fa565b816080018181525050600760009054906101000a90046fffffffffffffffffffffffffffffffff1681606001906fffffffffffffffffffffffffffffffff1690816fffffffffffffffffffffffffffffffff16815250508060200151816040019073ffffffffffffffffffffffffffffffffffffffff16908173ffffffffffffffffffffffffffffffffffffffff168152505080602001518160c0019073ffffffffffffffffffffffffffffffffffffffff16908173ffffffffffffffffffffffffffffffffffffffff168152505080915050919050565b6128bf612edd565b6000604051806040016040528084815260200160405180602001604052806000815250815250905060008360000151146129b057600c60009054906101000a900473ffffffffffffffffffffffffffffffffffffffff1673ffffffffffffffffffffffffffffffffffffffff1663c87b56dd84600001516040518263ffffffff1660e01b81526004016129529190613f6b565b60006040518083038186803b15801561296a57600080fd5b505afa15801561297e573d6000803e3d6000fd5b505050506040513d6000823e3d601f19601f820116820180604052508101906129a791906132ee565b81602001819052505b80915050919050565b612a3a8363a9059cbb60e01b84846040516024016129d8929190613c7e565b604051602081830303815290604052907bffffffffffffffffffffffffffffffffffffffffffffffffffffffff19166020820180517bffffffffffffffffffffffffffffffffffffffffffffffffffffffff8381831617835250505050612c4c565b505050565b612ac2846323b872dd60e01b858585604051602401612a6093929190613c47565b604051602081830303815290604052907bffffffffffffffffffffffffffffffffffffffffffffffffffffffff19166020820180517bffffffffffffffffffffffffffffffffffffffffffffffffffffffff8381831617835250505050612c4c565b50505050565b6000612ad46001612d13565b6000612ae06001612d29565b9050600c60009054906101000a900473ffffffffffffffffffffffffffffffffffffffff1673ffffffffffffffffffffffffffffffffffffffff1663ac7cc47a308387876040518563ffffffff1660e01b8152600401612b439493929190613ca7565b600060405180830381600087803b158015612b5d57600080fd5b505af1158015612b71573d6000803e3d6000fd5b505050508091505092915050565b600080600560009054906101000a900473ffffffffffffffffffffffffffffffffffffffff1673ffffffffffffffffffffffffffffffffffffffff166365ac43416040518163ffffffff1660e01b815260040160206040518083038186803b158015612bea57600080fd5b505afa158015612bfe573d6000803e3d6000fd5b505050506040513d601f19601f82011682018060405250810190612c2291906133d5565b90508060035410612c37576000915050612c49565b60035481612c459190614209565b9150505b90565b6000612cae826040518060400160405280602081526020017f5361666545524332303a206c6f772d6c6576656c2063616c6c206661696c65648152508573ffffffffffffffffffffffffffffffffffffffff16612d379092919063ffffffff16565b9050600081511115612d0e5780806020019051810190612cce9190613248565b612d0d576040517f08c379a0000000000000000000000000000000000000000000000000000000008152600401612d0490613ec9565b60405180910390fd5b5b505050565b6001816000016000828254019250508190555050565b600081600001549050919050565b6060612d468484600085612d4f565b90509392505050565b606082471015612d94576040517f08c379a0000000000000000000000000000000000000000000000000000000008152600401612d8b90613e09565b60405180910390fd5b612d9d85612e63565b612ddc576040517f08c379a0000000000000000000000000000000000000000000000000000000008152600401612dd390613e89565b60405180910390fd5b6000808673ffffffffffffffffffffffffffffffffffffffff168587604051612e059190613c15565b60006040518083038185875af1925050503d8060008114612e42576040519150601f19603f3d011682016040523d82523d6000602084013e612e47565b606091505b5091509150612e57828286612e76565b92505050949350505050565b600080823b905060008111915050919050565b60608315612e8657829050612ed6565b600083511115612e995782518084602001fd5b816040517f08c379a0000000000000000000000000000000000000000000000000000000008152600401612ecd9190613d67565b60405180910390fd5b9392505050565b6040518060400160405280612ef0612efd565b8152602001606081525090565b60405180610120016040528060008152602001600073ffffffffffffffffffffffffffffffffffffffff168152602001600073ffffffffffffffffffffffffffffffffffffffff16815260200160006fffffffffffffffffffffffffffffffff1681526020016000815260200160008152602001600073ffffffffffffffffffffffffffffffffffffffff168152602001600015158152602001600081525090565b6000612fb2612fad8461404e565b61401d565b905082815260208101848484011115612fca57600080fd5b612fd584828561430a565b509392505050565b6000612ff0612feb8461404e565b61401d565b90508281526020810184848401111561300857600080fd5b613013848285614319565b509392505050565b60008135905061302a81614433565b92915050565b60008151905061303f81614433565b92915050565b6000815190506130548161444a565b92915050565b60008083601f84011261306c57600080fd5b8235905067ffffffffffffffff81111561308557600080fd5b60208301915083600182028301111561309d57600080fd5b9250929050565b600082601f8301126130b557600080fd5b81356130c5848260208601612f9f565b91505092915050565b600082601f8301126130df57600080fd5b81516130ef848260208601612fdd565b91505092915050565b60008135905061310781614461565b92915050565b60008151905061311c81614478565b92915050565b6000813590506131318161448f565b92915050565b6000815190506131468161448f565b92915050565b60008135905061315b816144a6565b92915050565b600081359050613170816144bd565b92915050565b60006020828403121561318857600080fd5b60006131968482850161301b565b91505092915050565b6000602082840312156131b157600080fd5b60006131bf84828501613030565b91505092915050565b6000806000806000608086880312156131e057600080fd5b60006131ee8882890161301b565b95505060206131ff8882890161301b565b945050604061321088828901613122565b935050606086013567ffffffffffffffff81111561322d57600080fd5b6132398882890161305a565b92509250509295509295909350565b60006020828403121561325a57600080fd5b600061326884828501613045565b91505092915050565b6000806040838503121561328457600080fd5b600061329285828601613045565b92505060206132a38582860161310d565b9150509250929050565b6000602082840312156132bf57600080fd5b600082013567ffffffffffffffff8111156132d957600080fd5b6132e5848285016130a4565b91505092915050565b60006020828403121561330057600080fd5b600082015167ffffffffffffffff81111561331a57600080fd5b613326848285016130ce565b91505092915050565b6000806040838503121561334257600080fd5b600083013567ffffffffffffffff81111561335c57600080fd5b613368858286016130a4565b9250506020613379858286016130f8565b9150509250929050565b60006020828403121561339557600080fd5b60006133a3848285016130f8565b91505092915050565b6000602082840312156133be57600080fd5b60006133cc84828501613122565b91505092915050565b6000602082840312156133e757600080fd5b60006133f584828501613137565b91505092915050565b6000806040838503121561341157600080fd5b600061341f85828601613122565b9250506020613430858286016130f8565b9150509250929050565b6000806040838503121561344d57600080fd5b600061345b85828601613161565b925050602061346c8582860161314c565b9150509250929050565b60006134828383613b4c565b905092915050565b6134938161423d565b82525050565b6134a28161423d565b82525050565b60006134b38261408e565b6134bd81856140bc565b9350836020820285016134cf8561407e565b8060005b8581101561350b57848403895281516134ec8582613476565b94506134f7836140af565b925060208a019950506001810190506134d3565b50829750879550505050505092915050565b8082525050565b61352d8161424f565b82525050565b61353c8161425b565b82525050565b600061354d82614099565b61355781856140cd565b9350613567818560208601614319565b80840191505092915050565b600061357e826140a4565b61358881856140d8565b9350613598818560208601614319565b6135a181614422565b840191505092915050565b60006135b7826140a4565b6135c181856140e9565b93506135d1818560208601614319565b6135da81614422565b840191505092915050565b60006135f26019836140e9565b91507f4e465441756374696f6e3a20616c726561647920656e646564000000000000006000830152602082019050919050565b60006136326031836140e9565b91507f4e465441756374696f6e3a2054686572652069736e277420616e792063616e7660008301527f617320696e20796f75722077616c6c65740000000000000000000000000000006020830152604082019050919050565b60006136986026836140e9565b91507f4f776e61626c653a206e6577206f776e657220697320746865207a65726f206160008301527f64647265737300000000000000000000000000000000000000000000000000006020830152604082019050919050565b60006136fe6025836140e9565b91507f4e465441756374696f6e3a20596f757227726520616c7265616479207468652060008301527f6f776e65720000000000000000000000000000000000000000000000000000006020830152604082019050919050565b60006137646026836140e9565b91507f416464726573733a20696e73756666696369656e742062616c616e636520666f60008301527f722063616c6c00000000000000000000000000000000000000000000000000006020830152604082019050919050565b60006137ca6017836140e9565b91507f4e465441756374696f6e3a20496e76616c6964204e46540000000000000000006000830152602082019050919050565b600061380a6020836140e9565b91507f4f776e61626c653a2063616c6c6572206973206e6f7420746865206f776e65726000830152602082019050919050565b600061384a6029836140e9565b91507f4e465441756374696f6e3a20596f75277265206e6f742074686520686967686560008301527f73742062696464657200000000000000000000000000000000000000000000006020830152604082019050919050565b60006138b0601d836140e9565b91507f416464726573733a2063616c6c20746f206e6f6e2d636f6e74726163740000006000830152602082019050919050565b60006138f0602a836140e9565b91507f4e465441756374696f6e3a20486176656e2774206c697374656420666f72206160008301527f756374696f6e20796574000000000000000000000000000000000000000000006020830152604082019050919050565b6000613956602a836140e9565b91507f5361666545524332303a204552433230206f7065726174696f6e20646964206e60008301527f6f742073756363656564000000000000000000000000000000000000000000006020830152604082019050919050565b60006139bc6023836140e9565b91507f4e465441756374696f6e3a2041756374696f6e206973206e6f74206f7665722060008301527f79657400000000000000000000000000000000000000000000000000000000006020830152604082019050919050565b6000613a226019836140e9565b91507f4e465441756374696f6e3a20707269636520746f6f206c6f77000000000000006000830152602082019050919050565b6000613a62601d836140e9565b91507f4e465441756374696f6e3a2041756374696f6e20756e637265617465640000006000830152602082019050919050565b61012082016000820151613aac6000850182613bf7565b506020820151613abf602085018261348a565b506040820151613ad2604085018261348a565b506060820151613ae56060850182613bca565b506080820151613af86080850182613bf7565b5060a0820151613b0b60a0850182613bf7565b5060c0820151613b1e60c085018261348a565b5060e0820151613b3160e0850182613524565b50610100820151613b46610100850182613bf7565b50505050565b600061014083016000830151613b656000860182613a95565b506020830151848203610120860152613b7e8282613573565b9150508091505092915050565b600061014083016000830151613ba46000860182613a95565b506020830151848203610120860152613bbd8282613573565b9150508091505092915050565b613bd381614287565b82525050565b613be2816142f8565b82525050565b613bf1816142a3565b82525050565b613c00816142d1565b82525050565b613c0f816142d1565b82525050565b6000613c218284613542565b915081905092915050565b6000602082019050613c416000830184613499565b92915050565b6000606082019050613c5c6000830186613499565b613c696020830185613499565b613c766040830184613c06565b949350505050565b6000604082019050613c936000830185613499565b613ca06020830184613c06565b9392505050565b6000608082019050613cbc6000830187613499565b613cc96020830186613c06565b8181036040830152613cdb81856135ac565b9050613cea6060830184613499565b95945050505050565b60006040820190508181036000830152613d0d81856134a8565b9050613d1c6020830184613c06565b9392505050565b6000604082019050613d38600083018561351d565b613d456020830184613be8565b9392505050565b6000602082019050613d616000830184613533565b92915050565b60006020820190508181036000830152613d8181846135ac565b905092915050565b60006020820190508181036000830152613da2816135e5565b9050919050565b60006020820190508181036000830152613dc281613625565b9050919050565b60006020820190508181036000830152613de28161368b565b9050919050565b60006020820190508181036000830152613e02816136f1565b9050919050565b60006020820190508181036000830152613e2281613757565b9050919050565b60006020820190508181036000830152613e42816137bd565b9050919050565b60006020820190508181036000830152613e62816137fd565b9050919050565b60006020820190508181036000830152613e828161383d565b9050919050565b60006020820190508181036000830152613ea2816138a3565b9050919050565b60006020820190508181036000830152613ec2816138e3565b9050919050565b60006020820190508181036000830152613ee281613949565b9050919050565b60006020820190508181036000830152613f02816139af565b9050919050565b60006020820190508181036000830152613f2281613a15565b9050919050565b60006020820190508181036000830152613f4281613a55565b9050919050565b60006020820190508181036000830152613f638184613b8b565b905092915050565b6000602082019050613f806000830184613c06565b92915050565b6000604082019050613f9b6000830185613c06565b613fa86020830184613499565b9392505050565b6000606082019050613fc46000830186613c06565b613fd16020830185613bd9565b613fde6040830184613499565b949350505050565b6000606082019050613ffb6000830186613c06565b6140086020830185613bd9565b6140156040830184613c06565b949350505050565b6000604051905081810181811067ffffffffffffffff82111715614044576140436143f3565b5b8060405250919050565b600067ffffffffffffffff821115614069576140686143f3565b5b601f19601f8301169050602081019050919050565b6000819050602082019050919050565b600081519050919050565b600081519050919050565b600081519050919050565b6000602082019050919050565b600082825260208201905092915050565b600081905092915050565b600082825260208201905092915050565b600082825260208201905092915050565b6000614105826142d1565b9150614110836142d1565b9250827fffffffffffffffffffffffffffffffffffffffffffffffffffffffffffffffff0382111561414557614144614395565b5b828201905092915050565b600061415b82614287565b915061416683614287565b925082614176576141756143c4565b5b828204905092915050565b600061418c82614287565b915061419783614287565b9250816fffffffffffffffffffffffffffffffff04831182151516156141c0576141bf614395565b5b828202905092915050565b60006141d6826142db565b91506141e1836142db565b92508163ffffffff04831182151516156141fe576141fd614395565b5b828202905092915050565b6000614214826142d1565b915061421f836142d1565b92508282101561423257614231614395565b5b828203905092915050565b6000614248826142b1565b9050919050565b60008115159050919050565b60007fffffffff0000000000000000000000000000000000000000000000000000000082169050919050565b60006fffffffffffffffffffffffffffffffff82169050919050565b600061ffff82169050919050565b600073ffffffffffffffffffffffffffffffffffffffff82169050919050565b6000819050919050565b600063ffffffff82169050919050565b600060ff82169050919050565b600061430382614287565b9050919050565b82818337600083830152505050565b60005b8381101561433757808201518184015260208101905061431c565b83811115614346576000848401525b50505050565b6000614357826142d1565b91507fffffffffffffffffffffffffffffffffffffffffffffffffffffffffffffffff82141561438a57614389614395565b5b600182019050919050565b7f4e487b7100000000000000000000000000000000000000000000000000000000600052601160045260246000fd5b7f4e487b7100000000000000000000000000000000000000000000000000000000600052601260045260246000fd5b7f4e487b7100000000000000000000000000000000000000000000000000000000600052604160045260246000fd5b6000601f19601f8301169050919050565b61443c8161423d565b811461444757600080fd5b50565b6144538161424f565b811461445e57600080fd5b50565b61446a81614287565b811461447557600080fd5b50565b614481816142a3565b811461448c57600080fd5b50565b614498816142d1565b81146144a357600080fd5b50565b6144af816142db565b81146144ba57600080fd5b50565b6144c6816142eb565b81146144d157600080fd5b5056fea2646970667358221220e40ba9760b50b524b569c82076c5f90b8854cee24230dd102892147c27ab5cdf64736f6c63430008000033",
  "immutableReferences": {},
  "source": "// SPDX-License-Identifier: GPL-3.0\npragma solidity ^0.8.0;\n\nimport \"@openzeppelin/contracts/access/Ownable.sol\";\nimport \"@openzeppelin/contracts/utils/Counters.sol\";\nimport \"@openzeppelin/contracts/token/ERC20/IERC20.sol\";\nimport \"@openzeppelin/contracts/token/ERC721/IERC721Receiver.sol\";\nimport \"@openzeppelin/contracts/token/ERC721/IERC721.sol\";\nimport \"@openzeppelin/contracts/token/ERC20/utils/SafeERC20.sol\";\nimport \"./library/UintArray.sol\";\nimport \"./interface/IPeriod.sol\";\nimport \"./interface/ICoinBidCreation.sol\";\nimport \"./interface/ICanvasAuction.sol\";\nimport \"./interface/IMining.sol\";\n\ncontract NFTAuction is Ownable, IERC721Receiver {\n\n    using SafeERC20 for IERC20;\n    using Counters for Counters.Counter;\n    using UintArray for uint[];\n\n    // auto increament.\n    Counters.Counter private _tokenIdCounter;\n\n    // Represents an auction on an NFT\n    struct Auction {\n        uint tokenId;\n        address creator;\n        // Current owner of NFT\n        address seller;\n        uint128 lastPrice;\n        // Time when auction ended\n        uint endAt;\n        // Time when auction started\n        uint startedAt;\n        address lastBidder;\n        bool used;\n        uint arrIndex;\n    }\n\n    struct NFTInfo {\n        Auction auction;\n        string tokenURI;\n    }\n\n    // Map from NFT ID to their corresponding auction.\n    mapping (uint256 => Auction) nftIdToAuction;\n\n    uint totalAmount;\n    uint[] nftInAuctionArr;\n\n    IPeriod nftFactory;\n\n    // \n    uint public period;\n\n    // \n    uint128 internal defaultPrice;\n\n    // The platform creator.\n    address platformCreator;\n    // CBD buy back account.\n    address cbdBuybackPool;\n    // strategic reserve fund pool.\n    address reserveFundPool;\n    // Platform operating pool.\n    address platformPool;\n\n    ICoinBidCreation internal nft;\n    ICanvasAuction internal canvasAuction;\n\n    // TODO set value\n    IERC20 tokenToPay;\n\n    IMining mining;\n\n    event NFTAuctionCreated(uint nftId, uint256 startingPrice, uint256 duration);\n    event NFTAuctionBid(uint nftId, uint256 bidPrice, address bidder);\n    event NFTAuctionEnded(uint nftId, uint price, address buyer);\n\n    constructor(address _nftFactory, \n                address _tokenToPay, \n                address _platformCreator, \n                address _cbdBuybackPool,\n                address _reserveFundPool,\n                address _platformPool,\n                address _nft, \n                address _mining, \n                address _canvasAuction, \n                uint128 _defaultPrice) {\n        nftFactory = IPeriod(_nftFactory);\n        period = nftFactory.getPeriod();\n        tokenToPay = IERC20(_tokenToPay);\n\n        platformCreator = _platformCreator;\n        cbdBuybackPool = _cbdBuybackPool;\n        reserveFundPool = _reserveFundPool;\n        platformPool = _platformPool;\n\n        nft = ICoinBidCreation(_nft);\n        mining = IMining(_mining);\n        canvasAuction = ICanvasAuction(_canvasAuction);\n        defaultPrice = _defaultPrice;\n    }\n\n    function getNFTInAuction(uint8 _amountPerPage, uint32 _page) public view returns(NFTInfo[] memory, uint) {\n        NFTInfo[] memory arr = new NFTInfo[](_amountPerPage);\n        uint startPoint = _amountPerPage * _page;\n        // uninstanted amount.\n        uint rawAmount = getUninstantedAmount();\n        uint totalLength = nftInAuctionArr.length + rawAmount;\n        if((totalLength > 0) && ((totalLength - 1) >= startPoint)) {\n            for(uint i = 0; i < _amountPerPage; i++) {\n                if((totalLength - 1) < (startPoint + i)) {\n                    break;\n                }\n\n                Auction memory auction;\n                bool a = nftInAuctionArr.length > 0;\n                bool b = false;\n                if(a) {\n                    b = (nftInAuctionArr.length - 1) >= (startPoint + i);\n                }\n                if(a && b) {\n                    uint index = nftInAuctionArr[startPoint + i];\n                    auction = nftIdToAuction[index];\n                    // no bid yet.\n                    if(auction.lastBidder == address(0)) {\n                        auction = getNoBidAuction(auction);\n                    }\n                } else {\n                    // \n                    auction = Auction(0, platformCreator, platformCreator, 0, 0, 0, platformCreator, false, 0);\n                    auction = getNoBidAuction(auction);\n                }\n                arr[i] = getNfTInfo(auction);\n            }\n        }\n        return (arr, totalLength);\n    }\n\n    function getAuctionById(uint _tokenId) public view returns(NFTInfo memory) {\n        Auction memory auction = nftIdToAuction[_tokenId];\n        // no bid yet.\n        if(auction.lastBidder == address(0)) {\n            auction = getNoBidAuction(auction);\n        }\n\n        return getNfTInfo(auction);\n    }\n\n    function getNoBidAuction(Auction memory _auction) private view returns(Auction memory) {\n        Auction memory auction = _auction;\n        auction.startedAt = nftFactory.getCurPeriodStartAt();\n        auction.endAt = auction.startedAt + period;\n        auction.lastPrice = defaultPrice;\n        auction.seller = auction.creator;\n        auction.lastBidder = auction.creator;\n        return auction;\n    }\n\n    function getNfTInfo(Auction memory _auction) private view returns(NFTInfo memory) {\n        NFTInfo memory info = NFTInfo(_auction, \"\");\n        if(_auction.tokenId != 0) {\n            info.tokenURI = nft.tokenURI(_auction.tokenId);\n        }\n        return info;\n    }\n\n    function getUninstantedAmount() internal view returns(uint) {\n        uint total = nftFactory.getTotalAmount();\n        if(totalAmount >= total) {\n            return 0;\n        }\n        return total - totalAmount;\n    }\n\n    function bidUninstanted(string memory _tokenURI, uint128 _price) public {\n        uint amount = getUninstantedAmount();\n        require(amount > 0, \"NFTAuction: Invalid NFT\");\n        require(_price > defaultPrice, \"NFTAuction: price too low\");\n\n        tokenToPay.safeTransferFrom(msg.sender, address(this), _price);\n\n        uint tokenId = createNFT(_tokenURI, platformCreator);\n\n        uint startedAt = nftFactory.getCurPeriodStartAt();\n        uint endAt = startedAt + period;\n        Auction memory auction = Auction(tokenId, platformCreator, platformCreator, _price, endAt, startedAt, msg.sender, true, nftInAuctionArr.length);\n        nftIdToAuction[tokenId] = auction;\n        nftInAuctionArr.push(tokenId);\n        totalAmount += 1;\n\n        emit NFTAuctionCreated(tokenId, defaultPrice, period);\n        emit NFTAuctionBid(tokenId, _price, msg.sender);\n    }\n\n    // NFT\n    function createNFTByCanvas(string memory _tokenURI) public {\n        require(canvasAuction.popOne(msg.sender), \"NFTAuction: There isn't any canvas in your wallet\");\n        uint tokenId = createNFT(_tokenURI, msg.sender);\n\n        uint startedAt = nftFactory.getCurPeriodStartAt();\n        uint endAt = startedAt + period;\n        Auction memory auction = Auction(tokenId, msg.sender, msg.sender, defaultPrice, endAt, startedAt, address(0), true, nftInAuctionArr.length);\n        nftIdToAuction[tokenId] = auction;\n        nftInAuctionArr.push(tokenId);\n        totalAmount += 1;\n\n        emit NFTAuctionCreated(tokenId, defaultPrice, period);\n    }\n\n    // NFT\n    function createNFT(string memory _tokenURI, address _creator) private returns(uint) {\n        // start at 1\n        _tokenIdCounter.increment();\n        uint id = _tokenIdCounter.current();\n        nft.safeMint(address(this), id, _tokenURI, _creator);\n        return id;\n    }\n\n    function bid(uint _tokenId, uint128 _price) external {\n        require(msg.sender != mining.ownerOfNFT(_tokenId), \"NFTAuction: Your're already the owner\");\n        require(nftIdToAuction[_tokenId].used, \"NFTAuction: Haven't listed for auction yet\");\n        Auction storage auction = nftIdToAuction[_tokenId];\n        require(_price > auction.lastPrice, \"NFTAuction: price too low\");\n        // Already bided\n        if(auction.lastBidder != address(0)) {\n            require(block.timestamp <= auction.endAt, \"NFTAuction: already ended\");\n            tokenToPay.safeTransfer(auction.lastBidder, auction.lastPrice);\n        }\n\n        tokenToPay.safeTransferFrom(msg.sender, address(this), _price);\n\n        auction.lastPrice = _price;\n        auction.lastBidder = msg.sender;\n        \n        emit NFTAuctionBid(_tokenId, _price, msg.sender);\n    }\n\n    function auctionEnd(uint _tokenId) public {\n        Auction memory auction = nftIdToAuction[_tokenId];\n\n        require(auction.used, \"NFTAuction: Auction uncreated\");\n        require(block.timestamp > auction.endAt, \"NFTAuction: Auction is not over yet\");\n        require(msg.sender == auction.lastBidder, \"NFTAuction: You're not the highest bidder\");\n\n        delete nftIdToAuction[_tokenId];\n        bool isChanged;\n        uint16 index;\n        (isChanged, index) = nftInAuctionArr.unsafeDelete(index);\n        if(isChanged) {\n            uint id = nftInAuctionArr[index];\n            nftIdToAuction[id].arrIndex = index;\n        }\n\n        // TODO \n        uint amountToSeller = auction.lastPrice * 2 / 100; // 2%\n        uint amountToCbdBuybackPool = auction.lastPrice * 80 / 100; // 80%\n        uint amountToReserveFundPool = auction.lastPrice * 15 / 100; // 15%\n        uint amountToPlatformPool = auction.lastPrice - amountToSeller - amountToCbdBuybackPool - amountToReserveFundPool; // 3%\n\n        tokenToPay.safeTransfer(auction.seller, amountToSeller);\n        tokenToPay.safeTransfer(cbdBuybackPool, amountToCbdBuybackPool);\n        tokenToPay.safeTransfer(reserveFundPool, amountToReserveFundPool);\n        tokenToPay.safeTransfer(platformPool, amountToPlatformPool);\n\n        mining.transferCreation(_tokenId, msg.sender);\n        emit NFTAuctionEnded(_tokenId, auction.lastPrice, msg.sender);\n    }\n\n    function setDefaultPrice(uint128 _price) public {\n        defaultPrice = _price;\n    }\n\n    // get the amount of instanted nft in auction.\n    function getInstantedLength() public view returns(uint) {\n        return nftInAuctionArr.length;\n    }\n    \n    function setPlatformCreator(address _platformCreator) public onlyOwner {\n        platformCreator = _platformCreator;\n    }\n\n    function setCbdBuybackPool(address _cbdBuybackPool) public onlyOwner {\n        cbdBuybackPool = _cbdBuybackPool;\n    }\n\n    function setReserveFundPool(address _reserveFundPool) public onlyOwner {\n        reserveFundPool = _reserveFundPool;\n    }\n\n    function setPlatformPool(address _platformPool) public onlyOwner {\n        platformPool = _platformPool;\n    }\n\n    function onERC721Received(address operator, address from, uint256 tokenId, bytes calldata data)\n            override external pure returns (bytes4) {\n        return this.onERC721Received.selector;\n    }\n\n    // function setFactory(address _factory) public onlyOwner {\n    //     nftFactory = IPeriod(_factory);\n    // }\n}",
  "sourcePath": "/Users/iwan/code/coinbid-cointract/contracts/7_NFTAuction.sol",
  "compiler": {
    "name": "solc",
    "version": "0.8.0+commit.c7dfd78e.Emscripten.clang"
  },
  "schemaVersion": "3.4.1",
  "updatedAt": "2021-07-04T15:58:22.178Z",
  "networkType": "ethereum",
  "devdoc": {
    "kind": "dev",
    "methods": {
      "onERC721Received(address,address,uint256,bytes)": {
        "details": "Whenever an {IERC721} `tokenId` token is transferred to this contract via {IERC721-safeTransferFrom} by `operator` from `from`, this function is called. It must return its Solidity selector to confirm the token transfer. If any other value is returned or the interface is not implemented by the recipient, the transfer will be reverted. The selector can be obtained in Solidity with `IERC721.onERC721Received.selector`."
      },
      "owner()": {
        "details": "Returns the address of the current owner."
      },
      "renounceOwnership()": {
        "details": "Leaves the contract without owner. It will not be possible to call `onlyOwner` functions anymore. Can only be called by the current owner. NOTE: Renouncing ownership will leave the contract without an owner, thereby removing any functionality that is only available to the owner."
      },
      "transferOwnership(address)": {
        "details": "Transfers ownership of the contract to a new account (`newOwner`). Can only be called by the current owner."
      }
    },
    "version": 1
  },
  "userdoc": {
    "kind": "user",
    "methods": {},
    "version": 1
  }
}