{
  "contractName": "NFTAuction",
  "abi": [
    {
      "inputs": [
        {
          "internalType": "address",
          "name": "_nftFactory",
          "type": "address"
        },
        {
          "internalType": "address",
          "name": "_tokenToPay",
          "type": "address"
        },
        {
          "internalType": "address",
          "name": "_pool",
          "type": "address"
        },
        {
          "internalType": "address",
          "name": "_nft",
          "type": "address"
        },
        {
          "internalType": "address",
          "name": "_mining",
          "type": "address"
        },
        {
          "internalType": "address",
          "name": "_canvasAuction",
          "type": "address"
        },
        {
          "internalType": "uint128",
          "name": "_defaultPrice",
          "type": "uint128"
        }
      ],
      "stateMutability": "nonpayable",
      "type": "constructor"
    },
    {
      "anonymous": false,
      "inputs": [
        {
          "indexed": false,
          "internalType": "uint256",
          "name": "nftId",
          "type": "uint256"
        },
        {
          "indexed": false,
          "internalType": "uint256",
          "name": "bidPrice",
          "type": "uint256"
        },
        {
          "indexed": false,
          "internalType": "address",
          "name": "bidder",
          "type": "address"
        }
      ],
      "name": "NFTAuctionBid",
      "type": "event"
    },
    {
      "anonymous": false,
      "inputs": [
        {
          "indexed": false,
          "internalType": "uint256",
          "name": "nftId",
          "type": "uint256"
        },
        {
          "indexed": false,
          "internalType": "uint256",
          "name": "startingPrice",
          "type": "uint256"
        },
        {
          "indexed": false,
          "internalType": "uint256",
          "name": "duration",
          "type": "uint256"
        }
      ],
      "name": "NFTAuctionCreated",
      "type": "event"
    },
    {
      "anonymous": false,
      "inputs": [
        {
          "indexed": false,
          "internalType": "uint256",
          "name": "nftId",
          "type": "uint256"
        },
        {
          "indexed": false,
          "internalType": "uint256",
          "name": "price",
          "type": "uint256"
        },
        {
          "indexed": false,
          "internalType": "address",
          "name": "buyer",
          "type": "address"
        }
      ],
      "name": "NFTAuctionEnded",
      "type": "event"
    },
    {
      "anonymous": false,
      "inputs": [
        {
          "indexed": true,
          "internalType": "address",
          "name": "previousOwner",
          "type": "address"
        },
        {
          "indexed": true,
          "internalType": "address",
          "name": "newOwner",
          "type": "address"
        }
      ],
      "name": "OwnershipTransferred",
      "type": "event"
    },
    {
      "inputs": [],
      "name": "owner",
      "outputs": [
        {
          "internalType": "address",
          "name": "",
          "type": "address"
        }
      ],
      "stateMutability": "view",
      "type": "function",
      "constant": true
    },
    {
      "inputs": [],
      "name": "period",
      "outputs": [
        {
          "internalType": "uint256",
          "name": "",
          "type": "uint256"
        }
      ],
      "stateMutability": "view",
      "type": "function",
      "constant": true
    },
    {
      "inputs": [],
      "name": "renounceOwnership",
      "outputs": [],
      "stateMutability": "nonpayable",
      "type": "function"
    },
    {
      "inputs": [
        {
          "internalType": "address",
          "name": "newOwner",
          "type": "address"
        }
      ],
      "name": "transferOwnership",
      "outputs": [],
      "stateMutability": "nonpayable",
      "type": "function"
    },
    {
      "inputs": [
        {
          "internalType": "uint8",
          "name": "_amountPerPage",
          "type": "uint8"
        },
        {
          "internalType": "uint32",
          "name": "_page",
          "type": "uint32"
        }
      ],
      "name": "getNFTInAuction",
      "outputs": [
        {
          "components": [
            {
              "components": [
                {
                  "internalType": "uint256",
                  "name": "tokenId",
                  "type": "uint256"
                },
                {
                  "internalType": "address",
                  "name": "belongsTo",
                  "type": "address"
                },
                {
                  "internalType": "address",
                  "name": "seller",
                  "type": "address"
                },
                {
                  "internalType": "uint128",
                  "name": "lastPrice",
                  "type": "uint128"
                },
                {
                  "internalType": "uint256",
                  "name": "endAt",
                  "type": "uint256"
                },
                {
                  "internalType": "uint256",
                  "name": "startedAt",
                  "type": "uint256"
                },
                {
                  "internalType": "address",
                  "name": "lastBidder",
                  "type": "address"
                },
                {
                  "internalType": "bool",
                  "name": "used",
                  "type": "bool"
                }
              ],
              "internalType": "struct NFTAuction.Auction",
              "name": "auction",
              "type": "tuple"
            },
            {
              "internalType": "string",
              "name": "tokenURI",
              "type": "string"
            }
          ],
          "internalType": "struct NFTAuction.NFTInfo[]",
          "name": "",
          "type": "tuple[]"
        },
        {
          "internalType": "uint256",
          "name": "",
          "type": "uint256"
        }
      ],
      "stateMutability": "view",
      "type": "function",
      "constant": true
    },
    {
      "inputs": [
        {
          "internalType": "string",
          "name": "_tokenURI",
          "type": "string"
        },
        {
          "internalType": "uint128",
          "name": "_price",
          "type": "uint128"
        }
      ],
      "name": "bidUninstanted",
      "outputs": [],
      "stateMutability": "nonpayable",
      "type": "function"
    },
    {
      "inputs": [
        {
          "internalType": "string",
          "name": "_tokenURI",
          "type": "string"
        }
      ],
      "name": "createNFTByCanvas",
      "outputs": [],
      "stateMutability": "nonpayable",
      "type": "function"
    },
    {
      "inputs": [
        {
          "internalType": "uint256",
          "name": "_tokenId",
          "type": "uint256"
        },
        {
          "internalType": "uint128",
          "name": "_price",
          "type": "uint128"
        }
      ],
      "name": "bid",
      "outputs": [],
      "stateMutability": "nonpayable",
      "type": "function"
    },
    {
      "inputs": [
        {
          "internalType": "uint256",
          "name": "_tokenId",
          "type": "uint256"
        }
      ],
      "name": "auctionEnd",
      "outputs": [],
      "stateMutability": "nonpayable",
      "type": "function"
    },
    {
      "inputs": [
        {
          "internalType": "uint128",
          "name": "_price",
          "type": "uint128"
        }
      ],
      "name": "setDefaultPrice",
      "outputs": [],
      "stateMutability": "nonpayable",
      "type": "function"
    },
    {
      "inputs": [
        {
          "internalType": "address",
          "name": "operator",
          "type": "address"
        },
        {
          "internalType": "address",
          "name": "from",
          "type": "address"
        },
        {
          "internalType": "uint256",
          "name": "tokenId",
          "type": "uint256"
        },
        {
          "internalType": "bytes",
          "name": "data",
          "type": "bytes"
        }
      ],
      "name": "onERC721Received",
      "outputs": [
        {
          "internalType": "bytes4",
          "name": "",
          "type": "bytes4"
        }
      ],
      "stateMutability": "pure",
      "type": "function",
      "constant": true
    }
  ],
  "bytecode": "0x60806040526012600b60146101000a81548160ff021916908360ff1602179055503480156200002d57600080fd5b5060405162003f4c38038062003f4c8339818101604052810190620000539190620003c6565b6000620000656200037960201b60201c565b9050806000806101000a81548173ffffffffffffffffffffffffffffffffffffffff021916908373ffffffffffffffffffffffffffffffffffffffff1602179055508073ffffffffffffffffffffffffffffffffffffffff16600073ffffffffffffffffffffffffffffffffffffffff167f8be0079c531659141344cd1fd0a4f28419497f9722a3daafe3b4186f6b6457e060405160405180910390a35086600560006101000a81548173ffffffffffffffffffffffffffffffffffffffff021916908373ffffffffffffffffffffffffffffffffffffffff160217905550600560009054906101000a900473ffffffffffffffffffffffffffffffffffffffff1673ffffffffffffffffffffffffffffffffffffffff16631ed241956040518163ffffffff1660e01b815260040160206040518083038186803b158015620001ad57600080fd5b505afa158015620001c2573d6000803e3d6000fd5b505050506040513d601f19601f82011682018060405250810190620001e8919062000473565b60068190555085600b60006101000a81548173ffffffffffffffffffffffffffffffffffffffff021916908373ffffffffffffffffffffffffffffffffffffffff16021790555084600860006101000a81548173ffffffffffffffffffffffffffffffffffffffff021916908373ffffffffffffffffffffffffffffffffffffffff16021790555083600960006101000a81548173ffffffffffffffffffffffffffffffffffffffff021916908373ffffffffffffffffffffffffffffffffffffffff16021790555082600c60006101000a81548173ffffffffffffffffffffffffffffffffffffffff021916908373ffffffffffffffffffffffffffffffffffffffff16021790555081600a60006101000a81548173ffffffffffffffffffffffffffffffffffffffff021916908373ffffffffffffffffffffffffffffffffffffffff16021790555080600760006101000a8154816fffffffffffffffffffffffffffffffff02191690836fffffffffffffffffffffffffffffffff1602179055505050505050505062000547565b600033905090565b6000815190506200039281620004f9565b92915050565b600081519050620003a98162000513565b92915050565b600081519050620003c0816200052d565b92915050565b600080600080600080600060e0888a031215620003e257600080fd5b6000620003f28a828b0162000381565b9750506020620004058a828b0162000381565b9650506040620004188a828b0162000381565b95505060606200042b8a828b0162000381565b94505060806200043e8a828b0162000381565b93505060a0620004518a828b0162000381565b92505060c0620004648a828b0162000398565b91505092959891949750929550565b6000602082840312156200048657600080fd5b60006200049684828501620003af565b91505092915050565b6000620004ac82620004cf565b9050919050565b60006fffffffffffffffffffffffffffffffff82169050919050565b600073ffffffffffffffffffffffffffffffffffffffff82169050919050565b6000819050919050565b62000504816200049f565b81146200051057600080fd5b50565b6200051e81620004b3565b81146200052a57600080fd5b50565b6200053881620004ef565b81146200054457600080fd5b50565b6139f580620005576000396000f3fe608060405234801561001057600080fd5b50600436106100a95760003560e01c8063715018a611610071578063715018a61461014e5780638da5cb5b146101585780639f731bb214610176578063a4837a6c14610192578063ef78d4fd146101c3578063f2fde38b146101e1576100a9565b8063150b7a02146100ae57806332246e9f146100de57806348d9b6c3146100fa5780634cafdb15146101165780634e8a959f14610132575b600080fd5b6100c860048036038101906100c39190612827565b6101fd565b6040516100d591906132ce565b60405180910390f35b6100f860048036038101906100f391906129cf565b610212565b005b610114600480360381019061010f91906129a6565b6106c9565b005b610130600480360381019061012b9190612a21565b610705565b005b61014c600480360381019061014791906128d0565b610b82565b005b61015661100f565b005b610160611149565b60405161016d91906131e5565b60405180910390f35b610190600480360381019061018b9190612952565b611172565b005b6101ac60048036038101906101a79190612a5d565b6116a9565b6040516101ba92919061329e565b60405180910390f35b6101cb611bcc565b6040516101d891906134cb565b60405180910390f35b6101fb60048036038101906101f691906127d5565b611bd2565b005b600063150b7a0260e01b905095945050505050565b60006002600083815260200190815260200160002060405180610100016040529081600082015481526020016001820160009054906101000a900473ffffffffffffffffffffffffffffffffffffffff1673ffffffffffffffffffffffffffffffffffffffff1673ffffffffffffffffffffffffffffffffffffffff1681526020016002820160009054906101000a900473ffffffffffffffffffffffffffffffffffffffff1673ffffffffffffffffffffffffffffffffffffffff1673ffffffffffffffffffffffffffffffffffffffff1681526020016003820160009054906101000a90046fffffffffffffffffffffffffffffffff166fffffffffffffffffffffffffffffffff166fffffffffffffffffffffffffffffffff16815260200160048201548152602001600582015481526020016006820160009054906101000a900473ffffffffffffffffffffffffffffffffffffffff1673ffffffffffffffffffffffffffffffffffffffff1673ffffffffffffffffffffffffffffffffffffffff1681526020016006820160149054906101000a900460ff16151515158152505090508060e001516103fe576040517f08c379a00000000000000000000000000000000000000000000000000000000081526004016103f5906134ab565b60405180910390fd5b80608001514211610444576040517f08c379a000000000000000000000000000000000000000000000000000000000815260040161043b9061346b565b60405180910390fd5b8060c0015173ffffffffffffffffffffffffffffffffffffffff163373ffffffffffffffffffffffffffffffffffffffff16146104b6576040517f08c379a00000000000000000000000000000000000000000000000000000000081526004016104ad906133eb565b60405180910390fd5b600260008381526020019081526020016000206000808201600090556001820160006101000a81549073ffffffffffffffffffffffffffffffffffffffff02191690556002820160006101000a81549073ffffffffffffffffffffffffffffffffffffffff02191690556003820160006101000a8154906fffffffffffffffffffffffffffffffff0219169055600482016000905560058201600090556006820160006101000a81549073ffffffffffffffffffffffffffffffffffffffff02191690556006820160146101000a81549060ff021916905550506105f7816040015182606001516fffffffffffffffffffffffffffffffff16600b60009054906101000a900473ffffffffffffffffffffffffffffffffffffffff1673ffffffffffffffffffffffffffffffffffffffff16611d7b9092919063ffffffff16565b600c60009054906101000a900473ffffffffffffffffffffffffffffffffffffffff1673ffffffffffffffffffffffffffffffffffffffff1663cec0564283336040518363ffffffff1660e01b81526004016106549291906134e6565b600060405180830381600087803b15801561066e57600080fd5b505af1158015610682573d6000803e3d6000fd5b505050507f12485b73b7f46b7965f71288f6cd4a65354bafd513ecc4f5a87249258d689eb1828260600151336040516106bd9392919061350f565b60405180910390a15050565b80600760006101000a8154816fffffffffffffffffffffffffffffffff02191690836fffffffffffffffffffffffffffffffff16021790555050565b600c60009054906101000a900473ffffffffffffffffffffffffffffffffffffffff1673ffffffffffffffffffffffffffffffffffffffff16632d8a746e836040518263ffffffff1660e01b815260040161076091906134cb565b602060405180830381600087803b15801561077a57600080fd5b505af115801561078e573d6000803e3d6000fd5b505050506040513d601f19601f820116820180604052508101906107b291906127fe565b73ffffffffffffffffffffffffffffffffffffffff163373ffffffffffffffffffffffffffffffffffffffff161415610820576040517f08c379a00000000000000000000000000000000000000000000000000000000081526004016108179061336b565b60405180910390fd5b6002600083815260200190815260200160002060060160149054906101000a900460ff16610883576040517f08c379a000000000000000000000000000000000000000000000000000000000815260040161087a9061342b565b60405180910390fd5b60006002600084815260200190815260200160002090508060030160009054906101000a90046fffffffffffffffffffffffffffffffff166fffffffffffffffffffffffffffffffff16826fffffffffffffffffffffffffffffffff1611610920576040517f08c379a00000000000000000000000000000000000000000000000000000000081526004016109179061348b565b60405180910390fd5b600073ffffffffffffffffffffffffffffffffffffffff168160060160009054906101000a900473ffffffffffffffffffffffffffffffffffffffff1673ffffffffffffffffffffffffffffffffffffffff1614610a635780600401544211156109bf576040517f08c379a00000000000000000000000000000000000000000000000000000000081526004016109b69061330b565b60405180910390fd5b610a628160060160009054906101000a900473ffffffffffffffffffffffffffffffffffffffff168260030160009054906101000a90046fffffffffffffffffffffffffffffffff166fffffffffffffffffffffffffffffffff16600b60009054906101000a900473ffffffffffffffffffffffffffffffffffffffff1673ffffffffffffffffffffffffffffffffffffffff16611d7b9092919063ffffffff16565b5b610ac43330846fffffffffffffffffffffffffffffffff16600b60009054906101000a900473ffffffffffffffffffffffffffffffffffffffff1673ffffffffffffffffffffffffffffffffffffffff16611e01909392919063ffffffff16565b818160030160006101000a8154816fffffffffffffffffffffffffffffffff02191690836fffffffffffffffffffffffffffffffff160217905550338160060160006101000a81548173ffffffffffffffffffffffffffffffffffffffff021916908373ffffffffffffffffffffffffffffffffffffffff1602179055507f6973eee1bd8795ad6517ca1beda7f43895414fa0f2c47f8ef5d2de343e5ca2ed838333604051610b759392919061350f565b60405180910390a1505050565b600a60009054906101000a900473ffffffffffffffffffffffffffffffffffffffff1673ffffffffffffffffffffffffffffffffffffffff166353971189336040518263ffffffff1660e01b8152600401610bdd91906131e5565b602060405180830381600087803b158015610bf757600080fd5b505af1158015610c0b573d6000803e3d6000fd5b505050506040513d601f19601f82011682018060405250810190610c2f91906128a7565b610c6e576040517f08c379a0000000000000000000000000000000000000000000000000000000008152600401610c659061332b565b60405180910390fd5b6000610c7982611e8a565b90506000600654600560009054906101000a900473ffffffffffffffffffffffffffffffffffffffff1673ffffffffffffffffffffffffffffffffffffffff1663a03c7fdb6040518163ffffffff1660e01b815260040160206040518083038186803b158015610ce857600080fd5b505afa158015610cfc573d6000803e3d6000fd5b505050506040513d601f19601f82011682018060405250810190610d2091906129f8565b610d2a91906136b0565b9050600060065482610d3c919061365a565b905060006040518061010001604052808581526020013373ffffffffffffffffffffffffffffffffffffffff1681526020013373ffffffffffffffffffffffffffffffffffffffff168152602001600760009054906101000a90046fffffffffffffffffffffffffffffffff166fffffffffffffffffffffffffffffffff168152602001838152602001848152602001600073ffffffffffffffffffffffffffffffffffffffff16815260200160011515815250905080600260008681526020019081526020016000206000820151816000015560208201518160010160006101000a81548173ffffffffffffffffffffffffffffffffffffffff021916908373ffffffffffffffffffffffffffffffffffffffff16021790555060408201518160020160006101000a81548173ffffffffffffffffffffffffffffffffffffffff021916908373ffffffffffffffffffffffffffffffffffffffff16021790555060608201518160030160006101000a8154816fffffffffffffffffffffffffffffffff02191690836fffffffffffffffffffffffffffffffff1602179055506080820151816004015560a0820151816005015560c08201518160060160006101000a81548173ffffffffffffffffffffffffffffffffffffffff021916908373ffffffffffffffffffffffffffffffffffffffff16021790555060e08201518160060160146101000a81548160ff021916908315150217905550905050600484908060018154018082558091505060019003906000526020600020016000909190919091505560038490806001815401808255809150506001900390600052602060002001600090919091909150557f7822289774799aa8678cd853654c297b44c198c9b1e1a83a932ec7bf3a85f7e884600760009054906101000a90046fffffffffffffffffffffffffffffffff1660065460405161100093929190613546565b60405180910390a15050505050565b611017611f3d565b73ffffffffffffffffffffffffffffffffffffffff16611035611149565b73ffffffffffffffffffffffffffffffffffffffff161461108b576040517f08c379a0000000000000000000000000000000000000000000000000000000008152600401611082906133cb565b60405180910390fd5b600073ffffffffffffffffffffffffffffffffffffffff1660008054906101000a900473ffffffffffffffffffffffffffffffffffffffff1673ffffffffffffffffffffffffffffffffffffffff167f8be0079c531659141344cd1fd0a4f28419497f9722a3daafe3b4186f6b6457e060405160405180910390a360008060006101000a81548173ffffffffffffffffffffffffffffffffffffffff021916908373ffffffffffffffffffffffffffffffffffffffff160217905550565b60008060009054906101000a900473ffffffffffffffffffffffffffffffffffffffff16905090565b600061117c611f45565b9050600081116111c1576040517f08c379a00000000000000000000000000000000000000000000000000000000081526004016111b8906133ab565b60405180910390fd5b600760009054906101000a90046fffffffffffffffffffffffffffffffff166fffffffffffffffffffffffffffffffff16826fffffffffffffffffffffffffffffffff1611611245576040517f08c379a000000000000000000000000000000000000000000000000000000000815260040161123c9061348b565b60405180910390fd5b6112a63330846fffffffffffffffffffffffffffffffff16600b60009054906101000a900473ffffffffffffffffffffffffffffffffffffffff1673ffffffffffffffffffffffffffffffffffffffff16611e01909392919063ffffffff16565b60006112b184611e8a565b90506000600654600560009054906101000a900473ffffffffffffffffffffffffffffffffffffffff1673ffffffffffffffffffffffffffffffffffffffff1663a03c7fdb6040518163ffffffff1660e01b815260040160206040518083038186803b15801561132057600080fd5b505afa158015611334573d6000803e3d6000fd5b505050506040513d601f19601f8201168201806040525081019061135891906129f8565b61136291906136b0565b9050600060065482611374919061365a565b90506000604051806101000160405280858152602001600860009054906101000a900473ffffffffffffffffffffffffffffffffffffffff1673ffffffffffffffffffffffffffffffffffffffff168152602001600860009054906101000a900473ffffffffffffffffffffffffffffffffffffffff1673ffffffffffffffffffffffffffffffffffffffff168152602001876fffffffffffffffffffffffffffffffff1681526020018381526020018481526020013373ffffffffffffffffffffffffffffffffffffffff16815260200160011515815250905080600260008681526020019081526020016000206000820151816000015560208201518160010160006101000a81548173ffffffffffffffffffffffffffffffffffffffff021916908373ffffffffffffffffffffffffffffffffffffffff16021790555060408201518160020160006101000a81548173ffffffffffffffffffffffffffffffffffffffff021916908373ffffffffffffffffffffffffffffffffffffffff16021790555060608201518160030160006101000a8154816fffffffffffffffffffffffffffffffff02191690836fffffffffffffffffffffffffffffffff1602179055506080820151816004015560a0820151816005015560c08201518160060160006101000a81548173ffffffffffffffffffffffffffffffffffffffff021916908373ffffffffffffffffffffffffffffffffffffffff16021790555060e08201518160060160146101000a81548160ff021916908315150217905550905050600484908060018154018082558091505060019003906000526020600020016000909190919091505560038490806001815401808255809150506001900390600052602060002001600090919091909150557f7822289774799aa8678cd853654c297b44c198c9b1e1a83a932ec7bf3a85f7e884600760009054906101000a90046fffffffffffffffffffffffffffffffff1660065460405161165d93929190613546565b60405180910390a17f6973eee1bd8795ad6517ca1beda7f43895414fa0f2c47f8ef5d2de343e5ca2ed8487336040516116989392919061350f565b60405180910390a150505050505050565b60606000808460ff1667ffffffffffffffff8111156116f1577f4e487b7100000000000000000000000000000000000000000000000000000000600052604160045260246000fd5b60405190808252806020026020018201604052801561172a57816020015b611717612558565b81526020019060019003908161170f5790505b5090506000848660ff1661173e919061370a565b63ffffffff1690506000611750611f45565b9050600081600480549050611765919061365a565b90506000811180156117835750826001826117809190613748565b10155b15611bbb5760005b8860ff16811015611bb95780846117a2919061365a565b6001836117af9190613748565b10156117ba57611bb9565b6117c2612578565b600080600480549050119050600081156117f95783876117e2919061365a565b60016004805490506117f49190613748565b101590505b8180156118035750805b15611a4d57600060048589611818919061365a565b8154811061184f577f4e487b7100000000000000000000000000000000000000000000000000000000600052603260045260246000fd5b906000526020600020015490506002600082815260200190815260200160002060405180610100016040529081600082015481526020016001820160009054906101000a900473ffffffffffffffffffffffffffffffffffffffff1673ffffffffffffffffffffffffffffffffffffffff1673ffffffffffffffffffffffffffffffffffffffff1681526020016002820160009054906101000a900473ffffffffffffffffffffffffffffffffffffffff1673ffffffffffffffffffffffffffffffffffffffff1673ffffffffffffffffffffffffffffffffffffffff1681526020016003820160009054906101000a90046fffffffffffffffffffffffffffffffff166fffffffffffffffffffffffffffffffff166fffffffffffffffffffffffffffffffff16815260200160048201548152602001600582015481526020016006820160009054906101000a900473ffffffffffffffffffffffffffffffffffffffff1673ffffffffffffffffffffffffffffffffffffffff1673ffffffffffffffffffffffffffffffffffffffff1681526020016006820160149054906101000a900460ff1615151515815250509350600073ffffffffffffffffffffffffffffffffffffffff168460c0015173ffffffffffffffffffffffffffffffffffffffff161415611a4757611a4484612018565b93505b50611b56565b60405180610100016040528060008152602001600860009054906101000a900473ffffffffffffffffffffffffffffffffffffffff1673ffffffffffffffffffffffffffffffffffffffff168152602001600860009054906101000a900473ffffffffffffffffffffffffffffffffffffffff1673ffffffffffffffffffffffffffffffffffffffff16815260200160006fffffffffffffffffffffffffffffffff1681526020016000815260200160008152602001600860009054906101000a900473ffffffffffffffffffffffffffffffffffffffff1673ffffffffffffffffffffffffffffffffffffffff168152602001600015158152509250611b5383612018565b92505b611b5f836121c5565b888581518110611b98577f4e487b7100000000000000000000000000000000000000000000000000000000600052603260045260246000fd5b60200260200101819052505050508080611bb19061387d565b91505061178b565b505b838195509550505050509250929050565b60065481565b611bda611f3d565b73ffffffffffffffffffffffffffffffffffffffff16611bf8611149565b73ffffffffffffffffffffffffffffffffffffffff1614611c4e576040517f08c379a0000000000000000000000000000000000000000000000000000000008152600401611c45906133cb565b60405180910390fd5b600073ffffffffffffffffffffffffffffffffffffffff168173ffffffffffffffffffffffffffffffffffffffff161415611cbe576040517f08c379a0000000000000000000000000000000000000000000000000000000008152600401611cb59061334b565b60405180910390fd5b8073ffffffffffffffffffffffffffffffffffffffff1660008054906101000a900473ffffffffffffffffffffffffffffffffffffffff1673ffffffffffffffffffffffffffffffffffffffff167f8be0079c531659141344cd1fd0a4f28419497f9722a3daafe3b4186f6b6457e060405160405180910390a3806000806101000a81548173ffffffffffffffffffffffffffffffffffffffff021916908373ffffffffffffffffffffffffffffffffffffffff16021790555050565b611dfc8363a9059cbb60e01b8484604051602401611d9a929190613237565b604051602081830303815290604052907bffffffffffffffffffffffffffffffffffffffffffffffffffffffff19166020820180517bffffffffffffffffffffffffffffffffffffffffffffffffffffffff83818316178352505050506122c7565b505050565b611e84846323b872dd60e01b858585604051602401611e2293929190613200565b604051602081830303815290604052907bffffffffffffffffffffffffffffffffffffffffffffffffffffffff19166020820180517bffffffffffffffffffffffffffffffffffffffffffffffffffffffff83818316178352505050506122c7565b50505050565b600080611e97600161238e565b9050600960009054906101000a900473ffffffffffffffffffffffffffffffffffffffff1673ffffffffffffffffffffffffffffffffffffffff1663cd279c7c3083866040518463ffffffff1660e01b8152600401611ef893929190613260565b600060405180830381600087803b158015611f1257600080fd5b505af1158015611f26573d6000803e3d6000fd5b50505050611f34600161239c565b80915050919050565b600033905090565b600080600560009054906101000a900473ffffffffffffffffffffffffffffffffffffffff1673ffffffffffffffffffffffffffffffffffffffff166365ac43416040518163ffffffff1660e01b815260040160206040518083038186803b158015611fb057600080fd5b505afa158015611fc4573d6000803e3d6000fd5b505050506040513d601f19601f82011682018060405250810190611fe891906129f8565b90508060038054905010612000576000915050612015565b600380549050816120119190613748565b9150505b90565b612020612578565b6000829050600654600560009054906101000a900473ffffffffffffffffffffffffffffffffffffffff1673ffffffffffffffffffffffffffffffffffffffff1663a03c7fdb6040518163ffffffff1660e01b815260040160206040518083038186803b15801561209057600080fd5b505afa1580156120a4573d6000803e3d6000fd5b505050506040513d601f19601f820116820180604052508101906120c891906129f8565b6120d291906136b0565b8160a00181815250506006548160a001516120ed919061365a565b816080018181525050600760009054906101000a90046fffffffffffffffffffffffffffffffff1681606001906fffffffffffffffffffffffffffffffff1690816fffffffffffffffffffffffffffffffff16815250508060200151816040019073ffffffffffffffffffffffffffffffffffffffff16908173ffffffffffffffffffffffffffffffffffffffff168152505080602001518160c0019073ffffffffffffffffffffffffffffffffffffffff16908173ffffffffffffffffffffffffffffffffffffffff168152505080915050919050565b6121cd612558565b6000604051806040016040528084815260200160405180602001604052806000815250815250905060008360000151146122be57600960009054906101000a900473ffffffffffffffffffffffffffffffffffffffff1673ffffffffffffffffffffffffffffffffffffffff1663c87b56dd84600001516040518263ffffffff1660e01b815260040161226091906134cb565b60006040518083038186803b15801561227857600080fd5b505afa15801561228c573d6000803e3d6000fd5b505050506040513d6000823e3d601f19601f820116820180604052508101906122b59190612911565b81602001819052505b80915050919050565b6000612329826040518060400160405280602081526020017f5361666545524332303a206c6f772d6c6576656c2063616c6c206661696c65648152508573ffffffffffffffffffffffffffffffffffffffff166123b29092919063ffffffff16565b9050600081511115612389578080602001905181019061234991906128a7565b612388576040517f08c379a000000000000000000000000000000000000000000000000000000000815260040161237f9061344b565b60405180910390fd5b5b505050565b600081600001549050919050565b6001816000016000828254019250508190555050565b60606123c184846000856123ca565b90509392505050565b60608247101561240f576040517f08c379a00000000000000000000000000000000000000000000000000000000081526004016124069061338b565b60405180910390fd5b612418856124de565b612457576040517f08c379a000000000000000000000000000000000000000000000000000000000815260040161244e9061340b565b60405180910390fd5b6000808673ffffffffffffffffffffffffffffffffffffffff16858760405161248091906131ce565b60006040518083038185875af1925050503d80600081146124bd576040519150601f19603f3d011682016040523d82523d6000602084013e6124c2565b606091505b50915091506124d28282866124f1565b92505050949350505050565b600080823b905060008111915050919050565b6060831561250157829050612551565b6000835111156125145782518084602001fd5b816040517f08c379a000000000000000000000000000000000000000000000000000000000815260040161254891906132e9565b60405180910390fd5b9392505050565b604051806040016040528061256b612578565b8152602001606081525090565b60405180610100016040528060008152602001600073ffffffffffffffffffffffffffffffffffffffff168152602001600073ffffffffffffffffffffffffffffffffffffffff16815260200160006fffffffffffffffffffffffffffffffff1681526020016000815260200160008152602001600073ffffffffffffffffffffffffffffffffffffffff1681526020016000151581525090565b6000612626612621846135ae565b61357d565b90508281526020810184848401111561263e57600080fd5b61264984828561383b565b509392505050565b600061266461265f846135ae565b61357d565b90508281526020810184848401111561267c57600080fd5b61268784828561384a565b509392505050565b60008135905061269e81613935565b92915050565b6000815190506126b381613935565b92915050565b6000815190506126c88161394c565b92915050565b60008083601f8401126126e057600080fd5b8235905067ffffffffffffffff8111156126f957600080fd5b60208301915083600182028301111561271157600080fd5b9250929050565b600082601f83011261272957600080fd5b8135612739848260208601612613565b91505092915050565b600082601f83011261275357600080fd5b8151612763848260208601612651565b91505092915050565b60008135905061277b81613963565b92915050565b6000813590506127908161397a565b92915050565b6000815190506127a58161397a565b92915050565b6000813590506127ba81613991565b92915050565b6000813590506127cf816139a8565b92915050565b6000602082840312156127e757600080fd5b60006127f58482850161268f565b91505092915050565b60006020828403121561281057600080fd5b600061281e848285016126a4565b91505092915050565b60008060008060006080868803121561283f57600080fd5b600061284d8882890161268f565b955050602061285e8882890161268f565b945050604061286f88828901612781565b935050606086013567ffffffffffffffff81111561288c57600080fd5b612898888289016126ce565b92509250509295509295909350565b6000602082840312156128b957600080fd5b60006128c7848285016126b9565b91505092915050565b6000602082840312156128e257600080fd5b600082013567ffffffffffffffff8111156128fc57600080fd5b61290884828501612718565b91505092915050565b60006020828403121561292357600080fd5b600082015167ffffffffffffffff81111561293d57600080fd5b61294984828501612742565b91505092915050565b6000806040838503121561296557600080fd5b600083013567ffffffffffffffff81111561297f57600080fd5b61298b85828601612718565b925050602061299c8582860161276c565b9150509250929050565b6000602082840312156129b857600080fd5b60006129c68482850161276c565b91505092915050565b6000602082840312156129e157600080fd5b60006129ef84828501612781565b91505092915050565b600060208284031215612a0a57600080fd5b6000612a1884828501612796565b91505092915050565b60008060408385031215612a3457600080fd5b6000612a4285828601612781565b9250506020612a538582860161276c565b9150509250929050565b60008060408385031215612a7057600080fd5b6000612a7e858286016127c0565b9250506020612a8f858286016127ab565b9150509250929050565b6000612aa58383613153565b905092915050565b612ab68161377c565b82525050565b612ac58161377c565b82525050565b6000612ad6826135ee565b612ae0818561361c565b935083602082028501612af2856135de565b8060005b85811015612b2e5784840389528151612b0f8582612a99565b9450612b1a8361360f565b925060208a01995050600181019050612af6565b50829750879550505050505092915050565b612b498161378e565b82525050565b612b588161379a565b82525050565b6000612b69826135f9565b612b73818561362d565b9350612b8381856020860161384a565b80840191505092915050565b6000612b9a82613604565b612ba48185613638565b9350612bb481856020860161384a565b612bbd81613924565b840191505092915050565b6000612bd382613604565b612bdd8185613649565b9350612bed81856020860161384a565b612bf681613924565b840191505092915050565b6000612c0e601983613649565b91507f4e465441756374696f6e3a20616c726561647920656e646564000000000000006000830152602082019050919050565b6000612c4e603183613649565b91507f4e465441756374696f6e3a2054686572652069736e277420616e792063616e7660008301527f617320696e20796f75722077616c6c65740000000000000000000000000000006020830152604082019050919050565b6000612cb4602683613649565b91507f4f776e61626c653a206e6577206f776e657220697320746865207a65726f206160008301527f64647265737300000000000000000000000000000000000000000000000000006020830152604082019050919050565b6000612d1a602583613649565b91507f4e465441756374696f6e3a20596f757227726520616c7265616479207468652060008301527f6f776e65720000000000000000000000000000000000000000000000000000006020830152604082019050919050565b6000612d80602683613649565b91507f416464726573733a20696e73756666696369656e742062616c616e636520666f60008301527f722063616c6c00000000000000000000000000000000000000000000000000006020830152604082019050919050565b6000612de6601783613649565b91507f4e465441756374696f6e3a20496e76616c6964204e46540000000000000000006000830152602082019050919050565b6000612e26602083613649565b91507f4f776e61626c653a2063616c6c6572206973206e6f7420746865206f776e65726000830152602082019050919050565b6000612e66602983613649565b91507f4e465441756374696f6e3a20596f75277265206e6f742074686520686967686560008301527f73742062696464657200000000000000000000000000000000000000000000006020830152604082019050919050565b6000612ecc601d83613649565b91507f416464726573733a2063616c6c20746f206e6f6e2d636f6e74726163740000006000830152602082019050919050565b6000612f0c602a83613649565b91507f4e465441756374696f6e3a20486176656e2774206c697374656420666f72206160008301527f756374696f6e20796574000000000000000000000000000000000000000000006020830152604082019050919050565b6000612f72602a83613649565b91507f5361666545524332303a204552433230206f7065726174696f6e20646964206e60008301527f6f742073756363656564000000000000000000000000000000000000000000006020830152604082019050919050565b6000612fd8602383613649565b91507f4e465441756374696f6e3a2041756374696f6e206973206e6f74206f7665722060008301527f79657400000000000000000000000000000000000000000000000000000000006020830152604082019050919050565b600061303e601983613649565b91507f4e465441756374696f6e3a20707269636520746f6f206c6f77000000000000006000830152602082019050919050565b600061307e601d83613649565b91507f4e465441756374696f6e3a2041756374696f6e20756e637265617465640000006000830152602082019050919050565b610100820160008201516130c860008501826131b0565b5060208201516130db6020850182612aad565b5060408201516130ee6040850182612aad565b5060608201516131016060850182613192565b50608082015161311460808501826131b0565b5060a082015161312760a08501826131b0565b5060c082015161313a60c0850182612aad565b5060e082015161314d60e0850182612b40565b50505050565b60006101208301600083015161316c60008601826130b1565b5060208301518482036101008601526131858282612b8f565b9150508091505092915050565b61319b816137c6565b82525050565b6131aa81613829565b82525050565b6131b981613802565b82525050565b6131c881613802565b82525050565b60006131da8284612b5e565b915081905092915050565b60006020820190506131fa6000830184612abc565b92915050565b60006060820190506132156000830186612abc565b6132226020830185612abc565b61322f60408301846131bf565b949350505050565b600060408201905061324c6000830185612abc565b61325960208301846131bf565b9392505050565b60006060820190506132756000830186612abc565b61328260208301856131bf565b81810360408301526132948184612bc8565b9050949350505050565b600060408201905081810360008301526132b88185612acb565b90506132c760208301846131bf565b9392505050565b60006020820190506132e36000830184612b4f565b92915050565b600060208201905081810360008301526133038184612bc8565b905092915050565b6000602082019050818103600083015261332481612c01565b9050919050565b6000602082019050818103600083015261334481612c41565b9050919050565b6000602082019050818103600083015261336481612ca7565b9050919050565b6000602082019050818103600083015261338481612d0d565b9050919050565b600060208201905081810360008301526133a481612d73565b9050919050565b600060208201905081810360008301526133c481612dd9565b9050919050565b600060208201905081810360008301526133e481612e19565b9050919050565b6000602082019050818103600083015261340481612e59565b9050919050565b6000602082019050818103600083015261342481612ebf565b9050919050565b6000602082019050818103600083015261344481612eff565b9050919050565b6000602082019050818103600083015261346481612f65565b9050919050565b6000602082019050818103600083015261348481612fcb565b9050919050565b600060208201905081810360008301526134a481613031565b9050919050565b600060208201905081810360008301526134c481613071565b9050919050565b60006020820190506134e060008301846131bf565b92915050565b60006040820190506134fb60008301856131bf565b6135086020830184612abc565b9392505050565b600060608201905061352460008301866131bf565b61353160208301856131a1565b61353e6040830184612abc565b949350505050565b600060608201905061355b60008301866131bf565b61356860208301856131a1565b61357560408301846131bf565b949350505050565b6000604051905081810181811067ffffffffffffffff821117156135a4576135a36138f5565b5b8060405250919050565b600067ffffffffffffffff8211156135c9576135c86138f5565b5b601f19601f8301169050602081019050919050565b6000819050602082019050919050565b600081519050919050565b600081519050919050565b600081519050919050565b6000602082019050919050565b600082825260208201905092915050565b600081905092915050565b600082825260208201905092915050565b600082825260208201905092915050565b600061366582613802565b915061367083613802565b9250827fffffffffffffffffffffffffffffffffffffffffffffffffffffffffffffffff038211156136a5576136a46138c6565b5b828201905092915050565b60006136bb82613802565b91506136c683613802565b9250817fffffffffffffffffffffffffffffffffffffffffffffffffffffffffffffffff04831182151516156136ff576136fe6138c6565b5b828202905092915050565b60006137158261380c565b91506137208361380c565b92508163ffffffff048311821515161561373d5761373c6138c6565b5b828202905092915050565b600061375382613802565b915061375e83613802565b925082821015613771576137706138c6565b5b828203905092915050565b6000613787826137e2565b9050919050565b60008115159050919050565b60007fffffffff0000000000000000000000000000000000000000000000000000000082169050919050565b60006fffffffffffffffffffffffffffffffff82169050919050565b600073ffffffffffffffffffffffffffffffffffffffff82169050919050565b6000819050919050565b600063ffffffff82169050919050565b600060ff82169050919050565b6000613834826137c6565b9050919050565b82818337600083830152505050565b60005b8381101561386857808201518184015260208101905061384d565b83811115613877576000848401525b50505050565b600061388882613802565b91507fffffffffffffffffffffffffffffffffffffffffffffffffffffffffffffffff8214156138bb576138ba6138c6565b5b600182019050919050565b7f4e487b7100000000000000000000000000000000000000000000000000000000600052601160045260246000fd5b7f4e487b7100000000000000000000000000000000000000000000000000000000600052604160045260246000fd5b6000601f19601f8301169050919050565b61393e8161377c565b811461394957600080fd5b50565b6139558161378e565b811461396057600080fd5b50565b61396c816137c6565b811461397757600080fd5b50565b61398381613802565b811461398e57600080fd5b50565b61399a8161380c565b81146139a557600080fd5b50565b6139b18161381c565b81146139bc57600080fd5b5056fea26469706673582212206ac6bc1c481024dc0271b17e719751504489b37df059ee297ebfe513c411cdeb64736f6c63430008000033",
  "immutableReferences": {},
  "source": "// SPDX-License-Identifier: GPL-3.0\npragma solidity ^0.8.0;\n\nimport \"@openzeppelin/contracts/access/Ownable.sol\";\nimport \"@openzeppelin/contracts/utils/Counters.sol\";\nimport \"@openzeppelin/contracts/token/ERC20/IERC20.sol\";\nimport \"@openzeppelin/contracts/token/ERC721/IERC721Receiver.sol\";\nimport \"@openzeppelin/contracts/token/ERC721/IERC721.sol\";\nimport \"@openzeppelin/contracts/token/ERC20/utils/SafeERC20.sol\";\nimport \"./interface/IPeriod.sol\";\nimport \"./interface/ICoinBidCreation.sol\";\nimport \"./interface/ICanvasAuction.sol\";\nimport \"./interface/IMining.sol\";\n\ncontract NFTAuction is Ownable, IERC721Receiver {\n\n    using SafeERC20 for IERC20;\n    using Counters for Counters.Counter;\n\n    // auto increament.\n    Counters.Counter private _tokenIdCounter;\n\n    // Represents an auction on an NFT\n    struct Auction {\n\n        uint tokenId;\n        // \n        address belongsTo;\n        // Current owner of NFT\n        address seller;\n        uint128 lastPrice;\n        // Time when auction ended\n        uint endAt;\n        // Time when auction started\n        uint startedAt;\n        address lastBidder;\n        bool used;\n    }\n\n    struct NFTInfo {\n        Auction auction;\n        string tokenURI;\n    }\n\n    // Map from NFT ID to their corresponding auction.\n    mapping (uint256 => Auction) nftIdToAuction;\n\n    uint[] nftArr;\n    uint[] nftInAuctionArr;\n\n    IPeriod nftFactory;\n\n    // \n    uint public period;\n\n    // \n    uint128 internal defaultPrice;\n\n    // Trust fund pool\n    address pool;\n\n    ICoinBidCreation internal nft;\n    ICanvasAuction internal canvasAuction;\n\n    // TODO set value\n    IERC20 tokenToPay;\n    uint8 tokenToPayDecimals = 18;\n\n    IMining mining;\n\n    event NFTAuctionCreated(uint nftId, uint256 startingPrice, uint256 duration);\n    event NFTAuctionBid(uint nftId, uint256 bidPrice, address bidder);\n    event NFTAuctionEnded(uint nftId, uint price, address buyer);\n\n    constructor(address _nftFactory, address _tokenToPay, address _pool, \n                address _nft, address _mining, address _canvasAuction, uint128 _defaultPrice) {\n        nftFactory = IPeriod(_nftFactory);\n        period = nftFactory.getPeriod();\n        tokenToPay = IERC20(_tokenToPay);\n        pool = _pool;\n        nft = ICoinBidCreation(_nft);\n        mining = IMining(_mining);\n        canvasAuction = ICanvasAuction(_canvasAuction);\n        defaultPrice = _defaultPrice;\n    }\n\n    function getNFTInAuction(uint8 _amountPerPage, uint32 _page) public view returns(NFTInfo[] memory, uint) {\n        NFTInfo[] memory arr = new NFTInfo[](_amountPerPage);\n        uint startPoint = _amountPerPage * _page;\n        // uninstanted amount.\n        uint rawAmount = getUninstantedAmount();\n        uint totalLength = nftInAuctionArr.length + rawAmount;\n        if((totalLength > 0) && ((totalLength - 1) >= startPoint)) {\n            for(uint i = 0; i < _amountPerPage; i++) {\n                if((totalLength - 1) < (startPoint + i)) {\n                    break;\n                }\n\n                Auction memory auction;\n                bool a = nftInAuctionArr.length > 0;\n                bool b = false;\n                if(a) {\n                    b = (nftInAuctionArr.length - 1) >= (startPoint + i);\n                }\n                if(a && b) {\n                    uint index = nftInAuctionArr[startPoint + i];\n                    auction = nftIdToAuction[index];\n                    // no bid yet.\n                    if(auction.lastBidder == address(0)) {\n                        auction = getNoBidAuction(auction);\n                    }\n                } else {\n                    // \n                    auction = Auction(0, pool, pool, 0, 0, 0, pool, false);\n                    auction = getNoBidAuction(auction);\n                }\n                arr[i] = getNfTInfo(auction);\n            }\n        }\n        return (arr, totalLength);\n    }\n\n    function getNoBidAuction(Auction memory _auction) private view returns(Auction memory) {\n        Auction memory auction = _auction;\n        auction.startedAt = nftFactory.getCurPeriod() * period;\n        auction.endAt = auction.startedAt + period;\n        auction.lastPrice = defaultPrice;\n        auction.seller = auction.belongsTo;\n        auction.lastBidder = auction.belongsTo;\n        return auction;\n    }\n\n    function getNfTInfo(Auction memory _auction) private view returns(NFTInfo memory) {\n        NFTInfo memory info = NFTInfo(_auction, \"\");\n        if(_auction.tokenId != 0) {\n            info.tokenURI = nft.tokenURI(_auction.tokenId);\n        }\n        return info;\n    }\n\n    function getUninstantedAmount() internal view returns(uint) {\n        uint total = nftFactory.getTotalAmount();\n        if(nftArr.length >= total) {\n            return 0;\n        }\n        return total - nftArr.length;\n    }\n\n    function bidUninstanted(string memory _tokenURI, uint128 _price) public {\n        uint amount = getUninstantedAmount();\n        require(amount > 0, \"NFTAuction: Invalid NFT\");\n        require(_price > defaultPrice, \"NFTAuction: price too low\");\n\n        tokenToPay.safeTransferFrom(msg.sender, address(this), _price);\n\n        uint tokenId = createNFT(_tokenURI);\n\n        uint startedAt = nftFactory.getCurPeriod() * period;\n        uint endAt = startedAt + period;\n        Auction memory auction = Auction(tokenId, pool, pool, _price, endAt, startedAt, msg.sender, true);\n        nftIdToAuction[tokenId] = auction;\n        nftInAuctionArr.push(tokenId);\n        nftArr.push(tokenId);\n\n        emit NFTAuctionCreated(tokenId, defaultPrice, period);\n        emit NFTAuctionBid(tokenId, _price, msg.sender);\n    }\n\n    // NFT\n    function createNFTByCanvas(string memory _tokenURI) public {\n        require(canvasAuction.popOne(msg.sender), \"NFTAuction: There isn't any canvas in your wallet\");\n        uint tokenId = createNFT(_tokenURI);\n\n        uint startedAt = nftFactory.getCurPeriod() * period;\n        uint endAt = startedAt + period;\n        Auction memory auction = Auction(tokenId, msg.sender, msg.sender, defaultPrice, endAt, startedAt, address(0), true);\n        nftIdToAuction[tokenId] = auction;\n        nftInAuctionArr.push(tokenId);\n        nftArr.push(tokenId);\n\n        emit NFTAuctionCreated(tokenId, defaultPrice, period);\n    }\n\n    // NFT\n    function createNFT(string memory _tokenURI) private returns(uint) {\n        uint id = _tokenIdCounter.current();\n        nft.safeMint(address(this), id, _tokenURI);\n        _tokenIdCounter.increment();\n        return id;\n    }\n\n    function bid(uint _tokenId, uint128 _price) external {\n        require(msg.sender != mining.ownerOfNFT(_tokenId), \"NFTAuction: Your're already the owner\");\n        require(nftIdToAuction[_tokenId].used, \"NFTAuction: Haven't listed for auction yet\");\n        Auction storage auction = nftIdToAuction[_tokenId];\n        require(_price > auction.lastPrice, \"NFTAuction: price too low\");\n        // Already bided\n        if(auction.lastBidder != address(0)) {\n            require(block.timestamp <= auction.endAt, \"NFTAuction: already ended\");\n            tokenToPay.safeTransfer(auction.lastBidder, auction.lastPrice);\n        }\n\n        tokenToPay.safeTransferFrom(msg.sender, address(this), _price);\n\n        auction.lastPrice = _price;\n        auction.lastBidder = msg.sender;\n        \n        emit NFTAuctionBid(_tokenId, _price, msg.sender);\n    }\n\n    function auctionEnd(uint _tokenId) public {\n        Auction memory auction = nftIdToAuction[_tokenId];\n\n        require(auction.used, \"NFTAuction: Auction uncreated\");\n        require(block.timestamp > auction.endAt, \"NFTAuction: Auction is not over yet\");\n        require(msg.sender == auction.lastBidder, \"NFTAuction: You're not the highest bidder\");\n\n        delete nftIdToAuction[_tokenId];\n\n        tokenToPay.safeTransfer(auction.seller, auction.lastPrice);\n        mining.transferCreation(_tokenId, msg.sender);\n        emit NFTAuctionEnded(_tokenId, auction.lastPrice, msg.sender);\n    }\n\n    function setDefaultPrice(uint128 _price) public {\n        defaultPrice = _price;\n    }\n\n    function onERC721Received(address operator, address from, uint256 tokenId, bytes calldata data)\n            override external pure returns (bytes4) {\n        return this.onERC721Received.selector;\n    }\n\n    // function setFactory(address _factory) public onlyOwner {\n    //     nftFactory = IPeriod(_factory);\n    // }\n}",
  "sourcePath": "/Users/iwan/code/coinbid-cointract/contracts/7_NFTAuction.sol",
  "compiler": {
    "name": "solc",
    "version": "0.8.0+commit.c7dfd78e.Emscripten.clang"
  },
  "schemaVersion": "3.4.1",
  "updatedAt": "2021-06-27T16:02:17.897Z",
  "networkType": "ethereum",
  "devdoc": {
    "kind": "dev",
    "methods": {
      "onERC721Received(address,address,uint256,bytes)": {
        "details": "Whenever an {IERC721} `tokenId` token is transferred to this contract via {IERC721-safeTransferFrom} by `operator` from `from`, this function is called. It must return its Solidity selector to confirm the token transfer. If any other value is returned or the interface is not implemented by the recipient, the transfer will be reverted. The selector can be obtained in Solidity with `IERC721.onERC721Received.selector`."
      },
      "owner()": {
        "details": "Returns the address of the current owner."
      },
      "renounceOwnership()": {
        "details": "Leaves the contract without owner. It will not be possible to call `onlyOwner` functions anymore. Can only be called by the current owner. NOTE: Renouncing ownership will leave the contract without an owner, thereby removing any functionality that is only available to the owner."
      },
      "transferOwnership(address)": {
        "details": "Transfers ownership of the contract to a new account (`newOwner`). Can only be called by the current owner."
      }
    },
    "version": 1
  },
  "userdoc": {
    "kind": "user",
    "methods": {},
    "version": 1
  }
}