{
  "contractName": "NFTFactory",
  "abi": [
    {
      "inputs": [
        {
          "internalType": "uint256",
          "name": "_period",
          "type": "uint256"
        },
        {
          "internalType": "uint16",
          "name": "_amountPerPeriod",
          "type": "uint16"
        }
      ],
      "stateMutability": "nonpayable",
      "type": "constructor"
    },
    {
      "anonymous": false,
      "inputs": [
        {
          "indexed": true,
          "internalType": "address",
          "name": "previousOwner",
          "type": "address"
        },
        {
          "indexed": true,
          "internalType": "address",
          "name": "newOwner",
          "type": "address"
        }
      ],
      "name": "OwnershipTransferred",
      "type": "event"
    },
    {
      "inputs": [],
      "name": "owner",
      "outputs": [
        {
          "internalType": "address",
          "name": "",
          "type": "address"
        }
      ],
      "stateMutability": "view",
      "type": "function",
      "constant": true
    },
    {
      "inputs": [],
      "name": "renounceOwnership",
      "outputs": [],
      "stateMutability": "nonpayable",
      "type": "function"
    },
    {
      "inputs": [
        {
          "internalType": "address",
          "name": "newOwner",
          "type": "address"
        }
      ],
      "name": "transferOwnership",
      "outputs": [],
      "stateMutability": "nonpayable",
      "type": "function"
    },
    {
      "inputs": [],
      "name": "getTotalAmount",
      "outputs": [
        {
          "internalType": "uint256",
          "name": "",
          "type": "uint256"
        }
      ],
      "stateMutability": "view",
      "type": "function",
      "constant": true
    },
    {
      "inputs": [],
      "name": "getCurPeriod",
      "outputs": [
        {
          "internalType": "uint256",
          "name": "",
          "type": "uint256"
        }
      ],
      "stateMutability": "view",
      "type": "function",
      "constant": true
    },
    {
      "inputs": [],
      "name": "getCurPeriodStartAt",
      "outputs": [
        {
          "internalType": "uint256",
          "name": "",
          "type": "uint256"
        }
      ],
      "stateMutability": "view",
      "type": "function",
      "constant": true
    },
    {
      "inputs": [],
      "name": "getPeriod",
      "outputs": [
        {
          "internalType": "uint256",
          "name": "",
          "type": "uint256"
        }
      ],
      "stateMutability": "view",
      "type": "function",
      "constant": true
    },
    {
      "inputs": [],
      "name": "getPeriodStart",
      "outputs": [
        {
          "internalType": "uint256",
          "name": "",
          "type": "uint256"
        }
      ],
      "stateMutability": "view",
      "type": "function",
      "constant": true
    },
    {
      "inputs": [],
      "name": "getAmountPerPeriod",
      "outputs": [
        {
          "internalType": "uint16",
          "name": "",
          "type": "uint16"
        }
      ],
      "stateMutability": "view",
      "type": "function",
      "constant": true
    },
    {
      "inputs": [
        {
          "internalType": "uint256",
          "name": "_periodId",
          "type": "uint256"
        }
      ],
      "name": "startTimeAt",
      "outputs": [
        {
          "internalType": "uint256",
          "name": "",
          "type": "uint256"
        }
      ],
      "stateMutability": "view",
      "type": "function",
      "constant": true
    }
  ],
  "bytecode": "0x608060405234801561001057600080fd5b50604051610ba6380380610ba683398181016040528101906100329190610144565b600061004261011260201b60201c565b9050806000806101000a81548173ffffffffffffffffffffffffffffffffffffffff021916908373ffffffffffffffffffffffffffffffffffffffff1602179055508073ffffffffffffffffffffffffffffffffffffffff16600073ffffffffffffffffffffffffffffffffffffffff167f8be0079c531659141344cd1fd0a4f28419497f9722a3daafe3b4186f6b6457e060405160405180910390a350816001819055504260028190555080600360006101000a81548161ffff021916908361ffff16021790555050506101c6565b600033905090565b60008151905061012981610198565b92915050565b60008151905061013e816101af565b92915050565b6000806040838503121561015757600080fd5b60006101658582860161012f565b92505060206101768582860161011a565b9150509250929050565b600061ffff82169050919050565b6000819050919050565b6101a181610180565b81146101ac57600080fd5b50565b6101b88161018e565b81146101c357600080fd5b50565b6109d1806101d56000396000f3fe608060405234801561001057600080fd5b506004361061009e5760003560e01c8063715018a611610066578063715018a61461014b5780638da5cb5b14610155578063a03c7fdb14610173578063d50ff49714610191578063f2fde38b146101af5761009e565b806319015a75146100a35780631ed24195146100d357806329c234df146100f1578063622962231461010f57806365ac43411461012d575b600080fd5b6100bd60048036038101906100b89190610612565b6101cb565b6040516100ca9190610784565b60405180910390f35b6100db6101ef565b6040516100e89190610784565b60405180910390f35b6100f96101f9565b6040516101069190610784565b60405180910390f35b610117610203565b6040516101249190610784565b60405180910390f35b610135610225565b6040516101429190610784565b60405180910390f35b610153610271565b005b61015d6103ab565b60405161016a919061070e565b60405180910390f35b61017b6103d4565b6040516101889190610784565b60405180910390f35b6101996103f6565b6040516101a69190610769565b60405180910390f35b6101c960048036038101906101c491906105e9565b61040e565b005b6000600254600154836101de9190610837565b6101e891906107b0565b9050919050565b6000600154905090565b6000600254905090565b60008061020e6103d4565b9050600061021b826101cb565b9050809250505090565b6000600360009054906101000a900461ffff1661ffff16600180546002544261024e9190610891565b6102589190610806565b61026291906107b0565b61026c9190610837565b905090565b6102796105b7565b73ffffffffffffffffffffffffffffffffffffffff166102976103ab565b73ffffffffffffffffffffffffffffffffffffffff16146102ed576040517f08c379a00000000000000000000000000000000000000000000000000000000081526004016102e490610749565b60405180910390fd5b600073ffffffffffffffffffffffffffffffffffffffff1660008054906101000a900473ffffffffffffffffffffffffffffffffffffffff1673ffffffffffffffffffffffffffffffffffffffff167f8be0079c531659141344cd1fd0a4f28419497f9722a3daafe3b4186f6b6457e060405160405180910390a360008060006101000a81548173ffffffffffffffffffffffffffffffffffffffff021916908373ffffffffffffffffffffffffffffffffffffffff160217905550565b60008060009054906101000a900473ffffffffffffffffffffffffffffffffffffffff16905090565b6000600154600254426103e79190610891565b6103f19190610806565b905090565b6000600360009054906101000a900461ffff16905090565b6104166105b7565b73ffffffffffffffffffffffffffffffffffffffff166104346103ab565b73ffffffffffffffffffffffffffffffffffffffff161461048a576040517f08c379a000000000000000000000000000000000000000000000000000000000815260040161048190610749565b60405180910390fd5b600073ffffffffffffffffffffffffffffffffffffffff168173ffffffffffffffffffffffffffffffffffffffff1614156104fa576040517f08c379a00000000000000000000000000000000000000000000000000000000081526004016104f190610729565b60405180910390fd5b8073ffffffffffffffffffffffffffffffffffffffff1660008054906101000a900473ffffffffffffffffffffffffffffffffffffffff1673ffffffffffffffffffffffffffffffffffffffff167f8be0079c531659141344cd1fd0a4f28419497f9722a3daafe3b4186f6b6457e060405160405180910390a3806000806101000a81548173ffffffffffffffffffffffffffffffffffffffff021916908373ffffffffffffffffffffffffffffffffffffffff16021790555050565b600033905090565b6000813590506105ce8161096d565b92915050565b6000813590506105e381610984565b92915050565b6000602082840312156105fb57600080fd5b6000610609848285016105bf565b91505092915050565b60006020828403121561062457600080fd5b6000610632848285016105d4565b91505092915050565b610644816108c5565b82525050565b600061065760268361079f565b91507f4f776e61626c653a206e6577206f776e657220697320746865207a65726f206160008301527f64647265737300000000000000000000000000000000000000000000000000006020830152604082019050919050565b60006106bd60208361079f565b91507f4f776e61626c653a2063616c6c6572206973206e6f7420746865206f776e65726000830152602082019050919050565b6106f9816108d7565b82525050565b61070881610905565b82525050565b6000602082019050610723600083018461063b565b92915050565b600060208201905081810360008301526107428161064a565b9050919050565b60006020820190508181036000830152610762816106b0565b9050919050565b600060208201905061077e60008301846106f0565b92915050565b600060208201905061079960008301846106ff565b92915050565b600082825260208201905092915050565b60006107bb82610905565b91506107c683610905565b9250827fffffffffffffffffffffffffffffffffffffffffffffffffffffffffffffffff038211156107fb576107fa61090f565b5b828201905092915050565b600061081182610905565b915061081c83610905565b92508261082c5761082b61093e565b5b828204905092915050565b600061084282610905565b915061084d83610905565b9250817fffffffffffffffffffffffffffffffffffffffffffffffffffffffffffffffff04831182151516156108865761088561090f565b5b828202905092915050565b600061089c82610905565b91506108a783610905565b9250828210156108ba576108b961090f565b5b828203905092915050565b60006108d0826108e5565b9050919050565b600061ffff82169050919050565b600073ffffffffffffffffffffffffffffffffffffffff82169050919050565b6000819050919050565b7f4e487b7100000000000000000000000000000000000000000000000000000000600052601160045260246000fd5b7f4e487b7100000000000000000000000000000000000000000000000000000000600052601260045260246000fd5b610976816108c5565b811461098157600080fd5b50565b61098d81610905565b811461099857600080fd5b5056fea26469706673582212201a74162ad465322a66fd4b697be622e94c8e89ccd5b2bbb721a7afac2001a46e64736f6c63430008000033",
  "immutableReferences": {},
  "source": "// SPDX-License-Identifier: GPL-3.0\npragma solidity ^0.8.0;\n\nimport \"@openzeppelin/contracts/access/Ownable.sol\";\nimport \"./interface/IPeriod.sol\";\n\ncontract NFTFactory is Ownable, IPeriod {\n\n    uint private period;\n    uint private periodStart;\n    uint16 private amountPerPeriod;\n\n    constructor(uint _period/*, uint _periodStart*/, uint16 _amountPerPeriod) {\n        period = _period;\n        periodStart = block.timestamp;//_periodStart;\n        amountPerPeriod = _amountPerPeriod;\n    }\n\n    function getTotalAmount() override public view returns(uint) {\n        return ((block.timestamp - periodStart) / period + 1) * amountPerPeriod;\n    }\n\n    // get the current period id\n    function getCurPeriod() override public view returns(uint) {\n        return (block.timestamp - periodStart) / period;\n    }\n\n    function getCurPeriodStartAt() override public view returns(uint) {\n        uint curPeriod = getCurPeriod();\n        uint startAt = startTimeAt(curPeriod);\n        return startAt;\n    }\n\n    function getPeriod() override external view returns(uint) {\n        return period;\n    }\n\n    function getPeriodStart() override external view returns(uint) {\n        return periodStart;\n    }\n\n    function getAmountPerPeriod() override external view returns(uint16) {\n        return amountPerPeriod;\n    }\n\n    // get the start time of a period.\n    function startTimeAt(uint _periodId) public view returns(uint) {\n        return _periodId * period + periodStart;\n    }\n\n    // to check if the canvas id and period id are valid.\n    // function checkValid(uint _canvasId, uint _periodId) public view returns(bool) {\n    //     if(_canvasId <= 0 || _periodId == 0) {\n    //         return false;\n    //     }\n\n    //     uint currPeriod = getCurPeriod();\n    //     if(_periodId > currPeriod) {\n    //         return false;\n    //     }\n    //     // TODO....\n\n    //     return true;\n    // }\n\n}",
  "sourcePath": "/Users/iwan/code/coinbid-cointract/contracts/4_NFTFactory.sol",
  "compiler": {
    "name": "solc",
    "version": "0.8.0+commit.c7dfd78e.Emscripten.clang"
  },
  "schemaVersion": "3.4.1",
  "updatedAt": "2021-07-07T19:08:24.805Z",
  "networkType": "ethereum",
  "devdoc": {
    "kind": "dev",
    "methods": {
      "owner()": {
        "details": "Returns the address of the current owner."
      },
      "renounceOwnership()": {
        "details": "Leaves the contract without owner. It will not be possible to call `onlyOwner` functions anymore. Can only be called by the current owner. NOTE: Renouncing ownership will leave the contract without an owner, thereby removing any functionality that is only available to the owner."
      },
      "transferOwnership(address)": {
        "details": "Transfers ownership of the contract to a new account (`newOwner`). Can only be called by the current owner."
      }
    },
    "version": 1
  },
  "userdoc": {
    "kind": "user",
    "methods": {},
    "version": 1
  }
}