{
  "contractName": "NFTSwap",
  "abi": [
    {
      "inputs": [
        {
          "internalType": "address",
          "name": "_tokenToPay",
          "type": "address"
        },
        {
          "internalType": "address",
          "name": "_cbdBuybackPool",
          "type": "address"
        },
        {
          "internalType": "address",
          "name": "_nft",
          "type": "address"
        },
        {
          "internalType": "address",
          "name": "_mining",
          "type": "address"
        }
      ],
      "stateMutability": "nonpayable",
      "type": "constructor"
    },
    {
      "anonymous": false,
      "inputs": [
        {
          "indexed": false,
          "internalType": "uint256",
          "name": "_tokenId",
          "type": "uint256"
        },
        {
          "indexed": false,
          "internalType": "address",
          "name": "_seller",
          "type": "address"
        },
        {
          "indexed": false,
          "internalType": "uint256",
          "name": "_price",
          "type": "uint256"
        },
        {
          "indexed": false,
          "internalType": "address",
          "name": "_buyer",
          "type": "address"
        }
      ],
      "name": "NFTOrderBought",
      "type": "event"
    },
    {
      "anonymous": false,
      "inputs": [
        {
          "indexed": false,
          "internalType": "uint256",
          "name": "_tokenId",
          "type": "uint256"
        },
        {
          "indexed": false,
          "internalType": "address",
          "name": "_seller",
          "type": "address"
        },
        {
          "indexed": false,
          "internalType": "uint256",
          "name": "_price",
          "type": "uint256"
        }
      ],
      "name": "NFTOrderCanceled",
      "type": "event"
    },
    {
      "anonymous": false,
      "inputs": [
        {
          "indexed": false,
          "internalType": "uint256",
          "name": "_tokenId",
          "type": "uint256"
        },
        {
          "indexed": false,
          "internalType": "address",
          "name": "_seller",
          "type": "address"
        },
        {
          "indexed": false,
          "internalType": "uint256",
          "name": "_price",
          "type": "uint256"
        }
      ],
      "name": "NFTOrderCreated",
      "type": "event"
    },
    {
      "anonymous": false,
      "inputs": [
        {
          "indexed": false,
          "internalType": "uint256",
          "name": "_tokenId",
          "type": "uint256"
        },
        {
          "indexed": false,
          "internalType": "uint256",
          "name": "_price",
          "type": "uint256"
        }
      ],
      "name": "NFTOrderUpdate",
      "type": "event"
    },
    {
      "anonymous": false,
      "inputs": [
        {
          "indexed": true,
          "internalType": "address",
          "name": "previousOwner",
          "type": "address"
        },
        {
          "indexed": true,
          "internalType": "address",
          "name": "newOwner",
          "type": "address"
        }
      ],
      "name": "OwnershipTransferred",
      "type": "event"
    },
    {
      "inputs": [],
      "name": "owner",
      "outputs": [
        {
          "internalType": "address",
          "name": "",
          "type": "address"
        }
      ],
      "stateMutability": "view",
      "type": "function",
      "constant": true
    },
    {
      "inputs": [],
      "name": "renounceOwnership",
      "outputs": [],
      "stateMutability": "nonpayable",
      "type": "function"
    },
    {
      "inputs": [
        {
          "internalType": "address",
          "name": "newOwner",
          "type": "address"
        }
      ],
      "name": "transferOwnership",
      "outputs": [],
      "stateMutability": "nonpayable",
      "type": "function"
    },
    {
      "inputs": [],
      "name": "getOrders",
      "outputs": [
        {
          "components": [
            {
              "components": [
                {
                  "internalType": "uint256",
                  "name": "tokenId",
                  "type": "uint256"
                },
                {
                  "internalType": "address",
                  "name": "creator",
                  "type": "address"
                },
                {
                  "internalType": "address",
                  "name": "seller",
                  "type": "address"
                },
                {
                  "internalType": "uint256",
                  "name": "price",
                  "type": "uint256"
                },
                {
                  "internalType": "bool",
                  "name": "used",
                  "type": "bool"
                },
                {
                  "internalType": "uint256",
                  "name": "arrIndex",
                  "type": "uint256"
                }
              ],
              "internalType": "struct NFTSwap.Swap",
              "name": "swap",
              "type": "tuple"
            },
            {
              "components": [
                {
                  "components": [
                    {
                      "internalType": "uint256",
                      "name": "startTime",
                      "type": "uint256"
                    },
                    {
                      "internalType": "uint256",
                      "name": "remainingAmout",
                      "type": "uint256"
                    },
                    {
                      "internalType": "uint256",
                      "name": "remainingTime",
                      "type": "uint256"
                    }
                  ],
                  "internalType": "struct IMining.MiningInfo",
                  "name": "miningInfo",
                  "type": "tuple"
                },
                {
                  "internalType": "uint256",
                  "name": "tokenId",
                  "type": "uint256"
                },
                {
                  "internalType": "address",
                  "name": "creator",
                  "type": "address"
                },
                {
                  "internalType": "string",
                  "name": "tokenURI",
                  "type": "string"
                },
                {
                  "internalType": "bool",
                  "name": "isInOrder",
                  "type": "bool"
                }
              ],
              "internalType": "struct IMining.NFTMiningInfo",
              "name": "miningInfo",
              "type": "tuple"
            }
          ],
          "internalType": "struct NFTSwap.NFTInfo[]",
          "name": "",
          "type": "tuple[]"
        }
      ],
      "stateMutability": "view",
      "type": "function",
      "constant": true
    },
    {
      "inputs": [
        {
          "internalType": "uint256",
          "name": "_tokenId",
          "type": "uint256"
        }
      ],
      "name": "getOrderById",
      "outputs": [
        {
          "components": [
            {
              "components": [
                {
                  "internalType": "uint256",
                  "name": "tokenId",
                  "type": "uint256"
                },
                {
                  "internalType": "address",
                  "name": "creator",
                  "type": "address"
                },
                {
                  "internalType": "address",
                  "name": "seller",
                  "type": "address"
                },
                {
                  "internalType": "uint256",
                  "name": "price",
                  "type": "uint256"
                },
                {
                  "internalType": "bool",
                  "name": "used",
                  "type": "bool"
                },
                {
                  "internalType": "uint256",
                  "name": "arrIndex",
                  "type": "uint256"
                }
              ],
              "internalType": "struct NFTSwap.Swap",
              "name": "swap",
              "type": "tuple"
            },
            {
              "components": [
                {
                  "components": [
                    {
                      "internalType": "uint256",
                      "name": "startTime",
                      "type": "uint256"
                    },
                    {
                      "internalType": "uint256",
                      "name": "remainingAmout",
                      "type": "uint256"
                    },
                    {
                      "internalType": "uint256",
                      "name": "remainingTime",
                      "type": "uint256"
                    }
                  ],
                  "internalType": "struct IMining.MiningInfo",
                  "name": "miningInfo",
                  "type": "tuple"
                },
                {
                  "internalType": "uint256",
                  "name": "tokenId",
                  "type": "uint256"
                },
                {
                  "internalType": "address",
                  "name": "creator",
                  "type": "address"
                },
                {
                  "internalType": "string",
                  "name": "tokenURI",
                  "type": "string"
                },
                {
                  "internalType": "bool",
                  "name": "isInOrder",
                  "type": "bool"
                }
              ],
              "internalType": "struct IMining.NFTMiningInfo",
              "name": "miningInfo",
              "type": "tuple"
            }
          ],
          "internalType": "struct NFTSwap.NFTInfo",
          "name": "",
          "type": "tuple"
        }
      ],
      "stateMutability": "view",
      "type": "function",
      "constant": true
    },
    {
      "inputs": [
        {
          "internalType": "uint256",
          "name": "_tokenId",
          "type": "uint256"
        },
        {
          "internalType": "uint256",
          "name": "_price",
          "type": "uint256"
        }
      ],
      "name": "createOrder",
      "outputs": [],
      "stateMutability": "nonpayable",
      "type": "function"
    },
    {
      "inputs": [
        {
          "internalType": "uint256",
          "name": "_tokenId",
          "type": "uint256"
        }
      ],
      "name": "cancelOrder",
      "outputs": [],
      "stateMutability": "nonpayable",
      "type": "function"
    },
    {
      "inputs": [
        {
          "internalType": "uint256",
          "name": "_tokenId",
          "type": "uint256"
        },
        {
          "internalType": "uint256",
          "name": "_price",
          "type": "uint256"
        }
      ],
      "name": "updateOrder",
      "outputs": [],
      "stateMutability": "nonpayable",
      "type": "function"
    },
    {
      "inputs": [
        {
          "internalType": "uint256",
          "name": "_tokenId",
          "type": "uint256"
        }
      ],
      "name": "buy",
      "outputs": [],
      "stateMutability": "nonpayable",
      "type": "function"
    },
    {
      "inputs": [
        {
          "internalType": "uint256",
          "name": "_tokenId",
          "type": "uint256"
        }
      ],
      "name": "isInOrder",
      "outputs": [
        {
          "internalType": "bool",
          "name": "",
          "type": "bool"
        }
      ],
      "stateMutability": "view",
      "type": "function",
      "constant": true
    },
    {
      "inputs": [
        {
          "internalType": "address",
          "name": "_token",
          "type": "address"
        }
      ],
      "name": "setTokenToPay",
      "outputs": [],
      "stateMutability": "nonpayable",
      "type": "function"
    },
    {
      "inputs": [
        {
          "internalType": "address",
          "name": "_cbdBuybackPool",
          "type": "address"
        }
      ],
      "name": "setCbdBuybackPool",
      "outputs": [],
      "stateMutability": "nonpayable",
      "type": "function"
    },
    {
      "inputs": [
        {
          "internalType": "address",
          "name": "_nft",
          "type": "address"
        }
      ],
      "name": "setNft",
      "outputs": [],
      "stateMutability": "nonpayable",
      "type": "function"
    },
    {
      "inputs": [
        {
          "internalType": "address",
          "name": "_mining",
          "type": "address"
        }
      ],
      "name": "setMining",
      "outputs": [],
      "stateMutability": "nonpayable",
      "type": "function"
    }
  ],
  "bytecode": "0x60806040523480156200001157600080fd5b506040516200325138038062003251833981810160405281019062000037919062000214565b600062000049620001f560201b60201c565b9050806000806101000a81548173ffffffffffffffffffffffffffffffffffffffff021916908373ffffffffffffffffffffffffffffffffffffffff1602179055508073ffffffffffffffffffffffffffffffffffffffff16600073ffffffffffffffffffffffffffffffffffffffff167f8be0079c531659141344cd1fd0a4f28419497f9722a3daafe3b4186f6b6457e060405160405180910390a35083600560006101000a81548173ffffffffffffffffffffffffffffffffffffffff021916908373ffffffffffffffffffffffffffffffffffffffff16021790555082600360006101000a81548173ffffffffffffffffffffffffffffffffffffffff021916908373ffffffffffffffffffffffffffffffffffffffff16021790555081600460006101000a81548173ffffffffffffffffffffffffffffffffffffffff021916908373ffffffffffffffffffffffffffffffffffffffff16021790555080600660006101000a81548173ffffffffffffffffffffffffffffffffffffffff021916908373ffffffffffffffffffffffffffffffffffffffff16021790555050505050620002ce565b600033905090565b6000815190506200020e81620002b4565b92915050565b600080600080608085870312156200022b57600080fd5b60006200023b87828801620001fd565b94505060206200024e87828801620001fd565b93505060406200026187828801620001fd565b92505060606200027487828801620001fd565b91505092959194509250565b60006200028d8262000294565b9050919050565b600073ffffffffffffffffffffffffffffffffffffffff82169050919050565b620002bf8162000280565b8114620002cb57600080fd5b50565b612f7380620002de6000396000f3fe608060405234801561001057600080fd5b50600436106100ea5760003560e01c806379109baa1161008c578063edb46daf11610066578063edb46daf14610221578063f2fde38b1461023d578063f3c1338714610259578063ffc645fd14610275576100ea565b806379109baa146101cb5780638da5cb5b146101e7578063d96a094a14610205576100ea565b80634ef5fb38116100c85780634ef5fb381461016d578063514fcac714610189578063587b71a6146101a5578063715018a6146101c1576100ea565b80631cf7424f146100ef5780632e2dc43e1461011f57806342b50a7a1461013d575b600080fd5b6101096004803603810190610104919061226d565b610291565b604051610116919061298d565b60405180910390f35b6101276102be565b6040516101349190612942565b60405180910390f35b6101576004803603810190610152919061226d565b610513565b6040516101649190612aca565b60405180910390f35b61018760048036038101906101829190612175565b610633565b005b6101a3600480360381019061019e919061226d565b6106f3565b005b6101bf60048036038101906101ba9190612296565b6109ae565b005b6101c9610b7d565b005b6101e560048036038101906101e09190612296565b610cb7565b005b6101ef611038565b6040516101fc91906128f0565b60405180910390f35b61021f600480360381019061021a919061226d565b611061565b005b61023b60048036038101906102369190612175565b611528565b005b61025760048036038101906102529190612175565b6115e8565b005b610273600480360381019061026e9190612175565b611791565b005b61028f600480360381019061028a9190612175565b611851565b005b60006001600083815260200190815260200160002060040160009054906101000a900460ff169050919050565b6060600060028054905067ffffffffffffffff811115610307577f4e487b7100000000000000000000000000000000000000000000000000000000600052604160045260246000fd5b60405190808252806020026020018201604052801561034057816020015b61032d611e97565b8152602001906001900390816103255790505b50905060005b60028054905081101561050b5760006002828154811061038f577f4e487b7100000000000000000000000000000000000000000000000000000000600052603260045260246000fd5b906000526020600020015490506000600160008381526020019081526020016000206040518060c0016040529081600082015481526020016001820160009054906101000a900473ffffffffffffffffffffffffffffffffffffffff1673ffffffffffffffffffffffffffffffffffffffff1673ffffffffffffffffffffffffffffffffffffffff1681526020016002820160009054906101000a900473ffffffffffffffffffffffffffffffffffffffff1673ffffffffffffffffffffffffffffffffffffffff1673ffffffffffffffffffffffffffffffffffffffff168152602001600382015481526020016004820160009054906101000a900460ff16151515158152602001600582015481525050905060006104ae82611911565b9050808585815181106104ea577f4e487b7100000000000000000000000000000000000000000000000000000000600052603260045260246000fd5b6020026020010181905250505050808061050390612dfa565b915050610346565b508091505090565b61051b611e97565b6000600160008481526020019081526020016000206040518060c0016040529081600082015481526020016001820160009054906101000a900473ffffffffffffffffffffffffffffffffffffffff1673ffffffffffffffffffffffffffffffffffffffff1673ffffffffffffffffffffffffffffffffffffffff1681526020016002820160009054906101000a900473ffffffffffffffffffffffffffffffffffffffff1673ffffffffffffffffffffffffffffffffffffffff1673ffffffffffffffffffffffffffffffffffffffff168152602001600382015481526020016004820160009054906101000a900460ff16151515158152602001600582015481525050905061062b81611911565b915050919050565b61063b6119fa565b73ffffffffffffffffffffffffffffffffffffffff16610659611038565b73ffffffffffffffffffffffffffffffffffffffff16146106af576040517f08c379a00000000000000000000000000000000000000000000000000000000081526004016106a690612a4a565b60405180910390fd5b80600360006101000a81548173ffffffffffffffffffffffffffffffffffffffff021916908373ffffffffffffffffffffffffffffffffffffffff16021790555050565b60003390506000600160008481526020019081526020016000206040518060c0016040529081600082015481526020016001820160009054906101000a900473ffffffffffffffffffffffffffffffffffffffff1673ffffffffffffffffffffffffffffffffffffffff1673ffffffffffffffffffffffffffffffffffffffff1681526020016002820160009054906101000a900473ffffffffffffffffffffffffffffffffffffffff1673ffffffffffffffffffffffffffffffffffffffff1673ffffffffffffffffffffffffffffffffffffffff168152602001600382015481526020016004820160009054906101000a900460ff1615151515815260200160058201548152505090508173ffffffffffffffffffffffffffffffffffffffff16600660009054906101000a900473ffffffffffffffffffffffffffffffffffffffff1673ffffffffffffffffffffffffffffffffffffffff16632d8a746e856040518263ffffffff1660e01b81526004016108719190612aec565b602060405180830381600087803b15801561088b57600080fd5b505af115801561089f573d6000803e3d6000fd5b505050506040513d601f19601f820116820180604052508101906108c3919061219e565b73ffffffffffffffffffffffffffffffffffffffff1614610919576040517f08c379a000000000000000000000000000000000000000000000000000000000815260040161091090612a8a565b60405180910390fd5b806080015161095d576040517f08c379a0000000000000000000000000000000000000000000000000000000008152600401610954906129ca565b60405180910390fd5b61096683611a02565b7f39c104aea874808456f38a2eb11be1f8301f301770e04279c716e335653f10f383826040015183606001516040516109a193929190612b30565b60405180910390a1505050565b600033905060006001600085815260200190815260200160002090508173ffffffffffffffffffffffffffffffffffffffff16600660009054906101000a900473ffffffffffffffffffffffffffffffffffffffff1673ffffffffffffffffffffffffffffffffffffffff16632d8a746e866040518263ffffffff1660e01b8152600401610a3c9190612aec565b602060405180830381600087803b158015610a5657600080fd5b505af1158015610a6a573d6000803e3d6000fd5b505050506040513d601f19601f82011682018060405250810190610a8e919061219e565b73ffffffffffffffffffffffffffffffffffffffff1614610ae4576040517f08c379a0000000000000000000000000000000000000000000000000000000008152600401610adb90612a8a565b60405180910390fd5b8060040160009054906101000a900460ff16610b35576040517f08c379a0000000000000000000000000000000000000000000000000000000008152600401610b2c906129ca565b60405180910390fd5b8281600301819055507fe394f2eba5254ad4232e3a39dfbba243aae3b4e08196a9f690c10b53e8d9ccca8484604051610b6f929190612bac565b60405180910390a150505050565b610b856119fa565b73ffffffffffffffffffffffffffffffffffffffff16610ba3611038565b73ffffffffffffffffffffffffffffffffffffffff1614610bf9576040517f08c379a0000000000000000000000000000000000000000000000000000000008152600401610bf090612a4a565b60405180910390fd5b600073ffffffffffffffffffffffffffffffffffffffff1660008054906101000a900473ffffffffffffffffffffffffffffffffffffffff1673ffffffffffffffffffffffffffffffffffffffff167f8be0079c531659141344cd1fd0a4f28419497f9722a3daafe3b4186f6b6457e060405160405180910390a360008060006101000a81548173ffffffffffffffffffffffffffffffffffffffff021916908373ffffffffffffffffffffffffffffffffffffffff160217905550565b60003390508073ffffffffffffffffffffffffffffffffffffffff16600660009054906101000a900473ffffffffffffffffffffffffffffffffffffffff1673ffffffffffffffffffffffffffffffffffffffff16632d8a746e856040518263ffffffff1660e01b8152600401610d2e9190612aec565b602060405180830381600087803b158015610d4857600080fd5b505af1158015610d5c573d6000803e3d6000fd5b505050506040513d601f19601f82011682018060405250810190610d80919061219e565b73ffffffffffffffffffffffffffffffffffffffff1614610dd6576040517f08c379a0000000000000000000000000000000000000000000000000000000008152600401610dcd90612a8a565b60405180910390fd5b6000600460009054906101000a900473ffffffffffffffffffffffffffffffffffffffff1673ffffffffffffffffffffffffffffffffffffffff1663589a1743856040518263ffffffff1660e01b8152600401610e339190612aec565b60206040518083038186803b158015610e4b57600080fd5b505afa158015610e5f573d6000803e3d6000fd5b505050506040513d601f19601f82011682018060405250810190610e83919061219e565b905060006040518060c001604052808681526020018373ffffffffffffffffffffffffffffffffffffffff1681526020018473ffffffffffffffffffffffffffffffffffffffff168152602001858152602001600115158152602001600280549050815250905080600160008781526020019081526020016000206000820151816000015560208201518160010160006101000a81548173ffffffffffffffffffffffffffffffffffffffff021916908373ffffffffffffffffffffffffffffffffffffffff16021790555060408201518160020160006101000a81548173ffffffffffffffffffffffffffffffffffffffff021916908373ffffffffffffffffffffffffffffffffffffffff1602179055506060820151816003015560808201518160040160006101000a81548160ff02191690831515021790555060a0820151816005015590505060028590806001815401808255809150506001900390600052602060002001600090919091909150557fbcf966caa5fda2f4f21660f7b7ff385f73863c764e16bef0477fbdec09de6abf85848660405161102993929190612b30565b60405180910390a15050505050565b60008060009054906101000a900473ffffffffffffffffffffffffffffffffffffffff16905090565b60003390506000600160008481526020019081526020016000206040518060c0016040529081600082015481526020016001820160009054906101000a900473ffffffffffffffffffffffffffffffffffffffff1673ffffffffffffffffffffffffffffffffffffffff1673ffffffffffffffffffffffffffffffffffffffff1681526020016002820160009054906101000a900473ffffffffffffffffffffffffffffffffffffffff1673ffffffffffffffffffffffffffffffffffffffff1673ffffffffffffffffffffffffffffffffffffffff168152602001600382015481526020016004820160009054906101000a900460ff1615151515815260200160058201548152505090508173ffffffffffffffffffffffffffffffffffffffff16600660009054906101000a900473ffffffffffffffffffffffffffffffffffffffff1673ffffffffffffffffffffffffffffffffffffffff16632d8a746e856040518263ffffffff1660e01b81526004016111df9190612aec565b602060405180830381600087803b1580156111f957600080fd5b505af115801561120d573d6000803e3d6000fd5b505050506040513d601f19601f82011682018060405250810190611231919061219e565b73ffffffffffffffffffffffffffffffffffffffff161415611288576040517f08c379a000000000000000000000000000000000000000000000000000000000815260040161127f90612a2a565b60405180910390fd5b80608001516112cc576040517f08c379a00000000000000000000000000000000000000000000000000000000081526004016112c3906129ca565b60405180910390fd5b60006064606283606001516112e19190612ce3565b6112eb9190612cb2565b9050600060028284606001516113019190612d3d565b61130b9190612cb2565b90506000818385606001516113209190612d3d565b61132a9190612d3d565b905061137f33856040015185600560009054906101000a900473ffffffffffffffffffffffffffffffffffffffff1673ffffffffffffffffffffffffffffffffffffffff16611ba1909392919063ffffffff16565b6113f033600360009054906101000a900473ffffffffffffffffffffffffffffffffffffffff1684600560009054906101000a900473ffffffffffffffffffffffffffffffffffffffff1673ffffffffffffffffffffffffffffffffffffffff16611ba1909392919063ffffffff16565b61144333856020015183600560009054906101000a900473ffffffffffffffffffffffffffffffffffffffff1673ffffffffffffffffffffffffffffffffffffffff16611ba1909392919063ffffffff16565b600660009054906101000a900473ffffffffffffffffffffffffffffffffffffffff1673ffffffffffffffffffffffffffffffffffffffff1663cec0564287876040518363ffffffff1660e01b81526004016114a0929190612b07565b600060405180830381600087803b1580156114ba57600080fd5b505af11580156114ce573d6000803e3d6000fd5b505050506114db86611a02565b7f2cd56924b138c2b8cfa1a5e5b42e5a5eac31023ad134ffff8803f556a9f8dd608685604001518660600151886040516115189493929190612b67565b60405180910390a1505050505050565b6115306119fa565b73ffffffffffffffffffffffffffffffffffffffff1661154e611038565b73ffffffffffffffffffffffffffffffffffffffff16146115a4576040517f08c379a000000000000000000000000000000000000000000000000000000000815260040161159b90612a4a565b60405180910390fd5b80600660006101000a81548173ffffffffffffffffffffffffffffffffffffffff021916908373ffffffffffffffffffffffffffffffffffffffff16021790555050565b6115f06119fa565b73ffffffffffffffffffffffffffffffffffffffff1661160e611038565b73ffffffffffffffffffffffffffffffffffffffff1614611664576040517f08c379a000000000000000000000000000000000000000000000000000000000815260040161165b90612a4a565b60405180910390fd5b600073ffffffffffffffffffffffffffffffffffffffff168173ffffffffffffffffffffffffffffffffffffffff1614156116d4576040517f08c379a00000000000000000000000000000000000000000000000000000000081526004016116cb906129ea565b60405180910390fd5b8073ffffffffffffffffffffffffffffffffffffffff1660008054906101000a900473ffffffffffffffffffffffffffffffffffffffff1673ffffffffffffffffffffffffffffffffffffffff167f8be0079c531659141344cd1fd0a4f28419497f9722a3daafe3b4186f6b6457e060405160405180910390a3806000806101000a81548173ffffffffffffffffffffffffffffffffffffffff021916908373ffffffffffffffffffffffffffffffffffffffff16021790555050565b6117996119fa565b73ffffffffffffffffffffffffffffffffffffffff166117b7611038565b73ffffffffffffffffffffffffffffffffffffffff161461180d576040517f08c379a000000000000000000000000000000000000000000000000000000000815260040161180490612a4a565b60405180910390fd5b80600460006101000a81548173ffffffffffffffffffffffffffffffffffffffff021916908373ffffffffffffffffffffffffffffffffffffffff16021790555050565b6118596119fa565b73ffffffffffffffffffffffffffffffffffffffff16611877611038565b73ffffffffffffffffffffffffffffffffffffffff16146118cd576040517f08c379a00000000000000000000000000000000000000000000000000000000081526004016118c490612a4a565b60405180910390fd5b80600560006101000a81548173ffffffffffffffffffffffffffffffffffffffff021916908373ffffffffffffffffffffffffffffffffffffffff16021790555050565b611919611e97565b60008290506000600660009054906101000a900473ffffffffffffffffffffffffffffffffffffffff1673ffffffffffffffffffffffffffffffffffffffff1663a348198783600001516040518263ffffffff1660e01b815260040161197f9190612aec565b60006040518083038186803b15801561199757600080fd5b505afa1580156119ab573d6000803e3d6000fd5b505050506040513d6000823e3d601f19601f820116820180604052508101906119d4919061222c565b905060006040518060400160405280868152602001838152509050809350505050919050565b600033905090565b600160008281526020019081526020016000206000808201600090556001820160006101000a81549073ffffffffffffffffffffffffffffffffffffffff02191690556002820160006101000a81549073ffffffffffffffffffffffffffffffffffffffff021916905560038201600090556004820160006101000a81549060ff021916905560058201600090555050600080600273__UintArray_____________________________63263f04749091836040518363ffffffff1660e01b8152600401611ad1929190612964565b604080518083038186803b158015611ae857600080fd5b505af4158015611afc573d6000803e3d6000fd5b505050506040513d601f19601f82011682018060405250810190611b2091906121f0565b80925081935050508115611b9c57600060028261ffff1681548110611b6e577f4e487b7100000000000000000000000000000000000000000000000000000000600052603260045260246000fd5b906000526020600020015490508161ffff166001600083815260200190815260200160002060050181905550505b505050565b611c24846323b872dd60e01b858585604051602401611bc29392919061290b565b604051602081830303815290604052907bffffffffffffffffffffffffffffffffffffffffffffffffffffffff19166020820180517bffffffffffffffffffffffffffffffffffffffffffffffffffffffff8381831617835250505050611c2a565b50505050565b6000611c8c826040518060400160405280602081526020017f5361666545524332303a206c6f772d6c6576656c2063616c6c206661696c65648152508573ffffffffffffffffffffffffffffffffffffffff16611cf19092919063ffffffff16565b9050600081511115611cec5780806020019051810190611cac91906121c7565b611ceb576040517f08c379a0000000000000000000000000000000000000000000000000000000008152600401611ce290612aaa565b60405180910390fd5b5b505050565b6060611d008484600085611d09565b90509392505050565b606082471015611d4e576040517f08c379a0000000000000000000000000000000000000000000000000000000008152600401611d4590612a0a565b60405180910390fd5b611d5785611e1d565b611d96576040517f08c379a0000000000000000000000000000000000000000000000000000000008152600401611d8d90612a6a565b60405180910390fd5b6000808673ffffffffffffffffffffffffffffffffffffffff168587604051611dbf91906128d9565b60006040518083038185875af1925050503d8060008114611dfc576040519150601f19603f3d011682016040523d82523d6000602084013e611e01565b606091505b5091509150611e11828286611e30565b92505050949350505050565b600080823b905060008111915050919050565b60608315611e4057829050611e90565b600083511115611e535782518084602001fd5b816040517f08c379a0000000000000000000000000000000000000000000000000000000008152600401611e8791906129a8565b60405180910390fd5b9392505050565b6040518060400160405280611eaa611ebd565b8152602001611eb7611f21565b81525090565b6040518060c0016040528060008152602001600073ffffffffffffffffffffffffffffffffffffffff168152602001600073ffffffffffffffffffffffffffffffffffffffff16815260200160008152602001600015158152602001600081525090565b6040518060a00160405280611f34611f6e565b815260200160008152602001600073ffffffffffffffffffffffffffffffffffffffff168152602001606081526020016000151581525090565b60405180606001604052806000815260200160008152602001600081525090565b6000611fa2611f9d84612c06565b612bd5565b905082815260208101848484011115611fba57600080fd5b611fc5848285612dc7565b509392505050565b600081359050611fdc81612ee1565b92915050565b600081519050611ff181612ee1565b92915050565b60008151905061200681612ef8565b92915050565b600082601f83011261201d57600080fd5b815161202d848260208601611f8f565b91505092915050565b60006060828403121561204857600080fd5b6120526060612bd5565b9050600061206284828501612160565b600083015250602061207684828501612160565b602083015250604061208a84828501612160565b60408301525092915050565b600060e082840312156120a857600080fd5b6120b260a0612bd5565b905060006120c284828501612036565b60008301525060606120d684828501612160565b60208301525060806120ea84828501611fe2565b60408301525060a082015167ffffffffffffffff81111561210a57600080fd5b6121168482850161200c565b60608301525060c061212a84828501611ff7565b60808301525092915050565b60008151905061214581612f0f565b92915050565b60008135905061215a81612f26565b92915050565b60008151905061216f81612f26565b92915050565b60006020828403121561218757600080fd5b600061219584828501611fcd565b91505092915050565b6000602082840312156121b057600080fd5b60006121be84828501611fe2565b91505092915050565b6000602082840312156121d957600080fd5b60006121e784828501611ff7565b91505092915050565b6000806040838503121561220357600080fd5b600061221185828601611ff7565b925050602061222285828601612136565b9150509250929050565b60006020828403121561223e57600080fd5b600082015167ffffffffffffffff81111561225857600080fd5b61226484828501612096565b91505092915050565b60006020828403121561227f57600080fd5b600061228d8482850161214b565b91505092915050565b600080604083850312156122a957600080fd5b60006122b78582860161214b565b92505060206122c88582860161214b565b9150509250929050565b60006122de8383612741565b905092915050565b6122ef81612d71565b82525050565b6122fe81612d71565b82525050565b600061230f82612c46565b6123198185612c74565b93508360208202850161232b85612c36565b8060005b85811015612367578484038952815161234885826122d2565b945061235383612c67565b925060208a0199505060018101905061232f565b50829750879550505050505092915050565b8082525050565b61238981612d83565b82525050565b61239881612d83565b82525050565b60006123a982612c51565b6123b38185612c85565b93506123c3818560208601612dc7565b80840191505092915050565b60006123da82612c5c565b6123e48185612c90565b93506123f4818560208601612dc7565b6123fd81612ed0565b840191505092915050565b600061241382612c5c565b61241d8185612ca1565b935061242d818560208601612dc7565b61243681612ed0565b840191505092915050565b600061244e602683612ca1565b91507f4e4654537761703a205468697320746f6b656e206973206e6f7420696e20736560008301527f6c6c696e672e00000000000000000000000000000000000000000000000000006020830152604082019050919050565b60006124b4602683612ca1565b91507f4f776e61626c653a206e6577206f776e657220697320746865207a65726f206160008301527f64647265737300000000000000000000000000000000000000000000000000006020830152604082019050919050565b600061251a602683612ca1565b91507f416464726573733a20696e73756666696369656e742062616c616e636520666f60008301527f722063616c6c00000000000000000000000000000000000000000000000000006020830152604082019050919050565b6000612580602383612ca1565b91507f4e4654537761703a20596f752061726520616c726561647920746865206f776e60008301527f65722e00000000000000000000000000000000000000000000000000000000006020830152604082019050919050565b60006125e6602083612ca1565b91507f4f776e61626c653a2063616c6c6572206973206e6f7420746865206f776e65726000830152602082019050919050565b6000612626601d83612ca1565b91507f416464726573733a2063616c6c20746f206e6f6e2d636f6e74726163740000006000830152602082019050919050565b6000612666601f83612ca1565b91507f4e4654537761703a20596f7520646f6e2774206f776e20746865206e66742e006000830152602082019050919050565b60006126a6602a83612ca1565b91507f5361666545524332303a204552433230206f7065726174696f6e20646964206e60008301527f6f742073756363656564000000000000000000000000000000000000000000006020830152604082019050919050565b60608201600082015161271560008501826128bb565b50602082015161272860208501826128bb565b50604082015161273b60408501826128bb565b50505050565b600060e0830160008301516127596000860182612831565b50602083015184820360c086015261277182826127bb565b9150508091505092915050565b600060e0830160008301516127966000860182612831565b50602083015184820360c08601526127ae82826127bb565b9150508091505092915050565b600060e0830160008301516127d360008601826126ff565b5060208301516127e660608601826128bb565b5060408301516127f960808601826122e6565b50606083015184820360a086015261281182826123cf565b915050608083015161282660c0860182612380565b508091505092915050565b60c08201600082015161284760008501826128bb565b50602082015161285a60208501826122e6565b50604082015161286d60408501826122e6565b50606082015161288060608501826128bb565b5060808201516128936080850182612380565b5060a08201516128a660a08501826128bb565b50505050565b6128b581612d8f565b82525050565b6128c481612dbd565b82525050565b6128d381612dbd565b82525050565b60006128e5828461239e565b915081905092915050565b600060208201905061290560008301846122f5565b92915050565b600060608201905061292060008301866122f5565b61292d60208301856122f5565b61293a60408301846128ca565b949350505050565b6000602082019050818103600083015261295c8184612304565b905092915050565b60006040820190506129796000830185612379565b61298660208301846128ac565b9392505050565b60006020820190506129a2600083018461238f565b92915050565b600060208201905081810360008301526129c28184612408565b905092915050565b600060208201905081810360008301526129e381612441565b9050919050565b60006020820190508181036000830152612a03816124a7565b9050919050565b60006020820190508181036000830152612a238161250d565b9050919050565b60006020820190508181036000830152612a4381612573565b9050919050565b60006020820190508181036000830152612a63816125d9565b9050919050565b60006020820190508181036000830152612a8381612619565b9050919050565b60006020820190508181036000830152612aa381612659565b9050919050565b60006020820190508181036000830152612ac381612699565b9050919050565b60006020820190508181036000830152612ae4818461277e565b905092915050565b6000602082019050612b0160008301846128ca565b92915050565b6000604082019050612b1c60008301856128ca565b612b2960208301846122f5565b9392505050565b6000606082019050612b4560008301866128ca565b612b5260208301856122f5565b612b5f60408301846128ca565b949350505050565b6000608082019050612b7c60008301876128ca565b612b8960208301866122f5565b612b9660408301856128ca565b612ba360608301846122f5565b95945050505050565b6000604082019050612bc160008301856128ca565b612bce60208301846128ca565b9392505050565b6000604051905081810181811067ffffffffffffffff82111715612bfc57612bfb612ea1565b5b8060405250919050565b600067ffffffffffffffff821115612c2157612c20612ea1565b5b601f19601f8301169050602081019050919050565b6000819050602082019050919050565b600081519050919050565b600081519050919050565b600081519050919050565b6000602082019050919050565b600082825260208201905092915050565b600081905092915050565b600082825260208201905092915050565b600082825260208201905092915050565b6000612cbd82612dbd565b9150612cc883612dbd565b925082612cd857612cd7612e72565b5b828204905092915050565b6000612cee82612dbd565b9150612cf983612dbd565b9250817fffffffffffffffffffffffffffffffffffffffffffffffffffffffffffffffff0483118215151615612d3257612d31612e43565b5b828202905092915050565b6000612d4882612dbd565b9150612d5383612dbd565b925082821015612d6657612d65612e43565b5b828203905092915050565b6000612d7c82612d9d565b9050919050565b60008115159050919050565b600061ffff82169050919050565b600073ffffffffffffffffffffffffffffffffffffffff82169050919050565b6000819050919050565b60005b83811015612de5578082015181840152602081019050612dca565b83811115612df4576000848401525b50505050565b6000612e0582612dbd565b91507fffffffffffffffffffffffffffffffffffffffffffffffffffffffffffffffff821415612e3857612e37612e43565b5b600182019050919050565b7f4e487b7100000000000000000000000000000000000000000000000000000000600052601160045260246000fd5b7f4e487b7100000000000000000000000000000000000000000000000000000000600052601260045260246000fd5b7f4e487b7100000000000000000000000000000000000000000000000000000000600052604160045260246000fd5b6000601f19601f8301169050919050565b612eea81612d71565b8114612ef557600080fd5b50565b612f0181612d83565b8114612f0c57600080fd5b50565b612f1881612d8f565b8114612f2357600080fd5b50565b612f2f81612dbd565b8114612f3a57600080fd5b5056fea26469706673582212204e9ca9806acbd9e1f1ab27ce7adf63250fec38d3cbb739e2e92dd010f076a40264736f6c63430008000033",
  "immutableReferences": {},
  "source": "// SPDX-License-Identifier: GPL-3.0\npragma solidity ^0.8.0;\n\nimport \"@openzeppelin/contracts/access/Ownable.sol\";\nimport \"@openzeppelin/contracts/token/ERC20/IERC20.sol\";\nimport \"@openzeppelin/contracts/token/ERC20/utils/SafeERC20.sol\";\nimport \"./interface/ICoinBidCreation.sol\";\nimport \"./interface/IMining.sol\";\nimport \"./library/UintArray.sol\";\n\ncontract NFTSwap is Ownable {\n\n    using SafeERC20 for IERC20;\n    using UintArray for uint[];\n\n    // Represents an swap on an NFT\n    struct Swap {\n        uint tokenId;\n        address creator;\n        // Current owner of NFT\n        address seller;\n        uint price;\n        bool used;\n        uint arrIndex;\n    }\n\n    struct NFTInfo {\n        Swap swap;\n        IMining.NFTMiningInfo miningInfo;\n    }\n\n    // Map from NFT ID to their corresponding swap.\n    mapping (uint256 => Swap) nftIdToSwap;\n\n    uint[] nftInSwapArr;\n\n    // CBD buy back account.\n    address cbdBuybackPool;\n\n    ICoinBidCreation internal nft;\n\n    // TODO set value\n    IERC20 tokenToPay;\n\n    IMining mining;\n\n    event NFTOrderCreated(uint _tokenId, address _seller, uint _price);\n    event NFTOrderCanceled(uint _tokenId, address _seller, uint _price);\n    event NFTOrderUpdate(uint _tokenId, uint _price);\n    event NFTOrderBought(uint _tokenId, address _seller, uint _price, address _buyer);\n\n    constructor(address _tokenToPay, address _cbdBuybackPool, address _nft, address _mining) {\n        tokenToPay = IERC20(_tokenToPay);\n        cbdBuybackPool = _cbdBuybackPool;\n        nft = ICoinBidCreation(_nft);\n        mining = IMining(_mining);\n    }\n\n    function getNfTInfo(Swap memory _swap) private view returns(NFTInfo memory) {\n        Swap memory swap = _swap;\n        IMining.NFTMiningInfo memory miningInfo = mining.getInfoById(swap.tokenId);\n        NFTInfo memory info = NFTInfo(_swap, miningInfo);\n        return info;\n    }\n\n    function getOrders() public view returns(NFTInfo[] memory) {\n        NFTInfo[] memory infoArr = new NFTInfo[](nftInSwapArr.length);\n        for(uint i = 0; i < nftInSwapArr.length; i++) {\n            uint tokenId = nftInSwapArr[i];\n            Swap memory swap = nftIdToSwap[tokenId];\n            NFTInfo memory info = getNfTInfo(swap);\n            infoArr[i] = info;\n        }\n        return infoArr;\n    }\n\n    function getOrderById(uint _tokenId) public view returns(NFTInfo memory) {\n        Swap memory swap = nftIdToSwap[_tokenId];\n        return getNfTInfo(swap);\n    }\n\n    function createOrder(uint _tokenId, uint _price) external {\n        address curSender = msg.sender;\n        require(mining.ownerOfNFT(_tokenId) == curSender, \"NFTSwap: You don't own the nft.\");\n        address creator = nft.creatorOf(_tokenId);\n        Swap memory swap = Swap(_tokenId, creator, curSender, _price, true, nftInSwapArr.length);\n        nftIdToSwap[_tokenId] = swap;\n        nftInSwapArr.push(_tokenId);\n        emit NFTOrderCreated(_tokenId, curSender, _price);\n    }\n\n    function cancelOrder(uint _tokenId) external {\n        address curSender = msg.sender;\n        Swap memory swap = nftIdToSwap[_tokenId];\n        require(mining.ownerOfNFT(_tokenId) == curSender, \"NFTSwap: You don't own the nft.\");\n        require(swap.used, \"NFTSwap: This token is not in selling.\");\n\n        deleteOrder(_tokenId);\n        emit NFTOrderCanceled(_tokenId, swap.seller, swap.price);\n    }\n\n    function updateOrder(uint _tokenId, uint _price) external {\n        address curSender = msg.sender;\n        Swap storage swap = nftIdToSwap[_tokenId];\n        require(mining.ownerOfNFT(_tokenId) == curSender, \"NFTSwap: You don't own the nft.\");\n        require(swap.used, \"NFTSwap: This token is not in selling.\");\n\n        swap.price = _price;\n        emit NFTOrderUpdate(_tokenId, _price);\n    }\n\n    function buy(uint _tokenId) external {\n        address curSender = msg.sender;\n        Swap memory swap = nftIdToSwap[_tokenId];\n        require(mining.ownerOfNFT(_tokenId) != curSender, \"NFTSwap: You are already the owner.\");\n        require(swap.used, \"NFTSwap: This token is not in selling.\");\n\n        uint amountToSeller = swap.price * 98 / 100;\n        uint amountToPool = (swap.price - amountToSeller) / 2; //swap.price * 1 / 100;\n        uint amountToCreator = swap.price - amountToSeller - amountToPool; //swap.price * 1 / 100;\n\n        tokenToPay.safeTransferFrom(msg.sender, swap.seller, amountToSeller);\n        tokenToPay.safeTransferFrom(msg.sender, cbdBuybackPool, amountToPool);\n        tokenToPay.safeTransferFrom(msg.sender, swap.creator, amountToCreator);\n        mining.transferCreation(_tokenId, curSender);\n\n        deleteOrder(_tokenId);\n\n        emit NFTOrderBought(_tokenId, swap.seller, swap.price, curSender);\n    }\n\n    function deleteOrder(uint _tokenId) private {\n        delete nftIdToSwap[_tokenId];\n        bool isChanged;\n        uint16 index;\n        (isChanged, index) = nftInSwapArr.unsafeDelete(index);\n        if(isChanged) {\n            uint id = nftInSwapArr[index];\n            nftIdToSwap[id].arrIndex = index;\n        }\n    }\n\n    function isInOrder(uint _tokenId) public view returns(bool) {\n        return nftIdToSwap[_tokenId].used;\n    }\n\n    function setTokenToPay(address _token) public onlyOwner {\n        tokenToPay = IERC20(_token);\n    }\n\n    function setCbdBuybackPool(address _cbdBuybackPool) public onlyOwner {\n        cbdBuybackPool = _cbdBuybackPool;\n    }\n\n    function setNft(address _nft) public onlyOwner {\n        nft = ICoinBidCreation(_nft);\n    }\n\n    function setMining(address _mining) public onlyOwner {\n        mining = IMining(_mining);\n    }\n}",
  "sourcePath": "/Users/iwan/code/coinbid-cointract/contracts/8_NFTSwap.sol",
  "compiler": {
    "name": "solc",
    "version": "0.8.0+commit.c7dfd78e.Emscripten.clang"
  },
  "schemaVersion": "3.4.1",
  "updatedAt": "2021-07-07T19:10:02.369Z",
  "networkType": "ethereum",
  "devdoc": {
    "kind": "dev",
    "methods": {
      "owner()": {
        "details": "Returns the address of the current owner."
      },
      "renounceOwnership()": {
        "details": "Leaves the contract without owner. It will not be possible to call `onlyOwner` functions anymore. Can only be called by the current owner. NOTE: Renouncing ownership will leave the contract without an owner, thereby removing any functionality that is only available to the owner."
      },
      "transferOwnership(address)": {
        "details": "Transfers ownership of the contract to a new account (`newOwner`). Can only be called by the current owner."
      }
    },
    "version": 1
  },
  "userdoc": {
    "kind": "user",
    "methods": {},
    "version": 1
  }
}