{
  "contractName": "NFTSwap",
  "abi": [
    {
      "inputs": [
        {
          "internalType": "address",
          "name": "_tokenToPay",
          "type": "address"
        },
        {
          "internalType": "address",
          "name": "_cbdBuybackPool",
          "type": "address"
        },
        {
          "internalType": "address",
          "name": "_nft",
          "type": "address"
        },
        {
          "internalType": "address",
          "name": "_mining",
          "type": "address"
        }
      ],
      "stateMutability": "nonpayable",
      "type": "constructor"
    },
    {
      "anonymous": false,
      "inputs": [
        {
          "indexed": false,
          "internalType": "uint256",
          "name": "_tokenId",
          "type": "uint256"
        },
        {
          "indexed": false,
          "internalType": "address",
          "name": "_seller",
          "type": "address"
        },
        {
          "indexed": false,
          "internalType": "uint256",
          "name": "_price",
          "type": "uint256"
        },
        {
          "indexed": false,
          "internalType": "address",
          "name": "_buyer",
          "type": "address"
        }
      ],
      "name": "NFTOrderBought",
      "type": "event"
    },
    {
      "anonymous": false,
      "inputs": [
        {
          "indexed": false,
          "internalType": "uint256",
          "name": "_tokenId",
          "type": "uint256"
        },
        {
          "indexed": false,
          "internalType": "address",
          "name": "_seller",
          "type": "address"
        },
        {
          "indexed": false,
          "internalType": "uint256",
          "name": "_price",
          "type": "uint256"
        }
      ],
      "name": "NFTOrderCanceled",
      "type": "event"
    },
    {
      "anonymous": false,
      "inputs": [
        {
          "indexed": false,
          "internalType": "uint256",
          "name": "_tokenId",
          "type": "uint256"
        },
        {
          "indexed": false,
          "internalType": "address",
          "name": "_seller",
          "type": "address"
        },
        {
          "indexed": false,
          "internalType": "uint256",
          "name": "_price",
          "type": "uint256"
        }
      ],
      "name": "NFTOrderCreated",
      "type": "event"
    },
    {
      "anonymous": false,
      "inputs": [
        {
          "indexed": false,
          "internalType": "uint256",
          "name": "_tokenId",
          "type": "uint256"
        },
        {
          "indexed": false,
          "internalType": "uint256",
          "name": "_price",
          "type": "uint256"
        }
      ],
      "name": "NFTOrderUpdate",
      "type": "event"
    },
    {
      "anonymous": false,
      "inputs": [
        {
          "indexed": true,
          "internalType": "address",
          "name": "previousOwner",
          "type": "address"
        },
        {
          "indexed": true,
          "internalType": "address",
          "name": "newOwner",
          "type": "address"
        }
      ],
      "name": "OwnershipTransferred",
      "type": "event"
    },
    {
      "inputs": [],
      "name": "owner",
      "outputs": [
        {
          "internalType": "address",
          "name": "",
          "type": "address"
        }
      ],
      "stateMutability": "view",
      "type": "function",
      "constant": true
    },
    {
      "inputs": [],
      "name": "renounceOwnership",
      "outputs": [],
      "stateMutability": "nonpayable",
      "type": "function"
    },
    {
      "inputs": [
        {
          "internalType": "address",
          "name": "newOwner",
          "type": "address"
        }
      ],
      "name": "transferOwnership",
      "outputs": [],
      "stateMutability": "nonpayable",
      "type": "function"
    },
    {
      "inputs": [],
      "name": "getOrders",
      "outputs": [
        {
          "components": [
            {
              "components": [
                {
                  "internalType": "uint256",
                  "name": "tokenId",
                  "type": "uint256"
                },
                {
                  "internalType": "address",
                  "name": "creator",
                  "type": "address"
                },
                {
                  "internalType": "address",
                  "name": "seller",
                  "type": "address"
                },
                {
                  "internalType": "uint256",
                  "name": "price",
                  "type": "uint256"
                },
                {
                  "internalType": "bool",
                  "name": "used",
                  "type": "bool"
                },
                {
                  "internalType": "uint256",
                  "name": "arrIndex",
                  "type": "uint256"
                }
              ],
              "internalType": "struct NFTSwap.Swap",
              "name": "swap",
              "type": "tuple"
            },
            {
              "internalType": "string",
              "name": "tokenURI",
              "type": "string"
            }
          ],
          "internalType": "struct NFTSwap.NFTInfo[]",
          "name": "",
          "type": "tuple[]"
        }
      ],
      "stateMutability": "view",
      "type": "function",
      "constant": true
    },
    {
      "inputs": [
        {
          "internalType": "uint256",
          "name": "_tokenId",
          "type": "uint256"
        },
        {
          "internalType": "uint256",
          "name": "_price",
          "type": "uint256"
        }
      ],
      "name": "createOrder",
      "outputs": [],
      "stateMutability": "nonpayable",
      "type": "function"
    },
    {
      "inputs": [
        {
          "internalType": "uint256",
          "name": "_tokenId",
          "type": "uint256"
        }
      ],
      "name": "cancelOrder",
      "outputs": [],
      "stateMutability": "nonpayable",
      "type": "function"
    },
    {
      "inputs": [
        {
          "internalType": "uint256",
          "name": "_tokenId",
          "type": "uint256"
        },
        {
          "internalType": "uint256",
          "name": "_price",
          "type": "uint256"
        }
      ],
      "name": "updateOrder",
      "outputs": [],
      "stateMutability": "nonpayable",
      "type": "function"
    },
    {
      "inputs": [
        {
          "internalType": "uint256",
          "name": "_tokenId",
          "type": "uint256"
        }
      ],
      "name": "buy",
      "outputs": [],
      "stateMutability": "nonpayable",
      "type": "function"
    },
    {
      "inputs": [
        {
          "internalType": "uint256",
          "name": "_tokenId",
          "type": "uint256"
        }
      ],
      "name": "isInOrder",
      "outputs": [
        {
          "internalType": "bool",
          "name": "",
          "type": "bool"
        }
      ],
      "stateMutability": "view",
      "type": "function",
      "constant": true
    },
    {
      "inputs": [
        {
          "internalType": "address",
          "name": "_token",
          "type": "address"
        }
      ],
      "name": "setTokenToPay",
      "outputs": [],
      "stateMutability": "nonpayable",
      "type": "function"
    },
    {
      "inputs": [
        {
          "internalType": "address",
          "name": "_cbdBuybackPool",
          "type": "address"
        }
      ],
      "name": "setCbdBuybackPool",
      "outputs": [],
      "stateMutability": "nonpayable",
      "type": "function"
    },
    {
      "inputs": [
        {
          "internalType": "address",
          "name": "_nft",
          "type": "address"
        }
      ],
      "name": "setNft",
      "outputs": [],
      "stateMutability": "nonpayable",
      "type": "function"
    },
    {
      "inputs": [
        {
          "internalType": "address",
          "name": "_mining",
          "type": "address"
        }
      ],
      "name": "setMining",
      "outputs": [],
      "stateMutability": "nonpayable",
      "type": "function"
    }
  ],
  "bytecode": "0x60806040523480156200001157600080fd5b5060405162002e5638038062002e56833981810160405281019062000037919062000214565b600062000049620001f560201b60201c565b9050806000806101000a81548173ffffffffffffffffffffffffffffffffffffffff021916908373ffffffffffffffffffffffffffffffffffffffff1602179055508073ffffffffffffffffffffffffffffffffffffffff16600073ffffffffffffffffffffffffffffffffffffffff167f8be0079c531659141344cd1fd0a4f28419497f9722a3daafe3b4186f6b6457e060405160405180910390a35083600560006101000a81548173ffffffffffffffffffffffffffffffffffffffff021916908373ffffffffffffffffffffffffffffffffffffffff16021790555082600360006101000a81548173ffffffffffffffffffffffffffffffffffffffff021916908373ffffffffffffffffffffffffffffffffffffffff16021790555081600460006101000a81548173ffffffffffffffffffffffffffffffffffffffff021916908373ffffffffffffffffffffffffffffffffffffffff16021790555080600660006101000a81548173ffffffffffffffffffffffffffffffffffffffff021916908373ffffffffffffffffffffffffffffffffffffffff16021790555050505050620002ce565b600033905090565b6000815190506200020e81620002b4565b92915050565b600080600080608085870312156200022b57600080fd5b60006200023b87828801620001fd565b94505060206200024e87828801620001fd565b93505060406200026187828801620001fd565b92505060606200027487828801620001fd565b91505092959194509250565b60006200028d8262000294565b9050919050565b600073ffffffffffffffffffffffffffffffffffffffff82169050919050565b620002bf8162000280565b8114620002cb57600080fd5b50565b612b7880620002de6000396000f3fe608060405234801561001057600080fd5b50600436106100cf5760003560e01c806379109baa1161008c578063edb46daf11610066578063edb46daf146101d6578063f2fde38b146101f2578063f3c133871461020e578063ffc645fd1461022a576100cf565b806379109baa146101805780638da5cb5b1461019c578063d96a094a146101ba576100cf565b80631cf7424f146100d45780632e2dc43e146101045780634ef5fb3814610122578063514fcac71461013e578063587b71a61461015a578063715018a614610176575b600080fd5b6100ee60048036038101906100e99190611f89565b610246565b6040516100fb91906125b4565b60405180910390f35b61010c610273565b6040516101199190612569565b60405180910390f35b61013c60048036038101906101379190611e91565b6104c8565b005b61015860048036038101906101539190611f89565b610588565b005b610174600480360381019061016f9190611fb2565b610843565b005b61017e610a12565b005b61019a60048036038101906101959190611fb2565b610b4c565b005b6101a4610ecd565b6040516101b19190612517565b60405180910390f35b6101d460048036038101906101cf9190611f89565b610ef6565b005b6101f060048036038101906101eb9190611e91565b6113b4565b005b61020c60048036038101906102079190611e91565b611474565b005b61022860048036038101906102239190611e91565b61161d565b005b610244600480360381019061023f9190611e91565b6116dd565b005b60006001600083815260200190815260200160002060040160009054906101000a900460ff169050919050565b6060600060028054905067ffffffffffffffff8111156102bc577f4e487b7100000000000000000000000000000000000000000000000000000000600052604160045260246000fd5b6040519080825280602002602001820160405280156102f557816020015b6102e2611d3c565b8152602001906001900390816102da5790505b50905060005b6002805490508110156104c057600060028281548110610344577f4e487b7100000000000000000000000000000000000000000000000000000000600052603260045260246000fd5b906000526020600020015490506000600160008381526020019081526020016000206040518060c0016040529081600082015481526020016001820160009054906101000a900473ffffffffffffffffffffffffffffffffffffffff1673ffffffffffffffffffffffffffffffffffffffff1673ffffffffffffffffffffffffffffffffffffffff1681526020016002820160009054906101000a900473ffffffffffffffffffffffffffffffffffffffff1673ffffffffffffffffffffffffffffffffffffffff1673ffffffffffffffffffffffffffffffffffffffff168152602001600382015481526020016004820160009054906101000a900460ff16151515158152602001600582015481525050905060006104638261179d565b90508085858151811061049f577f4e487b7100000000000000000000000000000000000000000000000000000000600052603260045260246000fd5b602002602001018190525050505080806104b8906129ff565b9150506102fb565b508091505090565b6104d061189f565b73ffffffffffffffffffffffffffffffffffffffff166104ee610ecd565b73ffffffffffffffffffffffffffffffffffffffff1614610544576040517f08c379a000000000000000000000000000000000000000000000000000000000815260040161053b90612671565b60405180910390fd5b80600360006101000a81548173ffffffffffffffffffffffffffffffffffffffff021916908373ffffffffffffffffffffffffffffffffffffffff16021790555050565b60003390506000600160008481526020019081526020016000206040518060c0016040529081600082015481526020016001820160009054906101000a900473ffffffffffffffffffffffffffffffffffffffff1673ffffffffffffffffffffffffffffffffffffffff1673ffffffffffffffffffffffffffffffffffffffff1681526020016002820160009054906101000a900473ffffffffffffffffffffffffffffffffffffffff1673ffffffffffffffffffffffffffffffffffffffff1673ffffffffffffffffffffffffffffffffffffffff168152602001600382015481526020016004820160009054906101000a900460ff1615151515815260200160058201548152505090508173ffffffffffffffffffffffffffffffffffffffff16600660009054906101000a900473ffffffffffffffffffffffffffffffffffffffff1673ffffffffffffffffffffffffffffffffffffffff16632d8a746e856040518263ffffffff1660e01b815260040161070691906126f1565b602060405180830381600087803b15801561072057600080fd5b505af1158015610734573d6000803e3d6000fd5b505050506040513d601f19601f820116820180604052508101906107589190611eba565b73ffffffffffffffffffffffffffffffffffffffff16146107ae576040517f08c379a00000000000000000000000000000000000000000000000000000000081526004016107a5906126b1565b60405180910390fd5b80608001516107f2576040517f08c379a00000000000000000000000000000000000000000000000000000000081526004016107e9906125f1565b60405180910390fd5b6107fb836118a7565b7f39c104aea874808456f38a2eb11be1f8301f301770e04279c716e335653f10f3838260400151836060015160405161083693929190612735565b60405180910390a1505050565b600033905060006001600085815260200190815260200160002090508173ffffffffffffffffffffffffffffffffffffffff16600660009054906101000a900473ffffffffffffffffffffffffffffffffffffffff1673ffffffffffffffffffffffffffffffffffffffff16632d8a746e866040518263ffffffff1660e01b81526004016108d191906126f1565b602060405180830381600087803b1580156108eb57600080fd5b505af11580156108ff573d6000803e3d6000fd5b505050506040513d601f19601f820116820180604052508101906109239190611eba565b73ffffffffffffffffffffffffffffffffffffffff1614610979576040517f08c379a0000000000000000000000000000000000000000000000000000000008152600401610970906126b1565b60405180910390fd5b8060040160009054906101000a900460ff166109ca576040517f08c379a00000000000000000000000000000000000000000000000000000000081526004016109c1906125f1565b60405180910390fd5b8281600301819055507fe394f2eba5254ad4232e3a39dfbba243aae3b4e08196a9f690c10b53e8d9ccca8484604051610a049291906127b1565b60405180910390a150505050565b610a1a61189f565b73ffffffffffffffffffffffffffffffffffffffff16610a38610ecd565b73ffffffffffffffffffffffffffffffffffffffff1614610a8e576040517f08c379a0000000000000000000000000000000000000000000000000000000008152600401610a8590612671565b60405180910390fd5b600073ffffffffffffffffffffffffffffffffffffffff1660008054906101000a900473ffffffffffffffffffffffffffffffffffffffff1673ffffffffffffffffffffffffffffffffffffffff167f8be0079c531659141344cd1fd0a4f28419497f9722a3daafe3b4186f6b6457e060405160405180910390a360008060006101000a81548173ffffffffffffffffffffffffffffffffffffffff021916908373ffffffffffffffffffffffffffffffffffffffff160217905550565b60003390508073ffffffffffffffffffffffffffffffffffffffff16600660009054906101000a900473ffffffffffffffffffffffffffffffffffffffff1673ffffffffffffffffffffffffffffffffffffffff16632d8a746e856040518263ffffffff1660e01b8152600401610bc391906126f1565b602060405180830381600087803b158015610bdd57600080fd5b505af1158015610bf1573d6000803e3d6000fd5b505050506040513d601f19601f82011682018060405250810190610c159190611eba565b73ffffffffffffffffffffffffffffffffffffffff1614610c6b576040517f08c379a0000000000000000000000000000000000000000000000000000000008152600401610c62906126b1565b60405180910390fd5b6000600460009054906101000a900473ffffffffffffffffffffffffffffffffffffffff1673ffffffffffffffffffffffffffffffffffffffff1663589a1743856040518263ffffffff1660e01b8152600401610cc891906126f1565b60206040518083038186803b158015610ce057600080fd5b505afa158015610cf4573d6000803e3d6000fd5b505050506040513d601f19601f82011682018060405250810190610d189190611eba565b905060006040518060c001604052808681526020018373ffffffffffffffffffffffffffffffffffffffff1681526020018473ffffffffffffffffffffffffffffffffffffffff168152602001858152602001600115158152602001600280549050815250905080600160008781526020019081526020016000206000820151816000015560208201518160010160006101000a81548173ffffffffffffffffffffffffffffffffffffffff021916908373ffffffffffffffffffffffffffffffffffffffff16021790555060408201518160020160006101000a81548173ffffffffffffffffffffffffffffffffffffffff021916908373ffffffffffffffffffffffffffffffffffffffff1602179055506060820151816003015560808201518160040160006101000a81548160ff02191690831515021790555060a0820151816005015590505060028590806001815401808255809150506001900390600052602060002001600090919091909150557fbcf966caa5fda2f4f21660f7b7ff385f73863c764e16bef0477fbdec09de6abf858486604051610ebe93929190612735565b60405180910390a15050505050565b60008060009054906101000a900473ffffffffffffffffffffffffffffffffffffffff16905090565b60003390506000600160008481526020019081526020016000206040518060c0016040529081600082015481526020016001820160009054906101000a900473ffffffffffffffffffffffffffffffffffffffff1673ffffffffffffffffffffffffffffffffffffffff1673ffffffffffffffffffffffffffffffffffffffff1681526020016002820160009054906101000a900473ffffffffffffffffffffffffffffffffffffffff1673ffffffffffffffffffffffffffffffffffffffff1673ffffffffffffffffffffffffffffffffffffffff168152602001600382015481526020016004820160009054906101000a900460ff1615151515815260200160058201548152505090508173ffffffffffffffffffffffffffffffffffffffff16600660009054906101000a900473ffffffffffffffffffffffffffffffffffffffff1673ffffffffffffffffffffffffffffffffffffffff16632d8a746e856040518263ffffffff1660e01b815260040161107491906126f1565b602060405180830381600087803b15801561108e57600080fd5b505af11580156110a2573d6000803e3d6000fd5b505050506040513d601f19601f820116820180604052508101906110c69190611eba565b73ffffffffffffffffffffffffffffffffffffffff16141561111d576040517f08c379a000000000000000000000000000000000000000000000000000000000815260040161111490612651565b60405180910390fd5b8060800151611161576040517f08c379a0000000000000000000000000000000000000000000000000000000008152600401611158906125f1565b60405180910390fd5b600060646062836060015161117691906128e8565b61118091906128b7565b9050600060028284606001516111969190612942565b6111a091906128b7565b90506000818385606001516111b59190612942565b6111bf9190612942565b905061121433856040015185600560009054906101000a900473ffffffffffffffffffffffffffffffffffffffff1673ffffffffffffffffffffffffffffffffffffffff16611a46909392919063ffffffff16565b61128533600360009054906101000a900473ffffffffffffffffffffffffffffffffffffffff1684600560009054906101000a900473ffffffffffffffffffffffffffffffffffffffff1673ffffffffffffffffffffffffffffffffffffffff16611a46909392919063ffffffff16565b6112d833856020015183600560009054906101000a900473ffffffffffffffffffffffffffffffffffffffff1673ffffffffffffffffffffffffffffffffffffffff16611a46909392919063ffffffff16565b600660009054906101000a900473ffffffffffffffffffffffffffffffffffffffff1673ffffffffffffffffffffffffffffffffffffffff1663cec0564287876040518363ffffffff1660e01b815260040161133592919061270c565b600060405180830381600087803b15801561134f57600080fd5b505af1158015611363573d6000803e3d6000fd5b505050507f2cd56924b138c2b8cfa1a5e5b42e5a5eac31023ad134ffff8803f556a9f8dd608685604001518660600151886040516113a4949392919061276c565b60405180910390a1505050505050565b6113bc61189f565b73ffffffffffffffffffffffffffffffffffffffff166113da610ecd565b73ffffffffffffffffffffffffffffffffffffffff1614611430576040517f08c379a000000000000000000000000000000000000000000000000000000000815260040161142790612671565b60405180910390fd5b80600660006101000a81548173ffffffffffffffffffffffffffffffffffffffff021916908373ffffffffffffffffffffffffffffffffffffffff16021790555050565b61147c61189f565b73ffffffffffffffffffffffffffffffffffffffff1661149a610ecd565b73ffffffffffffffffffffffffffffffffffffffff16146114f0576040517f08c379a00000000000000000000000000000000000000000000000000000000081526004016114e790612671565b60405180910390fd5b600073ffffffffffffffffffffffffffffffffffffffff168173ffffffffffffffffffffffffffffffffffffffff161415611560576040517f08c379a000000000000000000000000000000000000000000000000000000000815260040161155790612611565b60405180910390fd5b8073ffffffffffffffffffffffffffffffffffffffff1660008054906101000a900473ffffffffffffffffffffffffffffffffffffffff1673ffffffffffffffffffffffffffffffffffffffff167f8be0079c531659141344cd1fd0a4f28419497f9722a3daafe3b4186f6b6457e060405160405180910390a3806000806101000a81548173ffffffffffffffffffffffffffffffffffffffff021916908373ffffffffffffffffffffffffffffffffffffffff16021790555050565b61162561189f565b73ffffffffffffffffffffffffffffffffffffffff16611643610ecd565b73ffffffffffffffffffffffffffffffffffffffff1614611699576040517f08c379a000000000000000000000000000000000000000000000000000000000815260040161169090612671565b60405180910390fd5b80600460006101000a81548173ffffffffffffffffffffffffffffffffffffffff021916908373ffffffffffffffffffffffffffffffffffffffff16021790555050565b6116e561189f565b73ffffffffffffffffffffffffffffffffffffffff16611703610ecd565b73ffffffffffffffffffffffffffffffffffffffff1614611759576040517f08c379a000000000000000000000000000000000000000000000000000000000815260040161175090612671565b60405180910390fd5b80600560006101000a81548173ffffffffffffffffffffffffffffffffffffffff021916908373ffffffffffffffffffffffffffffffffffffffff16021790555050565b6117a5611d3c565b60006040518060400160405280848152602001604051806020016040528060008152508152509050600083600001511461189657600460009054906101000a900473ffffffffffffffffffffffffffffffffffffffff1673ffffffffffffffffffffffffffffffffffffffff1663c87b56dd84600001516040518263ffffffff1660e01b815260040161183891906126f1565b60006040518083038186803b15801561185057600080fd5b505afa158015611864573d6000803e3d6000fd5b505050506040513d6000823e3d601f19601f8201168201806040525081019061188d9190611f48565b81602001819052505b80915050919050565b600033905090565b600160008281526020019081526020016000206000808201600090556001820160006101000a81549073ffffffffffffffffffffffffffffffffffffffff02191690556002820160006101000a81549073ffffffffffffffffffffffffffffffffffffffff021916905560038201600090556004820160006101000a81549060ff021916905560058201600090555050600080600273__UintArray_____________________________63263f04749091836040518363ffffffff1660e01b815260040161197692919061258b565b604080518083038186803b15801561198d57600080fd5b505af41580156119a1573d6000803e3d6000fd5b505050506040513d601f19601f820116820180604052508101906119c59190611f0c565b80925081935050508115611a4157600060028261ffff1681548110611a13577f4e487b7100000000000000000000000000000000000000000000000000000000600052603260045260246000fd5b906000526020600020015490508161ffff166001600083815260200190815260200160002060050181905550505b505050565b611ac9846323b872dd60e01b858585604051602401611a6793929190612532565b604051602081830303815290604052907bffffffffffffffffffffffffffffffffffffffffffffffffffffffff19166020820180517bffffffffffffffffffffffffffffffffffffffffffffffffffffffff8381831617835250505050611acf565b50505050565b6000611b31826040518060400160405280602081526020017f5361666545524332303a206c6f772d6c6576656c2063616c6c206661696c65648152508573ffffffffffffffffffffffffffffffffffffffff16611b969092919063ffffffff16565b9050600081511115611b915780806020019051810190611b519190611ee3565b611b90576040517f08c379a0000000000000000000000000000000000000000000000000000000008152600401611b87906126d1565b60405180910390fd5b5b505050565b6060611ba58484600085611bae565b90509392505050565b606082471015611bf3576040517f08c379a0000000000000000000000000000000000000000000000000000000008152600401611bea90612631565b60405180910390fd5b611bfc85611cc2565b611c3b576040517f08c379a0000000000000000000000000000000000000000000000000000000008152600401611c3290612691565b60405180910390fd5b6000808673ffffffffffffffffffffffffffffffffffffffff168587604051611c649190612500565b60006040518083038185875af1925050503d8060008114611ca1576040519150601f19603f3d011682016040523d82523d6000602084013e611ca6565b606091505b5091509150611cb6828286611cd5565b92505050949350505050565b600080823b905060008111915050919050565b60608315611ce557829050611d35565b600083511115611cf85782518084602001fd5b816040517f08c379a0000000000000000000000000000000000000000000000000000000008152600401611d2c91906125cf565b60405180910390fd5b9392505050565b6040518060400160405280611d4f611d5c565b8152602001606081525090565b6040518060c0016040528060008152602001600073ffffffffffffffffffffffffffffffffffffffff168152602001600073ffffffffffffffffffffffffffffffffffffffff16815260200160008152602001600015158152602001600081525090565b6000611dd3611dce8461280b565b6127da565b905082815260208101848484011115611deb57600080fd5b611df68482856129cc565b509392505050565b600081359050611e0d81612ae6565b92915050565b600081519050611e2281612ae6565b92915050565b600081519050611e3781612afd565b92915050565b600082601f830112611e4e57600080fd5b8151611e5e848260208601611dc0565b91505092915050565b600081519050611e7681612b14565b92915050565b600081359050611e8b81612b2b565b92915050565b600060208284031215611ea357600080fd5b6000611eb184828501611dfe565b91505092915050565b600060208284031215611ecc57600080fd5b6000611eda84828501611e13565b91505092915050565b600060208284031215611ef557600080fd5b6000611f0384828501611e28565b91505092915050565b60008060408385031215611f1f57600080fd5b6000611f2d85828601611e28565b9250506020611f3e85828601611e67565b9150509250929050565b600060208284031215611f5a57600080fd5b600082015167ffffffffffffffff811115611f7457600080fd5b611f8084828501611e3d565b91505092915050565b600060208284031215611f9b57600080fd5b6000611fa984828501611e7c565b91505092915050565b60008060408385031215611fc557600080fd5b6000611fd385828601611e7c565b9250506020611fe485828601611e7c565b9150509250929050565b6000611ffa838361241b565b905092915050565b61200b81612976565b82525050565b61201a81612976565b82525050565b600061202b8261284b565b6120358185612879565b9350836020820285016120478561283b565b8060005b8581101561208357848403895281516120648582611fee565b945061206f8361286c565b925060208a0199505060018101905061204b565b50829750879550505050505092915050565b8082525050565b6120a581612988565b82525050565b6120b481612988565b82525050565b60006120c582612856565b6120cf818561288a565b93506120df8185602086016129cc565b80840191505092915050565b60006120f682612861565b6121008185612895565b93506121108185602086016129cc565b61211981612ad5565b840191505092915050565b600061212f82612861565b61213981856128a6565b93506121498185602086016129cc565b61215281612ad5565b840191505092915050565b600061216a6026836128a6565b91507f4e4654537761703a205468697320746f6b656e206973206e6f7420696e20736560008301527f6c6c696e672e00000000000000000000000000000000000000000000000000006020830152604082019050919050565b60006121d06026836128a6565b91507f4f776e61626c653a206e6577206f776e657220697320746865207a65726f206160008301527f64647265737300000000000000000000000000000000000000000000000000006020830152604082019050919050565b60006122366026836128a6565b91507f416464726573733a20696e73756666696369656e742062616c616e636520666f60008301527f722063616c6c00000000000000000000000000000000000000000000000000006020830152604082019050919050565b600061229c6023836128a6565b91507f4e4654537761703a20596f752061726520616c726561647920746865206f776e60008301527f65722e00000000000000000000000000000000000000000000000000000000006020830152604082019050919050565b60006123026020836128a6565b91507f4f776e61626c653a2063616c6c6572206973206e6f7420746865206f776e65726000830152602082019050919050565b6000612342601d836128a6565b91507f416464726573733a2063616c6c20746f206e6f6e2d636f6e74726163740000006000830152602082019050919050565b6000612382601f836128a6565b91507f4e4654537761703a20596f7520646f6e2774206f776e20746865206e66742e006000830152602082019050919050565b60006123c2602a836128a6565b91507f5361666545524332303a204552433230206f7065726174696f6e20646964206e60008301527f6f742073756363656564000000000000000000000000000000000000000000006020830152604082019050919050565b600060e0830160008301516124336000860182612458565b50602083015184820360c086015261244b82826120eb565b9150508091505092915050565b60c08201600082015161246e60008501826124e2565b5060208201516124816020850182612002565b5060408201516124946040850182612002565b5060608201516124a760608501826124e2565b5060808201516124ba608085018261209c565b5060a08201516124cd60a08501826124e2565b50505050565b6124dc81612994565b82525050565b6124eb816129c2565b82525050565b6124fa816129c2565b82525050565b600061250c82846120ba565b915081905092915050565b600060208201905061252c6000830184612011565b92915050565b60006060820190506125476000830186612011565b6125546020830185612011565b61256160408301846124f1565b949350505050565b600060208201905081810360008301526125838184612020565b905092915050565b60006040820190506125a06000830185612095565b6125ad60208301846124d3565b9392505050565b60006020820190506125c960008301846120ab565b92915050565b600060208201905081810360008301526125e98184612124565b905092915050565b6000602082019050818103600083015261260a8161215d565b9050919050565b6000602082019050818103600083015261262a816121c3565b9050919050565b6000602082019050818103600083015261264a81612229565b9050919050565b6000602082019050818103600083015261266a8161228f565b9050919050565b6000602082019050818103600083015261268a816122f5565b9050919050565b600060208201905081810360008301526126aa81612335565b9050919050565b600060208201905081810360008301526126ca81612375565b9050919050565b600060208201905081810360008301526126ea816123b5565b9050919050565b600060208201905061270660008301846124f1565b92915050565b600060408201905061272160008301856124f1565b61272e6020830184612011565b9392505050565b600060608201905061274a60008301866124f1565b6127576020830185612011565b61276460408301846124f1565b949350505050565b600060808201905061278160008301876124f1565b61278e6020830186612011565b61279b60408301856124f1565b6127a86060830184612011565b95945050505050565b60006040820190506127c660008301856124f1565b6127d360208301846124f1565b9392505050565b6000604051905081810181811067ffffffffffffffff8211171561280157612800612aa6565b5b8060405250919050565b600067ffffffffffffffff82111561282657612825612aa6565b5b601f19601f8301169050602081019050919050565b6000819050602082019050919050565b600081519050919050565b600081519050919050565b600081519050919050565b6000602082019050919050565b600082825260208201905092915050565b600081905092915050565b600082825260208201905092915050565b600082825260208201905092915050565b60006128c2826129c2565b91506128cd836129c2565b9250826128dd576128dc612a77565b5b828204905092915050565b60006128f3826129c2565b91506128fe836129c2565b9250817fffffffffffffffffffffffffffffffffffffffffffffffffffffffffffffffff048311821515161561293757612936612a48565b5b828202905092915050565b600061294d826129c2565b9150612958836129c2565b92508282101561296b5761296a612a48565b5b828203905092915050565b6000612981826129a2565b9050919050565b60008115159050919050565b600061ffff82169050919050565b600073ffffffffffffffffffffffffffffffffffffffff82169050919050565b6000819050919050565b60005b838110156129ea5780820151818401526020810190506129cf565b838111156129f9576000848401525b50505050565b6000612a0a826129c2565b91507fffffffffffffffffffffffffffffffffffffffffffffffffffffffffffffffff821415612a3d57612a3c612a48565b5b600182019050919050565b7f4e487b7100000000000000000000000000000000000000000000000000000000600052601160045260246000fd5b7f4e487b7100000000000000000000000000000000000000000000000000000000600052601260045260246000fd5b7f4e487b7100000000000000000000000000000000000000000000000000000000600052604160045260246000fd5b6000601f19601f8301169050919050565b612aef81612976565b8114612afa57600080fd5b50565b612b0681612988565b8114612b1157600080fd5b50565b612b1d81612994565b8114612b2857600080fd5b50565b612b34816129c2565b8114612b3f57600080fd5b5056fea26469706673582212208bf3d58cb3dd8e6b2cc06b6201b6e2af04fccf9ec34ba6ef7c3dbc1192c068f564736f6c63430008000033",
  "immutableReferences": {},
  "source": "// SPDX-License-Identifier: GPL-3.0\npragma solidity ^0.8.0;\n\nimport \"@openzeppelin/contracts/access/Ownable.sol\";\nimport \"@openzeppelin/contracts/token/ERC20/IERC20.sol\";\nimport \"@openzeppelin/contracts/token/ERC20/utils/SafeERC20.sol\";\nimport \"./interface/ICoinBidCreation.sol\";\nimport \"./interface/IMining.sol\";\nimport \"./library/UintArray.sol\";\n\ncontract NFTSwap is Ownable {\n\n    using SafeERC20 for IERC20;\n    using UintArray for uint[];\n\n    // Represents an swap on an NFT\n    struct Swap {\n        uint tokenId;\n        address creator;\n        // Current owner of NFT\n        address seller;\n        uint price;\n        bool used;\n        uint arrIndex;\n    }\n\n    struct NFTInfo {\n        Swap swap;\n        string tokenURI;\n    }\n\n    // Map from NFT ID to their corresponding swap.\n    mapping (uint256 => Swap) nftIdToSwap;\n\n    uint[] nftInSwapArr;\n\n    // CBD buy back account.\n    address cbdBuybackPool;\n\n    ICoinBidCreation internal nft;\n\n    // TODO set value\n    IERC20 tokenToPay;\n\n    IMining mining;\n\n    event NFTOrderCreated(uint _tokenId, address _seller, uint _price);\n    event NFTOrderCanceled(uint _tokenId, address _seller, uint _price);\n    event NFTOrderUpdate(uint _tokenId, uint _price);\n    event NFTOrderBought(uint _tokenId, address _seller, uint _price, address _buyer);\n\n    constructor(address _tokenToPay, address _cbdBuybackPool, address _nft, address _mining) {\n        tokenToPay = IERC20(_tokenToPay);\n        cbdBuybackPool = _cbdBuybackPool;\n        nft = ICoinBidCreation(_nft);\n        mining = IMining(_mining);\n    }\n\n    function getNfTInfo(Swap memory _swap) private view returns(NFTInfo memory) {\n        NFTInfo memory info = NFTInfo(_swap, \"\");\n        if(_swap.tokenId != 0) {\n            info.tokenURI = nft.tokenURI(_swap.tokenId);\n        }\n        return info;\n    }\n\n    function getOrders() public view returns(NFTInfo[] memory) {\n        NFTInfo[] memory infoArr = new NFTInfo[](nftInSwapArr.length);\n        for(uint i = 0; i < nftInSwapArr.length; i++) {\n            uint tokenId = nftInSwapArr[i];\n            Swap memory swap = nftIdToSwap[tokenId];\n            NFTInfo memory info = getNfTInfo(swap);\n            infoArr[i] = info;\n        }\n        return infoArr;\n    }\n\n    function createOrder(uint _tokenId, uint _price) external {\n        address curSender = msg.sender;\n        require(mining.ownerOfNFT(_tokenId) == curSender, \"NFTSwap: You don't own the nft.\");\n        address creator = nft.creatorOf(_tokenId);\n        Swap memory swap = Swap(_tokenId, creator, curSender, _price, true, nftInSwapArr.length);\n        nftIdToSwap[_tokenId] = swap;\n        nftInSwapArr.push(_tokenId);\n        emit NFTOrderCreated(_tokenId, curSender, _price);\n    }\n\n    function cancelOrder(uint _tokenId) external {\n        address curSender = msg.sender;\n        Swap memory swap = nftIdToSwap[_tokenId];\n        require(mining.ownerOfNFT(_tokenId) == curSender, \"NFTSwap: You don't own the nft.\");\n        require(swap.used, \"NFTSwap: This token is not in selling.\");\n\n        deleteOrder(_tokenId);\n        emit NFTOrderCanceled(_tokenId, swap.seller, swap.price);\n    }\n\n    function updateOrder(uint _tokenId, uint _price) external {\n        address curSender = msg.sender;\n        Swap storage swap = nftIdToSwap[_tokenId];\n        require(mining.ownerOfNFT(_tokenId) == curSender, \"NFTSwap: You don't own the nft.\");\n        require(swap.used, \"NFTSwap: This token is not in selling.\");\n\n        swap.price = _price;\n        emit NFTOrderUpdate(_tokenId, _price);\n    }\n\n    function buy(uint _tokenId) external {\n        address curSender = msg.sender;\n        Swap memory swap = nftIdToSwap[_tokenId];\n        require(mining.ownerOfNFT(_tokenId) != curSender, \"NFTSwap: You are already the owner.\");\n        require(swap.used, \"NFTSwap: This token is not in selling.\");\n\n        uint amountToSeller = swap.price * 98 / 100;\n        uint amountToPool = (swap.price - amountToSeller) / 2; //swap.price * 1 / 100;\n        uint amountToCreator = swap.price - amountToSeller - amountToPool; //swap.price * 1 / 100;\n\n        tokenToPay.safeTransferFrom(msg.sender, swap.seller, amountToSeller);\n        tokenToPay.safeTransferFrom(msg.sender, cbdBuybackPool, amountToPool);\n        tokenToPay.safeTransferFrom(msg.sender, swap.creator, amountToCreator);\n        mining.transferCreation(_tokenId, curSender);\n        emit NFTOrderBought(_tokenId, swap.seller, swap.price, curSender);\n    }\n\n    function deleteOrder(uint _tokenId) private {\n        delete nftIdToSwap[_tokenId];\n        bool isChanged;\n        uint16 index;\n        (isChanged, index) = nftInSwapArr.unsafeDelete(index);\n        if(isChanged) {\n            uint id = nftInSwapArr[index];\n            nftIdToSwap[id].arrIndex = index;\n        }\n    }\n\n    function isInOrder(uint _tokenId) public view returns(bool) {\n        return nftIdToSwap[_tokenId].used;\n    }\n\n    function setTokenToPay(address _token) public onlyOwner {\n        tokenToPay = IERC20(_token);\n    }\n\n    function setCbdBuybackPool(address _cbdBuybackPool) public onlyOwner {\n        cbdBuybackPool = _cbdBuybackPool;\n    }\n\n    function setNft(address _nft) public onlyOwner {\n        nft = ICoinBidCreation(_nft);\n    }\n\n    function setMining(address _mining) public onlyOwner {\n        mining = IMining(_mining);\n    }\n}",
  "sourcePath": "/Users/iwan/code/coinbid-cointract/contracts/8_NFTSwap.sol",
  "compiler": {
    "name": "solc",
    "version": "0.8.0+commit.c7dfd78e.Emscripten.clang"
  },
  "schemaVersion": "3.4.1",
  "updatedAt": "2021-07-04T15:59:23.105Z",
  "networkType": "ethereum",
  "devdoc": {
    "kind": "dev",
    "methods": {
      "owner()": {
        "details": "Returns the address of the current owner."
      },
      "renounceOwnership()": {
        "details": "Leaves the contract without owner. It will not be possible to call `onlyOwner` functions anymore. Can only be called by the current owner. NOTE: Renouncing ownership will leave the contract without an owner, thereby removing any functionality that is only available to the owner."
      },
      "transferOwnership(address)": {
        "details": "Transfers ownership of the contract to a new account (`newOwner`). Can only be called by the current owner."
      }
    },
    "version": 1
  },
  "userdoc": {
    "kind": "user",
    "methods": {},
    "version": 1
  }
}